{
  "_format": "hh-sol-artifact-1",
  "contractName": "Registration",
  "sourceName": "contracts/Registration.sol",
  "abi": [
    {
      "anonymous": false,
      "inputs": [
        {
          "indexed": true,
          "internalType": "address",
          "name": "previousOwner",
          "type": "address"
        },
        {
          "indexed": true,
          "internalType": "address",
          "name": "newOwner",
          "type": "address"
        }
      ],
      "name": "OwnershipTransferred",
      "type": "event"
    },
    {
      "anonymous": false,
      "inputs": [
        {
          "indexed": true,
          "internalType": "address",
          "name": "_loanBorrower",
          "type": "address"
        },
        {
          "indexed": true,
          "internalType": "uint256",
          "name": "_success",
          "type": "uint256"
        }
      ],
      "name": "loanBorrowerRegistered",
      "type": "event"
    },
    {
      "anonymous": false,
      "inputs": [
        {
          "indexed": true,
          "internalType": "address",
          "name": "_loanProvider",
          "type": "address"
        },
        {
          "indexed": true,
          "internalType": "uint256",
          "name": "_success",
          "type": "uint256"
        }
      ],
      "name": "loanProviderRegistered",
      "type": "event"
    },
    {
      "inputs": [],
      "name": "getAllLoanBorrowersAddress",
      "outputs": [
        {
          "internalType": "address[]",
          "name": "allLoanBorrowers",
          "type": "address[]"
        }
      ],
      "stateMutability": "view",
      "type": "function"
    },
    {
      "inputs": [],
      "name": "getAllLoanProvidersAddress",
      "outputs": [
        {
          "internalType": "address[]",
          "name": "allLoanProviders",
          "type": "address[]"
        }
      ],
      "stateMutability": "view",
      "type": "function"
    },
    {
      "inputs": [
        {
          "internalType": "address",
          "name": "_loanBorrower",
          "type": "address"
        }
      ],
      "name": "isLoanBorrowerRegistered",
      "outputs": [
        {
          "internalType": "bool",
          "name": "registerLoanBorrowerState",
          "type": "bool"
        }
      ],
      "stateMutability": "view",
      "type": "function"
    },
    {
      "inputs": [
        {
          "internalType": "address",
          "name": "_loanProvider",
          "type": "address"
        }
      ],
      "name": "isLoanProviderRegistered",
      "outputs": [
        {
          "internalType": "bool",
          "name": "registerLoanProviderState",
          "type": "bool"
        }
      ],
      "stateMutability": "view",
      "type": "function"
    },
    {
      "inputs": [],
      "name": "owner",
      "outputs": [
        {
          "internalType": "address",
          "name": "",
          "type": "address"
        }
      ],
      "stateMutability": "view",
      "type": "function"
    },
    {
      "inputs": [
        {
          "internalType": "string",
          "name": "_firstName",
          "type": "string"
        },
        {
          "internalType": "string",
          "name": "_lastName",
          "type": "string"
        },
        {
          "internalType": "string",
          "name": "_businessName",
          "type": "string"
        }
      ],
      "name": "registerLoanBorrower",
      "outputs": [],
      "stateMutability": "nonpayable",
      "type": "function"
    },
    {
      "inputs": [
        {
          "internalType": "string",
          "name": "_firstName",
          "type": "string"
        },
        {
          "internalType": "string",
          "name": "_lastName",
          "type": "string"
        }
      ],
      "name": "registerLoanProvider",
      "outputs": [],
      "stateMutability": "nonpayable",
      "type": "function"
    },
    {
      "inputs": [],
      "name": "renounceOwnership",
      "outputs": [],
      "stateMutability": "nonpayable",
      "type": "function"
    },
    {
      "inputs": [
        {
          "internalType": "address",
          "name": "_loanBorrower",
          "type": "address"
        }
      ],
      "name": "returnLoanBorrowerDetails",
      "outputs": [
        {
          "components": [
            {
              "internalType": "string",
              "name": "first_name",
              "type": "string"
            },
            {
              "internalType": "string",
              "name": "last_name",
              "type": "string"
            },
            {
              "internalType": "string",
              "name": "business_name",
              "type": "string"
            },
            {
              "internalType": "address",
              "name": "wallet_address",
              "type": "address"
            }
          ],
          "internalType": "struct Registration.loanBorrower",
          "name": "lB",
          "type": "tuple"
        }
      ],
      "stateMutability": "view",
      "type": "function"
    },
    {
      "inputs": [
        {
          "internalType": "address",
          "name": "_loanProvider",
          "type": "address"
        }
      ],
      "name": "returnLoanProviderDetails",
      "outputs": [
        {
          "components": [
            {
              "internalType": "string",
              "name": "first_name",
              "type": "string"
            },
            {
              "internalType": "string",
              "name": "last_name",
              "type": "string"
            },
            {
              "internalType": "address",
              "name": "wallet_address",
              "type": "address"
            }
          ],
          "internalType": "struct Registration.loanProvider",
          "name": "lP",
          "type": "tuple"
        }
      ],
      "stateMutability": "view",
      "type": "function"
    },
    {
      "inputs": [
        {
          "internalType": "address",
          "name": "newOwner",
          "type": "address"
        }
      ],
      "name": "transferOwnership",
      "outputs": [],
      "stateMutability": "nonpayable",
      "type": "function"
    }
  ],
  "bytecode": "0x608060405234801561001057600080fd5b5061001a3361001f565b61006f565b600080546001600160a01b038381166001600160a01b0319831681178455604051919092169283917f8be0079c531659141344cd1fd0a4f28419497f9722a3daafe3b4186f6b6457e09190a35050565b610e368061007e6000396000f3fe608060405234801561001057600080fd5b50600436106100a95760003560e01c806388369bf41161007157806388369bf4146101505780638da5cb5b14610165578063b5f4488514610180578063be087ef8146101ac578063e25c220a146101b4578063f2fde38b146101c757600080fd5b80632e588f8e146100ae57806350d5740f146100d7578063715018a6146101135780637c6ce3b01461011d57806381b262fa1461013d575b600080fd5b6100c16100bc366004610a56565b6101da565b6040516100ce9190610ad3565b60405180910390f35b6101036100e5366004610a56565b6001600160a01b031660009081526004602052604090205460ff1690565b60405190151581526020016100ce565b61011b610401565b005b61013061012b366004610a56565b610415565b6040516100ce9190610b4d565b61011b61014b366004610c4b565b610592565b6101586106b0565b6040516100ce9190610caf565b6000546040516001600160a01b0390911681526020016100ce565b61010361018e366004610a56565b6001600160a01b031660009081526003602052604090205460ff1690565b610158610712565b61011b6101c2366004610cfc565b610772565b61011b6101d5366004610a56565b61089a565b61020e604051806080016040528060608152602001606081526020016060815260200160006001600160a01b031681525090565b6001600160a01b0382166000908152600660205260409081902081516080810190925280548290829061024090610d84565b80601f016020809104026020016040519081016040528092919081815260200182805461026c90610d84565b80156102b95780601f1061028e576101008083540402835291602001916102b9565b820191906000526020600020905b81548152906001019060200180831161029c57829003601f168201915b505050505081526020016001820180546102d290610d84565b80601f01602080910402602001604051908101604052809291908181526020018280546102fe90610d84565b801561034b5780601f106103205761010080835404028352916020019161034b565b820191906000526020600020905b81548152906001019060200180831161032e57829003601f168201915b5050505050815260200160028201805461036490610d84565b80601f016020809104026020016040519081016040528092919081815260200182805461039090610d84565b80156103dd5780601f106103b2576101008083540402835291602001916103dd565b820191906000526020600020905b8154815290600101906020018083116103c057829003601f168201915b5050509183525050600391909101546001600160a01b031660209091015292915050565b610409610913565b610413600061096d565b565b604080516060808201835280825260208201526000918101919091526001600160a01b0382166000908152600560205260409081902081516060810190925280548290829061046390610d84565b80601f016020809104026020016040519081016040528092919081815260200182805461048f90610d84565b80156104dc5780601f106104b1576101008083540402835291602001916104dc565b820191906000526020600020905b8154815290600101906020018083116104bf57829003601f168201915b505050505081526020016001820180546104f590610d84565b80601f016020809104026020016040519081016040528092919081815260200182805461052190610d84565b801561056e5780601f106105435761010080835404028352916020019161056e565b820191906000526020600020905b81548152906001019060200180831161055157829003601f168201915b5050509183525050600291909101546001600160a01b031660209091015292915050565b3360009081526003602052604090205460ff16156105cb5760405162461bcd60e51b81526004016105c290610dbf565b60405180910390fd5b33600090815260056020908152604090912083516105eb928501906109bd565b503360009081526005602090815260409091208251610612926001909201918401906109bd565b5033600081815260056020908152604080832060020180546001600160a01b031990811686179091556001805480820182557fb10e2d527612073b26eecdfd717e6a320cf44b4afac2b0732d9fcbe2b7fa0cf601805490921686179091556003909252808320805460ff19169092179091555160c892917f7e6cfaabcdf12719b3024d4ec8f4782fc82cf7f55dcc561f05a79c822841607291a35050565b6060600180548060200260200160405190810160405280929190818152602001828054801561070857602002820191906000526020600020905b81546001600160a01b031681526001909101906020018083116106ea575b5050505050905090565b60606002805480602002602001604051908101604052809291908181526020018280548015610708576020028201919060005260206000209081546001600160a01b031681526001909101906020018083116106ea575050505050905090565b3360009081526004602052604090205460ff16156107a25760405162461bcd60e51b81526004016105c290610dbf565b33600090815260066020908152604090912084516107c2928601906109bd565b5033600090815260066020908152604090912083516107e9926001909201918501906109bd565b503360009081526006602090815260409091208251610810926002909201918401906109bd565b506002805460018181019092557f405787fa12a823e0f2b7631cc41b3ba8828b3321ca811111fa75cd3aa3bb5ace0180546001600160a01b03191633908117909155600081815260046020526040808220805460ff1916909417909355915160c8927f11fefbf2471c4d11662b6819bd34b6803f76a664c4e6da8f6baee70451ba14a691a3505050565b6108a2610913565b6001600160a01b0381166109075760405162461bcd60e51b815260206004820152602660248201527f4f776e61626c653a206e6577206f776e657220697320746865207a65726f206160448201526564647265737360d01b60648201526084016105c2565b6109108161096d565b50565b6000546001600160a01b031633146104135760405162461bcd60e51b815260206004820181905260248201527f4f776e61626c653a2063616c6c6572206973206e6f7420746865206f776e657260448201526064016105c2565b600080546001600160a01b038381166001600160a01b0319831681178455604051919092169283917f8be0079c531659141344cd1fd0a4f28419497f9722a3daafe3b4186f6b6457e09190a35050565b8280546109c990610d84565b90600052602060002090601f0160209004810192826109eb5760008555610a31565b82601f10610a0457805160ff1916838001178555610a31565b82800160010185558215610a31579182015b82811115610a31578251825591602001919060010190610a16565b50610a3d929150610a41565b5090565b5b80821115610a3d5760008155600101610a42565b600060208284031215610a6857600080fd5b81356001600160a01b0381168114610a7f57600080fd5b9392505050565b6000815180845260005b81811015610aac57602081850181015186830182015201610a90565b81811115610abe576000602083870101525b50601f01601f19169290920160200192915050565b602081526000825160806020840152610aef60a0840182610a86565b90506020840151601f1980858403016040860152610b0d8383610a86565b9250604086015191508085840301606086015250610b2b8282610a86565b606095909501516001600160a01b031660809490940193909352509192915050565b602081526000825160606020840152610b696080840182610a86565b90506020840151601f19848303016040850152610b868282610a86565b604095909501516001600160a01b031660609490940193909352509192915050565b634e487b7160e01b600052604160045260246000fd5b600082601f830112610bcf57600080fd5b813567ffffffffffffffff80821115610bea57610bea610ba8565b604051601f8301601f19908116603f01168101908282118183101715610c1257610c12610ba8565b81604052838152866020858801011115610c2b57600080fd5b836020870160208301376000602085830101528094505050505092915050565b60008060408385031215610c5e57600080fd5b823567ffffffffffffffff80821115610c7657600080fd5b610c8286838701610bbe565b93506020850135915080821115610c9857600080fd5b50610ca585828601610bbe565b9150509250929050565b6020808252825182820181905260009190848201906040850190845b81811015610cf05783516001600160a01b031683529284019291840191600101610ccb565b50909695505050505050565b600080600060608486031215610d1157600080fd5b833567ffffffffffffffff80821115610d2957600080fd5b610d3587838801610bbe565b94506020860135915080821115610d4b57600080fd5b610d5787838801610bbe565b93506040860135915080821115610d6d57600080fd5b50610d7a86828701610bbe565b9150509250925092565b600181811c90821680610d9857607f821691505b60208210811415610db957634e487b7160e01b600052602260045260246000fd5b50919050565b60208082526021908201527f546869732064726976657220697320616c7265616479207265676973746572656040820152601960fa1b60608201526080019056fea264697066735822122021df8984bf94d38de350a0283f8aa95587a60ded946242595787542af8f1be0d64736f6c63430008090033",
  "linkReferences": {},
  "deployedLinkReferences": {}
}