{
  "_format": "hh-sol-artifact-1",
  "contractName": "IncubeDeFi",
  "sourceName": "contracts/Nft.sol",
  "abi": [
    {
      "inputs": [],
      "stateMutability": "nonpayable",
      "type": "constructor"
    },
    {
      "anonymous": false,
      "inputs": [
        {
          "indexed": true,
          "internalType": "address",
          "name": "owner",
          "type": "address"
        },
        {
          "indexed": true,
          "internalType": "address",
          "name": "approved",
          "type": "address"
        },
        {
          "indexed": true,
          "internalType": "uint256",
          "name": "tokenId",
          "type": "uint256"
        }
      ],
      "name": "Approval",
      "type": "event"
    },
    {
      "anonymous": false,
      "inputs": [
        {
          "indexed": true,
          "internalType": "address",
          "name": "owner",
          "type": "address"
        },
        {
          "indexed": true,
          "internalType": "address",
          "name": "operator",
          "type": "address"
        },
        {
          "indexed": false,
          "internalType": "bool",
          "name": "approved",
          "type": "bool"
        }
      ],
      "name": "ApprovalForAll",
      "type": "event"
    },
    {
      "anonymous": false,
      "inputs": [
        {
          "indexed": true,
          "internalType": "address",
          "name": "previousOwner",
          "type": "address"
        },
        {
          "indexed": true,
          "internalType": "address",
          "name": "newOwner",
          "type": "address"
        }
      ],
      "name": "OwnershipTransferred",
      "type": "event"
    },
    {
      "anonymous": false,
      "inputs": [
        {
          "indexed": true,
          "internalType": "address",
          "name": "from",
          "type": "address"
        },
        {
          "indexed": true,
          "internalType": "address",
          "name": "to",
          "type": "address"
        },
        {
          "indexed": true,
          "internalType": "uint256",
          "name": "tokenId",
          "type": "uint256"
        }
      ],
      "name": "Transfer",
      "type": "event"
    },
    {
      "inputs": [
        {
          "internalType": "address",
          "name": "to",
          "type": "address"
        },
        {
          "internalType": "uint256",
          "name": "tokenId",
          "type": "uint256"
        }
      ],
      "name": "approve",
      "outputs": [],
      "stateMutability": "nonpayable",
      "type": "function"
    },
    {
      "inputs": [
        {
          "internalType": "address",
          "name": "owner",
          "type": "address"
        }
      ],
      "name": "balanceOf",
      "outputs": [
        {
          "internalType": "uint256",
          "name": "",
          "type": "uint256"
        }
      ],
      "stateMutability": "view",
      "type": "function"
    },
    {
      "inputs": [
        {
          "internalType": "uint256",
          "name": "tokenId",
          "type": "uint256"
        }
      ],
      "name": "getApproved",
      "outputs": [
        {
          "internalType": "address",
          "name": "",
          "type": "address"
        }
      ],
      "stateMutability": "view",
      "type": "function"
    },
    {
      "inputs": [
        {
          "internalType": "address",
          "name": "owner",
          "type": "address"
        },
        {
          "internalType": "address",
          "name": "operator",
          "type": "address"
        }
      ],
      "name": "isApprovedForAll",
      "outputs": [
        {
          "internalType": "bool",
          "name": "",
          "type": "bool"
        }
      ],
      "stateMutability": "view",
      "type": "function"
    },
    {
      "inputs": [
        {
          "internalType": "uint256",
          "name": "",
          "type": "uint256"
        }
      ],
      "name": "mintForIdentity",
      "outputs": [
        {
          "internalType": "bool",
          "name": "",
          "type": "bool"
        }
      ],
      "stateMutability": "view",
      "type": "function"
    },
    {
      "inputs": [
        {
          "internalType": "uint256",
          "name": "_identificationNumber",
          "type": "uint256"
        },
        {
          "internalType": "address",
          "name": "to",
          "type": "address"
        },
        {
          "internalType": "uint256",
          "name": "tokenId",
          "type": "uint256"
        }
      ],
      "name": "mintNFT",
      "outputs": [],
      "stateMutability": "nonpayable",
      "type": "function"
    },
    {
      "inputs": [],
      "name": "name",
      "outputs": [
        {
          "internalType": "string",
          "name": "",
          "type": "string"
        }
      ],
      "stateMutability": "view",
      "type": "function"
    },
    {
      "inputs": [],
      "name": "owner",
      "outputs": [
        {
          "internalType": "address",
          "name": "",
          "type": "address"
        }
      ],
      "stateMutability": "view",
      "type": "function"
    },
    {
      "inputs": [
        {
          "internalType": "uint256",
          "name": "tokenId",
          "type": "uint256"
        }
      ],
      "name": "ownerOf",
      "outputs": [
        {
          "internalType": "address",
          "name": "",
          "type": "address"
        }
      ],
      "stateMutability": "view",
      "type": "function"
    },
    {
      "inputs": [
        {
          "internalType": "uint256",
          "name": "_identificationNumber",
          "type": "uint256"
        }
      ],
      "name": "readStatusOfNft",
      "outputs": [
        {
          "internalType": "bool",
          "name": "",
          "type": "bool"
        }
      ],
      "stateMutability": "view",
      "type": "function"
    },
    {
      "inputs": [],
      "name": "renounceOwnership",
      "outputs": [],
      "stateMutability": "nonpayable",
      "type": "function"
    },
    {
      "inputs": [
        {
          "internalType": "address",
          "name": "to",
          "type": "address"
        },
        {
          "internalType": "uint256",
          "name": "tokenId",
          "type": "uint256"
        }
      ],
      "name": "safeMint",
      "outputs": [],
      "stateMutability": "nonpayable",
      "type": "function"
    },
    {
      "inputs": [
        {
          "internalType": "address",
          "name": "from",
          "type": "address"
        },
        {
          "internalType": "address",
          "name": "to",
          "type": "address"
        },
        {
          "internalType": "uint256",
          "name": "tokenId",
          "type": "uint256"
        }
      ],
      "name": "safeTransferFrom",
      "outputs": [],
      "stateMutability": "nonpayable",
      "type": "function"
    },
    {
      "inputs": [
        {
          "internalType": "address",
          "name": "from",
          "type": "address"
        },
        {
          "internalType": "address",
          "name": "to",
          "type": "address"
        },
        {
          "internalType": "uint256",
          "name": "tokenId",
          "type": "uint256"
        },
        {
          "internalType": "bytes",
          "name": "data",
          "type": "bytes"
        }
      ],
      "name": "safeTransferFrom",
      "outputs": [],
      "stateMutability": "nonpayable",
      "type": "function"
    },
    {
      "inputs": [
        {
          "internalType": "address",
          "name": "operator",
          "type": "address"
        },
        {
          "internalType": "bool",
          "name": "approved",
          "type": "bool"
        }
      ],
      "name": "setApprovalForAll",
      "outputs": [],
      "stateMutability": "nonpayable",
      "type": "function"
    },
    {
      "inputs": [
        {
          "internalType": "bytes4",
          "name": "interfaceId",
          "type": "bytes4"
        }
      ],
      "name": "supportsInterface",
      "outputs": [
        {
          "internalType": "bool",
          "name": "",
          "type": "bool"
        }
      ],
      "stateMutability": "view",
      "type": "function"
    },
    {
      "inputs": [],
      "name": "symbol",
      "outputs": [
        {
          "internalType": "string",
          "name": "",
          "type": "string"
        }
      ],
      "stateMutability": "view",
      "type": "function"
    },
    {
      "inputs": [
        {
          "internalType": "uint256",
          "name": "tokenId",
          "type": "uint256"
        }
      ],
      "name": "tokenURI",
      "outputs": [
        {
          "internalType": "string",
          "name": "",
          "type": "string"
        }
      ],
      "stateMutability": "view",
      "type": "function"
    },
    {
      "inputs": [
        {
          "internalType": "address",
          "name": "from",
          "type": "address"
        },
        {
          "internalType": "address",
          "name": "to",
          "type": "address"
        },
        {
          "internalType": "uint256",
          "name": "tokenId",
          "type": "uint256"
        }
      ],
      "name": "transferFrom",
      "outputs": [],
      "stateMutability": "nonpayable",
      "type": "function"
    },
    {
      "inputs": [
        {
          "internalType": "address",
          "name": "newOwner",
          "type": "address"
        }
      ],
      "name": "transferOwnership",
      "outputs": [],
      "stateMutability": "nonpayable",
      "type": "function"
    }
  ],
  "bytecode": "0x60806040523480156200001157600080fd5b50604080518082018252600a815269496e637562654465466960b01b60208083019182528351808501909452600384526224a22360e91b9084015281519192916200005f91600091620000ee565b50805162000075906001906020840190620000ee565b505050620000926200008c6200009860201b60201c565b6200009c565b620001d1565b3390565b600680546001600160a01b038381166001600160a01b0319831681179093556040519116919082907f8be0079c531659141344cd1fd0a4f28419497f9722a3daafe3b4186f6b6457e090600090a35050565b828054620000fc9062000194565b90600052602060002090601f0160209004810192826200012057600085556200016b565b82601f106200013b57805160ff19168380011785556200016b565b828001600101855582156200016b579182015b828111156200016b5782518255916020019190600101906200014e565b50620001799291506200017d565b5090565b5b808211156200017957600081556001016200017e565b600181811c90821680620001a957607f821691505b60208210811415620001cb57634e487b7160e01b600052602260045260246000fd5b50919050565b61165980620001e16000396000f3fe608060405234801561001057600080fd5b506004361061012c5760003560e01c80638da5cb5b116100ad578063c87b56dd11610071578063c87b56dd14610285578063d36dc70c14610298578063e985e9c5146102bb578063ee790425146102f7578063f2fde38b1461030a57600080fd5b80638da5cb5b1461023357806395d89b4114610244578063a14481941461024c578063a22cb4651461025f578063b88d4fde1461027257600080fd5b806342842e0e116100f457806342842e0e146101c15780636352211e146101d45780636a3fcb4f146101e757806370a082311461020a578063715018a61461022b57600080fd5b806301ffc9a71461013157806306fdde0314610159578063081812fc1461016e578063095ea7b31461019957806323b872dd146101ae575b600080fd5b61014461013f366004611172565b61031d565b60405190151581526020015b60405180910390f35b61016161036f565b60405161015091906111e7565b61018161017c3660046111fa565b610401565b6040516001600160a01b039091168152602001610150565b6101ac6101a736600461122f565b610428565b005b6101ac6101bc366004611259565b610543565b6101ac6101cf366004611259565b610574565b6101816101e23660046111fa565b61058f565b6101446101f53660046111fa565b60076020526000908152604090205460ff1681565b61021d610218366004611295565b6105ef565b604051908152602001610150565b6101ac610675565b6006546001600160a01b0316610181565b610161610689565b6101ac61025a36600461122f565b610698565b6101ac61026d3660046112b0565b6106ae565b6101ac610280366004611302565b6106b9565b6101616102933660046111fa565b6106f1565b6101446102a63660046111fa565b60009081526007602052604090205460ff1690565b6101446102c93660046113de565b6001600160a01b03918216600090815260056020908152604080832093909416825291909152205460ff1690565b6101ac610305366004611411565b610765565b6101ac610318366004611295565b610788565b60006001600160e01b031982166380ac58cd60e01b148061034e57506001600160e01b03198216635b5e139f60e01b145b8061036957506301ffc9a760e01b6001600160e01b03198316145b92915050565b60606000805461037e90611436565b80601f01602080910402602001604051908101604052809291908181526020018280546103aa90611436565b80156103f75780601f106103cc576101008083540402835291602001916103f7565b820191906000526020600020905b8154815290600101906020018083116103da57829003601f168201915b5050505050905090565b600061040c82610801565b506000908152600460205260409020546001600160a01b031690565b60006104338261058f565b9050806001600160a01b0316836001600160a01b031614156104a65760405162461bcd60e51b815260206004820152602160248201527f4552433732313a20617070726f76616c20746f2063757272656e74206f776e656044820152603960f91b60648201526084015b60405180910390fd5b336001600160a01b03821614806104c257506104c281336102c9565b6105345760405162461bcd60e51b815260206004820152603d60248201527f4552433732313a20617070726f76652063616c6c6572206973206e6f7420746f60448201527f6b656e206f776e6572206f7220617070726f76656420666f7220616c6c000000606482015260840161049d565b61053e8383610860565b505050565b61054d33826108ce565b6105695760405162461bcd60e51b815260040161049d90611471565b61053e83838361094d565b61053e838383604051806020016040528060008152506106b9565b6000818152600260205260408120546001600160a01b0316806103695760405162461bcd60e51b8152602060048201526018602482015277115490cdcc8c4e881a5b9d985b1a59081d1bdad95b88125160421b604482015260640161049d565b60006001600160a01b0382166106595760405162461bcd60e51b815260206004820152602960248201527f4552433732313a2061646472657373207a65726f206973206e6f7420612076616044820152683634b21037bbb732b960b91b606482015260840161049d565b506001600160a01b031660009081526003602052604090205490565b61067d610abe565b6106876000610b18565b565b60606001805461037e90611436565b6106a0610abe565b6106aa8282610b6a565b5050565b6106aa338383610b84565b6106c333836108ce565b6106df5760405162461bcd60e51b815260040161049d90611471565b6106eb84848484610c53565b50505050565b60606106fc82610801565b600061071360408051602081019091526000815290565b90506000815111610733576040518060200160405280600081525061075e565b8061073d84610c86565b60405160200161074e9291906114be565b6040516020818303038152906040525b9392505050565b6000838152600760205260409020805460ff1916600117905561053e8282610b6a565b610790610abe565b6001600160a01b0381166107f55760405162461bcd60e51b815260206004820152602660248201527f4f776e61626c653a206e6577206f776e657220697320746865207a65726f206160448201526564647265737360d01b606482015260840161049d565b6107fe81610b18565b50565b6000818152600260205260409020546001600160a01b03166107fe5760405162461bcd60e51b8152602060048201526018602482015277115490cdcc8c4e881a5b9d985b1a59081d1bdad95b88125160421b604482015260640161049d565b600081815260046020526040902080546001600160a01b0319166001600160a01b03841690811790915581906108958261058f565b6001600160a01b03167f8c5be1e5ebec7d5bd14f71427d1e84f3dd0314c0f7b2291e5b200ac8c7c3b92560405160405180910390a45050565b6000806108da8361058f565b9050806001600160a01b0316846001600160a01b0316148061092157506001600160a01b0380821660009081526005602090815260408083209388168352929052205460ff165b806109455750836001600160a01b031661093a84610401565b6001600160a01b0316145b949350505050565b826001600160a01b03166109608261058f565b6001600160a01b0316146109865760405162461bcd60e51b815260040161049d906114ed565b6001600160a01b0382166109e85760405162461bcd60e51b8152602060048201526024808201527f4552433732313a207472616e7366657220746f20746865207a65726f206164646044820152637265737360e01b606482015260840161049d565b6109f58383836001610d23565b826001600160a01b0316610a088261058f565b6001600160a01b031614610a2e5760405162461bcd60e51b815260040161049d906114ed565b600081815260046020908152604080832080546001600160a01b03199081169091556001600160a01b0387811680865260038552838620805460001901905590871680865283862080546001019055868652600290945282852080549092168417909155905184937fddf252ad1be2c89b69c2b068fc378daa952ba7f163c4a11628f55a4df523b3ef91a4505050565b6006546001600160a01b031633146106875760405162461bcd60e51b815260206004820181905260248201527f4f776e61626c653a2063616c6c6572206973206e6f7420746865206f776e6572604482015260640161049d565b600680546001600160a01b038381166001600160a01b0319831681179093556040519116919082907f8be0079c531659141344cd1fd0a4f28419497f9722a3daafe3b4186f6b6457e090600090a35050565b6106aa828260405180602001604052806000815250610dab565b816001600160a01b0316836001600160a01b03161415610be65760405162461bcd60e51b815260206004820152601960248201527f4552433732313a20617070726f766520746f2063616c6c657200000000000000604482015260640161049d565b6001600160a01b03838116600081815260056020908152604080832094871680845294825291829020805460ff191686151590811790915591519182527f17307eab39ab6107e8899845ad3d59bd9653f200f220920489ca2b5937696c31910160405180910390a3505050565b610c5e84848461094d565b610c6a84848484610dde565b6106eb5760405162461bcd60e51b815260040161049d90611532565b60606000610c9383610eeb565b600101905060008167ffffffffffffffff811115610cb357610cb36112ec565b6040519080825280601f01601f191660200182016040528015610cdd576020820181803683370190505b5090508181016020015b600019016f181899199a1a9b1b9c1cb0b131b232b360811b600a86061a8153600a8504945084610d1657610d1b565b610ce7565b509392505050565b60018111156106eb576001600160a01b03841615610d69576001600160a01b03841660009081526003602052604081208054839290610d6390849061159a565b90915550505b6001600160a01b038316156106eb576001600160a01b03831660009081526003602052604081208054839290610da09084906115b1565b909155505050505050565b610db58383610fc3565b610dc26000848484610dde565b61053e5760405162461bcd60e51b815260040161049d90611532565b60006001600160a01b0384163b15610ee057604051630a85bd0160e11b81526001600160a01b0385169063150b7a0290610e229033908990889088906004016115c9565b602060405180830381600087803b158015610e3c57600080fd5b505af1925050508015610e6c575060408051601f3d908101601f19168201909252610e6991810190611606565b60015b610ec6573d808015610e9a576040519150601f19603f3d011682016040523d82523d6000602084013e610e9f565b606091505b508051610ebe5760405162461bcd60e51b815260040161049d90611532565b805181602001fd5b6001600160e01b031916630a85bd0160e11b149050610945565b506001949350505050565b60008072184f03e93ff9f4daa797ed6e38ed64bf6a1f0160401b8310610f2a5772184f03e93ff9f4daa797ed6e38ed64bf6a1f0160401b830492506040015b6d04ee2d6d415b85acef81000000008310610f56576d04ee2d6d415b85acef8100000000830492506020015b662386f26fc100008310610f7457662386f26fc10000830492506010015b6305f5e1008310610f8c576305f5e100830492506008015b6127108310610fa057612710830492506004015b60648310610fb2576064830492506002015b600a83106103695760010192915050565b6001600160a01b0382166110195760405162461bcd60e51b815260206004820181905260248201527f4552433732313a206d696e7420746f20746865207a65726f2061646472657373604482015260640161049d565b6000818152600260205260409020546001600160a01b03161561107e5760405162461bcd60e51b815260206004820152601c60248201527f4552433732313a20746f6b656e20616c7265616479206d696e74656400000000604482015260640161049d565b61108c600083836001610d23565b6000818152600260205260409020546001600160a01b0316156110f15760405162461bcd60e51b815260206004820152601c60248201527f4552433732313a20746f6b656e20616c7265616479206d696e74656400000000604482015260640161049d565b6001600160a01b038216600081815260036020908152604080832080546001019055848352600290915280822080546001600160a01b0319168417905551839291907fddf252ad1be2c89b69c2b068fc378daa952ba7f163c4a11628f55a4df523b3ef908290a45050565b6001600160e01b0319811681146107fe57600080fd5b60006020828403121561118457600080fd5b813561075e8161115c565b60005b838110156111aa578181015183820152602001611192565b838111156106eb5750506000910152565b600081518084526111d381602086016020860161118f565b601f01601f19169290920160200192915050565b60208152600061075e60208301846111bb565b60006020828403121561120c57600080fd5b5035919050565b80356001600160a01b038116811461122a57600080fd5b919050565b6000806040838503121561124257600080fd5b61124b83611213565b946020939093013593505050565b60008060006060848603121561126e57600080fd5b61127784611213565b925061128560208501611213565b9150604084013590509250925092565b6000602082840312156112a757600080fd5b61075e82611213565b600080604083850312156112c357600080fd5b6112cc83611213565b9150602083013580151581146112e157600080fd5b809150509250929050565b634e487b7160e01b600052604160045260246000fd5b6000806000806080858703121561131857600080fd5b61132185611213565b935061132f60208601611213565b925060408501359150606085013567ffffffffffffffff8082111561135357600080fd5b818701915087601f83011261136757600080fd5b813581811115611379576113796112ec565b604051601f8201601f19908116603f011681019083821181831017156113a1576113a16112ec565b816040528281528a60208487010111156113ba57600080fd5b82602086016020830137600060208483010152809550505050505092959194509250565b600080604083850312156113f157600080fd5b6113fa83611213565b915061140860208401611213565b90509250929050565b60008060006060848603121561142657600080fd5b8335925061128560208501611213565b600181811c9082168061144a57607f821691505b6020821081141561146b57634e487b7160e01b600052602260045260246000fd5b50919050565b6020808252602d908201527f4552433732313a2063616c6c6572206973206e6f7420746f6b656e206f776e6560408201526c1c881bdc88185c1c1c9bdd9959609a1b606082015260800190565b600083516114d081846020880161118f565b8351908301906114e481836020880161118f565b01949350505050565b60208082526025908201527f4552433732313a207472616e736665722066726f6d20696e636f72726563742060408201526437bbb732b960d91b606082015260800190565b60208082526032908201527f4552433732313a207472616e7366657220746f206e6f6e20455243373231526560408201527131b2b4bb32b91034b6b83632b6b2b73a32b960711b606082015260800190565b634e487b7160e01b600052601160045260246000fd5b6000828210156115ac576115ac611584565b500390565b600082198211156115c4576115c4611584565b500190565b6001600160a01b03858116825284166020820152604081018390526080606082018190526000906115fc908301846111bb565b9695505050505050565b60006020828403121561161857600080fd5b815161075e8161115c56fea2646970667358221220c8189d7585044a6aa89632b39b700ebf3e6814f266bc3238c50e1eb66ce7671464736f6c63430008090033",
  "linkReferences": {},
  "deployedLinkReferences": {}
}