{"contracts/Escrow.sol":{"Escrow":{"abi":[{"inputs":[{"internalType":"address","name":"_registrationContract","type":"address"},{"internalType":"address","name":"_usdcAddress","type":"address"}],"stateMutability":"nonpayable","type":"constructor"},{"anonymous":false,"inputs":[{"indexed":true,"internalType":"address","name":"_fundProvider","type":"address"},{"indexed":true,"internalType":"uint256","name":"_tokens","type":"uint256"},{"indexed":true,"internalType":"uint256","name":"_success","type":"uint256"}],"name":"investedByFundProvider","type":"event"},{"inputs":[{"internalType":"uint256","name":"_amount","type":"uint256"},{"internalType":"string","name":"_bondType","type":"string"}],"name":"depositByFundProvider","outputs":[],"stateMutability":"nonpayable","type":"function"},{"inputs":[],"name":"interestForHighRisk","outputs":[{"internalType":"uint256","name":"","type":"uint256"}],"stateMutability":"view","type":"function"},{"inputs":[],"name":"interestForLowRisk","outputs":[{"internalType":"uint256","name":"","type":"uint256"}],"stateMutability":"view","type":"function"},{"inputs":[],"name":"interestForMediumRisk","outputs":[{"internalType":"uint256","name":"","type":"uint256"}],"stateMutability":"view","type":"function"},{"inputs":[],"name":"registrationContractAddress","outputs":[{"internalType":"address","name":"","type":"address"}],"stateMutability":"view","type":"function"},{"inputs":[],"name":"usdcAddress","outputs":[{"internalType":"address","name":"","type":"address"}],"stateMutability":"view","type":"function"}],"evm":{"bytecode":{"linkReferences":{},"object":"60c060405260036080819052626c6f7760e81b60a090815262000026916002919062000175565b50604080518082019091526006808252656d656469756d60d01b6020909201918252620000569160039162000175565b50604080518082019091526004808252630d0d2ced60e31b602090920191825262000082918162000175565b5060026005556005600655600a6007553480156200009f57600080fd5b5060405162000b3738038062000b37833981016040819052620000c29162000238565b600080546001600160a01b038085166001600160a01b031992831617909255600180549284169290911691909117905560646008556040516005906009906200010e90600290620002ad565b908152602001604051809103902081905550600a60096003604051620001359190620002ad565b9081526020016040518091039020819055506014600960046040516200015c9190620002ad565b9081526040519081900360200190205550620003519050565b828054620001839062000270565b90600052602060002090601f016020900481019282620001a75760008555620001f2565b82601f10620001c257805160ff1916838001178555620001f2565b82800160010185558215620001f2579182015b82811115620001f2578251825591602001919060010190620001d5565b506200020092915062000204565b5090565b5b8082111562000200576000815560010162000205565b80516001600160a01b03811681146200023357600080fd5b919050565b600080604083850312156200024c57600080fd5b62000257836200021b565b915062000267602084016200021b565b90509250929050565b600181811c908216806200028557607f821691505b60208210811415620002a757634e487b7160e01b600052602260045260246000fd5b50919050565b600080835481600182811c915080831680620002ca57607f831692505b6020808410821415620002eb57634e487b7160e01b86526022600452602486fd5b818015620003025760018114620003145762000343565b60ff1986168952848901965062000343565b60008a81526020902060005b868110156200033b5781548b82015290850190830162000320565b505084890196505b509498975050505050505050565b6107d680620003616000396000f3fe608060405234801561001057600080fd5b50600436106100625760003560e01c806302d454571461006757806363ef0728146100975780636d40111f146100ae57806372c50603146100c1578063b53a8a97146100ca578063bb285a18146100d3575b600080fd5b60015461007a906001600160a01b031681565b6040516001600160a01b0390911681526020015b60405180910390f35b6100a060075481565b60405190815260200161008e565b60005461007a906001600160a01b031681565b6100a060065481565b6100a060055481565b6100e66100e13660046105c0565b6100e8565b005b60005460405163b5f4488560e01b81523360048201526001600160a01b0390911690819063b5f448859060240160206040518083038186803b15801561012d57600080fd5b505afa158015610141573d6000803e3d6000fd5b505050506040513d601f19601f82011682018060405250810190610165919061067b565b6101ce5760405162461bcd60e51b815260206004820152602f60248201527f546865206c6f616e2070726f76696465722061646472657373206973206e6f7460448201526e081c9959da5cdd195c9959081e595d608a1b60648201526084015b60405180910390fd5b6008546101dc9060016106ba565b6008818155336000818152600a60209081526040808320958352948152848220805460ff19166001908117909155838352600b82528583208554845290915284822080546001600160a01b031916909317909255915480835292909120015561024d83670de0b6b3a76400006106d2565b336000908152600b6020908152604080832060085484529091529081902060020191909155516009906102819084906106f1565b908152604080516020928190038301902054336000908152600b8452828120600880548352945282812060030191909155915482529020600201546064906102ca9060016106d2565b6102d4919061072c565b336000908152600b602090815260408083206008805485529083528184206004019490945592548252919020835161031492600690920191850190610511565b50336000908152600b60209081526040808320600854845290915290206004810154600290910154610346919061074e565b336000908152600b6020908152604080832060088054855292528083206005908101949094559054825281206003810154920154909160649161038991906106d2565b610393919061072c565b336000908152600b6020908152604080832060085484529091529020600501549091506103c19082906106ba565b336000818152600b6020908152604080832060088054855290835281842060070195909555838352600c825280832094548554600180820188559685528385200155935484516323b872dd60e01b815260048101949094523060248501526044840189905293516001600160a01b03909416936323b872dd93606480820194918390030190829087803b15801561045757600080fd5b505af115801561046b573d6000803e3d6000fd5b505050506040513d601f19601f8201168201806040525081019061048f919061067b565b6104db5760405162461bcd60e51b815260206004820152601e60248201527f7472616e73616374696f6e206661696c6564206f72207265766572746564000060448201526064016101c5565b60405160c890859033907feeed0c4b0fe13660511b06c2da029de353ccceee62a67861786241bf2ebd598e90600090a450505050565b82805461051d90610765565b90600052602060002090601f01602090048101928261053f5760008555610585565b82601f1061055857805160ff1916838001178555610585565b82800160010185558215610585579182015b8281111561058557825182559160200191906001019061056a565b50610591929150610595565b5090565b5b808211156105915760008155600101610596565b634e487b7160e01b600052604160045260246000fd5b600080604083850312156105d357600080fd5b82359150602083013567ffffffffffffffff808211156105f257600080fd5b818501915085601f83011261060657600080fd5b813581811115610618576106186105aa565b604051601f8201601f19908116603f01168101908382118183101715610640576106406105aa565b8160405282815288602084870101111561065957600080fd5b8260208601602083013760006020848301015280955050505050509250929050565b60006020828403121561068d57600080fd5b8151801515811461069d57600080fd5b9392505050565b634e487b7160e01b600052601160045260246000fd5b600082198211156106cd576106cd6106a4565b500190565b60008160001904831182151516156106ec576106ec6106a4565b500290565b6000825160005b8181101561071257602081860181015185830152016106f8565b81811115610721576000828501525b509190910192915050565b60008261074957634e487b7160e01b600052601260045260246000fd5b500490565b600082821015610760576107606106a4565b500390565b600181811c9082168061077957607f821691505b6020821081141561079a57634e487b7160e01b600052602260045260246000fd5b5091905056fea264697066735822122095fbe9fe05ce18a5c39a37cdb35cb79f6199ec4bdb4f8b522dc2e44e0ac759dd64736f6c63430008090033","opcodes":"PUSH1 0xC0 PUSH1 0x40 MSTORE PUSH1 0x3 PUSH1 0x80 DUP2 SWAP1 MSTORE PUSH3 0x6C6F77 PUSH1 0xE8 SHL PUSH1 0xA0 SWAP1 DUP2 MSTORE PUSH3 0x26 SWAP2 PUSH1 0x2 SWAP2 SWAP1 PUSH3 0x175 JUMP JUMPDEST POP PUSH1 0x40 DUP1 MLOAD DUP1 DUP3 ADD SWAP1 SWAP2 MSTORE PUSH1 0x6 DUP1 DUP3 MSTORE PUSH6 0x6D656469756D PUSH1 0xD0 SHL PUSH1 0x20 SWAP1 SWAP3 ADD SWAP2 DUP3 MSTORE PUSH3 0x56 SWAP2 PUSH1 0x3 SWAP2 PUSH3 0x175 JUMP JUMPDEST POP PUSH1 0x40 DUP1 MLOAD DUP1 DUP3 ADD SWAP1 SWAP2 MSTORE PUSH1 0x4 DUP1 DUP3 MSTORE PUSH4 0xD0D2CED PUSH1 0xE3 SHL PUSH1 0x20 SWAP1 SWAP3 ADD SWAP2 DUP3 MSTORE PUSH3 0x82 SWAP2 DUP2 PUSH3 0x175 JUMP JUMPDEST POP PUSH1 0x2 PUSH1 0x5 SSTORE PUSH1 0x5 PUSH1 0x6 SSTORE PUSH1 0xA PUSH1 0x7 SSTORE CALLVALUE DUP1 ISZERO PUSH3 0x9F JUMPI PUSH1 0x0 DUP1 REVERT JUMPDEST POP PUSH1 0x40 MLOAD PUSH3 0xB37 CODESIZE SUB DUP1 PUSH3 0xB37 DUP4 CODECOPY DUP2 ADD PUSH1 0x40 DUP2 SWAP1 MSTORE PUSH3 0xC2 SWAP2 PUSH3 0x238 JUMP JUMPDEST PUSH1 0x0 DUP1 SLOAD PUSH1 0x1 PUSH1 0x1 PUSH1 0xA0 SHL SUB DUP1 DUP6 AND PUSH1 0x1 PUSH1 0x1 PUSH1 0xA0 SHL SUB NOT SWAP3 DUP4 AND OR SWAP1 SWAP3 SSTORE PUSH1 0x1 DUP1 SLOAD SWAP3 DUP5 AND SWAP3 SWAP1 SWAP2 AND SWAP2 SWAP1 SWAP2 OR SWAP1 SSTORE PUSH1 0x64 PUSH1 0x8 SSTORE PUSH1 0x40 MLOAD PUSH1 0x5 SWAP1 PUSH1 0x9 SWAP1 PUSH3 0x10E SWAP1 PUSH1 0x2 SWAP1 PUSH3 0x2AD JUMP JUMPDEST SWAP1 DUP2 MSTORE PUSH1 0x20 ADD PUSH1 0x40 MLOAD DUP1 SWAP2 SUB SWAP1 KECCAK256 DUP2 SWAP1 SSTORE POP PUSH1 0xA PUSH1 0x9 PUSH1 0x3 PUSH1 0x40 MLOAD PUSH3 0x135 SWAP2 SWAP1 PUSH3 0x2AD JUMP JUMPDEST SWAP1 DUP2 MSTORE PUSH1 0x20 ADD PUSH1 0x40 MLOAD DUP1 SWAP2 SUB SWAP1 KECCAK256 DUP2 SWAP1 SSTORE POP PUSH1 0x14 PUSH1 0x9 PUSH1 0x4 PUSH1 0x40 MLOAD PUSH3 0x15C SWAP2 SWAP1 PUSH3 0x2AD JUMP JUMPDEST SWAP1 DUP2 MSTORE PUSH1 0x40 MLOAD SWAP1 DUP2 SWAP1 SUB PUSH1 0x20 ADD SWAP1 KECCAK256 SSTORE POP PUSH3 0x351 SWAP1 POP JUMP JUMPDEST DUP3 DUP1 SLOAD PUSH3 0x183 SWAP1 PUSH3 0x270 JUMP JUMPDEST SWAP1 PUSH1 0x0 MSTORE PUSH1 0x20 PUSH1 0x0 KECCAK256 SWAP1 PUSH1 0x1F ADD PUSH1 0x20 SWAP1 DIV DUP2 ADD SWAP3 DUP3 PUSH3 0x1A7 JUMPI PUSH1 0x0 DUP6 SSTORE PUSH3 0x1F2 JUMP JUMPDEST DUP3 PUSH1 0x1F LT PUSH3 0x1C2 JUMPI DUP1 MLOAD PUSH1 0xFF NOT AND DUP4 DUP1 ADD OR DUP6 SSTORE PUSH3 0x1F2 JUMP JUMPDEST DUP3 DUP1 ADD PUSH1 0x1 ADD DUP6 SSTORE DUP3 ISZERO PUSH3 0x1F2 JUMPI SWAP2 DUP3 ADD JUMPDEST DUP3 DUP2 GT ISZERO PUSH3 0x1F2 JUMPI DUP3 MLOAD DUP3 SSTORE SWAP2 PUSH1 0x20 ADD SWAP2 SWAP1 PUSH1 0x1 ADD SWAP1 PUSH3 0x1D5 JUMP JUMPDEST POP PUSH3 0x200 SWAP3 SWAP2 POP PUSH3 0x204 JUMP JUMPDEST POP SWAP1 JUMP JUMPDEST JUMPDEST DUP1 DUP3 GT ISZERO PUSH3 0x200 JUMPI PUSH1 0x0 DUP2 SSTORE PUSH1 0x1 ADD PUSH3 0x205 JUMP JUMPDEST DUP1 MLOAD PUSH1 0x1 PUSH1 0x1 PUSH1 0xA0 SHL SUB DUP2 AND DUP2 EQ PUSH3 0x233 JUMPI PUSH1 0x0 DUP1 REVERT JUMPDEST SWAP2 SWAP1 POP JUMP JUMPDEST PUSH1 0x0 DUP1 PUSH1 0x40 DUP4 DUP6 SUB SLT ISZERO PUSH3 0x24C JUMPI PUSH1 0x0 DUP1 REVERT JUMPDEST PUSH3 0x257 DUP4 PUSH3 0x21B JUMP JUMPDEST SWAP2 POP PUSH3 0x267 PUSH1 0x20 DUP5 ADD PUSH3 0x21B JUMP JUMPDEST SWAP1 POP SWAP3 POP SWAP3 SWAP1 POP JUMP JUMPDEST PUSH1 0x1 DUP2 DUP2 SHR SWAP1 DUP3 AND DUP1 PUSH3 0x285 JUMPI PUSH1 0x7F DUP3 AND SWAP2 POP JUMPDEST PUSH1 0x20 DUP3 LT DUP2 EQ ISZERO PUSH3 0x2A7 JUMPI PUSH4 0x4E487B71 PUSH1 0xE0 SHL PUSH1 0x0 MSTORE PUSH1 0x22 PUSH1 0x4 MSTORE PUSH1 0x24 PUSH1 0x0 REVERT JUMPDEST POP SWAP2 SWAP1 POP JUMP JUMPDEST PUSH1 0x0 DUP1 DUP4 SLOAD DUP2 PUSH1 0x1 DUP3 DUP2 SHR SWAP2 POP DUP1 DUP4 AND DUP1 PUSH3 0x2CA JUMPI PUSH1 0x7F DUP4 AND SWAP3 POP JUMPDEST PUSH1 0x20 DUP1 DUP5 LT DUP3 EQ ISZERO PUSH3 0x2EB JUMPI PUSH4 0x4E487B71 PUSH1 0xE0 SHL DUP7 MSTORE PUSH1 0x22 PUSH1 0x4 MSTORE PUSH1 0x24 DUP7 REVERT JUMPDEST DUP2 DUP1 ISZERO PUSH3 0x302 JUMPI PUSH1 0x1 DUP2 EQ PUSH3 0x314 JUMPI PUSH3 0x343 JUMP JUMPDEST PUSH1 0xFF NOT DUP7 AND DUP10 MSTORE DUP5 DUP10 ADD SWAP7 POP PUSH3 0x343 JUMP JUMPDEST PUSH1 0x0 DUP11 DUP2 MSTORE PUSH1 0x20 SWAP1 KECCAK256 PUSH1 0x0 JUMPDEST DUP7 DUP2 LT ISZERO PUSH3 0x33B JUMPI DUP2 SLOAD DUP12 DUP3 ADD MSTORE SWAP1 DUP6 ADD SWAP1 DUP4 ADD PUSH3 0x320 JUMP JUMPDEST POP POP DUP5 DUP10 ADD SWAP7 POP JUMPDEST POP SWAP5 SWAP9 SWAP8 POP POP POP POP POP POP POP POP JUMP JUMPDEST PUSH2 0x7D6 DUP1 PUSH3 0x361 PUSH1 0x0 CODECOPY PUSH1 0x0 RETURN INVALID PUSH1 0x80 PUSH1 0x40 MSTORE CALLVALUE DUP1 ISZERO PUSH2 0x10 JUMPI PUSH1 0x0 DUP1 REVERT JUMPDEST POP PUSH1 0x4 CALLDATASIZE LT PUSH2 0x62 JUMPI PUSH1 0x0 CALLDATALOAD PUSH1 0xE0 SHR DUP1 PUSH4 0x2D45457 EQ PUSH2 0x67 JUMPI DUP1 PUSH4 0x63EF0728 EQ PUSH2 0x97 JUMPI DUP1 PUSH4 0x6D40111F EQ PUSH2 0xAE JUMPI DUP1 PUSH4 0x72C50603 EQ PUSH2 0xC1 JUMPI DUP1 PUSH4 0xB53A8A97 EQ PUSH2 0xCA JUMPI DUP1 PUSH4 0xBB285A18 EQ PUSH2 0xD3 JUMPI JUMPDEST PUSH1 0x0 DUP1 REVERT JUMPDEST PUSH1 0x1 SLOAD PUSH2 0x7A SWAP1 PUSH1 0x1 PUSH1 0x1 PUSH1 0xA0 SHL SUB AND DUP2 JUMP JUMPDEST PUSH1 0x40 MLOAD PUSH1 0x1 PUSH1 0x1 PUSH1 0xA0 SHL SUB SWAP1 SWAP2 AND DUP2 MSTORE PUSH1 0x20 ADD JUMPDEST PUSH1 0x40 MLOAD DUP1 SWAP2 SUB SWAP1 RETURN JUMPDEST PUSH2 0xA0 PUSH1 0x7 SLOAD DUP2 JUMP JUMPDEST PUSH1 0x40 MLOAD SWAP1 DUP2 MSTORE PUSH1 0x20 ADD PUSH2 0x8E JUMP JUMPDEST PUSH1 0x0 SLOAD PUSH2 0x7A SWAP1 PUSH1 0x1 PUSH1 0x1 PUSH1 0xA0 SHL SUB AND DUP2 JUMP JUMPDEST PUSH2 0xA0 PUSH1 0x6 SLOAD DUP2 JUMP JUMPDEST PUSH2 0xA0 PUSH1 0x5 SLOAD DUP2 JUMP JUMPDEST PUSH2 0xE6 PUSH2 0xE1 CALLDATASIZE PUSH1 0x4 PUSH2 0x5C0 JUMP JUMPDEST PUSH2 0xE8 JUMP JUMPDEST STOP JUMPDEST PUSH1 0x0 SLOAD PUSH1 0x40 MLOAD PUSH4 0xB5F44885 PUSH1 0xE0 SHL DUP2 MSTORE CALLER PUSH1 0x4 DUP3 ADD MSTORE PUSH1 0x1 PUSH1 0x1 PUSH1 0xA0 SHL SUB SWAP1 SWAP2 AND SWAP1 DUP2 SWAP1 PUSH4 0xB5F44885 SWAP1 PUSH1 0x24 ADD PUSH1 0x20 PUSH1 0x40 MLOAD DUP1 DUP4 SUB DUP2 DUP7 DUP1 EXTCODESIZE ISZERO DUP1 ISZERO PUSH2 0x12D JUMPI PUSH1 0x0 DUP1 REVERT JUMPDEST POP GAS STATICCALL ISZERO DUP1 ISZERO PUSH2 0x141 JUMPI RETURNDATASIZE PUSH1 0x0 DUP1 RETURNDATACOPY RETURNDATASIZE PUSH1 0x0 REVERT JUMPDEST POP POP POP POP PUSH1 0x40 MLOAD RETURNDATASIZE PUSH1 0x1F NOT PUSH1 0x1F DUP3 ADD AND DUP3 ADD DUP1 PUSH1 0x40 MSTORE POP DUP2 ADD SWAP1 PUSH2 0x165 SWAP2 SWAP1 PUSH2 0x67B JUMP JUMPDEST PUSH2 0x1CE JUMPI PUSH1 0x40 MLOAD PUSH3 0x461BCD PUSH1 0xE5 SHL DUP2 MSTORE PUSH1 0x20 PUSH1 0x4 DUP3 ADD MSTORE PUSH1 0x2F PUSH1 0x24 DUP3 ADD MSTORE PUSH32 0x546865206C6F616E2070726F76696465722061646472657373206973206E6F74 PUSH1 0x44 DUP3 ADD MSTORE PUSH15 0x81C9959DA5CDD195C9959081E595D PUSH1 0x8A SHL PUSH1 0x64 DUP3 ADD MSTORE PUSH1 0x84 ADD JUMPDEST PUSH1 0x40 MLOAD DUP1 SWAP2 SUB SWAP1 REVERT JUMPDEST PUSH1 0x8 SLOAD PUSH2 0x1DC SWAP1 PUSH1 0x1 PUSH2 0x6BA JUMP JUMPDEST PUSH1 0x8 DUP2 DUP2 SSTORE CALLER PUSH1 0x0 DUP2 DUP2 MSTORE PUSH1 0xA PUSH1 0x20 SWAP1 DUP2 MSTORE PUSH1 0x40 DUP1 DUP4 KECCAK256 SWAP6 DUP4 MSTORE SWAP5 DUP2 MSTORE DUP5 DUP3 KECCAK256 DUP1 SLOAD PUSH1 0xFF NOT AND PUSH1 0x1 SWAP1 DUP2 OR SWAP1 SWAP2 SSTORE DUP4 DUP4 MSTORE PUSH1 0xB DUP3 MSTORE DUP6 DUP4 KECCAK256 DUP6 SLOAD DUP5 MSTORE SWAP1 SWAP2 MSTORE DUP5 DUP3 KECCAK256 DUP1 SLOAD PUSH1 0x1 PUSH1 0x1 PUSH1 0xA0 SHL SUB NOT AND SWAP1 SWAP4 OR SWAP1 SWAP3 SSTORE SWAP2 SLOAD DUP1 DUP4 MSTORE SWAP3 SWAP1 SWAP2 KECCAK256 ADD SSTORE PUSH2 0x24D DUP4 PUSH8 0xDE0B6B3A7640000 PUSH2 0x6D2 JUMP JUMPDEST CALLER PUSH1 0x0 SWAP1 DUP2 MSTORE PUSH1 0xB PUSH1 0x20 SWAP1 DUP2 MSTORE PUSH1 0x40 DUP1 DUP4 KECCAK256 PUSH1 0x8 SLOAD DUP5 MSTORE SWAP1 SWAP2 MSTORE SWAP1 DUP2 SWAP1 KECCAK256 PUSH1 0x2 ADD SWAP2 SWAP1 SWAP2 SSTORE MLOAD PUSH1 0x9 SWAP1 PUSH2 0x281 SWAP1 DUP5 SWAP1 PUSH2 0x6F1 JUMP JUMPDEST SWAP1 DUP2 MSTORE PUSH1 0x40 DUP1 MLOAD PUSH1 0x20 SWAP3 DUP2 SWAP1 SUB DUP4 ADD SWAP1 KECCAK256 SLOAD CALLER PUSH1 0x0 SWAP1 DUP2 MSTORE PUSH1 0xB DUP5 MSTORE DUP3 DUP2 KECCAK256 PUSH1 0x8 DUP1 SLOAD DUP4 MSTORE SWAP5 MSTORE DUP3 DUP2 KECCAK256 PUSH1 0x3 ADD SWAP2 SWAP1 SWAP2 SSTORE SWAP2 SLOAD DUP3 MSTORE SWAP1 KECCAK256 PUSH1 0x2 ADD SLOAD PUSH1 0x64 SWAP1 PUSH2 0x2CA SWAP1 PUSH1 0x1 PUSH2 0x6D2 JUMP JUMPDEST PUSH2 0x2D4 SWAP2 SWAP1 PUSH2 0x72C JUMP JUMPDEST CALLER PUSH1 0x0 SWAP1 DUP2 MSTORE PUSH1 0xB PUSH1 0x20 SWAP1 DUP2 MSTORE PUSH1 0x40 DUP1 DUP4 KECCAK256 PUSH1 0x8 DUP1 SLOAD DUP6 MSTORE SWAP1 DUP4 MSTORE DUP2 DUP5 KECCAK256 PUSH1 0x4 ADD SWAP5 SWAP1 SWAP5 SSTORE SWAP3 SLOAD DUP3 MSTORE SWAP2 SWAP1 KECCAK256 DUP4 MLOAD PUSH2 0x314 SWAP3 PUSH1 0x6 SWAP1 SWAP3 ADD SWAP2 DUP6 ADD SWAP1 PUSH2 0x511 JUMP JUMPDEST POP CALLER PUSH1 0x0 SWAP1 DUP2 MSTORE PUSH1 0xB PUSH1 0x20 SWAP1 DUP2 MSTORE PUSH1 0x40 DUP1 DUP4 KECCAK256 PUSH1 0x8 SLOAD DUP5 MSTORE SWAP1 SWAP2 MSTORE SWAP1 KECCAK256 PUSH1 0x4 DUP2 ADD SLOAD PUSH1 0x2 SWAP1 SWAP2 ADD SLOAD PUSH2 0x346 SWAP2 SWAP1 PUSH2 0x74E JUMP JUMPDEST CALLER PUSH1 0x0 SWAP1 DUP2 MSTORE PUSH1 0xB PUSH1 0x20 SWAP1 DUP2 MSTORE PUSH1 0x40 DUP1 DUP4 KECCAK256 PUSH1 0x8 DUP1 SLOAD DUP6 MSTORE SWAP3 MSTORE DUP1 DUP4 KECCAK256 PUSH1 0x5 SWAP1 DUP2 ADD SWAP5 SWAP1 SWAP5 SSTORE SWAP1 SLOAD DUP3 MSTORE DUP2 KECCAK256 PUSH1 0x3 DUP2 ADD SLOAD SWAP3 ADD SLOAD SWAP1 SWAP2 PUSH1 0x64 SWAP2 PUSH2 0x389 SWAP2 SWAP1 PUSH2 0x6D2 JUMP JUMPDEST PUSH2 0x393 SWAP2 SWAP1 PUSH2 0x72C JUMP JUMPDEST CALLER PUSH1 0x0 SWAP1 DUP2 MSTORE PUSH1 0xB PUSH1 0x20 SWAP1 DUP2 MSTORE PUSH1 0x40 DUP1 DUP4 KECCAK256 PUSH1 0x8 SLOAD DUP5 MSTORE SWAP1 SWAP2 MSTORE SWAP1 KECCAK256 PUSH1 0x5 ADD SLOAD SWAP1 SWAP2 POP PUSH2 0x3C1 SWAP1 DUP3 SWAP1 PUSH2 0x6BA JUMP JUMPDEST CALLER PUSH1 0x0 DUP2 DUP2 MSTORE PUSH1 0xB PUSH1 0x20 SWAP1 DUP2 MSTORE PUSH1 0x40 DUP1 DUP4 KECCAK256 PUSH1 0x8 DUP1 SLOAD DUP6 MSTORE SWAP1 DUP4 MSTORE DUP2 DUP5 KECCAK256 PUSH1 0x7 ADD SWAP6 SWAP1 SWAP6 SSTORE DUP4 DUP4 MSTORE PUSH1 0xC DUP3 MSTORE DUP1 DUP4 KECCAK256 SWAP5 SLOAD DUP6 SLOAD PUSH1 0x1 DUP1 DUP3 ADD DUP9 SSTORE SWAP7 DUP6 MSTORE DUP4 DUP6 KECCAK256 ADD SSTORE SWAP4 SLOAD DUP5 MLOAD PUSH4 0x23B872DD PUSH1 0xE0 SHL DUP2 MSTORE PUSH1 0x4 DUP2 ADD SWAP5 SWAP1 SWAP5 MSTORE ADDRESS PUSH1 0x24 DUP6 ADD MSTORE PUSH1 0x44 DUP5 ADD DUP10 SWAP1 MSTORE SWAP4 MLOAD PUSH1 0x1 PUSH1 0x1 PUSH1 0xA0 SHL SUB SWAP1 SWAP5 AND SWAP4 PUSH4 0x23B872DD SWAP4 PUSH1 0x64 DUP1 DUP3 ADD SWAP5 SWAP2 DUP4 SWAP1 SUB ADD SWAP1 DUP3 SWAP1 DUP8 DUP1 EXTCODESIZE ISZERO DUP1 ISZERO PUSH2 0x457 JUMPI PUSH1 0x0 DUP1 REVERT JUMPDEST POP GAS CALL ISZERO DUP1 ISZERO PUSH2 0x46B JUMPI RETURNDATASIZE PUSH1 0x0 DUP1 RETURNDATACOPY RETURNDATASIZE PUSH1 0x0 REVERT JUMPDEST POP POP POP POP PUSH1 0x40 MLOAD RETURNDATASIZE PUSH1 0x1F NOT PUSH1 0x1F DUP3 ADD AND DUP3 ADD DUP1 PUSH1 0x40 MSTORE POP DUP2 ADD SWAP1 PUSH2 0x48F SWAP2 SWAP1 PUSH2 0x67B JUMP JUMPDEST PUSH2 0x4DB JUMPI PUSH1 0x40 MLOAD PUSH3 0x461BCD PUSH1 0xE5 SHL DUP2 MSTORE PUSH1 0x20 PUSH1 0x4 DUP3 ADD MSTORE PUSH1 0x1E PUSH1 0x24 DUP3 ADD MSTORE PUSH32 0x7472616E73616374696F6E206661696C6564206F722072657665727465640000 PUSH1 0x44 DUP3 ADD MSTORE PUSH1 0x64 ADD PUSH2 0x1C5 JUMP JUMPDEST PUSH1 0x40 MLOAD PUSH1 0xC8 SWAP1 DUP6 SWAP1 CALLER SWAP1 PUSH32 0xEEED0C4B0FE13660511B06C2DA029DE353CCCEEE62A67861786241BF2EBD598E SWAP1 PUSH1 0x0 SWAP1 LOG4 POP POP POP POP JUMP JUMPDEST DUP3 DUP1 SLOAD PUSH2 0x51D SWAP1 PUSH2 0x765 JUMP JUMPDEST SWAP1 PUSH1 0x0 MSTORE PUSH1 0x20 PUSH1 0x0 KECCAK256 SWAP1 PUSH1 0x1F ADD PUSH1 0x20 SWAP1 DIV DUP2 ADD SWAP3 DUP3 PUSH2 0x53F JUMPI PUSH1 0x0 DUP6 SSTORE PUSH2 0x585 JUMP JUMPDEST DUP3 PUSH1 0x1F LT PUSH2 0x558 JUMPI DUP1 MLOAD PUSH1 0xFF NOT AND DUP4 DUP1 ADD OR DUP6 SSTORE PUSH2 0x585 JUMP JUMPDEST DUP3 DUP1 ADD PUSH1 0x1 ADD DUP6 SSTORE DUP3 ISZERO PUSH2 0x585 JUMPI SWAP2 DUP3 ADD JUMPDEST DUP3 DUP2 GT ISZERO PUSH2 0x585 JUMPI DUP3 MLOAD DUP3 SSTORE SWAP2 PUSH1 0x20 ADD SWAP2 SWAP1 PUSH1 0x1 ADD SWAP1 PUSH2 0x56A JUMP JUMPDEST POP PUSH2 0x591 SWAP3 SWAP2 POP PUSH2 0x595 JUMP JUMPDEST POP SWAP1 JUMP JUMPDEST JUMPDEST DUP1 DUP3 GT ISZERO PUSH2 0x591 JUMPI PUSH1 0x0 DUP2 SSTORE PUSH1 0x1 ADD PUSH2 0x596 JUMP JUMPDEST PUSH4 0x4E487B71 PUSH1 0xE0 SHL PUSH1 0x0 MSTORE PUSH1 0x41 PUSH1 0x4 MSTORE PUSH1 0x24 PUSH1 0x0 REVERT JUMPDEST PUSH1 0x0 DUP1 PUSH1 0x40 DUP4 DUP6 SUB SLT ISZERO PUSH2 0x5D3 JUMPI PUSH1 0x0 DUP1 REVERT JUMPDEST DUP3 CALLDATALOAD SWAP2 POP PUSH1 0x20 DUP4 ADD CALLDATALOAD PUSH8 0xFFFFFFFFFFFFFFFF DUP1 DUP3 GT ISZERO PUSH2 0x5F2 JUMPI PUSH1 0x0 DUP1 REVERT JUMPDEST DUP2 DUP6 ADD SWAP2 POP DUP6 PUSH1 0x1F DUP4 ADD SLT PUSH2 0x606 JUMPI PUSH1 0x0 DUP1 REVERT JUMPDEST DUP2 CALLDATALOAD DUP2 DUP2 GT ISZERO PUSH2 0x618 JUMPI PUSH2 0x618 PUSH2 0x5AA JUMP JUMPDEST PUSH1 0x40 MLOAD PUSH1 0x1F DUP3 ADD PUSH1 0x1F NOT SWAP1 DUP2 AND PUSH1 0x3F ADD AND DUP2 ADD SWAP1 DUP4 DUP3 GT DUP2 DUP4 LT OR ISZERO PUSH2 0x640 JUMPI PUSH2 0x640 PUSH2 0x5AA JUMP JUMPDEST DUP2 PUSH1 0x40 MSTORE DUP3 DUP2 MSTORE DUP9 PUSH1 0x20 DUP5 DUP8 ADD ADD GT ISZERO PUSH2 0x659 JUMPI PUSH1 0x0 DUP1 REVERT JUMPDEST DUP3 PUSH1 0x20 DUP7 ADD PUSH1 0x20 DUP4 ADD CALLDATACOPY PUSH1 0x0 PUSH1 0x20 DUP5 DUP4 ADD ADD MSTORE DUP1 SWAP6 POP POP POP POP POP POP SWAP3 POP SWAP3 SWAP1 POP JUMP JUMPDEST PUSH1 0x0 PUSH1 0x20 DUP3 DUP5 SUB SLT ISZERO PUSH2 0x68D JUMPI PUSH1 0x0 DUP1 REVERT JUMPDEST DUP2 MLOAD DUP1 ISZERO ISZERO DUP2 EQ PUSH2 0x69D JUMPI PUSH1 0x0 DUP1 REVERT JUMPDEST SWAP4 SWAP3 POP POP POP JUMP JUMPDEST PUSH4 0x4E487B71 PUSH1 0xE0 SHL PUSH1 0x0 MSTORE PUSH1 0x11 PUSH1 0x4 MSTORE PUSH1 0x24 PUSH1 0x0 REVERT JUMPDEST PUSH1 0x0 DUP3 NOT DUP3 GT ISZERO PUSH2 0x6CD JUMPI PUSH2 0x6CD PUSH2 0x6A4 JUMP JUMPDEST POP ADD SWAP1 JUMP JUMPDEST PUSH1 0x0 DUP2 PUSH1 0x0 NOT DIV DUP4 GT DUP3 ISZERO ISZERO AND ISZERO PUSH2 0x6EC JUMPI PUSH2 0x6EC PUSH2 0x6A4 JUMP JUMPDEST POP MUL SWAP1 JUMP JUMPDEST PUSH1 0x0 DUP3 MLOAD PUSH1 0x0 JUMPDEST DUP2 DUP2 LT ISZERO PUSH2 0x712 JUMPI PUSH1 0x20 DUP2 DUP7 ADD DUP2 ADD MLOAD DUP6 DUP4 ADD MSTORE ADD PUSH2 0x6F8 JUMP JUMPDEST DUP2 DUP2 GT ISZERO PUSH2 0x721 JUMPI PUSH1 0x0 DUP3 DUP6 ADD MSTORE JUMPDEST POP SWAP2 SWAP1 SWAP2 ADD SWAP3 SWAP2 POP POP JUMP JUMPDEST PUSH1 0x0 DUP3 PUSH2 0x749 JUMPI PUSH4 0x4E487B71 PUSH1 0xE0 SHL PUSH1 0x0 MSTORE PUSH1 0x12 PUSH1 0x4 MSTORE PUSH1 0x24 PUSH1 0x0 REVERT JUMPDEST POP DIV SWAP1 JUMP JUMPDEST PUSH1 0x0 DUP3 DUP3 LT ISZERO PUSH2 0x760 JUMPI PUSH2 0x760 PUSH2 0x6A4 JUMP JUMPDEST POP SUB SWAP1 JUMP JUMPDEST PUSH1 0x1 DUP2 DUP2 SHR SWAP1 DUP3 AND DUP1 PUSH2 0x779 JUMPI PUSH1 0x7F DUP3 AND SWAP2 POP JUMPDEST PUSH1 0x20 DUP3 LT DUP2 EQ ISZERO PUSH2 0x79A JUMPI PUSH4 0x4E487B71 PUSH1 0xE0 SHL PUSH1 0x0 MSTORE PUSH1 0x22 PUSH1 0x4 MSTORE PUSH1 0x24 PUSH1 0x0 REVERT JUMPDEST POP SWAP2 SWAP1 POP JUMP INVALID LOG2 PUSH5 0x6970667358 0x22 SLT KECCAK256 SWAP6 0xFB 0xE9 INVALID SDIV 0xCE XOR 0xA5 0xC3 SWAP11 CALLDATACOPY 0xCD 0xB3 0x5C 0xB7 SWAP16 PUSH2 0x99EC 0x4B 0xDB 0x4F DUP12 MSTORE 0x2D 0xC2 0xE4 0x4E EXP 0xC7 MSIZE 0xDD PUSH5 0x736F6C6343 STOP ADDMOD MULMOD STOP CALLER "},"methodIdentifiers":{"depositByFundProvider(uint256,string)":"bb285a18","interestForHighRisk()":"63ef0728","interestForLowRisk()":"b53a8a97","interestForMediumRisk()":"72c50603","registrationContractAddress()":"6d40111f","usdcAddress()":"02d45457"}},"storageLayout":{"storage":[{"astId":831,"contract":"contracts/Escrow.sol:Escrow","label":"registrationContractAddress","offset":0,"slot":"0","type":"t_address"},{"astId":833,"contract":"contracts/Escrow.sol:Escrow","label":"usdcAddress","offset":0,"slot":"1","type":"t_address"},{"astId":844,"contract":"contracts/Escrow.sol:Escrow","label":"l","offset":0,"slot":"2","type":"t_string_storage"},{"astId":847,"contract":"contracts/Escrow.sol:Escrow","label":"m","offset":0,"slot":"3","type":"t_string_storage"},{"astId":850,"contract":"contracts/Escrow.sol:Escrow","label":"h","offset":0,"slot":"4","type":"t_string_storage"},{"astId":853,"contract":"contracts/Escrow.sol:Escrow","label":"interestForLowRisk","offset":0,"slot":"5","type":"t_uint256"},{"astId":856,"contract":"contracts/Escrow.sol:Escrow","label":"interestForMediumRisk","offset":0,"slot":"6","type":"t_uint256"},{"astId":859,"contract":"contracts/Escrow.sol:Escrow","label":"interestForHighRisk","offset":0,"slot":"7","type":"t_uint256"},{"astId":861,"contract":"contracts/Escrow.sol:Escrow","label":"identificationNumber","offset":0,"slot":"8","type":"t_uint256"},{"astId":923,"contract":"contracts/Escrow.sol:Escrow","label":"interestGenerator","offset":0,"slot":"9","type":"t_mapping(t_string_memory_ptr,t_uint256)"},{"astId":929,"contract":"contracts/Escrow.sol:Escrow","label":"isIdForInvestor","offset":0,"slot":"10","type":"t_mapping(t_address,t_mapping(t_uint256,t_bool))"},{"astId":936,"contract":"contracts/Escrow.sol:Escrow","label":"loanProviderDetails","offset":0,"slot":"11","type":"t_mapping(t_address,t_mapping(t_uint256,t_struct(LoanProviderRecord)919_storage))"},{"astId":941,"contract":"contracts/Escrow.sol:Escrow","label":"allIdentificationAssociatedWithLoanProviderAddress","offset":0,"slot":"12","type":"t_mapping(t_address,t_array(t_uint256)dyn_storage)"}],"types":{"t_address":{"encoding":"inplace","label":"address","numberOfBytes":"20"},"t_array(t_uint256)dyn_storage":{"base":"t_uint256","encoding":"dynamic_array","label":"uint256[]","numberOfBytes":"32"},"t_bool":{"encoding":"inplace","label":"bool","numberOfBytes":"1"},"t_mapping(t_address,t_array(t_uint256)dyn_storage)":{"encoding":"mapping","key":"t_address","label":"mapping(address => uint256[])","numberOfBytes":"32","value":"t_array(t_uint256)dyn_storage"},"t_mapping(t_address,t_mapping(t_uint256,t_bool))":{"encoding":"mapping","key":"t_address","label":"mapping(address => mapping(uint256 => bool))","numberOfBytes":"32","value":"t_mapping(t_uint256,t_bool)"},"t_mapping(t_address,t_mapping(t_uint256,t_struct(LoanProviderRecord)919_storage))":{"encoding":"mapping","key":"t_address","label":"mapping(address => mapping(uint256 => struct Escrow.LoanProviderRecord))","numberOfBytes":"32","value":"t_mapping(t_uint256,t_struct(LoanProviderRecord)919_storage)"},"t_mapping(t_string_memory_ptr,t_uint256)":{"encoding":"mapping","key":"t_string_memory_ptr","label":"mapping(string => uint256)","numberOfBytes":"32","value":"t_uint256"},"t_mapping(t_uint256,t_bool)":{"encoding":"mapping","key":"t_uint256","label":"mapping(uint256 => bool)","numberOfBytes":"32","value":"t_bool"},"t_mapping(t_uint256,t_struct(LoanProviderRecord)919_storage)":{"encoding":"mapping","key":"t_uint256","label":"mapping(uint256 => struct Escrow.LoanProviderRecord)","numberOfBytes":"32","value":"t_struct(LoanProviderRecord)919_storage"},"t_string_memory_ptr":{"encoding":"bytes","label":"string","numberOfBytes":"32"},"t_string_storage":{"encoding":"bytes","label":"string","numberOfBytes":"32"},"t_struct(LoanProviderRecord)919_storage":{"encoding":"inplace","label":"struct Escrow.LoanProviderRecord","members":[{"astId":904,"contract":"contracts/Escrow.sol:Escrow","label":"_loanProviderAddress","offset":0,"slot":"0","type":"t_address"},{"astId":906,"contract":"contracts/Escrow.sol:Escrow","label":"_identificationNumber","offset":0,"slot":"1","type":"t_uint256"},{"astId":908,"contract":"contracts/Escrow.sol:Escrow","label":"_amountInvested","offset":0,"slot":"2","type":"t_uint256"},{"astId":910,"contract":"contracts/Escrow.sol:Escrow","label":"_interestPercentage","offset":0,"slot":"3","type":"t_uint256"},{"astId":912,"contract":"contracts/Escrow.sol:Escrow","label":"_collectedTax","offset":0,"slot":"4","type":"t_uint256"},{"astId":914,"contract":"contracts/Escrow.sol:Escrow","label":"_actualAmountInvested","offset":0,"slot":"5","type":"t_uint256"},{"astId":916,"contract":"contracts/Escrow.sol:Escrow","label":"_selectedBond","offset":0,"slot":"6","type":"t_string_storage"},{"astId":918,"contract":"contracts/Escrow.sol:Escrow","label":"_speculatingInterestAndPrincipal","offset":0,"slot":"7","type":"t_uint256"}],"numberOfBytes":"256"},"t_uint256":{"encoding":"inplace","label":"uint256","numberOfBytes":"32"}}}}}}