{"contracts/Escrow.sol":{"Escrow":{"abi":[{"inputs":[{"internalType":"address","name":"_registrationContract","type":"address"},{"internalType":"address","name":"_usdcAddress","type":"address"}],"stateMutability":"nonpayable","type":"constructor"},{"anonymous":false,"inputs":[{"indexed":true,"internalType":"address","name":"_ad","type":"address"},{"indexed":true,"internalType":"uint256","name":"_identificationNumber","type":"uint256"}],"name":"DepositedByBorrower","type":"event"},{"anonymous":false,"inputs":[{"indexed":true,"internalType":"address","name":"_fundProvider","type":"address"},{"indexed":true,"internalType":"uint256","name":"_tokens","type":"uint256"},{"indexed":true,"internalType":"uint256","name":"_success","type":"uint256"}],"name":"investedByFundProvider","type":"event"},{"inputs":[{"internalType":"address","name":"","type":"address"},{"internalType":"string","name":"","type":"string"}],"name":"borrowerIdentityNumber","outputs":[{"internalType":"uint256","name":"","type":"uint256"}],"stateMutability":"view","type":"function"},{"inputs":[{"internalType":"address","name":"","type":"address"},{"internalType":"string","name":"","type":"string"}],"name":"businessRisk","outputs":[{"internalType":"string","name":"","type":"string"}],"stateMutability":"view","type":"function"},{"inputs":[{"internalType":"uint256","name":"_identificationNumber","type":"uint256"},{"internalType":"address","name":"_fundProvider","type":"address"}],"name":"claimTokenFromFundProvider","outputs":[],"stateMutability":"nonpayable","type":"function"},{"inputs":[],"name":"collateralPercentage","outputs":[{"internalType":"uint256","name":"","type":"uint256"}],"stateMutability":"view","type":"function"},{"inputs":[{"internalType":"uint256","name":"_askingMoney","type":"uint256"},{"internalType":"string","name":"_businessName","type":"string"},{"internalType":"string","name":"_risk","type":"string"},{"internalType":"uint256","name":"_dueNos","type":"uint256"},{"internalType":"uint256","name":"_matureDate","type":"uint256"}],"name":"depositByBorrower","outputs":[],"stateMutability":"nonpayable","type":"function"},{"inputs":[{"internalType":"uint256","name":"_amount","type":"uint256"},{"internalType":"string","name":"_bondType","type":"string"},{"internalType":"uint256","name":"_identificationNumber","type":"uint256"}],"name":"depositByFundProvider","outputs":[],"stateMutability":"nonpayable","type":"function"},{"inputs":[{"internalType":"address","name":"_borrower","type":"address"},{"internalType":"uint256","name":"_identificationNumber","type":"uint256"}],"name":"depositCollateralToFundProvider","outputs":[],"stateMutability":"nonpayable","type":"function"},{"inputs":[{"internalType":"uint256","name":"_amount","type":"uint256"}],"name":"depositTreasury","outputs":[],"stateMutability":"nonpayable","type":"function"},{"inputs":[{"internalType":"address","name":"_user","type":"address"},{"internalType":"uint256","name":"_identificationNumber","type":"uint256"}],"name":"enquiryFundDetailsFundProvider","outputs":[{"components":[{"internalType":"address","name":"_loanProviderAddress","type":"address"},{"internalType":"uint256","name":"_identityNumber","type":"uint256"},{"internalType":"uint256","name":"_duration","type":"uint256"},{"internalType":"uint256","name":"_amountInvested","type":"uint256"},{"internalType":"uint256","name":"_interestPercentage","type":"uint256"},{"internalType":"uint256","name":"_collectedTax","type":"uint256"},{"internalType":"uint256","name":"_actualAmountInvested","type":"uint256"},{"internalType":"string","name":"_selectedBond","type":"string"},{"internalType":"uint256","name":"_speculatingInterestAndPrincipal","type":"uint256"}],"internalType":"struct Escrow.LoanProviderRecord","name":"details","type":"tuple"}],"stateMutability":"view","type":"function"},{"inputs":[{"internalType":"address","name":"","type":"address"},{"internalType":"uint256","name":"","type":"uint256"}],"name":"finalBalance","outputs":[{"internalType":"uint256","name":"","type":"uint256"}],"stateMutability":"view","type":"function"},{"inputs":[],"name":"getContractBalance","outputs":[{"internalType":"uint256","name":"","type":"uint256"}],"stateMutability":"view","type":"function"},{"inputs":[],"name":"interestPercForBorrowerWhileRetuning","outputs":[{"internalType":"uint256","name":"","type":"uint256"}],"stateMutability":"view","type":"function"},{"inputs":[{"internalType":"address","name":"_borrower","type":"address"},{"internalType":"uint256","name":"_identificationNumber","type":"uint256"}],"name":"readDashboardBorrower","outputs":[{"internalType":"string","name":"businessName","type":"string"},{"internalType":"uint256","name":"askingTokenValue","type":"uint256"},{"internalType":"uint256","name":"totalAmountInvestedForThisIndentity","type":"uint256"}],"stateMutability":"view","type":"function"},{"inputs":[{"internalType":"address","name":"_borrower","type":"address"},{"internalType":"uint256","name":"_identificationNumber","type":"uint256"}],"name":"readDetailsForBorrower","outputs":[{"internalType":"uint256","name":"collateralAmt","type":"uint256"},{"internalType":"uint256","name":"fundToBeRaised","type":"uint256"},{"internalType":"uint256","name":"interestRate","type":"uint256"},{"internalType":"uint256","name":"perDueAmount","type":"uint256"},{"internalType":"uint256","name":"principalAndInterestToPay","type":"uint256"},{"internalType":"uint256","name":"maturityDate","type":"uint256"}],"stateMutability":"view","type":"function"},{"inputs":[{"internalType":"address","name":"_fundProvider","type":"address"},{"internalType":"uint256","name":"_identificationNumber","type":"uint256"}],"name":"readDetailsPageFundProvider","outputs":[{"internalType":"uint256","name":"investedAmount","type":"uint256"},{"internalType":"uint256","name":"interestRate","type":"uint256"},{"internalType":"string","name":"riskLevel","type":"string"},{"internalType":"uint256","name":"principalAndInterest","type":"uint256"},{"internalType":"uint256","name":"maturityDate","type":"uint256"}],"stateMutability":"view","type":"function"},{"inputs":[],"name":"registrationContractAddress","outputs":[{"internalType":"address","name":"","type":"address"}],"stateMutability":"view","type":"function"},{"inputs":[{"internalType":"uint256","name":"_identificationNumber","type":"uint256"}],"name":"releasePaymentToFundProvider","outputs":[],"stateMutability":"nonpayable","type":"function"},{"inputs":[{"internalType":"address","name":"","type":"address"},{"internalType":"uint256","name":"","type":"uint256"}],"name":"remainingBalanceForBorrower","outputs":[{"internalType":"uint256","name":"","type":"uint256"}],"stateMutability":"view","type":"function"},{"inputs":[{"internalType":"uint256","name":"_identificationNumber","type":"uint256"}],"name":"repayBorrowedLoan","outputs":[],"stateMutability":"nonpayable","type":"function"},{"inputs":[{"internalType":"address","name":"","type":"address"},{"internalType":"uint256","name":"","type":"uint256"}],"name":"statusOfBorrower","outputs":[{"internalType":"bool","name":"","type":"bool"}],"stateMutability":"view","type":"function"},{"inputs":[],"name":"taxedTokens","outputs":[{"internalType":"uint256","name":"","type":"uint256"}],"stateMutability":"view","type":"function"},{"inputs":[],"name":"tokensInPool","outputs":[{"internalType":"uint256","name":"","type":"uint256"}],"stateMutability":"view","type":"function"},{"inputs":[],"name":"usdcAddress","outputs":[{"internalType":"contract IERC20","name":"","type":"address"}],"stateMutability":"view","type":"function"},{"inputs":[{"internalType":"uint256","name":"_identificationNumber","type":"uint256"}],"name":"withdrawCollateralByBorrower","outputs":[],"stateMutability":"nonpayable","type":"function"}],"evm":{"bytecode":{"linkReferences":{},"object":"60c060405260036080819052626c6f7760e81b60a09081526200002691600291906200016e565b50604080518082019091526006808252656d656469756d60d01b602090920191825262000056916003916200016e565b50604080518082019091526004808252630d0d2ced60e31b60209092019182526200008291816200016e565b50601e600855600b6009553480156200009a57600080fd5b506040516200246438038062002464833981016040819052620000bd9162000231565b600080546001600160a01b038085166001600160a01b031992831617909255600180549284169290911691909117905560646005908155604051600a906200010890600290620002a6565b908152602001604051809103902081905550600a8060036040516200012e9190620002a6565b9081526020016040518091039020819055506014600a6004604051620001559190620002a6565b90815260405190819003602001902055506200034a9050565b8280546200017c9062000269565b90600052602060002090601f016020900481019282620001a05760008555620001eb565b82601f10620001bb57805160ff1916838001178555620001eb565b82800160010185558215620001eb579182015b82811115620001eb578251825591602001919060010190620001ce565b50620001f9929150620001fd565b5090565b5b80821115620001f95760008155600101620001fe565b80516001600160a01b03811681146200022c57600080fd5b919050565b600080604083850312156200024557600080fd5b620002508362000214565b9150620002606020840162000214565b90509250929050565b600181811c908216806200027e57607f821691505b60208210811415620002a057634e487b7160e01b600052602260045260246000fd5b50919050565b600080835481600182811c915080831680620002c357607f831692505b6020808410821415620002e457634e487b7160e01b86526022600452602486fd5b818015620002fb57600181146200030d576200033c565b60ff198616895284890196506200033c565b60008a81526020902060005b86811015620003345781548b82015290850190830162000319565b505084890196505b509498975050505050505050565b61210a806200035a6000396000f3fe608060405234801561001057600080fd5b50600436106101585760003560e01c8063aa301c85116100c3578063e4fca76a1161007c578063e4fca76a146103a1578063e90d79d4146103b4578063ea9b2d8e146103c7578063eb356404146103da578063f4e2c05d146103fe578063fb04a8841461041157600080fd5b8063aa301c85146102d0578063bd12240a146102fb578063c6ed8f5e1461030e578063d59324e91461034c578063d5adf0331461035f578063dd18ba2b1461037f57600080fd5b806368254e641161011557806368254e64146101de5780636d40111f146102095780636f9fb98a1461021c57806376d628b7146102245780637ee222d31461022d5780638b71a5991461024d57600080fd5b806302d454571461015d5780631551e2de1461018d5780631c3e323a146101a2578063308352e8146101b557806332182225146101cc57806340e1e4c7146101d5575b600080fd5b600154610170906001600160a01b031681565b6040516001600160a01b0390911681526020015b60405180910390f35b6101a061019b366004611b28565b61044d565b005b6101a06101b0366004611b5d565b61053c565b6101be60085481565b604051908152602001610184565b6101be60095481565b6101be60075481565b6101be6101ec366004611b89565b600e60209081526000928352604080842090915290825290205481565b600054610170906001600160a01b031681565b6101be610703565b6101be60065481565b61024061023b366004611b89565b610784565b6040516101849190611c0b565b6102a361025b366004611b89565b6001600160a01b03919091166000908152600f60209081526040808320938352929052206002810154815460095460078401546008850154600a909501549395929491939092565b604080519687526020870195909552938501929092526060840152608083015260a082015260c001610184565b6101be6102de366004611b89565b601260209081526000928352604080842090915290825290205481565b6101a0610309366004611b28565b6108fa565b61033c61031c366004611b89565b601360209081526000928352604080842090915290825290205460ff1681565b6040519015158152602001610184565b6101a061035a366004611b28565b6109b6565b61037261036d366004611d34565b610bb8565b6040516101849190611d82565b61039261038d366004611b89565b610c6e565b60405161018493929190611d9c565b6101a06103af366004611b89565b610d43565b6101a06103c2366004611dc1565b610f26565b6101a06103d5366004611b28565b61134f565b6103ed6103e8366004611b89565b61158b565b604051610184959493929190611e11565b6101a061040c366004611e44565b611678565b6101be61041f366004611d34565b6010602090815260009283526040909220815180830184018051928152908401929093019190912091525481565b33600090815260126020908152604080832084845290915290205461053957336000818152600f60209081526040808320858452909152908190206002015460015491516323b872dd60e01b815290926001600160a01b03909216916323b872dd916104c0919030908690600401611ec3565b602060405180830381600087803b1580156104da57600080fd5b505af11580156104ee573d6000803e3d6000fd5b505050506040513d601f19601f820116820180604052508101906105129190611ee7565b6105375760405162461bcd60e51b815260040161052e90611f09565b60405180910390fd5b505b50565b6000546040516350d5740f60e01b81523360048201526001600160a01b039091169081906350d5740f9060240160206040518083038186803b15801561058157600080fd5b505afa158015610595573d6000803e3d6000fd5b505050506040513d601f19601f820116820180604052508101906105b99190611ee7565b6105d55760405162461bcd60e51b815260040161052e90611f40565b6001600160a01b0382166000908152600b6020908152604080832086845290915290205460ff166106385760405162461bcd60e51b815260206004820152600d60248201526c191d595cc8185c99481c185a59609a1b604482015260640161052e565b6001600160a01b038281166000908152600c602090815260408083208784529091529081902060060154600154915163a9059cbb60e01b8152336004820152602481018290529092919091169063a9059cbb906044015b602060405180830381600087803b1580156106a957600080fd5b505af11580156106bd573d6000803e3d6000fd5b505050506040513d601f19601f820116820180604052508101906106e19190611ee7565b6106fd5760405162461bcd60e51b815260040161052e90611f09565b50505050565b6001546040516370a0823160e01b81523060048201526000916001600160a01b0316906370a082319060240160206040518083038186803b15801561074757600080fd5b505afa15801561075b573d6000803e3d6000fd5b505050506040513d601f19601f8201168201806040525081019061077f9190611f8f565b905090565b6107dc60405180610120016040528060006001600160a01b0316815260200160008152602001600081526020016000815260200160008152602001600081526020016000815260200160608152602001600081525090565b6001600160a01b038084166000908152600c60209081526040808320868452825291829020825161012081018452815490941684526001810154918401919091526002810154918301919091526003810154606083015260048101546080830152600581015460a0830152600681015460c083015260078101805460e08401919061086690611fa8565b80601f016020809104026020016040519081016040528092919081815260200182805461089290611fa8565b80156108df5780601f106108b4576101008083540402835291602001916108df565b820191906000526020600020905b8154815290600101906020018083116108c257829003601f168201915b50505050508152602001600882015481525050905092915050565b6001546040516323b872dd60e01b81526001600160a01b03909116906323b872dd9061092e90339030908690600401611ec3565b602060405180830381600087803b15801561094857600080fd5b505af115801561095c573d6000803e3d6000fd5b505050506040513d601f19601f820116820180604052508101906109809190611ee7565b61099c5760405162461bcd60e51b815260040161052e90611f09565b80600760008282546109ae9190611ff9565b909155505050565b336000908152600b6020908152604080832084845290915290205460ff16610a145760405162461bcd60e51b815260206004820152601160248201527020b63932b0b23c903bb4ba34323930bbb760791b604482015260640161052e565b336000908152600c60209081526040808320848452909152902060020154421015610a815760405162461bcd60e51b815260206004820152601960248201527f54696d6520686173206e6f742065786365656465642079657400000000000000604482015260640161052e565b336000818152600e602090815260408083208584529091529081902054600154915163a9059cbb60e01b8152600481019390935260248301819052916001600160a01b039091169063a9059cbb90604401602060405180830381600087803b158015610aec57600080fd5b505af1158015610b00573d6000803e3d6000fd5b505050506040513d601f19601f82011682018060405250810190610b249190611ee7565b610b7a5760405162461bcd60e51b815260206004820152602160248201527f546f6b656e207472616e73666572206661696c6564206f7220726576657274656044820152601960fa1b606482015260840161052e565b8060076000828254610b8c9190612011565b9091555050336000908152600b6020908152604080832094835293905291909120805460ff1916905550565b6011602090815260009283526040909220815180830184018051928152908401929093019190912091528054610bed90611fa8565b80601f0160208091040260200160405190810160405280929190818152602001828054610c1990611fa8565b8015610c665780601f10610c3b57610100808354040283529160200191610c66565b820191906000526020600020905b815481529060010190602001808311610c4957829003601f168201915b505050505081565b6001600160a01b0382166000908152600f60209081526040808320848452825280832080546014909352908320546001909101805460609493849390918390610cb690611fa8565b80601f0160208091040260200160405190810160405280929190818152602001828054610ce290611fa8565b8015610d2f5780601f10610d0457610100808354040283529160200191610d2f565b820191906000526020600020905b815481529060010190602001808311610d1257829003601f168201915b505050505092509250925092509250925092565b60005460405163b5f4488560e01b81523360048201526001600160a01b0390911690819063b5f448859060240160206040518083038186803b158015610d8857600080fd5b505afa158015610d9c573d6000803e3d6000fd5b505050506040513d601f19601f82011682018060405250810190610dc09190611ee7565b610ddc5760405162461bcd60e51b815260040161052e90612028565b336000908152600b6020908152604080832085845290915290205460ff16610e625760405162461bcd60e51b815260206004820152603360248201527f4964656e74696669636174696f6e206973206e6f74206c696e6b656420796574604482015272103bb4ba3410333ab73210383937bb34b232b960691b606482015260840161052e565b6001600160a01b038316600090815260126020908152604080832085845290915290205415610ed35760405162461bcd60e51b815260206004820152601a60248201527f43616e6e6f7420776974686472617720636f6c6c61746572616c000000000000604482015260640161052e565b336000818152600f60209081526040808320868452909152908190206002015460015491516323b872dd60e01b815290926001600160a01b03909216916323b872dd9161068f9130918690600401611ec3565b60005460405163b5f4488560e01b81523360048201526001600160a01b0390911690819063b5f448859060240160206040518083038186803b158015610f6b57600080fd5b505afa158015610f7f573d6000803e3d6000fd5b505050506040513d601f19601f82011682018060405250810190610fa39190611ee7565b610fbf5760405162461bcd60e51b815260040161052e90612028565b336000818152600b602090815260408083208684528252808320805460ff19166001908117909155848452600c835281842087855290925290912080546001600160a01b03191690921782550182905561101a4260b4611ff9565b336000908152600c60209081526040808320868452909152908190206002810192909255600390910185905551600a90611055908590612077565b908152604080516020928190038301902054336000908152600c84528281208682529093529120600481019190915560030154606490611096906001612093565b6110a091906120b2565b336000908152600c602090815260408083208684529091528120600501829055600680549091906110d2908490611ff9565b9091555050336000908152600c602090815260408083208584528252909120845161110592600790920191860190611a8f565b50336000908152600c60209081526040808320858452909152902060058101546003909101546111359190612011565b336000908152600c60209081526040808320868452825280832060060184905560149091528120805490919061116c908490611ff9565b9091555050336000908152600c6020908152604080832085845290915281206006015460078054919290916111a2908490611ff9565b9091555050336000908152600c60209081526040808320858452909152812060048101546006909101546064916111d891612093565b6111e291906120b2565b336000908152600c6020908152604080832087845290915290206006015490915061120e908290611ff9565b336000908152600c60209081526040808320878452909152902060088101919091556006015461123f908290611ff9565b336000818152600e60209081526040808320888452825280832094909455828252600d815283822080546001808201835591845291909220018690555491516323b872dd60e01b81526001600160a01b03909216916323b872dd916112aa9130908a90600401611ec3565b602060405180830381600087803b1580156112c457600080fd5b505af11580156112d8573d6000803e3d6000fd5b505050506040513d601f19601f820116820180604052508101906112fc9190611ee7565b6113185760405162461bcd60e51b815260040161052e90611f09565b60405160c890869033907feeed0c4b0fe13660511b06c2da029de353ccceee62a67861786241bf2ebd598e90600090a45050505050565b6000546040516350d5740f60e01b81523360048201526001600160a01b039091169081906350d5740f9060240160206040518083038186803b15801561139457600080fd5b505afa1580156113a8573d6000803e3d6000fd5b505050506040513d601f19601f820116820180604052508101906113cc9190611ee7565b6113e85760405162461bcd60e51b815260040161052e90611f40565b3360009081526012602090815260408083208584529091529020546114435760405162461bcd60e51b8152602060048201526011602482015270105b1b08191d595cc8185c99481c185a59607a1b604482015260640161052e565b3360009081526012602090815260408083208584529091529020541561053757336000818152600f60209081526040808320868452909152908190206007015460015491516323b872dd60e01b815290926001600160a01b03909216916323b872dd916114b7919030908690600401611ec3565b602060405180830381600087803b1580156114d157600080fd5b505af11580156114e5573d6000803e3d6000fd5b505050506040513d601f19601f820116820180604052508101906115099190611ee7565b6115255760405162461bcd60e51b815260040161052e90611f09565b336000908152600f6020908152604080832086845290915281206008018054839290611552908490612011565b909155505033600090815260126020908152604080832086845290915281208054839290611581908490612011565b9091555050505050565b6001600160a01b0382166000908152600c6020908152604080832084845290915281206003810154600482015460088301546002840154600790940180548695606095879586959194909390929083906115e490611fa8565b80601f016020809104026020016040519081016040528092919081815260200182805461161090611fa8565b801561165d5780601f106116325761010080835404028352916020019161165d565b820191906000526020600020905b81548152906001019060200180831161164057829003601f168201915b50505050509250945094509450945094509295509295909350565b6000546040516350d5740f60e01b81523360048201526001600160a01b039091169081906350d5740f9060240160206040518083038186803b1580156116bd57600080fd5b505afa1580156116d1573d6000803e3d6000fd5b505050506040513d601f19601f820116820180604052508101906116f59190611ee7565b6117115760405162461bcd60e51b815260040161052e90611f40565b60055461171f906001611ff9565b6005556008546000906064906117359089612093565b61173f91906120b2565b905060006064611750836001612093565b61175a91906120b2565b9050806006600082825461176e9190611ff9565b90915550600090506117808284612011565b9050600061178e838b612011565b905089600f6000336001600160a01b03166001600160a01b03168152602001908152602001600020600060055481526020019081526020016000206000018190555088600f6000336001600160a01b03166001600160a01b0316815260200190815260200160002060006005548152602001908152602001600020600101908051906020019061181f929190611a8f565b50336000908152600f6020908152604080832060058054855290835281842060020186905580548085529190932060038101919091558a516118689391909101918b0190611a8f565b50336000908152600f6020908152604080832060058054855292528083206004018690559054825281206006018890556009546064906118a89084612093565b6118b291906120b2565b905060006118c0828d611ff9565b905060006118ce8a836120b2565b336000818152600f602090815260408083206005805485529083528184206007018690558054845281842060080188905580548452818420600a018f9055549383526010909152908190209051929350909161192b908f90612077565b908152604080516020928190038301812093909355336000908152601190925290208c9161195a908f90612077565b9081526020016040518091039020908051906020019061197b929190611a8f565b50336000818152600f6020908152604080832060055480855290835281842060080154858552601284528285209185529252918290205560015490516323b872dd60e01b81526001600160a01b03909116916323b872dd916119e4919030908a90600401611ec3565b602060405180830381600087803b1580156119fe57600080fd5b505af1158015611a12573d6000803e3d6000fd5b505050506040513d601f19601f82011682018060405250810190611a369190611ee7565b611a525760405162461bcd60e51b815260040161052e90611f09565b60055460405133907fda22cea5a2a648e8ede8d3bf25fb058e5b8e6f1e9cfbdbd64cc8e90e61b75d3490600090a350505050505050505050505050565b828054611a9b90611fa8565b90600052602060002090601f016020900481019282611abd5760008555611b03565b82601f10611ad657805160ff1916838001178555611b03565b82800160010185558215611b03579182015b82811115611b03578251825591602001919060010190611ae8565b50611b0f929150611b13565b5090565b5b80821115611b0f5760008155600101611b14565b600060208284031215611b3a57600080fd5b5035919050565b80356001600160a01b0381168114611b5857600080fd5b919050565b60008060408385031215611b7057600080fd5b82359150611b8060208401611b41565b90509250929050565b60008060408385031215611b9c57600080fd5b611ba583611b41565b946020939093013593505050565b60005b83811015611bce578181015183820152602001611bb6565b838111156106fd5750506000910152565b60008151808452611bf7816020860160208601611bb3565b601f01601f19169290920160200192915050565b60208152611c256020820183516001600160a01b03169052565b602082015160408201526040820151606082015260608201516080820152608082015160a082015260a082015160c082015260c082015160e0820152600060e08301516101206101008181860152611c81610140860184611bdf565b9501519301929092525090919050565b634e487b7160e01b600052604160045260246000fd5b600082601f830112611cb857600080fd5b813567ffffffffffffffff80821115611cd357611cd3611c91565b604051601f8301601f19908116603f01168101908282118183101715611cfb57611cfb611c91565b81604052838152866020858801011115611d1457600080fd5b836020870160208301376000602085830101528094505050505092915050565b60008060408385031215611d4757600080fd5b611d5083611b41565b9150602083013567ffffffffffffffff811115611d6c57600080fd5b611d7885828601611ca7565b9150509250929050565b602081526000611d956020830184611bdf565b9392505050565b606081526000611daf6060830186611bdf565b60208301949094525060400152919050565b600080600060608486031215611dd657600080fd5b83359250602084013567ffffffffffffffff811115611df457600080fd5b611e0086828701611ca7565b925050604084013590509250925092565b85815284602082015260a060408201526000611e3060a0830186611bdf565b606083019490945250608001529392505050565b600080600080600060a08688031215611e5c57600080fd5b85359450602086013567ffffffffffffffff80821115611e7b57600080fd5b611e8789838a01611ca7565b95506040880135915080821115611e9d57600080fd5b50611eaa88828901611ca7565b9598949750949560608101359550608001359392505050565b6001600160a01b039384168152919092166020820152604081019190915260600190565b600060208284031215611ef957600080fd5b81518015158114611d9557600080fd5b6020808252601e908201527f7472616e73616374696f6e206661696c6564206f722072657665727465640000604082015260600190565b6020808252602f908201527f546865206c6f616e20626f72726f7765722061646472657373206973206e6f7460408201526e081c9959da5cdd195c9959081e595d608a1b606082015260800190565b600060208284031215611fa157600080fd5b5051919050565b600181811c90821680611fbc57607f821691505b60208210811415611fdd57634e487b7160e01b600052602260045260246000fd5b50919050565b634e487b7160e01b600052601160045260246000fd5b6000821982111561200c5761200c611fe3565b500190565b60008282101561202357612023611fe3565b500390565b6020808252602f908201527f546865206c6f616e2070726f76696465722061646472657373206973206e6f7460408201526e081c9959da5cdd195c9959081e595d608a1b606082015260800190565b60008251612089818460208701611bb3565b9190910192915050565b60008160001904831182151516156120ad576120ad611fe3565b500290565b6000826120cf57634e487b7160e01b600052601260045260246000fd5b50049056fea264697066735822122031f9eb2a8555db98398a4fef171c2c1f904c5c775c7ec7ed9e56d99fe08bb71564736f6c63430008090033","opcodes":"PUSH1 0xC0 PUSH1 0x40 MSTORE PUSH1 0x3 PUSH1 0x80 DUP2 SWAP1 MSTORE PUSH3 0x6C6F77 PUSH1 0xE8 SHL PUSH1 0xA0 SWAP1 DUP2 MSTORE PUSH3 0x26 SWAP2 PUSH1 0x2 SWAP2 SWAP1 PUSH3 0x16E JUMP JUMPDEST POP PUSH1 0x40 DUP1 MLOAD DUP1 DUP3 ADD SWAP1 SWAP2 MSTORE PUSH1 0x6 DUP1 DUP3 MSTORE PUSH6 0x6D656469756D PUSH1 0xD0 SHL PUSH1 0x20 SWAP1 SWAP3 ADD SWAP2 DUP3 MSTORE PUSH3 0x56 SWAP2 PUSH1 0x3 SWAP2 PUSH3 0x16E JUMP JUMPDEST POP PUSH1 0x40 DUP1 MLOAD DUP1 DUP3 ADD SWAP1 SWAP2 MSTORE PUSH1 0x4 DUP1 DUP3 MSTORE PUSH4 0xD0D2CED PUSH1 0xE3 SHL PUSH1 0x20 SWAP1 SWAP3 ADD SWAP2 DUP3 MSTORE PUSH3 0x82 SWAP2 DUP2 PUSH3 0x16E JUMP JUMPDEST POP PUSH1 0x1E PUSH1 0x8 SSTORE PUSH1 0xB PUSH1 0x9 SSTORE CALLVALUE DUP1 ISZERO PUSH3 0x9A JUMPI PUSH1 0x0 DUP1 REVERT JUMPDEST POP PUSH1 0x40 MLOAD PUSH3 0x2464 CODESIZE SUB DUP1 PUSH3 0x2464 DUP4 CODECOPY DUP2 ADD PUSH1 0x40 DUP2 SWAP1 MSTORE PUSH3 0xBD SWAP2 PUSH3 0x231 JUMP JUMPDEST PUSH1 0x0 DUP1 SLOAD PUSH1 0x1 PUSH1 0x1 PUSH1 0xA0 SHL SUB DUP1 DUP6 AND PUSH1 0x1 PUSH1 0x1 PUSH1 0xA0 SHL SUB NOT SWAP3 DUP4 AND OR SWAP1 SWAP3 SSTORE PUSH1 0x1 DUP1 SLOAD SWAP3 DUP5 AND SWAP3 SWAP1 SWAP2 AND SWAP2 SWAP1 SWAP2 OR SWAP1 SSTORE PUSH1 0x64 PUSH1 0x5 SWAP1 DUP2 SSTORE PUSH1 0x40 MLOAD PUSH1 0xA SWAP1 PUSH3 0x108 SWAP1 PUSH1 0x2 SWAP1 PUSH3 0x2A6 JUMP JUMPDEST SWAP1 DUP2 MSTORE PUSH1 0x20 ADD PUSH1 0x40 MLOAD DUP1 SWAP2 SUB SWAP1 KECCAK256 DUP2 SWAP1 SSTORE POP PUSH1 0xA DUP1 PUSH1 0x3 PUSH1 0x40 MLOAD PUSH3 0x12E SWAP2 SWAP1 PUSH3 0x2A6 JUMP JUMPDEST SWAP1 DUP2 MSTORE PUSH1 0x20 ADD PUSH1 0x40 MLOAD DUP1 SWAP2 SUB SWAP1 KECCAK256 DUP2 SWAP1 SSTORE POP PUSH1 0x14 PUSH1 0xA PUSH1 0x4 PUSH1 0x40 MLOAD PUSH3 0x155 SWAP2 SWAP1 PUSH3 0x2A6 JUMP JUMPDEST SWAP1 DUP2 MSTORE PUSH1 0x40 MLOAD SWAP1 DUP2 SWAP1 SUB PUSH1 0x20 ADD SWAP1 KECCAK256 SSTORE POP PUSH3 0x34A SWAP1 POP JUMP JUMPDEST DUP3 DUP1 SLOAD PUSH3 0x17C SWAP1 PUSH3 0x269 JUMP JUMPDEST SWAP1 PUSH1 0x0 MSTORE PUSH1 0x20 PUSH1 0x0 KECCAK256 SWAP1 PUSH1 0x1F ADD PUSH1 0x20 SWAP1 DIV DUP2 ADD SWAP3 DUP3 PUSH3 0x1A0 JUMPI PUSH1 0x0 DUP6 SSTORE PUSH3 0x1EB JUMP JUMPDEST DUP3 PUSH1 0x1F LT PUSH3 0x1BB JUMPI DUP1 MLOAD PUSH1 0xFF NOT AND DUP4 DUP1 ADD OR DUP6 SSTORE PUSH3 0x1EB JUMP JUMPDEST DUP3 DUP1 ADD PUSH1 0x1 ADD DUP6 SSTORE DUP3 ISZERO PUSH3 0x1EB JUMPI SWAP2 DUP3 ADD JUMPDEST DUP3 DUP2 GT ISZERO PUSH3 0x1EB JUMPI DUP3 MLOAD DUP3 SSTORE SWAP2 PUSH1 0x20 ADD SWAP2 SWAP1 PUSH1 0x1 ADD SWAP1 PUSH3 0x1CE JUMP JUMPDEST POP PUSH3 0x1F9 SWAP3 SWAP2 POP PUSH3 0x1FD JUMP JUMPDEST POP SWAP1 JUMP JUMPDEST JUMPDEST DUP1 DUP3 GT ISZERO PUSH3 0x1F9 JUMPI PUSH1 0x0 DUP2 SSTORE PUSH1 0x1 ADD PUSH3 0x1FE JUMP JUMPDEST DUP1 MLOAD PUSH1 0x1 PUSH1 0x1 PUSH1 0xA0 SHL SUB DUP2 AND DUP2 EQ PUSH3 0x22C JUMPI PUSH1 0x0 DUP1 REVERT JUMPDEST SWAP2 SWAP1 POP JUMP JUMPDEST PUSH1 0x0 DUP1 PUSH1 0x40 DUP4 DUP6 SUB SLT ISZERO PUSH3 0x245 JUMPI PUSH1 0x0 DUP1 REVERT JUMPDEST PUSH3 0x250 DUP4 PUSH3 0x214 JUMP JUMPDEST SWAP2 POP PUSH3 0x260 PUSH1 0x20 DUP5 ADD PUSH3 0x214 JUMP JUMPDEST SWAP1 POP SWAP3 POP SWAP3 SWAP1 POP JUMP JUMPDEST PUSH1 0x1 DUP2 DUP2 SHR SWAP1 DUP3 AND DUP1 PUSH3 0x27E JUMPI PUSH1 0x7F DUP3 AND SWAP2 POP JUMPDEST PUSH1 0x20 DUP3 LT DUP2 EQ ISZERO PUSH3 0x2A0 JUMPI PUSH4 0x4E487B71 PUSH1 0xE0 SHL PUSH1 0x0 MSTORE PUSH1 0x22 PUSH1 0x4 MSTORE PUSH1 0x24 PUSH1 0x0 REVERT JUMPDEST POP SWAP2 SWAP1 POP JUMP JUMPDEST PUSH1 0x0 DUP1 DUP4 SLOAD DUP2 PUSH1 0x1 DUP3 DUP2 SHR SWAP2 POP DUP1 DUP4 AND DUP1 PUSH3 0x2C3 JUMPI PUSH1 0x7F DUP4 AND SWAP3 POP JUMPDEST PUSH1 0x20 DUP1 DUP5 LT DUP3 EQ ISZERO PUSH3 0x2E4 JUMPI PUSH4 0x4E487B71 PUSH1 0xE0 SHL DUP7 MSTORE PUSH1 0x22 PUSH1 0x4 MSTORE PUSH1 0x24 DUP7 REVERT JUMPDEST DUP2 DUP1 ISZERO PUSH3 0x2FB JUMPI PUSH1 0x1 DUP2 EQ PUSH3 0x30D JUMPI PUSH3 0x33C JUMP JUMPDEST PUSH1 0xFF NOT DUP7 AND DUP10 MSTORE DUP5 DUP10 ADD SWAP7 POP PUSH3 0x33C JUMP JUMPDEST PUSH1 0x0 DUP11 DUP2 MSTORE PUSH1 0x20 SWAP1 KECCAK256 PUSH1 0x0 JUMPDEST DUP7 DUP2 LT ISZERO PUSH3 0x334 JUMPI DUP2 SLOAD DUP12 DUP3 ADD MSTORE SWAP1 DUP6 ADD SWAP1 DUP4 ADD PUSH3 0x319 JUMP JUMPDEST POP POP DUP5 DUP10 ADD SWAP7 POP JUMPDEST POP SWAP5 SWAP9 SWAP8 POP POP POP POP POP POP POP POP JUMP JUMPDEST PUSH2 0x210A DUP1 PUSH3 0x35A PUSH1 0x0 CODECOPY PUSH1 0x0 RETURN INVALID PUSH1 0x80 PUSH1 0x40 MSTORE CALLVALUE DUP1 ISZERO PUSH2 0x10 JUMPI PUSH1 0x0 DUP1 REVERT JUMPDEST POP PUSH1 0x4 CALLDATASIZE LT PUSH2 0x158 JUMPI PUSH1 0x0 CALLDATALOAD PUSH1 0xE0 SHR DUP1 PUSH4 0xAA301C85 GT PUSH2 0xC3 JUMPI DUP1 PUSH4 0xE4FCA76A GT PUSH2 0x7C JUMPI DUP1 PUSH4 0xE4FCA76A EQ PUSH2 0x3A1 JUMPI DUP1 PUSH4 0xE90D79D4 EQ PUSH2 0x3B4 JUMPI DUP1 PUSH4 0xEA9B2D8E EQ PUSH2 0x3C7 JUMPI DUP1 PUSH4 0xEB356404 EQ PUSH2 0x3DA JUMPI DUP1 PUSH4 0xF4E2C05D EQ PUSH2 0x3FE JUMPI DUP1 PUSH4 0xFB04A884 EQ PUSH2 0x411 JUMPI PUSH1 0x0 DUP1 REVERT JUMPDEST DUP1 PUSH4 0xAA301C85 EQ PUSH2 0x2D0 JUMPI DUP1 PUSH4 0xBD12240A EQ PUSH2 0x2FB JUMPI DUP1 PUSH4 0xC6ED8F5E EQ PUSH2 0x30E JUMPI DUP1 PUSH4 0xD59324E9 EQ PUSH2 0x34C JUMPI DUP1 PUSH4 0xD5ADF033 EQ PUSH2 0x35F JUMPI DUP1 PUSH4 0xDD18BA2B EQ PUSH2 0x37F JUMPI PUSH1 0x0 DUP1 REVERT JUMPDEST DUP1 PUSH4 0x68254E64 GT PUSH2 0x115 JUMPI DUP1 PUSH4 0x68254E64 EQ PUSH2 0x1DE JUMPI DUP1 PUSH4 0x6D40111F EQ PUSH2 0x209 JUMPI DUP1 PUSH4 0x6F9FB98A EQ PUSH2 0x21C JUMPI DUP1 PUSH4 0x76D628B7 EQ PUSH2 0x224 JUMPI DUP1 PUSH4 0x7EE222D3 EQ PUSH2 0x22D JUMPI DUP1 PUSH4 0x8B71A599 EQ PUSH2 0x24D JUMPI PUSH1 0x0 DUP1 REVERT JUMPDEST DUP1 PUSH4 0x2D45457 EQ PUSH2 0x15D JUMPI DUP1 PUSH4 0x1551E2DE EQ PUSH2 0x18D JUMPI DUP1 PUSH4 0x1C3E323A EQ PUSH2 0x1A2 JUMPI DUP1 PUSH4 0x308352E8 EQ PUSH2 0x1B5 JUMPI DUP1 PUSH4 0x32182225 EQ PUSH2 0x1CC JUMPI DUP1 PUSH4 0x40E1E4C7 EQ PUSH2 0x1D5 JUMPI JUMPDEST PUSH1 0x0 DUP1 REVERT JUMPDEST PUSH1 0x1 SLOAD PUSH2 0x170 SWAP1 PUSH1 0x1 PUSH1 0x1 PUSH1 0xA0 SHL SUB AND DUP2 JUMP JUMPDEST PUSH1 0x40 MLOAD PUSH1 0x1 PUSH1 0x1 PUSH1 0xA0 SHL SUB SWAP1 SWAP2 AND DUP2 MSTORE PUSH1 0x20 ADD JUMPDEST PUSH1 0x40 MLOAD DUP1 SWAP2 SUB SWAP1 RETURN JUMPDEST PUSH2 0x1A0 PUSH2 0x19B CALLDATASIZE PUSH1 0x4 PUSH2 0x1B28 JUMP JUMPDEST PUSH2 0x44D JUMP JUMPDEST STOP JUMPDEST PUSH2 0x1A0 PUSH2 0x1B0 CALLDATASIZE PUSH1 0x4 PUSH2 0x1B5D JUMP JUMPDEST PUSH2 0x53C JUMP JUMPDEST PUSH2 0x1BE PUSH1 0x8 SLOAD DUP2 JUMP JUMPDEST PUSH1 0x40 MLOAD SWAP1 DUP2 MSTORE PUSH1 0x20 ADD PUSH2 0x184 JUMP JUMPDEST PUSH2 0x1BE PUSH1 0x9 SLOAD DUP2 JUMP JUMPDEST PUSH2 0x1BE PUSH1 0x7 SLOAD DUP2 JUMP JUMPDEST PUSH2 0x1BE PUSH2 0x1EC CALLDATASIZE PUSH1 0x4 PUSH2 0x1B89 JUMP JUMPDEST PUSH1 0xE PUSH1 0x20 SWAP1 DUP2 MSTORE PUSH1 0x0 SWAP3 DUP4 MSTORE PUSH1 0x40 DUP1 DUP5 KECCAK256 SWAP1 SWAP2 MSTORE SWAP1 DUP3 MSTORE SWAP1 KECCAK256 SLOAD DUP2 JUMP JUMPDEST PUSH1 0x0 SLOAD PUSH2 0x170 SWAP1 PUSH1 0x1 PUSH1 0x1 PUSH1 0xA0 SHL SUB AND DUP2 JUMP JUMPDEST PUSH2 0x1BE PUSH2 0x703 JUMP JUMPDEST PUSH2 0x1BE PUSH1 0x6 SLOAD DUP2 JUMP JUMPDEST PUSH2 0x240 PUSH2 0x23B CALLDATASIZE PUSH1 0x4 PUSH2 0x1B89 JUMP JUMPDEST PUSH2 0x784 JUMP JUMPDEST PUSH1 0x40 MLOAD PUSH2 0x184 SWAP2 SWAP1 PUSH2 0x1C0B JUMP JUMPDEST PUSH2 0x2A3 PUSH2 0x25B CALLDATASIZE PUSH1 0x4 PUSH2 0x1B89 JUMP JUMPDEST PUSH1 0x1 PUSH1 0x1 PUSH1 0xA0 SHL SUB SWAP2 SWAP1 SWAP2 AND PUSH1 0x0 SWAP1 DUP2 MSTORE PUSH1 0xF PUSH1 0x20 SWAP1 DUP2 MSTORE PUSH1 0x40 DUP1 DUP4 KECCAK256 SWAP4 DUP4 MSTORE SWAP3 SWAP1 MSTORE KECCAK256 PUSH1 0x2 DUP2 ADD SLOAD DUP2 SLOAD PUSH1 0x9 SLOAD PUSH1 0x7 DUP5 ADD SLOAD PUSH1 0x8 DUP6 ADD SLOAD PUSH1 0xA SWAP1 SWAP6 ADD SLOAD SWAP4 SWAP6 SWAP3 SWAP5 SWAP2 SWAP4 SWAP1 SWAP3 JUMP JUMPDEST PUSH1 0x40 DUP1 MLOAD SWAP7 DUP8 MSTORE PUSH1 0x20 DUP8 ADD SWAP6 SWAP1 SWAP6 MSTORE SWAP4 DUP6 ADD SWAP3 SWAP1 SWAP3 MSTORE PUSH1 0x60 DUP5 ADD MSTORE PUSH1 0x80 DUP4 ADD MSTORE PUSH1 0xA0 DUP3 ADD MSTORE PUSH1 0xC0 ADD PUSH2 0x184 JUMP JUMPDEST PUSH2 0x1BE PUSH2 0x2DE CALLDATASIZE PUSH1 0x4 PUSH2 0x1B89 JUMP JUMPDEST PUSH1 0x12 PUSH1 0x20 SWAP1 DUP2 MSTORE PUSH1 0x0 SWAP3 DUP4 MSTORE PUSH1 0x40 DUP1 DUP5 KECCAK256 SWAP1 SWAP2 MSTORE SWAP1 DUP3 MSTORE SWAP1 KECCAK256 SLOAD DUP2 JUMP JUMPDEST PUSH2 0x1A0 PUSH2 0x309 CALLDATASIZE PUSH1 0x4 PUSH2 0x1B28 JUMP JUMPDEST PUSH2 0x8FA JUMP JUMPDEST PUSH2 0x33C PUSH2 0x31C CALLDATASIZE PUSH1 0x4 PUSH2 0x1B89 JUMP JUMPDEST PUSH1 0x13 PUSH1 0x20 SWAP1 DUP2 MSTORE PUSH1 0x0 SWAP3 DUP4 MSTORE PUSH1 0x40 DUP1 DUP5 KECCAK256 SWAP1 SWAP2 MSTORE SWAP1 DUP3 MSTORE SWAP1 KECCAK256 SLOAD PUSH1 0xFF AND DUP2 JUMP JUMPDEST PUSH1 0x40 MLOAD SWAP1 ISZERO ISZERO DUP2 MSTORE PUSH1 0x20 ADD PUSH2 0x184 JUMP JUMPDEST PUSH2 0x1A0 PUSH2 0x35A CALLDATASIZE PUSH1 0x4 PUSH2 0x1B28 JUMP JUMPDEST PUSH2 0x9B6 JUMP JUMPDEST PUSH2 0x372 PUSH2 0x36D CALLDATASIZE PUSH1 0x4 PUSH2 0x1D34 JUMP JUMPDEST PUSH2 0xBB8 JUMP JUMPDEST PUSH1 0x40 MLOAD PUSH2 0x184 SWAP2 SWAP1 PUSH2 0x1D82 JUMP JUMPDEST PUSH2 0x392 PUSH2 0x38D CALLDATASIZE PUSH1 0x4 PUSH2 0x1B89 JUMP JUMPDEST PUSH2 0xC6E JUMP JUMPDEST PUSH1 0x40 MLOAD PUSH2 0x184 SWAP4 SWAP3 SWAP2 SWAP1 PUSH2 0x1D9C JUMP JUMPDEST PUSH2 0x1A0 PUSH2 0x3AF CALLDATASIZE PUSH1 0x4 PUSH2 0x1B89 JUMP JUMPDEST PUSH2 0xD43 JUMP JUMPDEST PUSH2 0x1A0 PUSH2 0x3C2 CALLDATASIZE PUSH1 0x4 PUSH2 0x1DC1 JUMP JUMPDEST PUSH2 0xF26 JUMP JUMPDEST PUSH2 0x1A0 PUSH2 0x3D5 CALLDATASIZE PUSH1 0x4 PUSH2 0x1B28 JUMP JUMPDEST PUSH2 0x134F JUMP JUMPDEST PUSH2 0x3ED PUSH2 0x3E8 CALLDATASIZE PUSH1 0x4 PUSH2 0x1B89 JUMP JUMPDEST PUSH2 0x158B JUMP JUMPDEST PUSH1 0x40 MLOAD PUSH2 0x184 SWAP6 SWAP5 SWAP4 SWAP3 SWAP2 SWAP1 PUSH2 0x1E11 JUMP JUMPDEST PUSH2 0x1A0 PUSH2 0x40C CALLDATASIZE PUSH1 0x4 PUSH2 0x1E44 JUMP JUMPDEST PUSH2 0x1678 JUMP JUMPDEST PUSH2 0x1BE PUSH2 0x41F CALLDATASIZE PUSH1 0x4 PUSH2 0x1D34 JUMP JUMPDEST PUSH1 0x10 PUSH1 0x20 SWAP1 DUP2 MSTORE PUSH1 0x0 SWAP3 DUP4 MSTORE PUSH1 0x40 SWAP1 SWAP3 KECCAK256 DUP2 MLOAD DUP1 DUP4 ADD DUP5 ADD DUP1 MLOAD SWAP3 DUP2 MSTORE SWAP1 DUP5 ADD SWAP3 SWAP1 SWAP4 ADD SWAP2 SWAP1 SWAP2 KECCAK256 SWAP2 MSTORE SLOAD DUP2 JUMP JUMPDEST CALLER PUSH1 0x0 SWAP1 DUP2 MSTORE PUSH1 0x12 PUSH1 0x20 SWAP1 DUP2 MSTORE PUSH1 0x40 DUP1 DUP4 KECCAK256 DUP5 DUP5 MSTORE SWAP1 SWAP2 MSTORE SWAP1 KECCAK256 SLOAD PUSH2 0x539 JUMPI CALLER PUSH1 0x0 DUP2 DUP2 MSTORE PUSH1 0xF PUSH1 0x20 SWAP1 DUP2 MSTORE PUSH1 0x40 DUP1 DUP4 KECCAK256 DUP6 DUP5 MSTORE SWAP1 SWAP2 MSTORE SWAP1 DUP2 SWAP1 KECCAK256 PUSH1 0x2 ADD SLOAD PUSH1 0x1 SLOAD SWAP2 MLOAD PUSH4 0x23B872DD PUSH1 0xE0 SHL DUP2 MSTORE SWAP1 SWAP3 PUSH1 0x1 PUSH1 0x1 PUSH1 0xA0 SHL SUB SWAP1 SWAP3 AND SWAP2 PUSH4 0x23B872DD SWAP2 PUSH2 0x4C0 SWAP2 SWAP1 ADDRESS SWAP1 DUP7 SWAP1 PUSH1 0x4 ADD PUSH2 0x1EC3 JUMP JUMPDEST PUSH1 0x20 PUSH1 0x40 MLOAD DUP1 DUP4 SUB DUP2 PUSH1 0x0 DUP8 DUP1 EXTCODESIZE ISZERO DUP1 ISZERO PUSH2 0x4DA JUMPI PUSH1 0x0 DUP1 REVERT JUMPDEST POP GAS CALL ISZERO DUP1 ISZERO PUSH2 0x4EE JUMPI RETURNDATASIZE PUSH1 0x0 DUP1 RETURNDATACOPY RETURNDATASIZE PUSH1 0x0 REVERT JUMPDEST POP POP POP POP PUSH1 0x40 MLOAD RETURNDATASIZE PUSH1 0x1F NOT PUSH1 0x1F DUP3 ADD AND DUP3 ADD DUP1 PUSH1 0x40 MSTORE POP DUP2 ADD SWAP1 PUSH2 0x512 SWAP2 SWAP1 PUSH2 0x1EE7 JUMP JUMPDEST PUSH2 0x537 JUMPI PUSH1 0x40 MLOAD PUSH3 0x461BCD PUSH1 0xE5 SHL DUP2 MSTORE PUSH1 0x4 ADD PUSH2 0x52E SWAP1 PUSH2 0x1F09 JUMP JUMPDEST PUSH1 0x40 MLOAD DUP1 SWAP2 SUB SWAP1 REVERT JUMPDEST POP JUMPDEST POP JUMP JUMPDEST PUSH1 0x0 SLOAD PUSH1 0x40 MLOAD PUSH4 0x50D5740F PUSH1 0xE0 SHL DUP2 MSTORE CALLER PUSH1 0x4 DUP3 ADD MSTORE PUSH1 0x1 PUSH1 0x1 PUSH1 0xA0 SHL SUB SWAP1 SWAP2 AND SWAP1 DUP2 SWAP1 PUSH4 0x50D5740F SWAP1 PUSH1 0x24 ADD PUSH1 0x20 PUSH1 0x40 MLOAD DUP1 DUP4 SUB DUP2 DUP7 DUP1 EXTCODESIZE ISZERO DUP1 ISZERO PUSH2 0x581 JUMPI PUSH1 0x0 DUP1 REVERT JUMPDEST POP GAS STATICCALL ISZERO DUP1 ISZERO PUSH2 0x595 JUMPI RETURNDATASIZE PUSH1 0x0 DUP1 RETURNDATACOPY RETURNDATASIZE PUSH1 0x0 REVERT JUMPDEST POP POP POP POP PUSH1 0x40 MLOAD RETURNDATASIZE PUSH1 0x1F NOT PUSH1 0x1F DUP3 ADD AND DUP3 ADD DUP1 PUSH1 0x40 MSTORE POP DUP2 ADD SWAP1 PUSH2 0x5B9 SWAP2 SWAP1 PUSH2 0x1EE7 JUMP JUMPDEST PUSH2 0x5D5 JUMPI PUSH1 0x40 MLOAD PUSH3 0x461BCD PUSH1 0xE5 SHL DUP2 MSTORE PUSH1 0x4 ADD PUSH2 0x52E SWAP1 PUSH2 0x1F40 JUMP JUMPDEST PUSH1 0x1 PUSH1 0x1 PUSH1 0xA0 SHL SUB DUP3 AND PUSH1 0x0 SWAP1 DUP2 MSTORE PUSH1 0xB PUSH1 0x20 SWAP1 DUP2 MSTORE PUSH1 0x40 DUP1 DUP4 KECCAK256 DUP7 DUP5 MSTORE SWAP1 SWAP2 MSTORE SWAP1 KECCAK256 SLOAD PUSH1 0xFF AND PUSH2 0x638 JUMPI PUSH1 0x40 MLOAD PUSH3 0x461BCD PUSH1 0xE5 SHL DUP2 MSTORE PUSH1 0x20 PUSH1 0x4 DUP3 ADD MSTORE PUSH1 0xD PUSH1 0x24 DUP3 ADD MSTORE PUSH13 0x191D595CC8185C99481C185A59 PUSH1 0x9A SHL PUSH1 0x44 DUP3 ADD MSTORE PUSH1 0x64 ADD PUSH2 0x52E JUMP JUMPDEST PUSH1 0x1 PUSH1 0x1 PUSH1 0xA0 SHL SUB DUP3 DUP2 AND PUSH1 0x0 SWAP1 DUP2 MSTORE PUSH1 0xC PUSH1 0x20 SWAP1 DUP2 MSTORE PUSH1 0x40 DUP1 DUP4 KECCAK256 DUP8 DUP5 MSTORE SWAP1 SWAP2 MSTORE SWAP1 DUP2 SWAP1 KECCAK256 PUSH1 0x6 ADD SLOAD PUSH1 0x1 SLOAD SWAP2 MLOAD PUSH4 0xA9059CBB PUSH1 0xE0 SHL DUP2 MSTORE CALLER PUSH1 0x4 DUP3 ADD MSTORE PUSH1 0x24 DUP2 ADD DUP3 SWAP1 MSTORE SWAP1 SWAP3 SWAP2 SWAP1 SWAP2 AND SWAP1 PUSH4 0xA9059CBB SWAP1 PUSH1 0x44 ADD JUMPDEST PUSH1 0x20 PUSH1 0x40 MLOAD DUP1 DUP4 SUB DUP2 PUSH1 0x0 DUP8 DUP1 EXTCODESIZE ISZERO DUP1 ISZERO PUSH2 0x6A9 JUMPI PUSH1 0x0 DUP1 REVERT JUMPDEST POP GAS CALL ISZERO DUP1 ISZERO PUSH2 0x6BD JUMPI RETURNDATASIZE PUSH1 0x0 DUP1 RETURNDATACOPY RETURNDATASIZE PUSH1 0x0 REVERT JUMPDEST POP POP POP POP PUSH1 0x40 MLOAD RETURNDATASIZE PUSH1 0x1F NOT PUSH1 0x1F DUP3 ADD AND DUP3 ADD DUP1 PUSH1 0x40 MSTORE POP DUP2 ADD SWAP1 PUSH2 0x6E1 SWAP2 SWAP1 PUSH2 0x1EE7 JUMP JUMPDEST PUSH2 0x6FD JUMPI PUSH1 0x40 MLOAD PUSH3 0x461BCD PUSH1 0xE5 SHL DUP2 MSTORE PUSH1 0x4 ADD PUSH2 0x52E SWAP1 PUSH2 0x1F09 JUMP JUMPDEST POP POP POP POP JUMP JUMPDEST PUSH1 0x1 SLOAD PUSH1 0x40 MLOAD PUSH4 0x70A08231 PUSH1 0xE0 SHL DUP2 MSTORE ADDRESS PUSH1 0x4 DUP3 ADD MSTORE PUSH1 0x0 SWAP2 PUSH1 0x1 PUSH1 0x1 PUSH1 0xA0 SHL SUB AND SWAP1 PUSH4 0x70A08231 SWAP1 PUSH1 0x24 ADD PUSH1 0x20 PUSH1 0x40 MLOAD DUP1 DUP4 SUB DUP2 DUP7 DUP1 EXTCODESIZE ISZERO DUP1 ISZERO PUSH2 0x747 JUMPI PUSH1 0x0 DUP1 REVERT JUMPDEST POP GAS STATICCALL ISZERO DUP1 ISZERO PUSH2 0x75B JUMPI RETURNDATASIZE PUSH1 0x0 DUP1 RETURNDATACOPY RETURNDATASIZE PUSH1 0x0 REVERT JUMPDEST POP POP POP POP PUSH1 0x40 MLOAD RETURNDATASIZE PUSH1 0x1F NOT PUSH1 0x1F DUP3 ADD AND DUP3 ADD DUP1 PUSH1 0x40 MSTORE POP DUP2 ADD SWAP1 PUSH2 0x77F SWAP2 SWAP1 PUSH2 0x1F8F JUMP JUMPDEST SWAP1 POP SWAP1 JUMP JUMPDEST PUSH2 0x7DC PUSH1 0x40 MLOAD DUP1 PUSH2 0x120 ADD PUSH1 0x40 MSTORE DUP1 PUSH1 0x0 PUSH1 0x1 PUSH1 0x1 PUSH1 0xA0 SHL SUB AND DUP2 MSTORE PUSH1 0x20 ADD PUSH1 0x0 DUP2 MSTORE PUSH1 0x20 ADD PUSH1 0x0 DUP2 MSTORE PUSH1 0x20 ADD PUSH1 0x0 DUP2 MSTORE PUSH1 0x20 ADD PUSH1 0x0 DUP2 MSTORE PUSH1 0x20 ADD PUSH1 0x0 DUP2 MSTORE PUSH1 0x20 ADD PUSH1 0x0 DUP2 MSTORE PUSH1 0x20 ADD PUSH1 0x60 DUP2 MSTORE PUSH1 0x20 ADD PUSH1 0x0 DUP2 MSTORE POP SWAP1 JUMP JUMPDEST PUSH1 0x1 PUSH1 0x1 PUSH1 0xA0 SHL SUB DUP1 DUP5 AND PUSH1 0x0 SWAP1 DUP2 MSTORE PUSH1 0xC PUSH1 0x20 SWAP1 DUP2 MSTORE PUSH1 0x40 DUP1 DUP4 KECCAK256 DUP7 DUP5 MSTORE DUP3 MSTORE SWAP2 DUP3 SWAP1 KECCAK256 DUP3 MLOAD PUSH2 0x120 DUP2 ADD DUP5 MSTORE DUP2 SLOAD SWAP1 SWAP5 AND DUP5 MSTORE PUSH1 0x1 DUP2 ADD SLOAD SWAP2 DUP5 ADD SWAP2 SWAP1 SWAP2 MSTORE PUSH1 0x2 DUP2 ADD SLOAD SWAP2 DUP4 ADD SWAP2 SWAP1 SWAP2 MSTORE PUSH1 0x3 DUP2 ADD SLOAD PUSH1 0x60 DUP4 ADD MSTORE PUSH1 0x4 DUP2 ADD SLOAD PUSH1 0x80 DUP4 ADD MSTORE PUSH1 0x5 DUP2 ADD SLOAD PUSH1 0xA0 DUP4 ADD MSTORE PUSH1 0x6 DUP2 ADD SLOAD PUSH1 0xC0 DUP4 ADD MSTORE PUSH1 0x7 DUP2 ADD DUP1 SLOAD PUSH1 0xE0 DUP5 ADD SWAP2 SWAP1 PUSH2 0x866 SWAP1 PUSH2 0x1FA8 JUMP JUMPDEST DUP1 PUSH1 0x1F ADD PUSH1 0x20 DUP1 SWAP2 DIV MUL PUSH1 0x20 ADD PUSH1 0x40 MLOAD SWAP1 DUP2 ADD PUSH1 0x40 MSTORE DUP1 SWAP3 SWAP2 SWAP1 DUP2 DUP2 MSTORE PUSH1 0x20 ADD DUP3 DUP1 SLOAD PUSH2 0x892 SWAP1 PUSH2 0x1FA8 JUMP JUMPDEST DUP1 ISZERO PUSH2 0x8DF JUMPI DUP1 PUSH1 0x1F LT PUSH2 0x8B4 JUMPI PUSH2 0x100 DUP1 DUP4 SLOAD DIV MUL DUP4 MSTORE SWAP2 PUSH1 0x20 ADD SWAP2 PUSH2 0x8DF JUMP JUMPDEST DUP3 ADD SWAP2 SWAP1 PUSH1 0x0 MSTORE PUSH1 0x20 PUSH1 0x0 KECCAK256 SWAP1 JUMPDEST DUP2 SLOAD DUP2 MSTORE SWAP1 PUSH1 0x1 ADD SWAP1 PUSH1 0x20 ADD DUP1 DUP4 GT PUSH2 0x8C2 JUMPI DUP3 SWAP1 SUB PUSH1 0x1F AND DUP3 ADD SWAP2 JUMPDEST POP POP POP POP POP DUP2 MSTORE PUSH1 0x20 ADD PUSH1 0x8 DUP3 ADD SLOAD DUP2 MSTORE POP POP SWAP1 POP SWAP3 SWAP2 POP POP JUMP JUMPDEST PUSH1 0x1 SLOAD PUSH1 0x40 MLOAD PUSH4 0x23B872DD PUSH1 0xE0 SHL DUP2 MSTORE PUSH1 0x1 PUSH1 0x1 PUSH1 0xA0 SHL SUB SWAP1 SWAP2 AND SWAP1 PUSH4 0x23B872DD SWAP1 PUSH2 0x92E SWAP1 CALLER SWAP1 ADDRESS SWAP1 DUP7 SWAP1 PUSH1 0x4 ADD PUSH2 0x1EC3 JUMP JUMPDEST PUSH1 0x20 PUSH1 0x40 MLOAD DUP1 DUP4 SUB DUP2 PUSH1 0x0 DUP8 DUP1 EXTCODESIZE ISZERO DUP1 ISZERO PUSH2 0x948 JUMPI PUSH1 0x0 DUP1 REVERT JUMPDEST POP GAS CALL ISZERO DUP1 ISZERO PUSH2 0x95C JUMPI RETURNDATASIZE PUSH1 0x0 DUP1 RETURNDATACOPY RETURNDATASIZE PUSH1 0x0 REVERT JUMPDEST POP POP POP POP PUSH1 0x40 MLOAD RETURNDATASIZE PUSH1 0x1F NOT PUSH1 0x1F DUP3 ADD AND DUP3 ADD DUP1 PUSH1 0x40 MSTORE POP DUP2 ADD SWAP1 PUSH2 0x980 SWAP2 SWAP1 PUSH2 0x1EE7 JUMP JUMPDEST PUSH2 0x99C JUMPI PUSH1 0x40 MLOAD PUSH3 0x461BCD PUSH1 0xE5 SHL DUP2 MSTORE PUSH1 0x4 ADD PUSH2 0x52E SWAP1 PUSH2 0x1F09 JUMP JUMPDEST DUP1 PUSH1 0x7 PUSH1 0x0 DUP3 DUP3 SLOAD PUSH2 0x9AE SWAP2 SWAP1 PUSH2 0x1FF9 JUMP JUMPDEST SWAP1 SWAP2 SSTORE POP POP POP JUMP JUMPDEST CALLER PUSH1 0x0 SWAP1 DUP2 MSTORE PUSH1 0xB PUSH1 0x20 SWAP1 DUP2 MSTORE PUSH1 0x40 DUP1 DUP4 KECCAK256 DUP5 DUP5 MSTORE SWAP1 SWAP2 MSTORE SWAP1 KECCAK256 SLOAD PUSH1 0xFF AND PUSH2 0xA14 JUMPI PUSH1 0x40 MLOAD PUSH3 0x461BCD PUSH1 0xE5 SHL DUP2 MSTORE PUSH1 0x20 PUSH1 0x4 DUP3 ADD MSTORE PUSH1 0x11 PUSH1 0x24 DUP3 ADD MSTORE PUSH17 0x20B63932B0B23C903BB4BA34323930BBB7 PUSH1 0x79 SHL PUSH1 0x44 DUP3 ADD MSTORE PUSH1 0x64 ADD PUSH2 0x52E JUMP JUMPDEST CALLER PUSH1 0x0 SWAP1 DUP2 MSTORE PUSH1 0xC PUSH1 0x20 SWAP1 DUP2 MSTORE PUSH1 0x40 DUP1 DUP4 KECCAK256 DUP5 DUP5 MSTORE SWAP1 SWAP2 MSTORE SWAP1 KECCAK256 PUSH1 0x2 ADD SLOAD TIMESTAMP LT ISZERO PUSH2 0xA81 JUMPI PUSH1 0x40 MLOAD PUSH3 0x461BCD PUSH1 0xE5 SHL DUP2 MSTORE PUSH1 0x20 PUSH1 0x4 DUP3 ADD MSTORE PUSH1 0x19 PUSH1 0x24 DUP3 ADD MSTORE PUSH32 0x54696D6520686173206E6F742065786365656465642079657400000000000000 PUSH1 0x44 DUP3 ADD MSTORE PUSH1 0x64 ADD PUSH2 0x52E JUMP JUMPDEST CALLER PUSH1 0x0 DUP2 DUP2 MSTORE PUSH1 0xE PUSH1 0x20 SWAP1 DUP2 MSTORE PUSH1 0x40 DUP1 DUP4 KECCAK256 DUP6 DUP5 MSTORE SWAP1 SWAP2 MSTORE SWAP1 DUP2 SWAP1 KECCAK256 SLOAD PUSH1 0x1 SLOAD SWAP2 MLOAD PUSH4 0xA9059CBB PUSH1 0xE0 SHL DUP2 MSTORE PUSH1 0x4 DUP2 ADD SWAP4 SWAP1 SWAP4 MSTORE PUSH1 0x24 DUP4 ADD DUP2 SWAP1 MSTORE SWAP2 PUSH1 0x1 PUSH1 0x1 PUSH1 0xA0 SHL SUB SWAP1 SWAP2 AND SWAP1 PUSH4 0xA9059CBB SWAP1 PUSH1 0x44 ADD PUSH1 0x20 PUSH1 0x40 MLOAD DUP1 DUP4 SUB DUP2 PUSH1 0x0 DUP8 DUP1 EXTCODESIZE ISZERO DUP1 ISZERO PUSH2 0xAEC JUMPI PUSH1 0x0 DUP1 REVERT JUMPDEST POP GAS CALL ISZERO DUP1 ISZERO PUSH2 0xB00 JUMPI RETURNDATASIZE PUSH1 0x0 DUP1 RETURNDATACOPY RETURNDATASIZE PUSH1 0x0 REVERT JUMPDEST POP POP POP POP PUSH1 0x40 MLOAD RETURNDATASIZE PUSH1 0x1F NOT PUSH1 0x1F DUP3 ADD AND DUP3 ADD DUP1 PUSH1 0x40 MSTORE POP DUP2 ADD SWAP1 PUSH2 0xB24 SWAP2 SWAP1 PUSH2 0x1EE7 JUMP JUMPDEST PUSH2 0xB7A JUMPI PUSH1 0x40 MLOAD PUSH3 0x461BCD PUSH1 0xE5 SHL DUP2 MSTORE PUSH1 0x20 PUSH1 0x4 DUP3 ADD MSTORE PUSH1 0x21 PUSH1 0x24 DUP3 ADD MSTORE PUSH32 0x546F6B656E207472616E73666572206661696C6564206F722072657665727465 PUSH1 0x44 DUP3 ADD MSTORE PUSH1 0x19 PUSH1 0xFA SHL PUSH1 0x64 DUP3 ADD MSTORE PUSH1 0x84 ADD PUSH2 0x52E JUMP JUMPDEST DUP1 PUSH1 0x7 PUSH1 0x0 DUP3 DUP3 SLOAD PUSH2 0xB8C SWAP2 SWAP1 PUSH2 0x2011 JUMP JUMPDEST SWAP1 SWAP2 SSTORE POP POP CALLER PUSH1 0x0 SWAP1 DUP2 MSTORE PUSH1 0xB PUSH1 0x20 SWAP1 DUP2 MSTORE PUSH1 0x40 DUP1 DUP4 KECCAK256 SWAP5 DUP4 MSTORE SWAP4 SWAP1 MSTORE SWAP2 SWAP1 SWAP2 KECCAK256 DUP1 SLOAD PUSH1 0xFF NOT AND SWAP1 SSTORE POP JUMP JUMPDEST PUSH1 0x11 PUSH1 0x20 SWAP1 DUP2 MSTORE PUSH1 0x0 SWAP3 DUP4 MSTORE PUSH1 0x40 SWAP1 SWAP3 KECCAK256 DUP2 MLOAD DUP1 DUP4 ADD DUP5 ADD DUP1 MLOAD SWAP3 DUP2 MSTORE SWAP1 DUP5 ADD SWAP3 SWAP1 SWAP4 ADD SWAP2 SWAP1 SWAP2 KECCAK256 SWAP2 MSTORE DUP1 SLOAD PUSH2 0xBED SWAP1 PUSH2 0x1FA8 JUMP JUMPDEST DUP1 PUSH1 0x1F ADD PUSH1 0x20 DUP1 SWAP2 DIV MUL PUSH1 0x20 ADD PUSH1 0x40 MLOAD SWAP1 DUP2 ADD PUSH1 0x40 MSTORE DUP1 SWAP3 SWAP2 SWAP1 DUP2 DUP2 MSTORE PUSH1 0x20 ADD DUP3 DUP1 SLOAD PUSH2 0xC19 SWAP1 PUSH2 0x1FA8 JUMP JUMPDEST DUP1 ISZERO PUSH2 0xC66 JUMPI DUP1 PUSH1 0x1F LT PUSH2 0xC3B JUMPI PUSH2 0x100 DUP1 DUP4 SLOAD DIV MUL DUP4 MSTORE SWAP2 PUSH1 0x20 ADD SWAP2 PUSH2 0xC66 JUMP JUMPDEST DUP3 ADD SWAP2 SWAP1 PUSH1 0x0 MSTORE PUSH1 0x20 PUSH1 0x0 KECCAK256 SWAP1 JUMPDEST DUP2 SLOAD DUP2 MSTORE SWAP1 PUSH1 0x1 ADD SWAP1 PUSH1 0x20 ADD DUP1 DUP4 GT PUSH2 0xC49 JUMPI DUP3 SWAP1 SUB PUSH1 0x1F AND DUP3 ADD SWAP2 JUMPDEST POP POP POP POP POP DUP2 JUMP JUMPDEST PUSH1 0x1 PUSH1 0x1 PUSH1 0xA0 SHL SUB DUP3 AND PUSH1 0x0 SWAP1 DUP2 MSTORE PUSH1 0xF PUSH1 0x20 SWAP1 DUP2 MSTORE PUSH1 0x40 DUP1 DUP4 KECCAK256 DUP5 DUP5 MSTORE DUP3 MSTORE DUP1 DUP4 KECCAK256 DUP1 SLOAD PUSH1 0x14 SWAP1 SWAP4 MSTORE SWAP1 DUP4 KECCAK256 SLOAD PUSH1 0x1 SWAP1 SWAP2 ADD DUP1 SLOAD PUSH1 0x60 SWAP5 SWAP4 DUP5 SWAP4 SWAP1 SWAP2 DUP4 SWAP1 PUSH2 0xCB6 SWAP1 PUSH2 0x1FA8 JUMP JUMPDEST DUP1 PUSH1 0x1F ADD PUSH1 0x20 DUP1 SWAP2 DIV MUL PUSH1 0x20 ADD PUSH1 0x40 MLOAD SWAP1 DUP2 ADD PUSH1 0x40 MSTORE DUP1 SWAP3 SWAP2 SWAP1 DUP2 DUP2 MSTORE PUSH1 0x20 ADD DUP3 DUP1 SLOAD PUSH2 0xCE2 SWAP1 PUSH2 0x1FA8 JUMP JUMPDEST DUP1 ISZERO PUSH2 0xD2F JUMPI DUP1 PUSH1 0x1F LT PUSH2 0xD04 JUMPI PUSH2 0x100 DUP1 DUP4 SLOAD DIV MUL DUP4 MSTORE SWAP2 PUSH1 0x20 ADD SWAP2 PUSH2 0xD2F JUMP JUMPDEST DUP3 ADD SWAP2 SWAP1 PUSH1 0x0 MSTORE PUSH1 0x20 PUSH1 0x0 KECCAK256 SWAP1 JUMPDEST DUP2 SLOAD DUP2 MSTORE SWAP1 PUSH1 0x1 ADD SWAP1 PUSH1 0x20 ADD DUP1 DUP4 GT PUSH2 0xD12 JUMPI DUP3 SWAP1 SUB PUSH1 0x1F AND DUP3 ADD SWAP2 JUMPDEST POP POP POP POP POP SWAP3 POP SWAP3 POP SWAP3 POP SWAP3 POP SWAP3 POP SWAP3 POP SWAP3 JUMP JUMPDEST PUSH1 0x0 SLOAD PUSH1 0x40 MLOAD PUSH4 0xB5F44885 PUSH1 0xE0 SHL DUP2 MSTORE CALLER PUSH1 0x4 DUP3 ADD MSTORE PUSH1 0x1 PUSH1 0x1 PUSH1 0xA0 SHL SUB SWAP1 SWAP2 AND SWAP1 DUP2 SWAP1 PUSH4 0xB5F44885 SWAP1 PUSH1 0x24 ADD PUSH1 0x20 PUSH1 0x40 MLOAD DUP1 DUP4 SUB DUP2 DUP7 DUP1 EXTCODESIZE ISZERO DUP1 ISZERO PUSH2 0xD88 JUMPI PUSH1 0x0 DUP1 REVERT JUMPDEST POP GAS STATICCALL ISZERO DUP1 ISZERO PUSH2 0xD9C JUMPI RETURNDATASIZE PUSH1 0x0 DUP1 RETURNDATACOPY RETURNDATASIZE PUSH1 0x0 REVERT JUMPDEST POP POP POP POP PUSH1 0x40 MLOAD RETURNDATASIZE PUSH1 0x1F NOT PUSH1 0x1F DUP3 ADD AND DUP3 ADD DUP1 PUSH1 0x40 MSTORE POP DUP2 ADD SWAP1 PUSH2 0xDC0 SWAP2 SWAP1 PUSH2 0x1EE7 JUMP JUMPDEST PUSH2 0xDDC JUMPI PUSH1 0x40 MLOAD PUSH3 0x461BCD PUSH1 0xE5 SHL DUP2 MSTORE PUSH1 0x4 ADD PUSH2 0x52E SWAP1 PUSH2 0x2028 JUMP JUMPDEST CALLER PUSH1 0x0 SWAP1 DUP2 MSTORE PUSH1 0xB PUSH1 0x20 SWAP1 DUP2 MSTORE PUSH1 0x40 DUP1 DUP4 KECCAK256 DUP6 DUP5 MSTORE SWAP1 SWAP2 MSTORE SWAP1 KECCAK256 SLOAD PUSH1 0xFF AND PUSH2 0xE62 JUMPI PUSH1 0x40 MLOAD PUSH3 0x461BCD PUSH1 0xE5 SHL DUP2 MSTORE PUSH1 0x20 PUSH1 0x4 DUP3 ADD MSTORE PUSH1 0x33 PUSH1 0x24 DUP3 ADD MSTORE PUSH32 0x4964656E74696669636174696F6E206973206E6F74206C696E6B656420796574 PUSH1 0x44 DUP3 ADD MSTORE PUSH19 0x103BB4BA3410333AB73210383937BB34B232B9 PUSH1 0x69 SHL PUSH1 0x64 DUP3 ADD MSTORE PUSH1 0x84 ADD PUSH2 0x52E JUMP JUMPDEST PUSH1 0x1 PUSH1 0x1 PUSH1 0xA0 SHL SUB DUP4 AND PUSH1 0x0 SWAP1 DUP2 MSTORE PUSH1 0x12 PUSH1 0x20 SWAP1 DUP2 MSTORE PUSH1 0x40 DUP1 DUP4 KECCAK256 DUP6 DUP5 MSTORE SWAP1 SWAP2 MSTORE SWAP1 KECCAK256 SLOAD ISZERO PUSH2 0xED3 JUMPI PUSH1 0x40 MLOAD PUSH3 0x461BCD PUSH1 0xE5 SHL DUP2 MSTORE PUSH1 0x20 PUSH1 0x4 DUP3 ADD MSTORE PUSH1 0x1A PUSH1 0x24 DUP3 ADD MSTORE PUSH32 0x43616E6E6F7420776974686472617720636F6C6C61746572616C000000000000 PUSH1 0x44 DUP3 ADD MSTORE PUSH1 0x64 ADD PUSH2 0x52E JUMP JUMPDEST CALLER PUSH1 0x0 DUP2 DUP2 MSTORE PUSH1 0xF PUSH1 0x20 SWAP1 DUP2 MSTORE PUSH1 0x40 DUP1 DUP4 KECCAK256 DUP7 DUP5 MSTORE SWAP1 SWAP2 MSTORE SWAP1 DUP2 SWAP1 KECCAK256 PUSH1 0x2 ADD SLOAD PUSH1 0x1 SLOAD SWAP2 MLOAD PUSH4 0x23B872DD PUSH1 0xE0 SHL DUP2 MSTORE SWAP1 SWAP3 PUSH1 0x1 PUSH1 0x1 PUSH1 0xA0 SHL SUB SWAP1 SWAP3 AND SWAP2 PUSH4 0x23B872DD SWAP2 PUSH2 0x68F SWAP2 ADDRESS SWAP2 DUP7 SWAP1 PUSH1 0x4 ADD PUSH2 0x1EC3 JUMP JUMPDEST PUSH1 0x0 SLOAD PUSH1 0x40 MLOAD PUSH4 0xB5F44885 PUSH1 0xE0 SHL DUP2 MSTORE CALLER PUSH1 0x4 DUP3 ADD MSTORE PUSH1 0x1 PUSH1 0x1 PUSH1 0xA0 SHL SUB SWAP1 SWAP2 AND SWAP1 DUP2 SWAP1 PUSH4 0xB5F44885 SWAP1 PUSH1 0x24 ADD PUSH1 0x20 PUSH1 0x40 MLOAD DUP1 DUP4 SUB DUP2 DUP7 DUP1 EXTCODESIZE ISZERO DUP1 ISZERO PUSH2 0xF6B JUMPI PUSH1 0x0 DUP1 REVERT JUMPDEST POP GAS STATICCALL ISZERO DUP1 ISZERO PUSH2 0xF7F JUMPI RETURNDATASIZE PUSH1 0x0 DUP1 RETURNDATACOPY RETURNDATASIZE PUSH1 0x0 REVERT JUMPDEST POP POP POP POP PUSH1 0x40 MLOAD RETURNDATASIZE PUSH1 0x1F NOT PUSH1 0x1F DUP3 ADD AND DUP3 ADD DUP1 PUSH1 0x40 MSTORE POP DUP2 ADD SWAP1 PUSH2 0xFA3 SWAP2 SWAP1 PUSH2 0x1EE7 JUMP JUMPDEST PUSH2 0xFBF JUMPI PUSH1 0x40 MLOAD PUSH3 0x461BCD PUSH1 0xE5 SHL DUP2 MSTORE PUSH1 0x4 ADD PUSH2 0x52E SWAP1 PUSH2 0x2028 JUMP JUMPDEST CALLER PUSH1 0x0 DUP2 DUP2 MSTORE PUSH1 0xB PUSH1 0x20 SWAP1 DUP2 MSTORE PUSH1 0x40 DUP1 DUP4 KECCAK256 DUP7 DUP5 MSTORE DUP3 MSTORE DUP1 DUP4 KECCAK256 DUP1 SLOAD PUSH1 0xFF NOT AND PUSH1 0x1 SWAP1 DUP2 OR SWAP1 SWAP2 SSTORE DUP5 DUP5 MSTORE PUSH1 0xC DUP4 MSTORE DUP2 DUP5 KECCAK256 DUP8 DUP6 MSTORE SWAP1 SWAP3 MSTORE SWAP1 SWAP2 KECCAK256 DUP1 SLOAD PUSH1 0x1 PUSH1 0x1 PUSH1 0xA0 SHL SUB NOT AND SWAP1 SWAP3 OR DUP3 SSTORE ADD DUP3 SWAP1 SSTORE PUSH2 0x101A TIMESTAMP PUSH1 0xB4 PUSH2 0x1FF9 JUMP JUMPDEST CALLER PUSH1 0x0 SWAP1 DUP2 MSTORE PUSH1 0xC PUSH1 0x20 SWAP1 DUP2 MSTORE PUSH1 0x40 DUP1 DUP4 KECCAK256 DUP7 DUP5 MSTORE SWAP1 SWAP2 MSTORE SWAP1 DUP2 SWAP1 KECCAK256 PUSH1 0x2 DUP2 ADD SWAP3 SWAP1 SWAP3 SSTORE PUSH1 0x3 SWAP1 SWAP2 ADD DUP6 SWAP1 SSTORE MLOAD PUSH1 0xA SWAP1 PUSH2 0x1055 SWAP1 DUP6 SWAP1 PUSH2 0x2077 JUMP JUMPDEST SWAP1 DUP2 MSTORE PUSH1 0x40 DUP1 MLOAD PUSH1 0x20 SWAP3 DUP2 SWAP1 SUB DUP4 ADD SWAP1 KECCAK256 SLOAD CALLER PUSH1 0x0 SWAP1 DUP2 MSTORE PUSH1 0xC DUP5 MSTORE DUP3 DUP2 KECCAK256 DUP7 DUP3 MSTORE SWAP1 SWAP4 MSTORE SWAP2 KECCAK256 PUSH1 0x4 DUP2 ADD SWAP2 SWAP1 SWAP2 SSTORE PUSH1 0x3 ADD SLOAD PUSH1 0x64 SWAP1 PUSH2 0x1096 SWAP1 PUSH1 0x1 PUSH2 0x2093 JUMP JUMPDEST PUSH2 0x10A0 SWAP2 SWAP1 PUSH2 0x20B2 JUMP JUMPDEST CALLER PUSH1 0x0 SWAP1 DUP2 MSTORE PUSH1 0xC PUSH1 0x20 SWAP1 DUP2 MSTORE PUSH1 0x40 DUP1 DUP4 KECCAK256 DUP7 DUP5 MSTORE SWAP1 SWAP2 MSTORE DUP2 KECCAK256 PUSH1 0x5 ADD DUP3 SWAP1 SSTORE PUSH1 0x6 DUP1 SLOAD SWAP1 SWAP2 SWAP1 PUSH2 0x10D2 SWAP1 DUP5 SWAP1 PUSH2 0x1FF9 JUMP JUMPDEST SWAP1 SWAP2 SSTORE POP POP CALLER PUSH1 0x0 SWAP1 DUP2 MSTORE PUSH1 0xC PUSH1 0x20 SWAP1 DUP2 MSTORE PUSH1 0x40 DUP1 DUP4 KECCAK256 DUP6 DUP5 MSTORE DUP3 MSTORE SWAP1 SWAP2 KECCAK256 DUP5 MLOAD PUSH2 0x1105 SWAP3 PUSH1 0x7 SWAP1 SWAP3 ADD SWAP2 DUP7 ADD SWAP1 PUSH2 0x1A8F JUMP JUMPDEST POP CALLER PUSH1 0x0 SWAP1 DUP2 MSTORE PUSH1 0xC PUSH1 0x20 SWAP1 DUP2 MSTORE PUSH1 0x40 DUP1 DUP4 KECCAK256 DUP6 DUP5 MSTORE SWAP1 SWAP2 MSTORE SWAP1 KECCAK256 PUSH1 0x5 DUP2 ADD SLOAD PUSH1 0x3 SWAP1 SWAP2 ADD SLOAD PUSH2 0x1135 SWAP2 SWAP1 PUSH2 0x2011 JUMP JUMPDEST CALLER PUSH1 0x0 SWAP1 DUP2 MSTORE PUSH1 0xC PUSH1 0x20 SWAP1 DUP2 MSTORE PUSH1 0x40 DUP1 DUP4 KECCAK256 DUP7 DUP5 MSTORE DUP3 MSTORE DUP1 DUP4 KECCAK256 PUSH1 0x6 ADD DUP5 SWAP1 SSTORE PUSH1 0x14 SWAP1 SWAP2 MSTORE DUP2 KECCAK256 DUP1 SLOAD SWAP1 SWAP2 SWAP1 PUSH2 0x116C SWAP1 DUP5 SWAP1 PUSH2 0x1FF9 JUMP JUMPDEST SWAP1 SWAP2 SSTORE POP POP CALLER PUSH1 0x0 SWAP1 DUP2 MSTORE PUSH1 0xC PUSH1 0x20 SWAP1 DUP2 MSTORE PUSH1 0x40 DUP1 DUP4 KECCAK256 DUP6 DUP5 MSTORE SWAP1 SWAP2 MSTORE DUP2 KECCAK256 PUSH1 0x6 ADD SLOAD PUSH1 0x7 DUP1 SLOAD SWAP2 SWAP3 SWAP1 SWAP2 PUSH2 0x11A2 SWAP1 DUP5 SWAP1 PUSH2 0x1FF9 JUMP JUMPDEST SWAP1 SWAP2 SSTORE POP POP CALLER PUSH1 0x0 SWAP1 DUP2 MSTORE PUSH1 0xC PUSH1 0x20 SWAP1 DUP2 MSTORE PUSH1 0x40 DUP1 DUP4 KECCAK256 DUP6 DUP5 MSTORE SWAP1 SWAP2 MSTORE DUP2 KECCAK256 PUSH1 0x4 DUP2 ADD SLOAD PUSH1 0x6 SWAP1 SWAP2 ADD SLOAD PUSH1 0x64 SWAP2 PUSH2 0x11D8 SWAP2 PUSH2 0x2093 JUMP JUMPDEST PUSH2 0x11E2 SWAP2 SWAP1 PUSH2 0x20B2 JUMP JUMPDEST CALLER PUSH1 0x0 SWAP1 DUP2 MSTORE PUSH1 0xC PUSH1 0x20 SWAP1 DUP2 MSTORE PUSH1 0x40 DUP1 DUP4 KECCAK256 DUP8 DUP5 MSTORE SWAP1 SWAP2 MSTORE SWAP1 KECCAK256 PUSH1 0x6 ADD SLOAD SWAP1 SWAP2 POP PUSH2 0x120E SWAP1 DUP3 SWAP1 PUSH2 0x1FF9 JUMP JUMPDEST CALLER PUSH1 0x0 SWAP1 DUP2 MSTORE PUSH1 0xC PUSH1 0x20 SWAP1 DUP2 MSTORE PUSH1 0x40 DUP1 DUP4 KECCAK256 DUP8 DUP5 MSTORE SWAP1 SWAP2 MSTORE SWAP1 KECCAK256 PUSH1 0x8 DUP2 ADD SWAP2 SWAP1 SWAP2 SSTORE PUSH1 0x6 ADD SLOAD PUSH2 0x123F SWAP1 DUP3 SWAP1 PUSH2 0x1FF9 JUMP JUMPDEST CALLER PUSH1 0x0 DUP2 DUP2 MSTORE PUSH1 0xE PUSH1 0x20 SWAP1 DUP2 MSTORE PUSH1 0x40 DUP1 DUP4 KECCAK256 DUP9 DUP5 MSTORE DUP3 MSTORE DUP1 DUP4 KECCAK256 SWAP5 SWAP1 SWAP5 SSTORE DUP3 DUP3 MSTORE PUSH1 0xD DUP2 MSTORE DUP4 DUP3 KECCAK256 DUP1 SLOAD PUSH1 0x1 DUP1 DUP3 ADD DUP4 SSTORE SWAP2 DUP5 MSTORE SWAP2 SWAP1 SWAP3 KECCAK256 ADD DUP7 SWAP1 SSTORE SLOAD SWAP2 MLOAD PUSH4 0x23B872DD PUSH1 0xE0 SHL DUP2 MSTORE PUSH1 0x1 PUSH1 0x1 PUSH1 0xA0 SHL SUB SWAP1 SWAP3 AND SWAP2 PUSH4 0x23B872DD SWAP2 PUSH2 0x12AA SWAP2 ADDRESS SWAP1 DUP11 SWAP1 PUSH1 0x4 ADD PUSH2 0x1EC3 JUMP JUMPDEST PUSH1 0x20 PUSH1 0x40 MLOAD DUP1 DUP4 SUB DUP2 PUSH1 0x0 DUP8 DUP1 EXTCODESIZE ISZERO DUP1 ISZERO PUSH2 0x12C4 JUMPI PUSH1 0x0 DUP1 REVERT JUMPDEST POP GAS CALL ISZERO DUP1 ISZERO PUSH2 0x12D8 JUMPI RETURNDATASIZE PUSH1 0x0 DUP1 RETURNDATACOPY RETURNDATASIZE PUSH1 0x0 REVERT JUMPDEST POP POP POP POP PUSH1 0x40 MLOAD RETURNDATASIZE PUSH1 0x1F NOT PUSH1 0x1F DUP3 ADD AND DUP3 ADD DUP1 PUSH1 0x40 MSTORE POP DUP2 ADD SWAP1 PUSH2 0x12FC SWAP2 SWAP1 PUSH2 0x1EE7 JUMP JUMPDEST PUSH2 0x1318 JUMPI PUSH1 0x40 MLOAD PUSH3 0x461BCD PUSH1 0xE5 SHL DUP2 MSTORE PUSH1 0x4 ADD PUSH2 0x52E SWAP1 PUSH2 0x1F09 JUMP JUMPDEST PUSH1 0x40 MLOAD PUSH1 0xC8 SWAP1 DUP7 SWAP1 CALLER SWAP1 PUSH32 0xEEED0C4B0FE13660511B06C2DA029DE353CCCEEE62A67861786241BF2EBD598E SWAP1 PUSH1 0x0 SWAP1 LOG4 POP POP POP POP POP JUMP JUMPDEST PUSH1 0x0 SLOAD PUSH1 0x40 MLOAD PUSH4 0x50D5740F PUSH1 0xE0 SHL DUP2 MSTORE CALLER PUSH1 0x4 DUP3 ADD MSTORE PUSH1 0x1 PUSH1 0x1 PUSH1 0xA0 SHL SUB SWAP1 SWAP2 AND SWAP1 DUP2 SWAP1 PUSH4 0x50D5740F SWAP1 PUSH1 0x24 ADD PUSH1 0x20 PUSH1 0x40 MLOAD DUP1 DUP4 SUB DUP2 DUP7 DUP1 EXTCODESIZE ISZERO DUP1 ISZERO PUSH2 0x1394 JUMPI PUSH1 0x0 DUP1 REVERT JUMPDEST POP GAS STATICCALL ISZERO DUP1 ISZERO PUSH2 0x13A8 JUMPI RETURNDATASIZE PUSH1 0x0 DUP1 RETURNDATACOPY RETURNDATASIZE PUSH1 0x0 REVERT JUMPDEST POP POP POP POP PUSH1 0x40 MLOAD RETURNDATASIZE PUSH1 0x1F NOT PUSH1 0x1F DUP3 ADD AND DUP3 ADD DUP1 PUSH1 0x40 MSTORE POP DUP2 ADD SWAP1 PUSH2 0x13CC SWAP2 SWAP1 PUSH2 0x1EE7 JUMP JUMPDEST PUSH2 0x13E8 JUMPI PUSH1 0x40 MLOAD PUSH3 0x461BCD PUSH1 0xE5 SHL DUP2 MSTORE PUSH1 0x4 ADD PUSH2 0x52E SWAP1 PUSH2 0x1F40 JUMP JUMPDEST CALLER PUSH1 0x0 SWAP1 DUP2 MSTORE PUSH1 0x12 PUSH1 0x20 SWAP1 DUP2 MSTORE PUSH1 0x40 DUP1 DUP4 KECCAK256 DUP6 DUP5 MSTORE SWAP1 SWAP2 MSTORE SWAP1 KECCAK256 SLOAD PUSH2 0x1443 JUMPI PUSH1 0x40 MLOAD PUSH3 0x461BCD PUSH1 0xE5 SHL DUP2 MSTORE PUSH1 0x20 PUSH1 0x4 DUP3 ADD MSTORE PUSH1 0x11 PUSH1 0x24 DUP3 ADD MSTORE PUSH17 0x105B1B08191D595CC8185C99481C185A59 PUSH1 0x7A SHL PUSH1 0x44 DUP3 ADD MSTORE PUSH1 0x64 ADD PUSH2 0x52E JUMP JUMPDEST CALLER PUSH1 0x0 SWAP1 DUP2 MSTORE PUSH1 0x12 PUSH1 0x20 SWAP1 DUP2 MSTORE PUSH1 0x40 DUP1 DUP4 KECCAK256 DUP6 DUP5 MSTORE SWAP1 SWAP2 MSTORE SWAP1 KECCAK256 SLOAD ISZERO PUSH2 0x537 JUMPI CALLER PUSH1 0x0 DUP2 DUP2 MSTORE PUSH1 0xF PUSH1 0x20 SWAP1 DUP2 MSTORE PUSH1 0x40 DUP1 DUP4 KECCAK256 DUP7 DUP5 MSTORE SWAP1 SWAP2 MSTORE SWAP1 DUP2 SWAP1 KECCAK256 PUSH1 0x7 ADD SLOAD PUSH1 0x1 SLOAD SWAP2 MLOAD PUSH4 0x23B872DD PUSH1 0xE0 SHL DUP2 MSTORE SWAP1 SWAP3 PUSH1 0x1 PUSH1 0x1 PUSH1 0xA0 SHL SUB SWAP1 SWAP3 AND SWAP2 PUSH4 0x23B872DD SWAP2 PUSH2 0x14B7 SWAP2 SWAP1 ADDRESS SWAP1 DUP7 SWAP1 PUSH1 0x4 ADD PUSH2 0x1EC3 JUMP JUMPDEST PUSH1 0x20 PUSH1 0x40 MLOAD DUP1 DUP4 SUB DUP2 PUSH1 0x0 DUP8 DUP1 EXTCODESIZE ISZERO DUP1 ISZERO PUSH2 0x14D1 JUMPI PUSH1 0x0 DUP1 REVERT JUMPDEST POP GAS CALL ISZERO DUP1 ISZERO PUSH2 0x14E5 JUMPI RETURNDATASIZE PUSH1 0x0 DUP1 RETURNDATACOPY RETURNDATASIZE PUSH1 0x0 REVERT JUMPDEST POP POP POP POP PUSH1 0x40 MLOAD RETURNDATASIZE PUSH1 0x1F NOT PUSH1 0x1F DUP3 ADD AND DUP3 ADD DUP1 PUSH1 0x40 MSTORE POP DUP2 ADD SWAP1 PUSH2 0x1509 SWAP2 SWAP1 PUSH2 0x1EE7 JUMP JUMPDEST PUSH2 0x1525 JUMPI PUSH1 0x40 MLOAD PUSH3 0x461BCD PUSH1 0xE5 SHL DUP2 MSTORE PUSH1 0x4 ADD PUSH2 0x52E SWAP1 PUSH2 0x1F09 JUMP JUMPDEST CALLER PUSH1 0x0 SWAP1 DUP2 MSTORE PUSH1 0xF PUSH1 0x20 SWAP1 DUP2 MSTORE PUSH1 0x40 DUP1 DUP4 KECCAK256 DUP7 DUP5 MSTORE SWAP1 SWAP2 MSTORE DUP2 KECCAK256 PUSH1 0x8 ADD DUP1 SLOAD DUP4 SWAP3 SWAP1 PUSH2 0x1552 SWAP1 DUP5 SWAP1 PUSH2 0x2011 JUMP JUMPDEST SWAP1 SWAP2 SSTORE POP POP CALLER PUSH1 0x0 SWAP1 DUP2 MSTORE PUSH1 0x12 PUSH1 0x20 SWAP1 DUP2 MSTORE PUSH1 0x40 DUP1 DUP4 KECCAK256 DUP7 DUP5 MSTORE SWAP1 SWAP2 MSTORE DUP2 KECCAK256 DUP1 SLOAD DUP4 SWAP3 SWAP1 PUSH2 0x1581 SWAP1 DUP5 SWAP1 PUSH2 0x2011 JUMP JUMPDEST SWAP1 SWAP2 SSTORE POP POP POP POP POP JUMP JUMPDEST PUSH1 0x1 PUSH1 0x1 PUSH1 0xA0 SHL SUB DUP3 AND PUSH1 0x0 SWAP1 DUP2 MSTORE PUSH1 0xC PUSH1 0x20 SWAP1 DUP2 MSTORE PUSH1 0x40 DUP1 DUP4 KECCAK256 DUP5 DUP5 MSTORE SWAP1 SWAP2 MSTORE DUP2 KECCAK256 PUSH1 0x3 DUP2 ADD SLOAD PUSH1 0x4 DUP3 ADD SLOAD PUSH1 0x8 DUP4 ADD SLOAD PUSH1 0x2 DUP5 ADD SLOAD PUSH1 0x7 SWAP1 SWAP5 ADD DUP1 SLOAD DUP7 SWAP6 PUSH1 0x60 SWAP6 DUP8 SWAP6 DUP7 SWAP6 SWAP2 SWAP5 SWAP1 SWAP4 SWAP1 SWAP3 SWAP1 DUP4 SWAP1 PUSH2 0x15E4 SWAP1 PUSH2 0x1FA8 JUMP JUMPDEST DUP1 PUSH1 0x1F ADD PUSH1 0x20 DUP1 SWAP2 DIV MUL PUSH1 0x20 ADD PUSH1 0x40 MLOAD SWAP1 DUP2 ADD PUSH1 0x40 MSTORE DUP1 SWAP3 SWAP2 SWAP1 DUP2 DUP2 MSTORE PUSH1 0x20 ADD DUP3 DUP1 SLOAD PUSH2 0x1610 SWAP1 PUSH2 0x1FA8 JUMP JUMPDEST DUP1 ISZERO PUSH2 0x165D JUMPI DUP1 PUSH1 0x1F LT PUSH2 0x1632 JUMPI PUSH2 0x100 DUP1 DUP4 SLOAD DIV MUL DUP4 MSTORE SWAP2 PUSH1 0x20 ADD SWAP2 PUSH2 0x165D JUMP JUMPDEST DUP3 ADD SWAP2 SWAP1 PUSH1 0x0 MSTORE PUSH1 0x20 PUSH1 0x0 KECCAK256 SWAP1 JUMPDEST DUP2 SLOAD DUP2 MSTORE SWAP1 PUSH1 0x1 ADD SWAP1 PUSH1 0x20 ADD DUP1 DUP4 GT PUSH2 0x1640 JUMPI DUP3 SWAP1 SUB PUSH1 0x1F AND DUP3 ADD SWAP2 JUMPDEST POP POP POP POP POP SWAP3 POP SWAP5 POP SWAP5 POP SWAP5 POP SWAP5 POP SWAP5 POP SWAP3 SWAP6 POP SWAP3 SWAP6 SWAP1 SWAP4 POP JUMP JUMPDEST PUSH1 0x0 SLOAD PUSH1 0x40 MLOAD PUSH4 0x50D5740F PUSH1 0xE0 SHL DUP2 MSTORE CALLER PUSH1 0x4 DUP3 ADD MSTORE PUSH1 0x1 PUSH1 0x1 PUSH1 0xA0 SHL SUB SWAP1 SWAP2 AND SWAP1 DUP2 SWAP1 PUSH4 0x50D5740F SWAP1 PUSH1 0x24 ADD PUSH1 0x20 PUSH1 0x40 MLOAD DUP1 DUP4 SUB DUP2 DUP7 DUP1 EXTCODESIZE ISZERO DUP1 ISZERO PUSH2 0x16BD JUMPI PUSH1 0x0 DUP1 REVERT JUMPDEST POP GAS STATICCALL ISZERO DUP1 ISZERO PUSH2 0x16D1 JUMPI RETURNDATASIZE PUSH1 0x0 DUP1 RETURNDATACOPY RETURNDATASIZE PUSH1 0x0 REVERT JUMPDEST POP POP POP POP PUSH1 0x40 MLOAD RETURNDATASIZE PUSH1 0x1F NOT PUSH1 0x1F DUP3 ADD AND DUP3 ADD DUP1 PUSH1 0x40 MSTORE POP DUP2 ADD SWAP1 PUSH2 0x16F5 SWAP2 SWAP1 PUSH2 0x1EE7 JUMP JUMPDEST PUSH2 0x1711 JUMPI PUSH1 0x40 MLOAD PUSH3 0x461BCD PUSH1 0xE5 SHL DUP2 MSTORE PUSH1 0x4 ADD PUSH2 0x52E SWAP1 PUSH2 0x1F40 JUMP JUMPDEST PUSH1 0x5 SLOAD PUSH2 0x171F SWAP1 PUSH1 0x1 PUSH2 0x1FF9 JUMP JUMPDEST PUSH1 0x5 SSTORE PUSH1 0x8 SLOAD PUSH1 0x0 SWAP1 PUSH1 0x64 SWAP1 PUSH2 0x1735 SWAP1 DUP10 PUSH2 0x2093 JUMP JUMPDEST PUSH2 0x173F SWAP2 SWAP1 PUSH2 0x20B2 JUMP JUMPDEST SWAP1 POP PUSH1 0x0 PUSH1 0x64 PUSH2 0x1750 DUP4 PUSH1 0x1 PUSH2 0x2093 JUMP JUMPDEST PUSH2 0x175A SWAP2 SWAP1 PUSH2 0x20B2 JUMP JUMPDEST SWAP1 POP DUP1 PUSH1 0x6 PUSH1 0x0 DUP3 DUP3 SLOAD PUSH2 0x176E SWAP2 SWAP1 PUSH2 0x1FF9 JUMP JUMPDEST SWAP1 SWAP2 SSTORE POP PUSH1 0x0 SWAP1 POP PUSH2 0x1780 DUP3 DUP5 PUSH2 0x2011 JUMP JUMPDEST SWAP1 POP PUSH1 0x0 PUSH2 0x178E DUP4 DUP12 PUSH2 0x2011 JUMP JUMPDEST SWAP1 POP DUP10 PUSH1 0xF PUSH1 0x0 CALLER PUSH1 0x1 PUSH1 0x1 PUSH1 0xA0 SHL SUB AND PUSH1 0x1 PUSH1 0x1 PUSH1 0xA0 SHL SUB AND DUP2 MSTORE PUSH1 0x20 ADD SWAP1 DUP2 MSTORE PUSH1 0x20 ADD PUSH1 0x0 KECCAK256 PUSH1 0x0 PUSH1 0x5 SLOAD DUP2 MSTORE PUSH1 0x20 ADD SWAP1 DUP2 MSTORE PUSH1 0x20 ADD PUSH1 0x0 KECCAK256 PUSH1 0x0 ADD DUP2 SWAP1 SSTORE POP DUP9 PUSH1 0xF PUSH1 0x0 CALLER PUSH1 0x1 PUSH1 0x1 PUSH1 0xA0 SHL SUB AND PUSH1 0x1 PUSH1 0x1 PUSH1 0xA0 SHL SUB AND DUP2 MSTORE PUSH1 0x20 ADD SWAP1 DUP2 MSTORE PUSH1 0x20 ADD PUSH1 0x0 KECCAK256 PUSH1 0x0 PUSH1 0x5 SLOAD DUP2 MSTORE PUSH1 0x20 ADD SWAP1 DUP2 MSTORE PUSH1 0x20 ADD PUSH1 0x0 KECCAK256 PUSH1 0x1 ADD SWAP1 DUP1 MLOAD SWAP1 PUSH1 0x20 ADD SWAP1 PUSH2 0x181F SWAP3 SWAP2 SWAP1 PUSH2 0x1A8F JUMP JUMPDEST POP CALLER PUSH1 0x0 SWAP1 DUP2 MSTORE PUSH1 0xF PUSH1 0x20 SWAP1 DUP2 MSTORE PUSH1 0x40 DUP1 DUP4 KECCAK256 PUSH1 0x5 DUP1 SLOAD DUP6 MSTORE SWAP1 DUP4 MSTORE DUP2 DUP5 KECCAK256 PUSH1 0x2 ADD DUP7 SWAP1 SSTORE DUP1 SLOAD DUP1 DUP6 MSTORE SWAP2 SWAP1 SWAP4 KECCAK256 PUSH1 0x3 DUP2 ADD SWAP2 SWAP1 SWAP2 SSTORE DUP11 MLOAD PUSH2 0x1868 SWAP4 SWAP2 SWAP1 SWAP2 ADD SWAP2 DUP12 ADD SWAP1 PUSH2 0x1A8F JUMP JUMPDEST POP CALLER PUSH1 0x0 SWAP1 DUP2 MSTORE PUSH1 0xF PUSH1 0x20 SWAP1 DUP2 MSTORE PUSH1 0x40 DUP1 DUP4 KECCAK256 PUSH1 0x5 DUP1 SLOAD DUP6 MSTORE SWAP3 MSTORE DUP1 DUP4 KECCAK256 PUSH1 0x4 ADD DUP7 SWAP1 SSTORE SWAP1 SLOAD DUP3 MSTORE DUP2 KECCAK256 PUSH1 0x6 ADD DUP9 SWAP1 SSTORE PUSH1 0x9 SLOAD PUSH1 0x64 SWAP1 PUSH2 0x18A8 SWAP1 DUP5 PUSH2 0x2093 JUMP JUMPDEST PUSH2 0x18B2 SWAP2 SWAP1 PUSH2 0x20B2 JUMP JUMPDEST SWAP1 POP PUSH1 0x0 PUSH2 0x18C0 DUP3 DUP14 PUSH2 0x1FF9 JUMP JUMPDEST SWAP1 POP PUSH1 0x0 PUSH2 0x18CE DUP11 DUP4 PUSH2 0x20B2 JUMP JUMPDEST CALLER PUSH1 0x0 DUP2 DUP2 MSTORE PUSH1 0xF PUSH1 0x20 SWAP1 DUP2 MSTORE PUSH1 0x40 DUP1 DUP4 KECCAK256 PUSH1 0x5 DUP1 SLOAD DUP6 MSTORE SWAP1 DUP4 MSTORE DUP2 DUP5 KECCAK256 PUSH1 0x7 ADD DUP7 SWAP1 SSTORE DUP1 SLOAD DUP5 MSTORE DUP2 DUP5 KECCAK256 PUSH1 0x8 ADD DUP9 SWAP1 SSTORE DUP1 SLOAD DUP5 MSTORE DUP2 DUP5 KECCAK256 PUSH1 0xA ADD DUP16 SWAP1 SSTORE SLOAD SWAP4 DUP4 MSTORE PUSH1 0x10 SWAP1 SWAP2 MSTORE SWAP1 DUP2 SWAP1 KECCAK256 SWAP1 MLOAD SWAP3 SWAP4 POP SWAP1 SWAP2 PUSH2 0x192B SWAP1 DUP16 SWAP1 PUSH2 0x2077 JUMP JUMPDEST SWAP1 DUP2 MSTORE PUSH1 0x40 DUP1 MLOAD PUSH1 0x20 SWAP3 DUP2 SWAP1 SUB DUP4 ADD DUP2 KECCAK256 SWAP4 SWAP1 SWAP4 SSTORE CALLER PUSH1 0x0 SWAP1 DUP2 MSTORE PUSH1 0x11 SWAP1 SWAP3 MSTORE SWAP1 KECCAK256 DUP13 SWAP2 PUSH2 0x195A SWAP1 DUP16 SWAP1 PUSH2 0x2077 JUMP JUMPDEST SWAP1 DUP2 MSTORE PUSH1 0x20 ADD PUSH1 0x40 MLOAD DUP1 SWAP2 SUB SWAP1 KECCAK256 SWAP1 DUP1 MLOAD SWAP1 PUSH1 0x20 ADD SWAP1 PUSH2 0x197B SWAP3 SWAP2 SWAP1 PUSH2 0x1A8F JUMP JUMPDEST POP CALLER PUSH1 0x0 DUP2 DUP2 MSTORE PUSH1 0xF PUSH1 0x20 SWAP1 DUP2 MSTORE PUSH1 0x40 DUP1 DUP4 KECCAK256 PUSH1 0x5 SLOAD DUP1 DUP6 MSTORE SWAP1 DUP4 MSTORE DUP2 DUP5 KECCAK256 PUSH1 0x8 ADD SLOAD DUP6 DUP6 MSTORE PUSH1 0x12 DUP5 MSTORE DUP3 DUP6 KECCAK256 SWAP2 DUP6 MSTORE SWAP3 MSTORE SWAP2 DUP3 SWAP1 KECCAK256 SSTORE PUSH1 0x1 SLOAD SWAP1 MLOAD PUSH4 0x23B872DD PUSH1 0xE0 SHL DUP2 MSTORE PUSH1 0x1 PUSH1 0x1 PUSH1 0xA0 SHL SUB SWAP1 SWAP2 AND SWAP2 PUSH4 0x23B872DD SWAP2 PUSH2 0x19E4 SWAP2 SWAP1 ADDRESS SWAP1 DUP11 SWAP1 PUSH1 0x4 ADD PUSH2 0x1EC3 JUMP JUMPDEST PUSH1 0x20 PUSH1 0x40 MLOAD DUP1 DUP4 SUB DUP2 PUSH1 0x0 DUP8 DUP1 EXTCODESIZE ISZERO DUP1 ISZERO PUSH2 0x19FE JUMPI PUSH1 0x0 DUP1 REVERT JUMPDEST POP GAS CALL ISZERO DUP1 ISZERO PUSH2 0x1A12 JUMPI RETURNDATASIZE PUSH1 0x0 DUP1 RETURNDATACOPY RETURNDATASIZE PUSH1 0x0 REVERT JUMPDEST POP POP POP POP PUSH1 0x40 MLOAD RETURNDATASIZE PUSH1 0x1F NOT PUSH1 0x1F DUP3 ADD AND DUP3 ADD DUP1 PUSH1 0x40 MSTORE POP DUP2 ADD SWAP1 PUSH2 0x1A36 SWAP2 SWAP1 PUSH2 0x1EE7 JUMP JUMPDEST PUSH2 0x1A52 JUMPI PUSH1 0x40 MLOAD PUSH3 0x461BCD PUSH1 0xE5 SHL DUP2 MSTORE PUSH1 0x4 ADD PUSH2 0x52E SWAP1 PUSH2 0x1F09 JUMP JUMPDEST PUSH1 0x5 SLOAD PUSH1 0x40 MLOAD CALLER SWAP1 PUSH32 0xDA22CEA5A2A648E8EDE8D3BF25FB058E5B8E6F1E9CFBDBD64CC8E90E61B75D34 SWAP1 PUSH1 0x0 SWAP1 LOG3 POP POP POP POP POP POP POP POP POP POP POP POP POP JUMP JUMPDEST DUP3 DUP1 SLOAD PUSH2 0x1A9B SWAP1 PUSH2 0x1FA8 JUMP JUMPDEST SWAP1 PUSH1 0x0 MSTORE PUSH1 0x20 PUSH1 0x0 KECCAK256 SWAP1 PUSH1 0x1F ADD PUSH1 0x20 SWAP1 DIV DUP2 ADD SWAP3 DUP3 PUSH2 0x1ABD JUMPI PUSH1 0x0 DUP6 SSTORE PUSH2 0x1B03 JUMP JUMPDEST DUP3 PUSH1 0x1F LT PUSH2 0x1AD6 JUMPI DUP1 MLOAD PUSH1 0xFF NOT AND DUP4 DUP1 ADD OR DUP6 SSTORE PUSH2 0x1B03 JUMP JUMPDEST DUP3 DUP1 ADD PUSH1 0x1 ADD DUP6 SSTORE DUP3 ISZERO PUSH2 0x1B03 JUMPI SWAP2 DUP3 ADD JUMPDEST DUP3 DUP2 GT ISZERO PUSH2 0x1B03 JUMPI DUP3 MLOAD DUP3 SSTORE SWAP2 PUSH1 0x20 ADD SWAP2 SWAP1 PUSH1 0x1 ADD SWAP1 PUSH2 0x1AE8 JUMP JUMPDEST POP PUSH2 0x1B0F SWAP3 SWAP2 POP PUSH2 0x1B13 JUMP JUMPDEST POP SWAP1 JUMP JUMPDEST JUMPDEST DUP1 DUP3 GT ISZERO PUSH2 0x1B0F JUMPI PUSH1 0x0 DUP2 SSTORE PUSH1 0x1 ADD PUSH2 0x1B14 JUMP JUMPDEST PUSH1 0x0 PUSH1 0x20 DUP3 DUP5 SUB SLT ISZERO PUSH2 0x1B3A JUMPI PUSH1 0x0 DUP1 REVERT JUMPDEST POP CALLDATALOAD SWAP2 SWAP1 POP JUMP JUMPDEST DUP1 CALLDATALOAD PUSH1 0x1 PUSH1 0x1 PUSH1 0xA0 SHL SUB DUP2 AND DUP2 EQ PUSH2 0x1B58 JUMPI PUSH1 0x0 DUP1 REVERT JUMPDEST SWAP2 SWAP1 POP JUMP JUMPDEST PUSH1 0x0 DUP1 PUSH1 0x40 DUP4 DUP6 SUB SLT ISZERO PUSH2 0x1B70 JUMPI PUSH1 0x0 DUP1 REVERT JUMPDEST DUP3 CALLDATALOAD SWAP2 POP PUSH2 0x1B80 PUSH1 0x20 DUP5 ADD PUSH2 0x1B41 JUMP JUMPDEST SWAP1 POP SWAP3 POP SWAP3 SWAP1 POP JUMP JUMPDEST PUSH1 0x0 DUP1 PUSH1 0x40 DUP4 DUP6 SUB SLT ISZERO PUSH2 0x1B9C JUMPI PUSH1 0x0 DUP1 REVERT JUMPDEST PUSH2 0x1BA5 DUP4 PUSH2 0x1B41 JUMP JUMPDEST SWAP5 PUSH1 0x20 SWAP4 SWAP1 SWAP4 ADD CALLDATALOAD SWAP4 POP POP POP JUMP JUMPDEST PUSH1 0x0 JUMPDEST DUP4 DUP2 LT ISZERO PUSH2 0x1BCE JUMPI DUP2 DUP2 ADD MLOAD DUP4 DUP3 ADD MSTORE PUSH1 0x20 ADD PUSH2 0x1BB6 JUMP JUMPDEST DUP4 DUP2 GT ISZERO PUSH2 0x6FD JUMPI POP POP PUSH1 0x0 SWAP2 ADD MSTORE JUMP JUMPDEST PUSH1 0x0 DUP2 MLOAD DUP1 DUP5 MSTORE PUSH2 0x1BF7 DUP2 PUSH1 0x20 DUP7 ADD PUSH1 0x20 DUP7 ADD PUSH2 0x1BB3 JUMP JUMPDEST PUSH1 0x1F ADD PUSH1 0x1F NOT AND SWAP3 SWAP1 SWAP3 ADD PUSH1 0x20 ADD SWAP3 SWAP2 POP POP JUMP JUMPDEST PUSH1 0x20 DUP2 MSTORE PUSH2 0x1C25 PUSH1 0x20 DUP3 ADD DUP4 MLOAD PUSH1 0x1 PUSH1 0x1 PUSH1 0xA0 SHL SUB AND SWAP1 MSTORE JUMP JUMPDEST PUSH1 0x20 DUP3 ADD MLOAD PUSH1 0x40 DUP3 ADD MSTORE PUSH1 0x40 DUP3 ADD MLOAD PUSH1 0x60 DUP3 ADD MSTORE PUSH1 0x60 DUP3 ADD MLOAD PUSH1 0x80 DUP3 ADD MSTORE PUSH1 0x80 DUP3 ADD MLOAD PUSH1 0xA0 DUP3 ADD MSTORE PUSH1 0xA0 DUP3 ADD MLOAD PUSH1 0xC0 DUP3 ADD MSTORE PUSH1 0xC0 DUP3 ADD MLOAD PUSH1 0xE0 DUP3 ADD MSTORE PUSH1 0x0 PUSH1 0xE0 DUP4 ADD MLOAD PUSH2 0x120 PUSH2 0x100 DUP2 DUP2 DUP7 ADD MSTORE PUSH2 0x1C81 PUSH2 0x140 DUP7 ADD DUP5 PUSH2 0x1BDF JUMP JUMPDEST SWAP6 ADD MLOAD SWAP4 ADD SWAP3 SWAP1 SWAP3 MSTORE POP SWAP1 SWAP2 SWAP1 POP JUMP JUMPDEST PUSH4 0x4E487B71 PUSH1 0xE0 SHL PUSH1 0x0 MSTORE PUSH1 0x41 PUSH1 0x4 MSTORE PUSH1 0x24 PUSH1 0x0 REVERT JUMPDEST PUSH1 0x0 DUP3 PUSH1 0x1F DUP4 ADD SLT PUSH2 0x1CB8 JUMPI PUSH1 0x0 DUP1 REVERT JUMPDEST DUP2 CALLDATALOAD PUSH8 0xFFFFFFFFFFFFFFFF DUP1 DUP3 GT ISZERO PUSH2 0x1CD3 JUMPI PUSH2 0x1CD3 PUSH2 0x1C91 JUMP JUMPDEST PUSH1 0x40 MLOAD PUSH1 0x1F DUP4 ADD PUSH1 0x1F NOT SWAP1 DUP2 AND PUSH1 0x3F ADD AND DUP2 ADD SWAP1 DUP3 DUP3 GT DUP2 DUP4 LT OR ISZERO PUSH2 0x1CFB JUMPI PUSH2 0x1CFB PUSH2 0x1C91 JUMP JUMPDEST DUP2 PUSH1 0x40 MSTORE DUP4 DUP2 MSTORE DUP7 PUSH1 0x20 DUP6 DUP9 ADD ADD GT ISZERO PUSH2 0x1D14 JUMPI PUSH1 0x0 DUP1 REVERT JUMPDEST DUP4 PUSH1 0x20 DUP8 ADD PUSH1 0x20 DUP4 ADD CALLDATACOPY PUSH1 0x0 PUSH1 0x20 DUP6 DUP4 ADD ADD MSTORE DUP1 SWAP5 POP POP POP POP POP SWAP3 SWAP2 POP POP JUMP JUMPDEST PUSH1 0x0 DUP1 PUSH1 0x40 DUP4 DUP6 SUB SLT ISZERO PUSH2 0x1D47 JUMPI PUSH1 0x0 DUP1 REVERT JUMPDEST PUSH2 0x1D50 DUP4 PUSH2 0x1B41 JUMP JUMPDEST SWAP2 POP PUSH1 0x20 DUP4 ADD CALLDATALOAD PUSH8 0xFFFFFFFFFFFFFFFF DUP2 GT ISZERO PUSH2 0x1D6C JUMPI PUSH1 0x0 DUP1 REVERT JUMPDEST PUSH2 0x1D78 DUP6 DUP3 DUP7 ADD PUSH2 0x1CA7 JUMP JUMPDEST SWAP2 POP POP SWAP3 POP SWAP3 SWAP1 POP JUMP JUMPDEST PUSH1 0x20 DUP2 MSTORE PUSH1 0x0 PUSH2 0x1D95 PUSH1 0x20 DUP4 ADD DUP5 PUSH2 0x1BDF JUMP JUMPDEST SWAP4 SWAP3 POP POP POP JUMP JUMPDEST PUSH1 0x60 DUP2 MSTORE PUSH1 0x0 PUSH2 0x1DAF PUSH1 0x60 DUP4 ADD DUP7 PUSH2 0x1BDF JUMP JUMPDEST PUSH1 0x20 DUP4 ADD SWAP5 SWAP1 SWAP5 MSTORE POP PUSH1 0x40 ADD MSTORE SWAP2 SWAP1 POP JUMP JUMPDEST PUSH1 0x0 DUP1 PUSH1 0x0 PUSH1 0x60 DUP5 DUP7 SUB SLT ISZERO PUSH2 0x1DD6 JUMPI PUSH1 0x0 DUP1 REVERT JUMPDEST DUP4 CALLDATALOAD SWAP3 POP PUSH1 0x20 DUP5 ADD CALLDATALOAD PUSH8 0xFFFFFFFFFFFFFFFF DUP2 GT ISZERO PUSH2 0x1DF4 JUMPI PUSH1 0x0 DUP1 REVERT JUMPDEST PUSH2 0x1E00 DUP7 DUP3 DUP8 ADD PUSH2 0x1CA7 JUMP JUMPDEST SWAP3 POP POP PUSH1 0x40 DUP5 ADD CALLDATALOAD SWAP1 POP SWAP3 POP SWAP3 POP SWAP3 JUMP JUMPDEST DUP6 DUP2 MSTORE DUP5 PUSH1 0x20 DUP3 ADD MSTORE PUSH1 0xA0 PUSH1 0x40 DUP3 ADD MSTORE PUSH1 0x0 PUSH2 0x1E30 PUSH1 0xA0 DUP4 ADD DUP7 PUSH2 0x1BDF JUMP JUMPDEST PUSH1 0x60 DUP4 ADD SWAP5 SWAP1 SWAP5 MSTORE POP PUSH1 0x80 ADD MSTORE SWAP4 SWAP3 POP POP POP JUMP JUMPDEST PUSH1 0x0 DUP1 PUSH1 0x0 DUP1 PUSH1 0x0 PUSH1 0xA0 DUP7 DUP9 SUB SLT ISZERO PUSH2 0x1E5C JUMPI PUSH1 0x0 DUP1 REVERT JUMPDEST DUP6 CALLDATALOAD SWAP5 POP PUSH1 0x20 DUP7 ADD CALLDATALOAD PUSH8 0xFFFFFFFFFFFFFFFF DUP1 DUP3 GT ISZERO PUSH2 0x1E7B JUMPI PUSH1 0x0 DUP1 REVERT JUMPDEST PUSH2 0x1E87 DUP10 DUP4 DUP11 ADD PUSH2 0x1CA7 JUMP JUMPDEST SWAP6 POP PUSH1 0x40 DUP9 ADD CALLDATALOAD SWAP2 POP DUP1 DUP3 GT ISZERO PUSH2 0x1E9D JUMPI PUSH1 0x0 DUP1 REVERT JUMPDEST POP PUSH2 0x1EAA DUP9 DUP3 DUP10 ADD PUSH2 0x1CA7 JUMP JUMPDEST SWAP6 SWAP9 SWAP5 SWAP8 POP SWAP5 SWAP6 PUSH1 0x60 DUP2 ADD CALLDATALOAD SWAP6 POP PUSH1 0x80 ADD CALLDATALOAD SWAP4 SWAP3 POP POP POP JUMP JUMPDEST PUSH1 0x1 PUSH1 0x1 PUSH1 0xA0 SHL SUB SWAP4 DUP5 AND DUP2 MSTORE SWAP2 SWAP1 SWAP3 AND PUSH1 0x20 DUP3 ADD MSTORE PUSH1 0x40 DUP2 ADD SWAP2 SWAP1 SWAP2 MSTORE PUSH1 0x60 ADD SWAP1 JUMP JUMPDEST PUSH1 0x0 PUSH1 0x20 DUP3 DUP5 SUB SLT ISZERO PUSH2 0x1EF9 JUMPI PUSH1 0x0 DUP1 REVERT JUMPDEST DUP2 MLOAD DUP1 ISZERO ISZERO DUP2 EQ PUSH2 0x1D95 JUMPI PUSH1 0x0 DUP1 REVERT JUMPDEST PUSH1 0x20 DUP1 DUP3 MSTORE PUSH1 0x1E SWAP1 DUP3 ADD MSTORE PUSH32 0x7472616E73616374696F6E206661696C6564206F722072657665727465640000 PUSH1 0x40 DUP3 ADD MSTORE PUSH1 0x60 ADD SWAP1 JUMP JUMPDEST PUSH1 0x20 DUP1 DUP3 MSTORE PUSH1 0x2F SWAP1 DUP3 ADD MSTORE PUSH32 0x546865206C6F616E20626F72726F7765722061646472657373206973206E6F74 PUSH1 0x40 DUP3 ADD MSTORE PUSH15 0x81C9959DA5CDD195C9959081E595D PUSH1 0x8A SHL PUSH1 0x60 DUP3 ADD MSTORE PUSH1 0x80 ADD SWAP1 JUMP JUMPDEST PUSH1 0x0 PUSH1 0x20 DUP3 DUP5 SUB SLT ISZERO PUSH2 0x1FA1 JUMPI PUSH1 0x0 DUP1 REVERT JUMPDEST POP MLOAD SWAP2 SWAP1 POP JUMP JUMPDEST PUSH1 0x1 DUP2 DUP2 SHR SWAP1 DUP3 AND DUP1 PUSH2 0x1FBC JUMPI PUSH1 0x7F DUP3 AND SWAP2 POP JUMPDEST PUSH1 0x20 DUP3 LT DUP2 EQ ISZERO PUSH2 0x1FDD JUMPI PUSH4 0x4E487B71 PUSH1 0xE0 SHL PUSH1 0x0 MSTORE PUSH1 0x22 PUSH1 0x4 MSTORE PUSH1 0x24 PUSH1 0x0 REVERT JUMPDEST POP SWAP2 SWAP1 POP JUMP JUMPDEST PUSH4 0x4E487B71 PUSH1 0xE0 SHL PUSH1 0x0 MSTORE PUSH1 0x11 PUSH1 0x4 MSTORE PUSH1 0x24 PUSH1 0x0 REVERT JUMPDEST PUSH1 0x0 DUP3 NOT DUP3 GT ISZERO PUSH2 0x200C JUMPI PUSH2 0x200C PUSH2 0x1FE3 JUMP JUMPDEST POP ADD SWAP1 JUMP JUMPDEST PUSH1 0x0 DUP3 DUP3 LT ISZERO PUSH2 0x2023 JUMPI PUSH2 0x2023 PUSH2 0x1FE3 JUMP JUMPDEST POP SUB SWAP1 JUMP JUMPDEST PUSH1 0x20 DUP1 DUP3 MSTORE PUSH1 0x2F SWAP1 DUP3 ADD MSTORE PUSH32 0x546865206C6F616E2070726F76696465722061646472657373206973206E6F74 PUSH1 0x40 DUP3 ADD MSTORE PUSH15 0x81C9959DA5CDD195C9959081E595D PUSH1 0x8A SHL PUSH1 0x60 DUP3 ADD MSTORE PUSH1 0x80 ADD SWAP1 JUMP JUMPDEST PUSH1 0x0 DUP3 MLOAD PUSH2 0x2089 DUP2 DUP5 PUSH1 0x20 DUP8 ADD PUSH2 0x1BB3 JUMP JUMPDEST SWAP2 SWAP1 SWAP2 ADD SWAP3 SWAP2 POP POP JUMP JUMPDEST PUSH1 0x0 DUP2 PUSH1 0x0 NOT DIV DUP4 GT DUP3 ISZERO ISZERO AND ISZERO PUSH2 0x20AD JUMPI PUSH2 0x20AD PUSH2 0x1FE3 JUMP JUMPDEST POP MUL SWAP1 JUMP JUMPDEST PUSH1 0x0 DUP3 PUSH2 0x20CF JUMPI PUSH4 0x4E487B71 PUSH1 0xE0 SHL PUSH1 0x0 MSTORE PUSH1 0x12 PUSH1 0x4 MSTORE PUSH1 0x24 PUSH1 0x0 REVERT JUMPDEST POP DIV SWAP1 JUMP INVALID LOG2 PUSH5 0x6970667358 0x22 SLT KECCAK256 BALANCE 0xF9 0xEB 0x2A DUP6 SSTORE 0xDB SWAP9 CODECOPY DUP11 0x4F 0xEF OR SHR 0x2C 0x1F SWAP1 0x4C 0x5C PUSH24 0x5C7EC7ED9E56D99FE08BB71564736F6C6343000809003300 "},"methodIdentifiers":{"borrowerIdentityNumber(address,string)":"fb04a884","businessRisk(address,string)":"d5adf033","claimTokenFromFundProvider(uint256,address)":"1c3e323a","collateralPercentage()":"308352e8","depositByBorrower(uint256,string,string,uint256,uint256)":"f4e2c05d","depositByFundProvider(uint256,string,uint256)":"e90d79d4","depositCollateralToFundProvider(address,uint256)":"e4fca76a","depositTreasury(uint256)":"bd12240a","enquiryFundDetailsFundProvider(address,uint256)":"7ee222d3","finalBalance(address,uint256)":"68254e64","getContractBalance()":"6f9fb98a","interestPercForBorrowerWhileRetuning()":"32182225","readDashboardBorrower(address,uint256)":"dd18ba2b","readDetailsForBorrower(address,uint256)":"8b71a599","readDetailsPageFundProvider(address,uint256)":"eb356404","registrationContractAddress()":"6d40111f","releasePaymentToFundProvider(uint256)":"d59324e9","remainingBalanceForBorrower(address,uint256)":"aa301c85","repayBorrowedLoan(uint256)":"ea9b2d8e","statusOfBorrower(address,uint256)":"c6ed8f5e","taxedTokens()":"76d628b7","tokensInPool()":"40e1e4c7","usdcAddress()":"02d45457","withdrawCollateralByBorrower(uint256)":"1551e2de"}},"storageLayout":{"storage":[{"astId":831,"contract":"contracts/Escrow.sol:Escrow","label":"registrationContractAddress","offset":0,"slot":"0","type":"t_address"},{"astId":834,"contract":"contracts/Escrow.sol:Escrow","label":"usdcAddress","offset":0,"slot":"1","type":"t_contract(IERC20)777"},{"astId":845,"contract":"contracts/Escrow.sol:Escrow","label":"l","offset":0,"slot":"2","type":"t_string_storage"},{"astId":848,"contract":"contracts/Escrow.sol:Escrow","label":"m","offset":0,"slot":"3","type":"t_string_storage"},{"astId":851,"contract":"contracts/Escrow.sol:Escrow","label":"h","offset":0,"slot":"4","type":"t_string_storage"},{"astId":853,"contract":"contracts/Escrow.sol:Escrow","label":"identificationNumber","offset":0,"slot":"5","type":"t_uint256"},{"astId":858,"contract":"contracts/Escrow.sol:Escrow","label":"taxedTokens","offset":0,"slot":"6","type":"t_uint256"},{"astId":860,"contract":"contracts/Escrow.sol:Escrow","label":"tokensInPool","offset":0,"slot":"7","type":"t_uint256"},{"astId":863,"contract":"contracts/Escrow.sol:Escrow","label":"collateralPercentage","offset":0,"slot":"8","type":"t_uint256"},{"astId":866,"contract":"contracts/Escrow.sol:Escrow","label":"interestPercForBorrowerWhileRetuning","offset":0,"slot":"9","type":"t_uint256"},{"astId":952,"contract":"contracts/Escrow.sol:Escrow","label":"interestGenerator","offset":0,"slot":"10","type":"t_mapping(t_string_memory_ptr,t_uint256)"},{"astId":958,"contract":"contracts/Escrow.sol:Escrow","label":"isIdForInvestor","offset":0,"slot":"11","type":"t_mapping(t_address,t_mapping(t_uint256,t_bool))"},{"astId":965,"contract":"contracts/Escrow.sol:Escrow","label":"loanProviderDetails","offset":0,"slot":"12","type":"t_mapping(t_address,t_mapping(t_uint256,t_struct(LoanProviderRecord)925_storage))"},{"astId":970,"contract":"contracts/Escrow.sol:Escrow","label":"allIdentificationAssociatedWithLoanProviderAddress","offset":0,"slot":"13","type":"t_mapping(t_address,t_array(t_uint256)dyn_storage)"},{"astId":976,"contract":"contracts/Escrow.sol:Escrow","label":"finalBalance","offset":0,"slot":"14","type":"t_mapping(t_address,t_mapping(t_uint256,t_uint256))"},{"astId":983,"contract":"contracts/Escrow.sol:Escrow","label":"loanBorrowerDetails","offset":0,"slot":"15","type":"t_mapping(t_address,t_mapping(t_uint256,t_struct(LoanBorrower)948_storage))"},{"astId":989,"contract":"contracts/Escrow.sol:Escrow","label":"borrowerIdentityNumber","offset":0,"slot":"16","type":"t_mapping(t_address,t_mapping(t_string_memory_ptr,t_uint256))"},{"astId":995,"contract":"contracts/Escrow.sol:Escrow","label":"businessRisk","offset":0,"slot":"17","type":"t_mapping(t_address,t_mapping(t_string_memory_ptr,t_string_storage))"},{"astId":1001,"contract":"contracts/Escrow.sol:Escrow","label":"remainingBalanceForBorrower","offset":0,"slot":"18","type":"t_mapping(t_address,t_mapping(t_uint256,t_uint256))"},{"astId":1007,"contract":"contracts/Escrow.sol:Escrow","label":"statusOfBorrower","offset":0,"slot":"19","type":"t_mapping(t_address,t_mapping(t_uint256,t_bool))"},{"astId":1011,"contract":"contracts/Escrow.sol:Escrow","label":"totalAmountInvestedInIdentity","offset":0,"slot":"20","type":"t_mapping(t_uint256,t_uint256)"}],"types":{"t_address":{"encoding":"inplace","label":"address","numberOfBytes":"20"},"t_array(t_uint256)dyn_storage":{"base":"t_uint256","encoding":"dynamic_array","label":"uint256[]","numberOfBytes":"32"},"t_bool":{"encoding":"inplace","label":"bool","numberOfBytes":"1"},"t_contract(IERC20)777":{"encoding":"inplace","label":"contract IERC20","numberOfBytes":"20"},"t_mapping(t_address,t_array(t_uint256)dyn_storage)":{"encoding":"mapping","key":"t_address","label":"mapping(address => uint256[])","numberOfBytes":"32","value":"t_array(t_uint256)dyn_storage"},"t_mapping(t_address,t_mapping(t_string_memory_ptr,t_string_storage))":{"encoding":"mapping","key":"t_address","label":"mapping(address => mapping(string => string))","numberOfBytes":"32","value":"t_mapping(t_string_memory_ptr,t_string_storage)"},"t_mapping(t_address,t_mapping(t_string_memory_ptr,t_uint256))":{"encoding":"mapping","key":"t_address","label":"mapping(address => mapping(string => uint256))","numberOfBytes":"32","value":"t_mapping(t_string_memory_ptr,t_uint256)"},"t_mapping(t_address,t_mapping(t_uint256,t_bool))":{"encoding":"mapping","key":"t_address","label":"mapping(address => mapping(uint256 => bool))","numberOfBytes":"32","value":"t_mapping(t_uint256,t_bool)"},"t_mapping(t_address,t_mapping(t_uint256,t_struct(LoanBorrower)948_storage))":{"encoding":"mapping","key":"t_address","label":"mapping(address => mapping(uint256 => struct Escrow.LoanBorrower))","numberOfBytes":"32","value":"t_mapping(t_uint256,t_struct(LoanBorrower)948_storage)"},"t_mapping(t_address,t_mapping(t_uint256,t_struct(LoanProviderRecord)925_storage))":{"encoding":"mapping","key":"t_address","label":"mapping(address => mapping(uint256 => struct Escrow.LoanProviderRecord))","numberOfBytes":"32","value":"t_mapping(t_uint256,t_struct(LoanProviderRecord)925_storage)"},"t_mapping(t_address,t_mapping(t_uint256,t_uint256))":{"encoding":"mapping","key":"t_address","label":"mapping(address => mapping(uint256 => uint256))","numberOfBytes":"32","value":"t_mapping(t_uint256,t_uint256)"},"t_mapping(t_string_memory_ptr,t_string_storage)":{"encoding":"mapping","key":"t_string_memory_ptr","label":"mapping(string => string)","numberOfBytes":"32","value":"t_string_storage"},"t_mapping(t_string_memory_ptr,t_uint256)":{"encoding":"mapping","key":"t_string_memory_ptr","label":"mapping(string => uint256)","numberOfBytes":"32","value":"t_uint256"},"t_mapping(t_uint256,t_bool)":{"encoding":"mapping","key":"t_uint256","label":"mapping(uint256 => bool)","numberOfBytes":"32","value":"t_bool"},"t_mapping(t_uint256,t_struct(LoanBorrower)948_storage)":{"encoding":"mapping","key":"t_uint256","label":"mapping(uint256 => struct Escrow.LoanBorrower)","numberOfBytes":"32","value":"t_struct(LoanBorrower)948_storage"},"t_mapping(t_uint256,t_struct(LoanProviderRecord)925_storage)":{"encoding":"mapping","key":"t_uint256","label":"mapping(uint256 => struct Escrow.LoanProviderRecord)","numberOfBytes":"32","value":"t_struct(LoanProviderRecord)925_storage"},"t_mapping(t_uint256,t_uint256)":{"encoding":"mapping","key":"t_uint256","label":"mapping(uint256 => uint256)","numberOfBytes":"32","value":"t_uint256"},"t_string_memory_ptr":{"encoding":"bytes","label":"string","numberOfBytes":"32"},"t_string_storage":{"encoding":"bytes","label":"string","numberOfBytes":"32"},"t_struct(LoanBorrower)948_storage":{"encoding":"inplace","label":"struct Escrow.LoanBorrower","members":[{"astId":927,"contract":"contracts/Escrow.sol:Escrow","label":"_askingAmount","offset":0,"slot":"0","type":"t_uint256"},{"astId":929,"contract":"contracts/Escrow.sol:Escrow","label":"_businessName","offset":0,"slot":"1","type":"t_string_storage"},{"astId":931,"contract":"contracts/Escrow.sol:Escrow","label":"_collateralAmountInvested","offset":0,"slot":"2","type":"t_uint256"},{"astId":933,"contract":"contracts/Escrow.sol:Escrow","label":"identificationNumber","offset":0,"slot":"3","type":"t_uint256"},{"astId":935,"contract":"contracts/Escrow.sol:Escrow","label":"taxDeducted","offset":0,"slot":"4","type":"t_uint256"},{"astId":937,"contract":"contracts/Escrow.sol:Escrow","label":"riskStatus","offset":0,"slot":"5","type":"t_string_storage"},{"astId":939,"contract":"contracts/Escrow.sol:Escrow","label":"_dueTimes","offset":0,"slot":"6","type":"t_uint256"},{"astId":941,"contract":"contracts/Escrow.sol:Escrow","label":"_duePerInstallment","offset":0,"slot":"7","type":"t_uint256"},{"astId":943,"contract":"contracts/Escrow.sol:Escrow","label":"_totalAmountWithInterest","offset":0,"slot":"8","type":"t_uint256"},{"astId":945,"contract":"contracts/Escrow.sol:Escrow","label":"_status","offset":0,"slot":"9","type":"t_bool"},{"astId":947,"contract":"contracts/Escrow.sol:Escrow","label":"_maturityDate","offset":0,"slot":"10","type":"t_uint256"}],"numberOfBytes":"352"},"t_struct(LoanProviderRecord)925_storage":{"encoding":"inplace","label":"struct Escrow.LoanProviderRecord","members":[{"astId":908,"contract":"contracts/Escrow.sol:Escrow","label":"_loanProviderAddress","offset":0,"slot":"0","type":"t_address"},{"astId":910,"contract":"contracts/Escrow.sol:Escrow","label":"_identityNumber","offset":0,"slot":"1","type":"t_uint256"},{"astId":912,"contract":"contracts/Escrow.sol:Escrow","label":"_duration","offset":0,"slot":"2","type":"t_uint256"},{"astId":914,"contract":"contracts/Escrow.sol:Escrow","label":"_amountInvested","offset":0,"slot":"3","type":"t_uint256"},{"astId":916,"contract":"contracts/Escrow.sol:Escrow","label":"_interestPercentage","offset":0,"slot":"4","type":"t_uint256"},{"astId":918,"contract":"contracts/Escrow.sol:Escrow","label":"_collectedTax","offset":0,"slot":"5","type":"t_uint256"},{"astId":920,"contract":"contracts/Escrow.sol:Escrow","label":"_actualAmountInvested","offset":0,"slot":"6","type":"t_uint256"},{"astId":922,"contract":"contracts/Escrow.sol:Escrow","label":"_selectedBond","offset":0,"slot":"7","type":"t_string_storage"},{"astId":924,"contract":"contracts/Escrow.sol:Escrow","label":"_speculatingInterestAndPrincipal","offset":0,"slot":"8","type":"t_uint256"}],"numberOfBytes":"288"},"t_uint256":{"encoding":"inplace","label":"uint256","numberOfBytes":"32"}}}}}}