{"contracts/withoutMeta.sol":{"withoutMeta":{"abi":[{"inputs":[],"stateMutability":"nonpayable","type":"constructor"},{"inputs":[],"name":"UserIsNotRegisteredForLand","type":"error"},{"inputs":[],"name":"addressMismatching","type":"error"},{"inputs":[],"name":"userIsNotRegisteredyet","type":"error"},{"anonymous":false,"inputs":[{"indexed":true,"internalType":"address","name":"owner","type":"address"},{"indexed":true,"internalType":"address","name":"approved","type":"address"},{"indexed":true,"internalType":"uint256","name":"tokenId","type":"uint256"}],"name":"Approval","type":"event"},{"anonymous":false,"inputs":[{"indexed":true,"internalType":"address","name":"owner","type":"address"},{"indexed":true,"internalType":"address","name":"operator","type":"address"},{"indexed":false,"internalType":"bool","name":"approved","type":"bool"}],"name":"ApprovalForAll","type":"event"},{"anonymous":false,"inputs":[{"indexed":true,"internalType":"address","name":"_user","type":"address"},{"indexed":true,"internalType":"uint256","name":"_nftId","type":"uint256"},{"indexed":true,"internalType":"bool","name":"_mintStatus","type":"bool"}],"name":"NFTCreationInfo","type":"event"},{"anonymous":false,"inputs":[{"indexed":true,"internalType":"address","name":"from","type":"address"},{"indexed":true,"internalType":"address","name":"to","type":"address"},{"indexed":true,"internalType":"uint256","name":"tokenId","type":"uint256"}],"name":"Transfer","type":"event"},{"anonymous":false,"inputs":[{"indexed":true,"internalType":"uint256","name":"_userId","type":"uint256"},{"indexed":true,"internalType":"address","name":"_userAddress","type":"address"},{"indexed":true,"internalType":"uint256","name":"_status","type":"uint256"}],"name":"UserRegistered","type":"event"},{"anonymous":false,"inputs":[{"indexed":true,"internalType":"address","name":"_user","type":"address"},{"indexed":true,"internalType":"uint256","name":"_plotId","type":"uint256"},{"indexed":true,"internalType":"bool","name":"_registrationStatus","type":"bool"}],"name":"landRegisteredData","type":"event"},{"inputs":[{"components":[{"internalType":"address","name":"_walletAddress","type":"address"},{"internalType":"uint256","name":"_uniqueId","type":"uint256"},{"internalType":"string","name":"_capital","type":"string"},{"internalType":"string","name":"_plotId","type":"string"},{"internalType":"string","name":"_landType","type":"string"},{"internalType":"string","name":"_streetName","type":"string"},{"internalType":"uint256","name":"_areaOfLand","type":"uint256"},{"internalType":"uint256","name":"_amountWillingToSell","type":"uint256"},{"internalType":"uint256","name":"_requestedAmountForSales","type":"uint256"},{"internalType":"uint256","name":"_timestampOfModification","type":"uint256"},{"internalType":"string","name":"_transferDoc","type":"string"},{"internalType":"string","name":"_GRA","type":"string"},{"internalType":"string","name":"_MunicipalDoc","type":"string"},{"internalType":"string","name":"_OriginalCertificate","type":"string"}],"internalType":"struct withoutMeta.LandInformation","name":"_landInfo","type":"tuple"}],"name":"LandRegistration","outputs":[],"stateMutability":"nonpayable","type":"function"},{"inputs":[{"components":[{"internalType":"string","name":"_plotId","type":"string"},{"internalType":"string","name":"_coordinates","type":"string"},{"internalType":"string","name":"_pdf","type":"string"}],"internalType":"struct withoutMeta.LayoutInformation","name":"_layoutDetails","type":"tuple"}],"name":"LayoutCoordinates","outputs":[],"stateMutability":"nonpayable","type":"function"},{"inputs":[{"internalType":"address","name":"_buyer","type":"address"},{"internalType":"string","name":"_plotId","type":"string"},{"internalType":"uint256","name":"_nftId","type":"uint256"},{"internalType":"string","name":"_buyerName","type":"string"}],"name":"TransferDocumentsToBuyer","outputs":[],"stateMutability":"nonpayable","type":"function"},{"inputs":[{"components":[{"internalType":"string","name":"_firstName","type":"string"},{"internalType":"string","name":"_lastName","type":"string"},{"internalType":"string","name":"_address","type":"string"},{"internalType":"uint256","name":"_ph_number","type":"uint256"},{"internalType":"uint256","name":"_pincode","type":"uint256"},{"internalType":"string","name":"_city","type":"string"},{"internalType":"string","name":"_country","type":"string"},{"internalType":"string","name":"_email","type":"string"},{"internalType":"address","name":"_walletAddress","type":"address"},{"internalType":"string","name":"_dob","type":"string"},{"internalType":"string","name":"_gender","type":"string"},{"internalType":"string","name":"_age","type":"string"},{"internalType":"string","name":"_martial_status","type":"string"},{"internalType":"string","name":"_occupation","type":"string"},{"internalType":"string","name":"_national_id","type":"string"},{"internalType":"string","name":"_tin","type":"string"}],"internalType":"struct withoutMeta.UserInformation","name":"_userInfo","type":"tuple"}],"name":"UserRegistration","outputs":[],"stateMutability":"nonpayable","type":"function"},{"inputs":[{"internalType":"address","name":"to","type":"address"},{"internalType":"uint256","name":"tokenId","type":"uint256"}],"name":"approve","outputs":[],"stateMutability":"nonpayable","type":"function"},{"inputs":[{"internalType":"address","name":"owner","type":"address"}],"name":"balanceOf","outputs":[{"internalType":"uint256","name":"","type":"uint256"}],"stateMutability":"view","type":"function"},{"inputs":[{"internalType":"address","name":"_userAddress","type":"address"},{"internalType":"uint256","name":"_userID","type":"uint256"}],"name":"checkUserAndIdVerification","outputs":[{"internalType":"bool","name":"","type":"bool"}],"stateMutability":"view","type":"function"},{"inputs":[],"name":"contractAdmin","outputs":[{"internalType":"address","name":"","type":"address"}],"stateMutability":"view","type":"function"},{"inputs":[{"internalType":"address","name":"_userAddress","type":"address"},{"internalType":"string","name":"_plotId","type":"string"}],"name":"createNftForRegisteredUsers","outputs":[],"stateMutability":"nonpayable","type":"function"},{"inputs":[],"name":"getAllIds","outputs":[{"internalType":"uint256[]","name":"autoId","type":"uint256[]"}],"stateMutability":"view","type":"function"},{"inputs":[],"name":"getAllUserAddresses","outputs":[{"internalType":"address[]","name":"userAddresses","type":"address[]"}],"stateMutability":"view","type":"function"},{"inputs":[{"internalType":"uint256","name":"tokenId","type":"uint256"}],"name":"getApproved","outputs":[{"internalType":"address","name":"","type":"address"}],"stateMutability":"view","type":"function"},{"inputs":[{"internalType":"address","name":"_userAddress","type":"address"},{"internalType":"string","name":"_plotId","type":"string"}],"name":"getLandDetailsStruct","outputs":[{"components":[{"internalType":"address","name":"_walletAddress","type":"address"},{"internalType":"uint256","name":"_uniqueId","type":"uint256"},{"internalType":"string","name":"_capital","type":"string"},{"internalType":"string","name":"_plotId","type":"string"},{"internalType":"string","name":"_landType","type":"string"},{"internalType":"string","name":"_streetName","type":"string"},{"internalType":"uint256","name":"_areaOfLand","type":"uint256"},{"internalType":"uint256","name":"_amountWillingToSell","type":"uint256"},{"internalType":"uint256","name":"_requestedAmountForSales","type":"uint256"},{"internalType":"uint256","name":"_timestampOfModification","type":"uint256"},{"internalType":"string","name":"_transferDoc","type":"string"},{"internalType":"string","name":"_GRA","type":"string"},{"internalType":"string","name":"_MunicipalDoc","type":"string"},{"internalType":"string","name":"_OriginalCertificate","type":"string"}],"internalType":"struct withoutMeta.LandInformation","name":"_landDetails","type":"tuple"}],"stateMutability":"view","type":"function"},{"inputs":[{"internalType":"string","name":"_plotId","type":"string"}],"name":"getLayoutInformation","outputs":[{"components":[{"internalType":"string","name":"_plotId","type":"string"},{"internalType":"string","name":"_coordinates","type":"string"},{"internalType":"string","name":"_pdf","type":"string"}],"internalType":"struct withoutMeta.LayoutInformation","name":"_layoutDetials","type":"tuple"}],"stateMutability":"view","type":"function"},{"inputs":[{"internalType":"address","name":"_userAddress","type":"address"},{"internalType":"uint256","name":"_userId","type":"uint256"}],"name":"getUserDetailsStruct","outputs":[{"components":[{"internalType":"string","name":"_firstName","type":"string"},{"internalType":"string","name":"_lastName","type":"string"},{"internalType":"string","name":"_address","type":"string"},{"internalType":"uint256","name":"_ph_number","type":"uint256"},{"internalType":"uint256","name":"_pincode","type":"uint256"},{"internalType":"string","name":"_city","type":"string"},{"internalType":"string","name":"_country","type":"string"},{"internalType":"string","name":"_email","type":"string"},{"internalType":"address","name":"_walletAddress","type":"address"},{"internalType":"string","name":"_dob","type":"string"},{"internalType":"string","name":"_gender","type":"string"},{"internalType":"string","name":"_age","type":"string"},{"internalType":"string","name":"_martial_status","type":"string"},{"internalType":"string","name":"_occupation","type":"string"},{"internalType":"string","name":"_national_id","type":"string"},{"internalType":"string","name":"_tin","type":"string"}],"internalType":"struct withoutMeta.UserInformation","name":"_userDetails","type":"tuple"}],"stateMutability":"view","type":"function"},{"inputs":[{"internalType":"address","name":"owner","type":"address"},{"internalType":"address","name":"operator","type":"address"}],"name":"isApprovedForAll","outputs":[{"internalType":"bool","name":"","type":"bool"}],"stateMutability":"view","type":"function"},{"inputs":[{"internalType":"address","name":"_user","type":"address"},{"internalType":"string","name":"_plotId","type":"string"}],"name":"landOwnershipDetails","outputs":[{"components":[{"internalType":"string","name":"_plotId","type":"string"},{"internalType":"string","name":"_name","type":"string"},{"internalType":"address","name":"_userAddress","type":"address"}],"internalType":"struct withoutMeta.LandOwner","name":"landOwnerDetails","type":"tuple"},{"internalType":"bool","name":"currentOwnerStatus","type":"bool"}],"stateMutability":"view","type":"function"},{"inputs":[],"name":"name","outputs":[{"internalType":"string","name":"","type":"string"}],"stateMutability":"view","type":"function"},{"inputs":[{"internalType":"uint256","name":"tokenId","type":"uint256"}],"name":"ownerOf","outputs":[{"internalType":"address","name":"","type":"address"}],"stateMutability":"view","type":"function"},{"inputs":[{"internalType":"address","name":"_user","type":"address"},{"internalType":"string","name":"_plotId","type":"string"}],"name":"receivedDocumentVerification","outputs":[{"components":[{"internalType":"string","name":"_firstname","type":"string"},{"internalType":"string","name":"_plotId","type":"string"},{"internalType":"address","name":"_walletAddress","type":"address"},{"internalType":"string","name":"_transferDoc","type":"string"},{"internalType":"string","name":"_GRA","type":"string"},{"internalType":"string","name":"_MunicipalDoc","type":"string"},{"internalType":"string","name":"_OriginalCertificate","type":"string"},{"internalType":"uint256","name":"_time","type":"uint256"}],"internalType":"struct withoutMeta.DocumentReceivedViaTransfer","name":"documents","type":"tuple"}],"stateMutability":"view","type":"function"},{"inputs":[{"internalType":"address","name":"from","type":"address"},{"internalType":"address","name":"to","type":"address"},{"internalType":"uint256","name":"tokenId","type":"uint256"}],"name":"safeTransferFrom","outputs":[],"stateMutability":"nonpayable","type":"function"},{"inputs":[{"internalType":"address","name":"from","type":"address"},{"internalType":"address","name":"to","type":"address"},{"internalType":"uint256","name":"tokenId","type":"uint256"},{"internalType":"bytes","name":"data","type":"bytes"}],"name":"safeTransferFrom","outputs":[],"stateMutability":"nonpayable","type":"function"},{"inputs":[{"internalType":"address","name":"operator","type":"address"},{"internalType":"bool","name":"approved","type":"bool"}],"name":"setApprovalForAll","outputs":[],"stateMutability":"nonpayable","type":"function"},{"inputs":[{"internalType":"bytes4","name":"interfaceId","type":"bytes4"}],"name":"supportsInterface","outputs":[{"internalType":"bool","name":"","type":"bool"}],"stateMutability":"view","type":"function"},{"inputs":[],"name":"symbol","outputs":[{"internalType":"string","name":"","type":"string"}],"stateMutability":"view","type":"function"},{"inputs":[{"internalType":"uint256","name":"tokenId","type":"uint256"}],"name":"tokenURI","outputs":[{"internalType":"string","name":"","type":"string"}],"stateMutability":"view","type":"function"},{"inputs":[{"internalType":"address","name":"from","type":"address"},{"internalType":"address","name":"to","type":"address"},{"internalType":"uint256","name":"tokenId","type":"uint256"}],"name":"transferFrom","outputs":[],"stateMutability":"nonpayable","type":"function"},{"inputs":[{"internalType":"address","name":"_ad","type":"address"}],"name":"verifyUser","outputs":[{"internalType":"bool","name":"state","type":"bool"}],"stateMutability":"view","type":"function"}],"evm":{"bytecode":{"linkReferences":{},"object":"60806040523480156200001157600080fd5b50604080518082018252601481527f477579616e61204c616e6420526567697374727900000000000000000000000060208083019182528351808501909452600384526211d31160ea1b9084015281519192916200007291600091620000b7565b50805162000088906001906020840190620000b7565b5050600680546001600160a01b0319167385ba2d48fb1fb0ca47d48dc68fd16cfb7d4acf96179055506200019a565b828054620000c5906200015d565b90600052602060002090601f016020900481019282620000e9576000855562000134565b82601f106200010457805160ff191683800117855562000134565b8280016001018555821562000134579182015b828111156200013457825182559160200191906001019062000117565b506200014292915062000146565b5090565b5b8082111562000142576000815560010162000147565b600181811c908216806200017257607f821691505b602082108114156200019457634e487b7160e01b600052602260045260246000fd5b50919050565b614bef80620001aa6000396000f3fe608060405234801561001057600080fd5b50600436106101c45760003560e01c806377955245116100f9578063aab8431f11610097578063ba8c156f11610071578063ba8c156f1461043d578063c87b56dd1461045d578063e985e9c514610470578063f9374bca146104ac57600080fd5b8063aab8431f14610404578063b7e4ca1f14610417578063b88d4fde1461042a57600080fd5b80639becbf58116100d35780639becbf58146103a95780639c93a30b146103bc578063a22cb465146103dc578063aaa44e5c146103ef57600080fd5b80637795524514610355578063900e35491461036857806395d89b41146103a157600080fd5b80632f330023116101665780634d813120116101405780634d813120146102e25780636352211e1461030e57806365e488921461032157806370a082311461033457600080fd5b80632f3300231461029a578063377c45d8146102af57806342842e0e146102cf57600080fd5b80630712af96116101a25780630712af9614610226578063081812fc14610247578063095ea7b31461027257806323b872dd1461028757600080fd5b806301ffc9a7146101c95780630417b178146101f157806306fdde0314610211575b600080fd5b6101dc6101d7366004613b56565b6104bf565b60405190151581526020015b60405180910390f35b6102046101ff366004613b8f565b610511565b6040516101e89190613c11565b610219610d65565b6040516101e89190613dd6565b610239610234366004613f06565b610df7565b6040516101e8929190613f54565b61025a610255366004613fb1565b610fbd565b6040516001600160a01b0390911681526020016101e8565b610285610280366004613b8f565b610fe4565b005b610285610295366004613fca565b6110ff565b6102a2611130565b6040516101e89190614006565b6102c26102bd366004614053565b611191565b6040516101e89190614088565b6102856102dd366004613fca565b61139b565b6101dc6102f03660046140e9565b6001600160a01b03166000908152600e602052604090205460ff1690565b61025a61031c366004613fb1565b6113b6565b61028561032f366004614104565b611416565b6103476103423660046140e9565b611859565b6040519081526020016101e8565b60065461025a906001600160a01b031681565b6101dc610376366004613b8f565b6001600160a01b03919091166000908152600b60209081526040808320938352929052205460ff1690565b6102196118df565b6102856103b7366004614358565b6118ee565b6103cf6103ca366004613f06565b6119cc565b6040516101e8919061440d565b6102856103ea36600461453b565b611eda565b6103f7611ee5565b6040516101e89190614577565b610285610412366004613f06565b611f3c565b6102856104253660046145af565b61201f565b61028561043836600461462d565b6125f2565b61045061044b366004613f06565b61262a565b6040516101e8919061469d565b61021961046b366004613fb1565b612a51565b6101dc61047e366004614782565b6001600160a01b03918216600090815260056020908152604080832093909416825291909152205460ff1690565b6102856104ba3660046147b5565b612ac5565b60006001600160e01b031982166380ac58cd60e01b14806104f057506001600160e01b03198216635b5e139f60e01b145b8061050b57506301ffc9a760e01b6001600160e01b03198316145b92915050565b61059a604051806102000160405280606081526020016060815260200160608152602001600081526020016000815260200160608152602001606081526020016060815260200160006001600160a01b03168152602001606081526020016060815260200160608152602001606081526020016060815260200160608152602001606081525090565b6001600160a01b0383166000908152600c6020908152604080832085845290915290819020815161020081019092528054829082906105d890614953565b80601f016020809104026020016040519081016040528092919081815260200182805461060490614953565b80156106515780601f1061062657610100808354040283529160200191610651565b820191906000526020600020905b81548152906001019060200180831161063457829003601f168201915b5050505050815260200160018201805461066a90614953565b80601f016020809104026020016040519081016040528092919081815260200182805461069690614953565b80156106e35780601f106106b8576101008083540402835291602001916106e3565b820191906000526020600020905b8154815290600101906020018083116106c657829003601f168201915b505050505081526020016002820180546106fc90614953565b80601f016020809104026020016040519081016040528092919081815260200182805461072890614953565b80156107755780601f1061074a57610100808354040283529160200191610775565b820191906000526020600020905b81548152906001019060200180831161075857829003601f168201915b5050505050815260200160038201548152602001600482015481526020016005820180546107a290614953565b80601f01602080910402602001604051908101604052809291908181526020018280546107ce90614953565b801561081b5780601f106107f05761010080835404028352916020019161081b565b820191906000526020600020905b8154815290600101906020018083116107fe57829003601f168201915b5050505050815260200160068201805461083490614953565b80601f016020809104026020016040519081016040528092919081815260200182805461086090614953565b80156108ad5780601f10610882576101008083540402835291602001916108ad565b820191906000526020600020905b81548152906001019060200180831161089057829003601f168201915b505050505081526020016007820180546108c690614953565b80601f01602080910402602001604051908101604052809291908181526020018280546108f290614953565b801561093f5780601f106109145761010080835404028352916020019161093f565b820191906000526020600020905b81548152906001019060200180831161092257829003601f168201915b505050918352505060088201546001600160a01b0316602082015260098201805460409092019161096f90614953565b80601f016020809104026020016040519081016040528092919081815260200182805461099b90614953565b80156109e85780601f106109bd576101008083540402835291602001916109e8565b820191906000526020600020905b8154815290600101906020018083116109cb57829003601f168201915b50505050508152602001600a82018054610a0190614953565b80601f0160208091040260200160405190810160405280929190818152602001828054610a2d90614953565b8015610a7a5780601f10610a4f57610100808354040283529160200191610a7a565b820191906000526020600020905b815481529060010190602001808311610a5d57829003601f168201915b50505050508152602001600b82018054610a9390614953565b80601f0160208091040260200160405190810160405280929190818152602001828054610abf90614953565b8015610b0c5780601f10610ae157610100808354040283529160200191610b0c565b820191906000526020600020905b815481529060010190602001808311610aef57829003601f168201915b50505050508152602001600c82018054610b2590614953565b80601f0160208091040260200160405190810160405280929190818152602001828054610b5190614953565b8015610b9e5780601f10610b7357610100808354040283529160200191610b9e565b820191906000526020600020905b815481529060010190602001808311610b8157829003601f168201915b50505050508152602001600d82018054610bb790614953565b80601f0160208091040260200160405190810160405280929190818152602001828054610be390614953565b8015610c305780601f10610c0557610100808354040283529160200191610c30565b820191906000526020600020905b815481529060010190602001808311610c1357829003601f168201915b50505050508152602001600e82018054610c4990614953565b80601f0160208091040260200160405190810160405280929190818152602001828054610c7590614953565b8015610cc25780601f10610c9757610100808354040283529160200191610cc2565b820191906000526020600020905b815481529060010190602001808311610ca557829003601f168201915b50505050508152602001600f82018054610cdb90614953565b80601f0160208091040260200160405190810160405280929190818152602001828054610d0790614953565b8015610d545780601f10610d2957610100808354040283529160200191610d54565b820191906000526020600020905b815481529060010190602001808311610d3757829003601f168201915b505050505081525050905092915050565b606060008054610d7490614953565b80601f0160208091040260200160405190810160405280929190818152602001828054610da090614953565b8015610ded5780601f10610dc257610100808354040283529160200191610ded565b820191906000526020600020905b815481529060010190602001808311610dd057829003601f168201915b5050505050905090565b604080516060808201835280825260208201526000918101919091526000601083604051610e25919061498e565b9081526020016040518091039020601384604051610e43919061498e565b9081526040805191829003602090810183206001600160a01b038916600090815291528190205460608301909152825460ff9091169190839082908290610e8990614953565b80601f0160208091040260200160405190810160405280929190818152602001828054610eb590614953565b8015610f025780601f10610ed757610100808354040283529160200191610f02565b820191906000526020600020905b815481529060010190602001808311610ee557829003601f168201915b50505050508152602001600182018054610f1b90614953565b80601f0160208091040260200160405190810160405280929190818152602001828054610f4790614953565b8015610f945780601f10610f6957610100808354040283529160200191610f94565b820191906000526020600020905b815481529060010190602001808311610f7757829003601f168201915b5050509183525050600291909101546001600160a01b0316602090910152969095509350505050565b6000610fc882613104565b506000908152600460205260409020546001600160a01b031690565b6000610fef826113b6565b9050806001600160a01b0316836001600160a01b031614156110625760405162461bcd60e51b815260206004820152602160248201527f4552433732313a20617070726f76616c20746f2063757272656e74206f776e656044820152603960f91b60648201526084015b60405180910390fd5b336001600160a01b038216148061107e575061107e813361047e565b6110f05760405162461bcd60e51b815260206004820152603d60248201527f4552433732313a20617070726f76652063616c6c6572206973206e6f7420746f60448201527f6b656e206f776e6572206f7220617070726f76656420666f7220616c6c0000006064820152608401611059565b6110fa8383613166565b505050565b61110933826131d4565b6111255760405162461bcd60e51b8152600401611059906149aa565b6110fa838383613253565b60606007805480602002602001604051908101604052809291908181526020018280548015610ded57602002820191906000526020600020905b81546001600160a01b0316815260019091019060200180831161116a575050505050905090565b6111b560405180606001604052806060815260200160608152602001606081525090565b6014826040516111c5919061498e565b90815260200160405180910390206040518060600160405290816000820180546111ee90614953565b80601f016020809104026020016040519081016040528092919081815260200182805461121a90614953565b80156112675780601f1061123c57610100808354040283529160200191611267565b820191906000526020600020905b81548152906001019060200180831161124a57829003601f168201915b5050505050815260200160018201805461128090614953565b80601f01602080910402602001604051908101604052809291908181526020018280546112ac90614953565b80156112f95780601f106112ce576101008083540402835291602001916112f9565b820191906000526020600020905b8154815290600101906020018083116112dc57829003601f168201915b5050505050815260200160028201805461131290614953565b80601f016020809104026020016040519081016040528092919081815260200182805461133e90614953565b801561138b5780601f106113605761010080835404028352916020019161138b565b820191906000526020600020905b81548152906001019060200180831161136e57829003601f168201915b5050505050815250509050919050565b6110fa838383604051806020016040528060008152506125f2565b6000818152600260205260408120546001600160a01b03168061050b5760405162461bcd60e51b8152602060048201526018602482015277115490cdcc8c4e881a5b9d985b1a59081d1bdad95b88125160421b6044820152606401611059565b61010081015181906001600160a01b031633146114465760405163040df71d60e01b815260040160405180910390fd5b600854600190611457908290614a0d565b6008819055600a805460018101825560009182527fc65a7bb8d6351c1cf70c95a316cc6a92839c986682d98bc35f958f4883f9d2a8018290558351338252600c602090815260408084209484529381529290912081516114bc93919290910190613a2c565b50602080830151336000908152600c8352604080822060085483528452902081516114f09360019092019290910190613a2c565b50604080830151336000908152600c6020908152838220600854835281529290208151611527936002909201929190910190613a2c565b506060820151336000908152600c60209081526040808320600880548552908352818420600301949094556080860151845484528184206004015560a0860151935483529091208251611584936005909201929190910190613a2c565b5060c0820151336000908152600c602090815260408083206008548452825290912082516115bb9360069092019290910190613a2c565b5060e0820151336000908152600c602090815260408083206008548452825290912082516115f29360079092019290910190613a2c565b50610100820151336000908152600c60209081526040808320600880548552908352818420810180546001600160a01b0319166001600160a01b039096169590951790945561012086015193548352909120825161165a936009909201929190910190613a2c565b50610140820151336000908152600c6020908152604080832060085484528252909120825161169293600a9092019290910190613a2c565b50610160820151336000908152600c602090815260408083206008548452825290912082516116ca93600b9092019290910190613a2c565b50610180820151336000908152600c602081815260408084206008548552825290922083516116ff9491909201920190613a2c565b506101a0820151336000908152600c6020908152604080832060085484528252909120825161173793600d9092019290910190613a2c565b506101c0820151336000908152600c6020908152604080832060085484528252909120825161176f93600e9092019290910190613a2c565b506101e0820151336000908152600c602090815260408083206008548452825290912082516117a793600f9092019290910190613a2c565b506007805460018181019092557fa66cc928b5edb82af9bd49922954155ab7b0942694bea4ce44661d9a8736c6880180546001600160a01b031916339081179091556000818152600b60209081526040808320600880548552908352818420805460ff199081168817909155858552600e90935281842080549093169095179091559254925160c893917fb58d46e66658e855773af8232237e606476d7f0ad98813c081b540e6f435ea3e91a4505050565b60006001600160a01b0382166118c35760405162461bcd60e51b815260206004820152602960248201527f4552433732313a2061646472657373207a65726f206973206e6f7420612076616044820152683634b21037bbb732b960b91b6064820152608401611059565b506001600160a01b031660009081526003602052604090205490565b606060018054610d7490614953565b6006546001600160a01b031633146119185760405162461bcd60e51b815260040161105990614a25565b805160405160149061192b90839061498e565b9081526020016040518091039020600001908051906020019061194f929190613a2c565b50602081015181516040516014916119669161498e565b9081526020016040518091039020600101908051906020019061198a929190613a2c565b508060400151601482600001516040516119a4919061498e565b908152602001604051809103902060020190805190602001906119c8929190613a2c565b5050565b611a47604051806101c0016040528060006001600160a01b03168152602001600081526020016060815260200160608152602001606081526020016060815260200160008152602001600081526020016000815260200160008152602001606081526020016060815260200160608152602001606081525090565b6001600160a01b0383166000908152600d6020526040908190209051611a6e90849061498e565b9081526040805191829003602090810183206101c08401835280546001600160a01b031684526001810154918401919091526002810180549192840191611ab490614953565b80601f0160208091040260200160405190810160405280929190818152602001828054611ae090614953565b8015611b2d5780601f10611b0257610100808354040283529160200191611b2d565b820191906000526020600020905b815481529060010190602001808311611b1057829003601f168201915b50505050508152602001600382018054611b4690614953565b80601f0160208091040260200160405190810160405280929190818152602001828054611b7290614953565b8015611bbf5780601f10611b9457610100808354040283529160200191611bbf565b820191906000526020600020905b815481529060010190602001808311611ba257829003601f168201915b50505050508152602001600482018054611bd890614953565b80601f0160208091040260200160405190810160405280929190818152602001828054611c0490614953565b8015611c515780601f10611c2657610100808354040283529160200191611c51565b820191906000526020600020905b815481529060010190602001808311611c3457829003601f168201915b50505050508152602001600582018054611c6a90614953565b80601f0160208091040260200160405190810160405280929190818152602001828054611c9690614953565b8015611ce35780601f10611cb857610100808354040283529160200191611ce3565b820191906000526020600020905b815481529060010190602001808311611cc657829003601f168201915b5050505050815260200160068201548152602001600782015481526020016008820154815260200160098201548152602001600a82018054611d2490614953565b80601f0160208091040260200160405190810160405280929190818152602001828054611d5090614953565b8015611d9d5780601f10611d7257610100808354040283529160200191611d9d565b820191906000526020600020905b815481529060010190602001808311611d8057829003601f168201915b50505050508152602001600b82018054611db690614953565b80601f0160208091040260200160405190810160405280929190818152602001828054611de290614953565b8015611e2f5780601f10611e0457610100808354040283529160200191611e2f565b820191906000526020600020905b815481529060010190602001808311611e1257829003601f168201915b50505050508152602001600c82018054611e4890614953565b80601f0160208091040260200160405190810160405280929190818152602001828054611e7490614953565b8015611ec15780601f10611e9657610100808354040283529160200191611ec1565b820191906000526020600020905b815481529060010190602001808311611ea457829003601f168201915b50505050508152602001600d82018054610cdb90614953565b6119c83383836133c4565b6060600a805480602002602001604051908101604052809291908181526020018280548015610ded57602002820191906000526020600020905b815481526020019060010190808311611f1f575050505050905090565b6006546001600160a01b03163314611f665760405162461bcd60e51b815260040161105990614a25565b6001600160a01b0382166000908152600f6020526040908190209051611f8d90839061498e565b9081526040519081900360200190205460ff161561200657600954600190611fb6908290614a0d565b6009819055611fc6908490613493565b600954604051600191906001600160a01b038616907f191778631bc95bff84dc64f678b20828058084bb00fdde5b9a1e13d46458400c90600090a4505050565b604051630d8f814f60e41b815260040160405180910390fd5b600061202a836113b6565b60405160200161203a9190614a6f565b6040516020818303038152906040528051906020012090506000336040516020016120659190614a6f565b6040516020818303038152906040528051906020012090508082141561258c57336000908152600d60205260409081902090516120a390879061498e565b908152604080519182900360209081018320546001600160a01b038a811660009081526011909352929091209116916120dd90889061498e565b908152604080516020928190038301812060020180546001600160a01b0319166001600160a01b03958616179055928916600090815260119092529020849161212790889061498e565b9081526020016040518091039020600001908051906020019061214b929190613a2c565b506001600160a01b03861660009081526011602052604090819020905186919061217690839061498e565b9081526020016040518091039020600101908051906020019061219a929190613a2c565b50336000908152600d60205260409081902090516121b990879061498e565b9081526020016040518091039020600a0160116000886001600160a01b03166001600160a01b03168152602001908152602001600020866040516121fd919061498e565b908152602001604051809103902060030190805461221a90614953565b612225929190613ab0565b50336000908152600d602052604090819020905161224490879061498e565b9081526020016040518091039020600b0160116000886001600160a01b03166001600160a01b0316815260200190815260200160002086604051612288919061498e565b90815260200160405180910390206004019080546122a590614953565b6122b0929190613ab0565b50336000908152600d60205260409081902090516122cf90879061498e565b9081526020016040518091039020600c0160116000886001600160a01b03166001600160a01b0316815260200190815260200160002086604051612313919061498e565b908152602001604051809103902060050190805461233090614953565b61233b929190613ab0565b50336000908152600d602052604090819020905161235a90879061498e565b9081526020016040518091039020600d0160116000886001600160a01b03166001600160a01b031681526020019081526020016000208660405161239e919061498e565b90815260200160405180910390206006019080546123bb90614953565b6123c6929190613ab0565b506001600160a01b0386166000908152601160205260409081902090514291906123f190889061498e565b90815260200160405180910390206007018190555084601086604051612417919061498e565b9081526020016040518091039020600001908051906020019061243b929190613a2c565b508260108660405161244d919061498e565b90815260200160405180910390206001019080519060200190612471929190613a2c565b5085601086604051612483919061498e565b908152602001604051809103902060020160006101000a8154816001600160a01b0302191690836001600160a01b0316021790555060016013866040516124ca919061498e565b90815260408051602092819003830181206001600160a01b038b1660009081529352908220805460ff1916931515939093179092559060139061250e90889061498e565b9081526040805160209281900383018120336000908152908452828120805460ff1916951515959095179094556001600160a01b038a168452600f90925290912060019161255d90889061498e565b908152604051908190036020019020805491151560ff1990921691909117905561258786856134ad565b6125ea565b60405162461bcd60e51b815260206004820152602d60248201527f6f776e6572206164647265737320646f65736e74206d6174636820776974682060448201526c06e6674206f776e65727368697609c1b6064820152608401611059565b505050505050565b6125fc33836131d4565b6126185760405162461bcd60e51b8152600401611059906149aa565b61262484848484613523565b50505050565b61267b604051806101000160405280606081526020016060815260200160006001600160a01b0316815260200160608152602001606081526020016060815260200160608152602001600081525090565b6001600160a01b0383166000908152601160205260409081902090516126a290849061498e565b9081526020016040518091039020604051806101000160405290816000820180546126cc90614953565b80601f01602080910402602001604051908101604052809291908181526020018280546126f890614953565b80156127455780601f1061271a57610100808354040283529160200191612745565b820191906000526020600020905b81548152906001019060200180831161272857829003601f168201915b5050505050815260200160018201805461275e90614953565b80601f016020809104026020016040519081016040528092919081815260200182805461278a90614953565b80156127d75780601f106127ac576101008083540402835291602001916127d7565b820191906000526020600020905b8154815290600101906020018083116127ba57829003601f168201915b505050918352505060028201546001600160a01b0316602082015260038201805460409092019161280790614953565b80601f016020809104026020016040519081016040528092919081815260200182805461283390614953565b80156128805780601f1061285557610100808354040283529160200191612880565b820191906000526020600020905b81548152906001019060200180831161286357829003601f168201915b5050505050815260200160048201805461289990614953565b80601f01602080910402602001604051908101604052809291908181526020018280546128c590614953565b80156129125780601f106128e757610100808354040283529160200191612912565b820191906000526020600020905b8154815290600101906020018083116128f557829003601f168201915b5050505050815260200160058201805461292b90614953565b80601f016020809104026020016040519081016040528092919081815260200182805461295790614953565b80156129a45780601f10612979576101008083540402835291602001916129a4565b820191906000526020600020905b81548152906001019060200180831161298757829003601f168201915b505050505081526020016006820180546129bd90614953565b80601f01602080910402602001604051908101604052809291908181526020018280546129e990614953565b8015612a365780601f10612a0b57610100808354040283529160200191612a36565b820191906000526020600020905b815481529060010190602001808311612a1957829003601f168201915b50505050508152602001600782015481525050905092915050565b6060612a5c82613104565b6000612a7360408051602081019091526000815290565b90506000815111612a935760405180602001604052806000815250612abe565b80612a9d84613556565b604051602001612aae929190614a8c565b6040516020818303038152906040525b9392505050565b336000908152600e6020526040902054819060ff168015612b045750602080820151336000908152600b835260408082209282529190925290205460ff165b156130eb578051336000908152600d602052604090819020606084015191519091612b2e9161498e565b908152604080516020928190038301812080546001600160a01b0319166001600160a01b03959095169490941790935583820151336000908152600d9093529120606084015191929091612b819161498e565b9081526040805191829003602090810183206001019390935583810151336000908152600d909452922060608401519091612bbc919061498e565b90815260200160405180910390206002019080519060200190612be0929190613a2c565b50606081018051336000908152600d60205260409081902092519051919291612c09919061498e565b90815260200160405180910390206003019080519060200190612c2d929190613a2c565b506080810151336000908152600d602052604090819020606084015191519091612c569161498e565b90815260200160405180910390206004019080519060200190612c7a929190613a2c565b5060a0810151336000908152600d602052604090819020606084015191519091612ca39161498e565b90815260200160405180910390206005019080519060200190612cc7929190613a2c565b5060c0810151336000908152600d602052604090819020606084015191519091612cf09161498e565b9081526040805191829003602090810183206006019390935560e0840151336000908152600d909452922060608401519091612d2c919061498e565b90815260408051918290036020908101832060070193909355610100840151336000908152600d909452922060608401519091612d69919061498e565b90815260408051918290036020908101832060080193909355610120840151336000908152600d909452922060608401519091612da6919061498e565b90815260408051918290036020908101832060090193909355610140840151336000908152600d909452922060608401519091612de3919061498e565b9081526020016040518091039020600a019080519060200190612e07929190613a2c565b50610160810151336000908152600d602052604090819020606084015191519091612e319161498e565b9081526020016040518091039020600b019080519060200190612e55929190613a2c565b50610180810151336000908152600d602052604090819020606084015191519091612e7f9161498e565b9081526020016040518091039020600c019080519060200190612ea3929190613a2c565b506101a0810151336000908152600d602052604090819020606084015191519091612ecd9161498e565b9081526020016040518091039020600d019080519060200190612ef1929190613a2c565b50336000908152600f60205260409081902060608301519151600192612f169161498e565b908152604051908190036020018120805492151560ff1990931692909217909155606082015190601090612f4b90839061498e565b90815260200160405180910390206000019080519060200190612f6f929190613a2c565b50336000908152600c6020908152604080832084830151845290915290819020606083015191519091601091612fa5919061498e565b9081526020016040518091039020600101908054612fc290614953565b612fcd929190613ab0565b5080516060820151604051601091612fe49161498e565b90815260405190819003602001812060020180546001600160a01b03939093166001600160a01b031990931692909217909155606082015160019160139161302b9161498e565b908152604080516020928190038301812033600090815293529120805460ff1916921515929092179091556060820151601091613068919061498e565b90815260200160405180910390206001016012826060015160405161308d919061498e565b90815260200160405180910390209080546130a790614953565b6130b2929190613ab0565b5060208101516040516001919033907f3fcd54a1190af2ae8c26e700a8d2c814803d4a643df12547c98ae7484384f98e90600090a45050565b60405163a8d2aad960e01b815260040160405180910390fd5b6000818152600260205260409020546001600160a01b03166131635760405162461bcd60e51b8152602060048201526018602482015277115490cdcc8c4e881a5b9d985b1a59081d1bdad95b88125160421b6044820152606401611059565b50565b600081815260046020526040902080546001600160a01b0319166001600160a01b038416908117909155819061319b826113b6565b6001600160a01b03167f8c5be1e5ebec7d5bd14f71427d1e84f3dd0314c0f7b2291e5b200ac8c7c3b92560405160405180910390a45050565b6000806131e0836113b6565b9050806001600160a01b0316846001600160a01b0316148061322757506001600160a01b0380821660009081526005602090815260408083209388168352929052205460ff165b8061324b5750836001600160a01b031661324084610fbd565b6001600160a01b0316145b949350505050565b826001600160a01b0316613266826113b6565b6001600160a01b03161461328c5760405162461bcd60e51b815260040161105990614abb565b6001600160a01b0382166132ee5760405162461bcd60e51b8152602060048201526024808201527f4552433732313a207472616e7366657220746f20746865207a65726f206164646044820152637265737360e01b6064820152608401611059565b6132fb83838360016135f3565b826001600160a01b031661330e826113b6565b6001600160a01b0316146133345760405162461bcd60e51b815260040161105990614abb565b600081815260046020908152604080832080546001600160a01b03199081169091556001600160a01b0387811680865260038552838620805460001901905590871680865283862080546001019055868652600290945282852080549092168417909155905184937fddf252ad1be2c89b69c2b068fc378daa952ba7f163c4a11628f55a4df523b3ef91a4505050565b816001600160a01b0316836001600160a01b031614156134265760405162461bcd60e51b815260206004820152601960248201527f4552433732313a20617070726f766520746f2063616c6c6572000000000000006044820152606401611059565b6001600160a01b03838116600081815260056020908152604080832094871680845294825291829020805460ff191686151590811790915591519182527f17307eab39ab6107e8899845ad3d59bd9653f200f220920489ca2b5937696c31910160405180910390a3505050565b6119c882826040518060200160405280600081525061367b565b60006134b8826113b6565b6040516020016134c89190614a6f565b6040516020818303038152906040528051906020012090506000336040516020016134f39190614a6f565b6040516020818303038152906040528051906020012090508082141561258c5761351e33858561139b565b612624565b61352e848484613253565b61353a848484846136ae565b6126245760405162461bcd60e51b815260040161105990614b00565b60606000613563836137bb565b600101905060008167ffffffffffffffff81111561358357613583613de9565b6040519080825280601f01601f1916602001820160405280156135ad576020820181803683370190505b5090508181016020015b600019016f181899199a1a9b1b9c1cb0b131b232b360811b600a86061a8153600a85049450846135e6576135eb565b6135b7565b509392505050565b6001811115612624576001600160a01b03841615613639576001600160a01b03841660009081526003602052604081208054839290613633908490614b52565b90915550505b6001600160a01b03831615612624576001600160a01b03831660009081526003602052604081208054839290613670908490614a0d565b909155505050505050565b6136858383613893565b61369260008484846136ae565b6110fa5760405162461bcd60e51b815260040161105990614b00565b60006001600160a01b0384163b156137b057604051630a85bd0160e11b81526001600160a01b0385169063150b7a02906136f2903390899088908890600401614b69565b602060405180830381600087803b15801561370c57600080fd5b505af192505050801561373c575060408051601f3d908101601f1916820190925261373991810190614b9c565b60015b613796573d80801561376a576040519150601f19603f3d011682016040523d82523d6000602084013e61376f565b606091505b50805161378e5760405162461bcd60e51b815260040161105990614b00565b805181602001fd5b6001600160e01b031916630a85bd0160e11b14905061324b565b506001949350505050565b60008072184f03e93ff9f4daa797ed6e38ed64bf6a1f0160401b83106137fa5772184f03e93ff9f4daa797ed6e38ed64bf6a1f0160401b830492506040015b6d04ee2d6d415b85acef81000000008310613826576d04ee2d6d415b85acef8100000000830492506020015b662386f26fc10000831061384457662386f26fc10000830492506010015b6305f5e100831061385c576305f5e100830492506008015b612710831061387057612710830492506004015b60648310613882576064830492506002015b600a831061050b5760010192915050565b6001600160a01b0382166138e95760405162461bcd60e51b815260206004820181905260248201527f4552433732313a206d696e7420746f20746865207a65726f20616464726573736044820152606401611059565b6000818152600260205260409020546001600160a01b03161561394e5760405162461bcd60e51b815260206004820152601c60248201527f4552433732313a20746f6b656e20616c7265616479206d696e746564000000006044820152606401611059565b61395c6000838360016135f3565b6000818152600260205260409020546001600160a01b0316156139c15760405162461bcd60e51b815260206004820152601c60248201527f4552433732313a20746f6b656e20616c7265616479206d696e746564000000006044820152606401611059565b6001600160a01b038216600081815260036020908152604080832080546001019055848352600290915280822080546001600160a01b0319168417905551839291907fddf252ad1be2c89b69c2b068fc378daa952ba7f163c4a11628f55a4df523b3ef908290a45050565b828054613a3890614953565b90600052602060002090601f016020900481019282613a5a5760008555613aa0565b82601f10613a7357805160ff1916838001178555613aa0565b82800160010185558215613aa0579182015b82811115613aa0578251825591602001919060010190613a85565b50613aac929150613b2b565b5090565b828054613abc90614953565b90600052602060002090601f016020900481019282613ade5760008555613aa0565b82601f10613aef5780548555613aa0565b82800160010185558215613aa057600052602060002091601f016020900482015b82811115613aa0578254825591600101919060010190613b10565b5b80821115613aac5760008155600101613b2c565b6001600160e01b03198116811461316357600080fd5b600060208284031215613b6857600080fd5b8135612abe81613b40565b80356001600160a01b0381168114613b8a57600080fd5b919050565b60008060408385031215613ba257600080fd5b613bab83613b73565b946020939093013593505050565b60005b83811015613bd4578181015183820152602001613bbc565b838111156126245750506000910152565b60008151808452613bfd816020860160208601613bb9565b601f01601f19169290920160200192915050565b6020815260008251610200806020850152613c30610220850183613be5565b91506020850151601f1980868503016040870152613c4e8483613be5565b93506040870151915080868503016060870152613c6b8483613be5565b935060608701516080870152608087015160a087015260a08701519150808685030160c0870152613c9c8483613be5565b935060c08701519150808685030160e0870152613cb98483613be5565b935060e08701519150610100818786030181880152613cd88584613be5565b945080880151925050610120613cf8818801846001600160a01b03169052565b80880151925050610140818786030181880152613d158584613be5565b945080880151925050610160818786030181880152613d348584613be5565b945080880151925050610180818786030181880152613d538584613be5565b9450808801519250506101a0818786030181880152613d728584613be5565b9450808801519250506101c0818786030181880152613d918584613be5565b9450808801519250506101e0818786030181880152613db08584613be5565b908801518782039092018488015293509050613dcc8382613be5565b9695505050505050565b602081526000612abe6020830184613be5565b634e487b7160e01b600052604160045260246000fd5b604051610200810167ffffffffffffffff81118282101715613e2357613e23613de9565b60405290565b6040516060810167ffffffffffffffff81118282101715613e2357613e23613de9565b6040516101c0810167ffffffffffffffff81118282101715613e2357613e23613de9565b600067ffffffffffffffff80841115613e8b57613e8b613de9565b604051601f8501601f19908116603f01168101908282118183101715613eb357613eb3613de9565b81604052809350858152868686011115613ecc57600080fd5b858560208301376000602087830101525050509392505050565b600082601f830112613ef757600080fd5b612abe83833560208501613e70565b60008060408385031215613f1957600080fd5b613f2283613b73565b9150602083013567ffffffffffffffff811115613f3e57600080fd5b613f4a85828601613ee6565b9150509250929050565b604081526000835160606040840152613f7060a0840182613be5565b90506020850151603f19848303016060850152613f8d8282613be5565b604096909601516001600160a01b0316608085015250505090151560209091015290565b600060208284031215613fc357600080fd5b5035919050565b600080600060608486031215613fdf57600080fd5b613fe884613b73565b9250613ff660208501613b73565b9150604084013590509250925092565b6020808252825182820181905260009190848201906040850190845b818110156140475783516001600160a01b031683529284019291840191600101614022565b50909695505050505050565b60006020828403121561406557600080fd5b813567ffffffffffffffff81111561407c57600080fd5b61324b84828501613ee6565b6020815260008251606060208401526140a46080840182613be5565b90506020840151601f19808584030160408601526140c28383613be5565b92506040860151915080858403016060860152506140e08282613be5565b95945050505050565b6000602082840312156140fb57600080fd5b612abe82613b73565b60006020828403121561411657600080fd5b813567ffffffffffffffff8082111561412e57600080fd5b90830190610200828603121561414357600080fd5b61414b613dff565b82358281111561415a57600080fd5b61416687828601613ee6565b82525060208301358281111561417b57600080fd5b61418787828601613ee6565b60208301525060408301358281111561419f57600080fd5b6141ab87828601613ee6565b604083015250606083013560608201526080830135608082015260a0830135828111156141d757600080fd5b6141e387828601613ee6565b60a08301525060c0830135828111156141fb57600080fd5b61420787828601613ee6565b60c08301525060e08301358281111561421f57600080fd5b61422b87828601613ee6565b60e08301525061010061423f818501613b73565b90820152610120838101358381111561425757600080fd5b61426388828701613ee6565b828401525050610140808401358381111561427d57600080fd5b61428988828701613ee6565b82840152505061016080840135838111156142a357600080fd5b6142af88828701613ee6565b82840152505061018080840135838111156142c957600080fd5b6142d588828701613ee6565b8284015250506101a080840135838111156142ef57600080fd5b6142fb88828701613ee6565b8284015250506101c0808401358381111561431557600080fd5b61432188828701613ee6565b8284015250506101e0808401358381111561433b57600080fd5b61434788828701613ee6565b918301919091525095945050505050565b60006020828403121561436a57600080fd5b813567ffffffffffffffff8082111561438257600080fd5b908301906060828603121561439657600080fd5b61439e613e29565b8235828111156143ad57600080fd5b6143b987828601613ee6565b8252506020830135828111156143ce57600080fd5b6143da87828601613ee6565b6020830152506040830135828111156143f257600080fd5b6143fe87828601613ee6565b60408301525095945050505050565b602081526144276020820183516001600160a01b03169052565b60208201516040820152600060408301516101c080606085015261444f6101e0850183613be5565b91506060850151601f198086850301608087015261446d8483613be5565b935060808701519150808685030160a087015261448a8483613be5565b935060a08701519150808685030160c08701526144a78483613be5565b935060c087015160e087015260e087015191506101008281880152808801519250506101208281880152808801519250506101408281880152808801519250506101608187860301818801526144fd8584613be5565b94508088015192505061018081878603018188015261451c8584613be5565b9450808801519250506101a0818786030181880152613db08584613be5565b6000806040838503121561454e57600080fd5b61455783613b73565b91506020830135801515811461456c57600080fd5b809150509250929050565b6020808252825182820181905260009190848201906040850190845b8181101561404757835183529284019291840191600101614593565b600080600080608085870312156145c557600080fd5b6145ce85613b73565b9350602085013567ffffffffffffffff808211156145eb57600080fd5b6145f788838901613ee6565b945060408701359350606087013591508082111561461457600080fd5b5061462187828801613ee6565b91505092959194509250565b6000806000806080858703121561464357600080fd5b61464c85613b73565b935061465a60208601613b73565b925060408501359150606085013567ffffffffffffffff81111561467d57600080fd5b8501601f8101871361468e57600080fd5b61462187823560208401613e70565b60208152600082516101008060208501526146bc610120850183613be5565b91506020850151601f19808685030160408701526146da8483613be5565b9350604087015191506146f860608701836001600160a01b03169052565b60608701519150808685030160808701526147138483613be5565b935060808701519150808685030160a08701526147308483613be5565b935060a08701519150808685030160c087015261474d8483613be5565b935060c08701519150808685030160e08701525061476b8382613be5565b92505060e085015181850152508091505092915050565b6000806040838503121561479557600080fd5b61479e83613b73565b91506147ac60208401613b73565b90509250929050565b6000602082840312156147c757600080fd5b813567ffffffffffffffff808211156147df57600080fd5b908301906101c082860312156147f457600080fd5b6147fc613e4c565b61480583613b73565b81526020830135602082015260408301358281111561482357600080fd5b61482f87828601613ee6565b60408301525060608301358281111561484757600080fd5b61485387828601613ee6565b60608301525060808301358281111561486b57600080fd5b61487787828601613ee6565b60808301525060a08301358281111561488f57600080fd5b61489b87828601613ee6565b60a08301525060c083013560c082015260e083013560e082015261010080840135818301525061012080840135818301525061014080840135838111156148e157600080fd5b6148ed88828701613ee6565b828401525050610160808401358381111561490757600080fd5b61491388828701613ee6565b828401525050610180808401358381111561492d57600080fd5b61493988828701613ee6565b8284015250506101a0808401358381111561433b57600080fd5b600181811c9082168061496757607f821691505b6020821081141561498857634e487b7160e01b600052602260045260246000fd5b50919050565b600082516149a0818460208701613bb9565b9190910192915050565b6020808252602d908201527f4552433732313a2063616c6c6572206973206e6f7420746f6b656e206f776e6560408201526c1c881bdc88185c1c1c9bdd9959609a1b606082015260800190565b634e487b7160e01b600052601160045260246000fd5b60008219821115614a2057614a206149f7565b500190565b6020808252602a908201527f6f6e6c7920636f6e747261637441646d696e672063616e2063616c6c207468696040820152693990333ab731ba34b7b760b11b606082015260800190565b60609190911b6bffffffffffffffffffffffff1916815260140190565b60008351614a9e818460208801613bb9565b835190830190614ab2818360208801613bb9565b01949350505050565b60208082526025908201527f4552433732313a207472616e736665722066726f6d20696e636f72726563742060408201526437bbb732b960d91b606082015260800190565b60208082526032908201527f4552433732313a207472616e7366657220746f206e6f6e20455243373231526560408201527131b2b4bb32b91034b6b83632b6b2b73a32b960711b606082015260800190565b600082821015614b6457614b646149f7565b500390565b6001600160a01b0385811682528416602082015260408101839052608060608201819052600090613dcc90830184613be5565b600060208284031215614bae57600080fd5b8151612abe81613b4056fea26469706673582212201f0d654550d4fd7cdf9bae3f8bc7dc2e4ada022d4659df0446e59fe11e09b6b364736f6c63430008090033","opcodes":"PUSH1 0x80 PUSH1 0x40 MSTORE CALLVALUE DUP1 ISZERO PUSH3 0x11 JUMPI PUSH1 0x0 DUP1 REVERT JUMPDEST POP PUSH1 0x40 DUP1 MLOAD DUP1 DUP3 ADD DUP3 MSTORE PUSH1 0x14 DUP2 MSTORE PUSH32 0x477579616E61204C616E64205265676973747279000000000000000000000000 PUSH1 0x20 DUP1 DUP4 ADD SWAP2 DUP3 MSTORE DUP4 MLOAD DUP1 DUP6 ADD SWAP1 SWAP5 MSTORE PUSH1 0x3 DUP5 MSTORE PUSH3 0x11D311 PUSH1 0xEA SHL SWAP1 DUP5 ADD MSTORE DUP2 MLOAD SWAP2 SWAP3 SWAP2 PUSH3 0x72 SWAP2 PUSH1 0x0 SWAP2 PUSH3 0xB7 JUMP JUMPDEST POP DUP1 MLOAD PUSH3 0x88 SWAP1 PUSH1 0x1 SWAP1 PUSH1 0x20 DUP5 ADD SWAP1 PUSH3 0xB7 JUMP JUMPDEST POP POP PUSH1 0x6 DUP1 SLOAD PUSH1 0x1 PUSH1 0x1 PUSH1 0xA0 SHL SUB NOT AND PUSH20 0x85BA2D48FB1FB0CA47D48DC68FD16CFB7D4ACF96 OR SWAP1 SSTORE POP PUSH3 0x19A JUMP JUMPDEST DUP3 DUP1 SLOAD PUSH3 0xC5 SWAP1 PUSH3 0x15D JUMP JUMPDEST SWAP1 PUSH1 0x0 MSTORE PUSH1 0x20 PUSH1 0x0 KECCAK256 SWAP1 PUSH1 0x1F ADD PUSH1 0x20 SWAP1 DIV DUP2 ADD SWAP3 DUP3 PUSH3 0xE9 JUMPI PUSH1 0x0 DUP6 SSTORE PUSH3 0x134 JUMP JUMPDEST DUP3 PUSH1 0x1F LT PUSH3 0x104 JUMPI DUP1 MLOAD PUSH1 0xFF NOT AND DUP4 DUP1 ADD OR DUP6 SSTORE PUSH3 0x134 JUMP JUMPDEST DUP3 DUP1 ADD PUSH1 0x1 ADD DUP6 SSTORE DUP3 ISZERO PUSH3 0x134 JUMPI SWAP2 DUP3 ADD JUMPDEST DUP3 DUP2 GT ISZERO PUSH3 0x134 JUMPI DUP3 MLOAD DUP3 SSTORE SWAP2 PUSH1 0x20 ADD SWAP2 SWAP1 PUSH1 0x1 ADD SWAP1 PUSH3 0x117 JUMP JUMPDEST POP PUSH3 0x142 SWAP3 SWAP2 POP PUSH3 0x146 JUMP JUMPDEST POP SWAP1 JUMP JUMPDEST JUMPDEST DUP1 DUP3 GT ISZERO PUSH3 0x142 JUMPI PUSH1 0x0 DUP2 SSTORE PUSH1 0x1 ADD PUSH3 0x147 JUMP JUMPDEST PUSH1 0x1 DUP2 DUP2 SHR SWAP1 DUP3 AND DUP1 PUSH3 0x172 JUMPI PUSH1 0x7F DUP3 AND SWAP2 POP JUMPDEST PUSH1 0x20 DUP3 LT DUP2 EQ ISZERO PUSH3 0x194 JUMPI PUSH4 0x4E487B71 PUSH1 0xE0 SHL PUSH1 0x0 MSTORE PUSH1 0x22 PUSH1 0x4 MSTORE PUSH1 0x24 PUSH1 0x0 REVERT JUMPDEST POP SWAP2 SWAP1 POP JUMP JUMPDEST PUSH2 0x4BEF DUP1 PUSH3 0x1AA PUSH1 0x0 CODECOPY PUSH1 0x0 RETURN INVALID PUSH1 0x80 PUSH1 0x40 MSTORE CALLVALUE DUP1 ISZERO PUSH2 0x10 JUMPI PUSH1 0x0 DUP1 REVERT JUMPDEST POP PUSH1 0x4 CALLDATASIZE LT PUSH2 0x1C4 JUMPI PUSH1 0x0 CALLDATALOAD PUSH1 0xE0 SHR DUP1 PUSH4 0x77955245 GT PUSH2 0xF9 JUMPI DUP1 PUSH4 0xAAB8431F GT PUSH2 0x97 JUMPI DUP1 PUSH4 0xBA8C156F GT PUSH2 0x71 JUMPI DUP1 PUSH4 0xBA8C156F EQ PUSH2 0x43D JUMPI DUP1 PUSH4 0xC87B56DD EQ PUSH2 0x45D JUMPI DUP1 PUSH4 0xE985E9C5 EQ PUSH2 0x470 JUMPI DUP1 PUSH4 0xF9374BCA EQ PUSH2 0x4AC JUMPI PUSH1 0x0 DUP1 REVERT JUMPDEST DUP1 PUSH4 0xAAB8431F EQ PUSH2 0x404 JUMPI DUP1 PUSH4 0xB7E4CA1F EQ PUSH2 0x417 JUMPI DUP1 PUSH4 0xB88D4FDE EQ PUSH2 0x42A JUMPI PUSH1 0x0 DUP1 REVERT JUMPDEST DUP1 PUSH4 0x9BECBF58 GT PUSH2 0xD3 JUMPI DUP1 PUSH4 0x9BECBF58 EQ PUSH2 0x3A9 JUMPI DUP1 PUSH4 0x9C93A30B EQ PUSH2 0x3BC JUMPI DUP1 PUSH4 0xA22CB465 EQ PUSH2 0x3DC JUMPI DUP1 PUSH4 0xAAA44E5C EQ PUSH2 0x3EF JUMPI PUSH1 0x0 DUP1 REVERT JUMPDEST DUP1 PUSH4 0x77955245 EQ PUSH2 0x355 JUMPI DUP1 PUSH4 0x900E3549 EQ PUSH2 0x368 JUMPI DUP1 PUSH4 0x95D89B41 EQ PUSH2 0x3A1 JUMPI PUSH1 0x0 DUP1 REVERT JUMPDEST DUP1 PUSH4 0x2F330023 GT PUSH2 0x166 JUMPI DUP1 PUSH4 0x4D813120 GT PUSH2 0x140 JUMPI DUP1 PUSH4 0x4D813120 EQ PUSH2 0x2E2 JUMPI DUP1 PUSH4 0x6352211E EQ PUSH2 0x30E JUMPI DUP1 PUSH4 0x65E48892 EQ PUSH2 0x321 JUMPI DUP1 PUSH4 0x70A08231 EQ PUSH2 0x334 JUMPI PUSH1 0x0 DUP1 REVERT JUMPDEST DUP1 PUSH4 0x2F330023 EQ PUSH2 0x29A JUMPI DUP1 PUSH4 0x377C45D8 EQ PUSH2 0x2AF JUMPI DUP1 PUSH4 0x42842E0E EQ PUSH2 0x2CF JUMPI PUSH1 0x0 DUP1 REVERT JUMPDEST DUP1 PUSH4 0x712AF96 GT PUSH2 0x1A2 JUMPI DUP1 PUSH4 0x712AF96 EQ PUSH2 0x226 JUMPI DUP1 PUSH4 0x81812FC EQ PUSH2 0x247 JUMPI DUP1 PUSH4 0x95EA7B3 EQ PUSH2 0x272 JUMPI DUP1 PUSH4 0x23B872DD EQ PUSH2 0x287 JUMPI PUSH1 0x0 DUP1 REVERT JUMPDEST DUP1 PUSH4 0x1FFC9A7 EQ PUSH2 0x1C9 JUMPI DUP1 PUSH4 0x417B178 EQ PUSH2 0x1F1 JUMPI DUP1 PUSH4 0x6FDDE03 EQ PUSH2 0x211 JUMPI JUMPDEST PUSH1 0x0 DUP1 REVERT JUMPDEST PUSH2 0x1DC PUSH2 0x1D7 CALLDATASIZE PUSH1 0x4 PUSH2 0x3B56 JUMP JUMPDEST PUSH2 0x4BF JUMP JUMPDEST PUSH1 0x40 MLOAD SWAP1 ISZERO ISZERO DUP2 MSTORE PUSH1 0x20 ADD JUMPDEST PUSH1 0x40 MLOAD DUP1 SWAP2 SUB SWAP1 RETURN JUMPDEST PUSH2 0x204 PUSH2 0x1FF CALLDATASIZE PUSH1 0x4 PUSH2 0x3B8F JUMP JUMPDEST PUSH2 0x511 JUMP JUMPDEST PUSH1 0x40 MLOAD PUSH2 0x1E8 SWAP2 SWAP1 PUSH2 0x3C11 JUMP JUMPDEST PUSH2 0x219 PUSH2 0xD65 JUMP JUMPDEST PUSH1 0x40 MLOAD PUSH2 0x1E8 SWAP2 SWAP1 PUSH2 0x3DD6 JUMP JUMPDEST PUSH2 0x239 PUSH2 0x234 CALLDATASIZE PUSH1 0x4 PUSH2 0x3F06 JUMP JUMPDEST PUSH2 0xDF7 JUMP JUMPDEST PUSH1 0x40 MLOAD PUSH2 0x1E8 SWAP3 SWAP2 SWAP1 PUSH2 0x3F54 JUMP JUMPDEST PUSH2 0x25A PUSH2 0x255 CALLDATASIZE PUSH1 0x4 PUSH2 0x3FB1 JUMP JUMPDEST PUSH2 0xFBD JUMP JUMPDEST PUSH1 0x40 MLOAD PUSH1 0x1 PUSH1 0x1 PUSH1 0xA0 SHL SUB SWAP1 SWAP2 AND DUP2 MSTORE PUSH1 0x20 ADD PUSH2 0x1E8 JUMP JUMPDEST PUSH2 0x285 PUSH2 0x280 CALLDATASIZE PUSH1 0x4 PUSH2 0x3B8F JUMP JUMPDEST PUSH2 0xFE4 JUMP JUMPDEST STOP JUMPDEST PUSH2 0x285 PUSH2 0x295 CALLDATASIZE PUSH1 0x4 PUSH2 0x3FCA JUMP JUMPDEST PUSH2 0x10FF JUMP JUMPDEST PUSH2 0x2A2 PUSH2 0x1130 JUMP JUMPDEST PUSH1 0x40 MLOAD PUSH2 0x1E8 SWAP2 SWAP1 PUSH2 0x4006 JUMP JUMPDEST PUSH2 0x2C2 PUSH2 0x2BD CALLDATASIZE PUSH1 0x4 PUSH2 0x4053 JUMP JUMPDEST PUSH2 0x1191 JUMP JUMPDEST PUSH1 0x40 MLOAD PUSH2 0x1E8 SWAP2 SWAP1 PUSH2 0x4088 JUMP JUMPDEST PUSH2 0x285 PUSH2 0x2DD CALLDATASIZE PUSH1 0x4 PUSH2 0x3FCA JUMP JUMPDEST PUSH2 0x139B JUMP JUMPDEST PUSH2 0x1DC PUSH2 0x2F0 CALLDATASIZE PUSH1 0x4 PUSH2 0x40E9 JUMP JUMPDEST PUSH1 0x1 PUSH1 0x1 PUSH1 0xA0 SHL SUB AND PUSH1 0x0 SWAP1 DUP2 MSTORE PUSH1 0xE PUSH1 0x20 MSTORE PUSH1 0x40 SWAP1 KECCAK256 SLOAD PUSH1 0xFF AND SWAP1 JUMP JUMPDEST PUSH2 0x25A PUSH2 0x31C CALLDATASIZE PUSH1 0x4 PUSH2 0x3FB1 JUMP JUMPDEST PUSH2 0x13B6 JUMP JUMPDEST PUSH2 0x285 PUSH2 0x32F CALLDATASIZE PUSH1 0x4 PUSH2 0x4104 JUMP JUMPDEST PUSH2 0x1416 JUMP JUMPDEST PUSH2 0x347 PUSH2 0x342 CALLDATASIZE PUSH1 0x4 PUSH2 0x40E9 JUMP JUMPDEST PUSH2 0x1859 JUMP JUMPDEST PUSH1 0x40 MLOAD SWAP1 DUP2 MSTORE PUSH1 0x20 ADD PUSH2 0x1E8 JUMP JUMPDEST PUSH1 0x6 SLOAD PUSH2 0x25A SWAP1 PUSH1 0x1 PUSH1 0x1 PUSH1 0xA0 SHL SUB AND DUP2 JUMP JUMPDEST PUSH2 0x1DC PUSH2 0x376 CALLDATASIZE PUSH1 0x4 PUSH2 0x3B8F JUMP JUMPDEST PUSH1 0x1 PUSH1 0x1 PUSH1 0xA0 SHL SUB SWAP2 SWAP1 SWAP2 AND PUSH1 0x0 SWAP1 DUP2 MSTORE PUSH1 0xB PUSH1 0x20 SWAP1 DUP2 MSTORE PUSH1 0x40 DUP1 DUP4 KECCAK256 SWAP4 DUP4 MSTORE SWAP3 SWAP1 MSTORE KECCAK256 SLOAD PUSH1 0xFF AND SWAP1 JUMP JUMPDEST PUSH2 0x219 PUSH2 0x18DF JUMP JUMPDEST PUSH2 0x285 PUSH2 0x3B7 CALLDATASIZE PUSH1 0x4 PUSH2 0x4358 JUMP JUMPDEST PUSH2 0x18EE JUMP JUMPDEST PUSH2 0x3CF PUSH2 0x3CA CALLDATASIZE PUSH1 0x4 PUSH2 0x3F06 JUMP JUMPDEST PUSH2 0x19CC JUMP JUMPDEST PUSH1 0x40 MLOAD PUSH2 0x1E8 SWAP2 SWAP1 PUSH2 0x440D JUMP JUMPDEST PUSH2 0x285 PUSH2 0x3EA CALLDATASIZE PUSH1 0x4 PUSH2 0x453B JUMP JUMPDEST PUSH2 0x1EDA JUMP JUMPDEST PUSH2 0x3F7 PUSH2 0x1EE5 JUMP JUMPDEST PUSH1 0x40 MLOAD PUSH2 0x1E8 SWAP2 SWAP1 PUSH2 0x4577 JUMP JUMPDEST PUSH2 0x285 PUSH2 0x412 CALLDATASIZE PUSH1 0x4 PUSH2 0x3F06 JUMP JUMPDEST PUSH2 0x1F3C JUMP JUMPDEST PUSH2 0x285 PUSH2 0x425 CALLDATASIZE PUSH1 0x4 PUSH2 0x45AF JUMP JUMPDEST PUSH2 0x201F JUMP JUMPDEST PUSH2 0x285 PUSH2 0x438 CALLDATASIZE PUSH1 0x4 PUSH2 0x462D JUMP JUMPDEST PUSH2 0x25F2 JUMP JUMPDEST PUSH2 0x450 PUSH2 0x44B CALLDATASIZE PUSH1 0x4 PUSH2 0x3F06 JUMP JUMPDEST PUSH2 0x262A JUMP JUMPDEST PUSH1 0x40 MLOAD PUSH2 0x1E8 SWAP2 SWAP1 PUSH2 0x469D JUMP JUMPDEST PUSH2 0x219 PUSH2 0x46B CALLDATASIZE PUSH1 0x4 PUSH2 0x3FB1 JUMP JUMPDEST PUSH2 0x2A51 JUMP JUMPDEST PUSH2 0x1DC PUSH2 0x47E CALLDATASIZE PUSH1 0x4 PUSH2 0x4782 JUMP JUMPDEST PUSH1 0x1 PUSH1 0x1 PUSH1 0xA0 SHL SUB SWAP2 DUP3 AND PUSH1 0x0 SWAP1 DUP2 MSTORE PUSH1 0x5 PUSH1 0x20 SWAP1 DUP2 MSTORE PUSH1 0x40 DUP1 DUP4 KECCAK256 SWAP4 SWAP1 SWAP5 AND DUP3 MSTORE SWAP2 SWAP1 SWAP2 MSTORE KECCAK256 SLOAD PUSH1 0xFF AND SWAP1 JUMP JUMPDEST PUSH2 0x285 PUSH2 0x4BA CALLDATASIZE PUSH1 0x4 PUSH2 0x47B5 JUMP JUMPDEST PUSH2 0x2AC5 JUMP JUMPDEST PUSH1 0x0 PUSH1 0x1 PUSH1 0x1 PUSH1 0xE0 SHL SUB NOT DUP3 AND PUSH4 0x80AC58CD PUSH1 0xE0 SHL EQ DUP1 PUSH2 0x4F0 JUMPI POP PUSH1 0x1 PUSH1 0x1 PUSH1 0xE0 SHL SUB NOT DUP3 AND PUSH4 0x5B5E139F PUSH1 0xE0 SHL EQ JUMPDEST DUP1 PUSH2 0x50B JUMPI POP PUSH4 0x1FFC9A7 PUSH1 0xE0 SHL PUSH1 0x1 PUSH1 0x1 PUSH1 0xE0 SHL SUB NOT DUP4 AND EQ JUMPDEST SWAP3 SWAP2 POP POP JUMP JUMPDEST PUSH2 0x59A PUSH1 0x40 MLOAD DUP1 PUSH2 0x200 ADD PUSH1 0x40 MSTORE DUP1 PUSH1 0x60 DUP2 MSTORE PUSH1 0x20 ADD PUSH1 0x60 DUP2 MSTORE PUSH1 0x20 ADD PUSH1 0x60 DUP2 MSTORE PUSH1 0x20 ADD PUSH1 0x0 DUP2 MSTORE PUSH1 0x20 ADD PUSH1 0x0 DUP2 MSTORE PUSH1 0x20 ADD PUSH1 0x60 DUP2 MSTORE PUSH1 0x20 ADD PUSH1 0x60 DUP2 MSTORE PUSH1 0x20 ADD PUSH1 0x60 DUP2 MSTORE PUSH1 0x20 ADD PUSH1 0x0 PUSH1 0x1 PUSH1 0x1 PUSH1 0xA0 SHL SUB AND DUP2 MSTORE PUSH1 0x20 ADD PUSH1 0x60 DUP2 MSTORE PUSH1 0x20 ADD PUSH1 0x60 DUP2 MSTORE PUSH1 0x20 ADD PUSH1 0x60 DUP2 MSTORE PUSH1 0x20 ADD PUSH1 0x60 DUP2 MSTORE PUSH1 0x20 ADD PUSH1 0x60 DUP2 MSTORE PUSH1 0x20 ADD PUSH1 0x60 DUP2 MSTORE PUSH1 0x20 ADD PUSH1 0x60 DUP2 MSTORE POP SWAP1 JUMP JUMPDEST PUSH1 0x1 PUSH1 0x1 PUSH1 0xA0 SHL SUB DUP4 AND PUSH1 0x0 SWAP1 DUP2 MSTORE PUSH1 0xC PUSH1 0x20 SWAP1 DUP2 MSTORE PUSH1 0x40 DUP1 DUP4 KECCAK256 DUP6 DUP5 MSTORE SWAP1 SWAP2 MSTORE SWAP1 DUP2 SWAP1 KECCAK256 DUP2 MLOAD PUSH2 0x200 DUP2 ADD SWAP1 SWAP3 MSTORE DUP1 SLOAD DUP3 SWAP1 DUP3 SWAP1 PUSH2 0x5D8 SWAP1 PUSH2 0x4953 JUMP JUMPDEST DUP1 PUSH1 0x1F ADD PUSH1 0x20 DUP1 SWAP2 DIV MUL PUSH1 0x20 ADD PUSH1 0x40 MLOAD SWAP1 DUP2 ADD PUSH1 0x40 MSTORE DUP1 SWAP3 SWAP2 SWAP1 DUP2 DUP2 MSTORE PUSH1 0x20 ADD DUP3 DUP1 SLOAD PUSH2 0x604 SWAP1 PUSH2 0x4953 JUMP JUMPDEST DUP1 ISZERO PUSH2 0x651 JUMPI DUP1 PUSH1 0x1F LT PUSH2 0x626 JUMPI PUSH2 0x100 DUP1 DUP4 SLOAD DIV MUL DUP4 MSTORE SWAP2 PUSH1 0x20 ADD SWAP2 PUSH2 0x651 JUMP JUMPDEST DUP3 ADD SWAP2 SWAP1 PUSH1 0x0 MSTORE PUSH1 0x20 PUSH1 0x0 KECCAK256 SWAP1 JUMPDEST DUP2 SLOAD DUP2 MSTORE SWAP1 PUSH1 0x1 ADD SWAP1 PUSH1 0x20 ADD DUP1 DUP4 GT PUSH2 0x634 JUMPI DUP3 SWAP1 SUB PUSH1 0x1F AND DUP3 ADD SWAP2 JUMPDEST POP POP POP POP POP DUP2 MSTORE PUSH1 0x20 ADD PUSH1 0x1 DUP3 ADD DUP1 SLOAD PUSH2 0x66A SWAP1 PUSH2 0x4953 JUMP JUMPDEST DUP1 PUSH1 0x1F ADD PUSH1 0x20 DUP1 SWAP2 DIV MUL PUSH1 0x20 ADD PUSH1 0x40 MLOAD SWAP1 DUP2 ADD PUSH1 0x40 MSTORE DUP1 SWAP3 SWAP2 SWAP1 DUP2 DUP2 MSTORE PUSH1 0x20 ADD DUP3 DUP1 SLOAD PUSH2 0x696 SWAP1 PUSH2 0x4953 JUMP JUMPDEST DUP1 ISZERO PUSH2 0x6E3 JUMPI DUP1 PUSH1 0x1F LT PUSH2 0x6B8 JUMPI PUSH2 0x100 DUP1 DUP4 SLOAD DIV MUL DUP4 MSTORE SWAP2 PUSH1 0x20 ADD SWAP2 PUSH2 0x6E3 JUMP JUMPDEST DUP3 ADD SWAP2 SWAP1 PUSH1 0x0 MSTORE PUSH1 0x20 PUSH1 0x0 KECCAK256 SWAP1 JUMPDEST DUP2 SLOAD DUP2 MSTORE SWAP1 PUSH1 0x1 ADD SWAP1 PUSH1 0x20 ADD DUP1 DUP4 GT PUSH2 0x6C6 JUMPI DUP3 SWAP1 SUB PUSH1 0x1F AND DUP3 ADD SWAP2 JUMPDEST POP POP POP POP POP DUP2 MSTORE PUSH1 0x20 ADD PUSH1 0x2 DUP3 ADD DUP1 SLOAD PUSH2 0x6FC SWAP1 PUSH2 0x4953 JUMP JUMPDEST DUP1 PUSH1 0x1F ADD PUSH1 0x20 DUP1 SWAP2 DIV MUL PUSH1 0x20 ADD PUSH1 0x40 MLOAD SWAP1 DUP2 ADD PUSH1 0x40 MSTORE DUP1 SWAP3 SWAP2 SWAP1 DUP2 DUP2 MSTORE PUSH1 0x20 ADD DUP3 DUP1 SLOAD PUSH2 0x728 SWAP1 PUSH2 0x4953 JUMP JUMPDEST DUP1 ISZERO PUSH2 0x775 JUMPI DUP1 PUSH1 0x1F LT PUSH2 0x74A JUMPI PUSH2 0x100 DUP1 DUP4 SLOAD DIV MUL DUP4 MSTORE SWAP2 PUSH1 0x20 ADD SWAP2 PUSH2 0x775 JUMP JUMPDEST DUP3 ADD SWAP2 SWAP1 PUSH1 0x0 MSTORE PUSH1 0x20 PUSH1 0x0 KECCAK256 SWAP1 JUMPDEST DUP2 SLOAD DUP2 MSTORE SWAP1 PUSH1 0x1 ADD SWAP1 PUSH1 0x20 ADD DUP1 DUP4 GT PUSH2 0x758 JUMPI DUP3 SWAP1 SUB PUSH1 0x1F AND DUP3 ADD SWAP2 JUMPDEST POP POP POP POP POP DUP2 MSTORE PUSH1 0x20 ADD PUSH1 0x3 DUP3 ADD SLOAD DUP2 MSTORE PUSH1 0x20 ADD PUSH1 0x4 DUP3 ADD SLOAD DUP2 MSTORE PUSH1 0x20 ADD PUSH1 0x5 DUP3 ADD DUP1 SLOAD PUSH2 0x7A2 SWAP1 PUSH2 0x4953 JUMP JUMPDEST DUP1 PUSH1 0x1F ADD PUSH1 0x20 DUP1 SWAP2 DIV MUL PUSH1 0x20 ADD PUSH1 0x40 MLOAD SWAP1 DUP2 ADD PUSH1 0x40 MSTORE DUP1 SWAP3 SWAP2 SWAP1 DUP2 DUP2 MSTORE PUSH1 0x20 ADD DUP3 DUP1 SLOAD PUSH2 0x7CE SWAP1 PUSH2 0x4953 JUMP JUMPDEST DUP1 ISZERO PUSH2 0x81B JUMPI DUP1 PUSH1 0x1F LT PUSH2 0x7F0 JUMPI PUSH2 0x100 DUP1 DUP4 SLOAD DIV MUL DUP4 MSTORE SWAP2 PUSH1 0x20 ADD SWAP2 PUSH2 0x81B JUMP JUMPDEST DUP3 ADD SWAP2 SWAP1 PUSH1 0x0 MSTORE PUSH1 0x20 PUSH1 0x0 KECCAK256 SWAP1 JUMPDEST DUP2 SLOAD DUP2 MSTORE SWAP1 PUSH1 0x1 ADD SWAP1 PUSH1 0x20 ADD DUP1 DUP4 GT PUSH2 0x7FE JUMPI DUP3 SWAP1 SUB PUSH1 0x1F AND DUP3 ADD SWAP2 JUMPDEST POP POP POP POP POP DUP2 MSTORE PUSH1 0x20 ADD PUSH1 0x6 DUP3 ADD DUP1 SLOAD PUSH2 0x834 SWAP1 PUSH2 0x4953 JUMP JUMPDEST DUP1 PUSH1 0x1F ADD PUSH1 0x20 DUP1 SWAP2 DIV MUL PUSH1 0x20 ADD PUSH1 0x40 MLOAD SWAP1 DUP2 ADD PUSH1 0x40 MSTORE DUP1 SWAP3 SWAP2 SWAP1 DUP2 DUP2 MSTORE PUSH1 0x20 ADD DUP3 DUP1 SLOAD PUSH2 0x860 SWAP1 PUSH2 0x4953 JUMP JUMPDEST DUP1 ISZERO PUSH2 0x8AD JUMPI DUP1 PUSH1 0x1F LT PUSH2 0x882 JUMPI PUSH2 0x100 DUP1 DUP4 SLOAD DIV MUL DUP4 MSTORE SWAP2 PUSH1 0x20 ADD SWAP2 PUSH2 0x8AD JUMP JUMPDEST DUP3 ADD SWAP2 SWAP1 PUSH1 0x0 MSTORE PUSH1 0x20 PUSH1 0x0 KECCAK256 SWAP1 JUMPDEST DUP2 SLOAD DUP2 MSTORE SWAP1 PUSH1 0x1 ADD SWAP1 PUSH1 0x20 ADD DUP1 DUP4 GT PUSH2 0x890 JUMPI DUP3 SWAP1 SUB PUSH1 0x1F AND DUP3 ADD SWAP2 JUMPDEST POP POP POP POP POP DUP2 MSTORE PUSH1 0x20 ADD PUSH1 0x7 DUP3 ADD DUP1 SLOAD PUSH2 0x8C6 SWAP1 PUSH2 0x4953 JUMP JUMPDEST DUP1 PUSH1 0x1F ADD PUSH1 0x20 DUP1 SWAP2 DIV MUL PUSH1 0x20 ADD PUSH1 0x40 MLOAD SWAP1 DUP2 ADD PUSH1 0x40 MSTORE DUP1 SWAP3 SWAP2 SWAP1 DUP2 DUP2 MSTORE PUSH1 0x20 ADD DUP3 DUP1 SLOAD PUSH2 0x8F2 SWAP1 PUSH2 0x4953 JUMP JUMPDEST DUP1 ISZERO PUSH2 0x93F JUMPI DUP1 PUSH1 0x1F LT PUSH2 0x914 JUMPI PUSH2 0x100 DUP1 DUP4 SLOAD DIV MUL DUP4 MSTORE SWAP2 PUSH1 0x20 ADD SWAP2 PUSH2 0x93F JUMP JUMPDEST DUP3 ADD SWAP2 SWAP1 PUSH1 0x0 MSTORE PUSH1 0x20 PUSH1 0x0 KECCAK256 SWAP1 JUMPDEST DUP2 SLOAD DUP2 MSTORE SWAP1 PUSH1 0x1 ADD SWAP1 PUSH1 0x20 ADD DUP1 DUP4 GT PUSH2 0x922 JUMPI DUP3 SWAP1 SUB PUSH1 0x1F AND DUP3 ADD SWAP2 JUMPDEST POP POP POP SWAP2 DUP4 MSTORE POP POP PUSH1 0x8 DUP3 ADD SLOAD PUSH1 0x1 PUSH1 0x1 PUSH1 0xA0 SHL SUB AND PUSH1 0x20 DUP3 ADD MSTORE PUSH1 0x9 DUP3 ADD DUP1 SLOAD PUSH1 0x40 SWAP1 SWAP3 ADD SWAP2 PUSH2 0x96F SWAP1 PUSH2 0x4953 JUMP JUMPDEST DUP1 PUSH1 0x1F ADD PUSH1 0x20 DUP1 SWAP2 DIV MUL PUSH1 0x20 ADD PUSH1 0x40 MLOAD SWAP1 DUP2 ADD PUSH1 0x40 MSTORE DUP1 SWAP3 SWAP2 SWAP1 DUP2 DUP2 MSTORE PUSH1 0x20 ADD DUP3 DUP1 SLOAD PUSH2 0x99B SWAP1 PUSH2 0x4953 JUMP JUMPDEST DUP1 ISZERO PUSH2 0x9E8 JUMPI DUP1 PUSH1 0x1F LT PUSH2 0x9BD JUMPI PUSH2 0x100 DUP1 DUP4 SLOAD DIV MUL DUP4 MSTORE SWAP2 PUSH1 0x20 ADD SWAP2 PUSH2 0x9E8 JUMP JUMPDEST DUP3 ADD SWAP2 SWAP1 PUSH1 0x0 MSTORE PUSH1 0x20 PUSH1 0x0 KECCAK256 SWAP1 JUMPDEST DUP2 SLOAD DUP2 MSTORE SWAP1 PUSH1 0x1 ADD SWAP1 PUSH1 0x20 ADD DUP1 DUP4 GT PUSH2 0x9CB JUMPI DUP3 SWAP1 SUB PUSH1 0x1F AND DUP3 ADD SWAP2 JUMPDEST POP POP POP POP POP DUP2 MSTORE PUSH1 0x20 ADD PUSH1 0xA DUP3 ADD DUP1 SLOAD PUSH2 0xA01 SWAP1 PUSH2 0x4953 JUMP JUMPDEST DUP1 PUSH1 0x1F ADD PUSH1 0x20 DUP1 SWAP2 DIV MUL PUSH1 0x20 ADD PUSH1 0x40 MLOAD SWAP1 DUP2 ADD PUSH1 0x40 MSTORE DUP1 SWAP3 SWAP2 SWAP1 DUP2 DUP2 MSTORE PUSH1 0x20 ADD DUP3 DUP1 SLOAD PUSH2 0xA2D SWAP1 PUSH2 0x4953 JUMP JUMPDEST DUP1 ISZERO PUSH2 0xA7A JUMPI DUP1 PUSH1 0x1F LT PUSH2 0xA4F JUMPI PUSH2 0x100 DUP1 DUP4 SLOAD DIV MUL DUP4 MSTORE SWAP2 PUSH1 0x20 ADD SWAP2 PUSH2 0xA7A JUMP JUMPDEST DUP3 ADD SWAP2 SWAP1 PUSH1 0x0 MSTORE PUSH1 0x20 PUSH1 0x0 KECCAK256 SWAP1 JUMPDEST DUP2 SLOAD DUP2 MSTORE SWAP1 PUSH1 0x1 ADD SWAP1 PUSH1 0x20 ADD DUP1 DUP4 GT PUSH2 0xA5D JUMPI DUP3 SWAP1 SUB PUSH1 0x1F AND DUP3 ADD SWAP2 JUMPDEST POP POP POP POP POP DUP2 MSTORE PUSH1 0x20 ADD PUSH1 0xB DUP3 ADD DUP1 SLOAD PUSH2 0xA93 SWAP1 PUSH2 0x4953 JUMP JUMPDEST DUP1 PUSH1 0x1F ADD PUSH1 0x20 DUP1 SWAP2 DIV MUL PUSH1 0x20 ADD PUSH1 0x40 MLOAD SWAP1 DUP2 ADD PUSH1 0x40 MSTORE DUP1 SWAP3 SWAP2 SWAP1 DUP2 DUP2 MSTORE PUSH1 0x20 ADD DUP3 DUP1 SLOAD PUSH2 0xABF SWAP1 PUSH2 0x4953 JUMP JUMPDEST DUP1 ISZERO PUSH2 0xB0C JUMPI DUP1 PUSH1 0x1F LT PUSH2 0xAE1 JUMPI PUSH2 0x100 DUP1 DUP4 SLOAD DIV MUL DUP4 MSTORE SWAP2 PUSH1 0x20 ADD SWAP2 PUSH2 0xB0C JUMP JUMPDEST DUP3 ADD SWAP2 SWAP1 PUSH1 0x0 MSTORE PUSH1 0x20 PUSH1 0x0 KECCAK256 SWAP1 JUMPDEST DUP2 SLOAD DUP2 MSTORE SWAP1 PUSH1 0x1 ADD SWAP1 PUSH1 0x20 ADD DUP1 DUP4 GT PUSH2 0xAEF JUMPI DUP3 SWAP1 SUB PUSH1 0x1F AND DUP3 ADD SWAP2 JUMPDEST POP POP POP POP POP DUP2 MSTORE PUSH1 0x20 ADD PUSH1 0xC DUP3 ADD DUP1 SLOAD PUSH2 0xB25 SWAP1 PUSH2 0x4953 JUMP JUMPDEST DUP1 PUSH1 0x1F ADD PUSH1 0x20 DUP1 SWAP2 DIV MUL PUSH1 0x20 ADD PUSH1 0x40 MLOAD SWAP1 DUP2 ADD PUSH1 0x40 MSTORE DUP1 SWAP3 SWAP2 SWAP1 DUP2 DUP2 MSTORE PUSH1 0x20 ADD DUP3 DUP1 SLOAD PUSH2 0xB51 SWAP1 PUSH2 0x4953 JUMP JUMPDEST DUP1 ISZERO PUSH2 0xB9E JUMPI DUP1 PUSH1 0x1F LT PUSH2 0xB73 JUMPI PUSH2 0x100 DUP1 DUP4 SLOAD DIV MUL DUP4 MSTORE SWAP2 PUSH1 0x20 ADD SWAP2 PUSH2 0xB9E JUMP JUMPDEST DUP3 ADD SWAP2 SWAP1 PUSH1 0x0 MSTORE PUSH1 0x20 PUSH1 0x0 KECCAK256 SWAP1 JUMPDEST DUP2 SLOAD DUP2 MSTORE SWAP1 PUSH1 0x1 ADD SWAP1 PUSH1 0x20 ADD DUP1 DUP4 GT PUSH2 0xB81 JUMPI DUP3 SWAP1 SUB PUSH1 0x1F AND DUP3 ADD SWAP2 JUMPDEST POP POP POP POP POP DUP2 MSTORE PUSH1 0x20 ADD PUSH1 0xD DUP3 ADD DUP1 SLOAD PUSH2 0xBB7 SWAP1 PUSH2 0x4953 JUMP JUMPDEST DUP1 PUSH1 0x1F ADD PUSH1 0x20 DUP1 SWAP2 DIV MUL PUSH1 0x20 ADD PUSH1 0x40 MLOAD SWAP1 DUP2 ADD PUSH1 0x40 MSTORE DUP1 SWAP3 SWAP2 SWAP1 DUP2 DUP2 MSTORE PUSH1 0x20 ADD DUP3 DUP1 SLOAD PUSH2 0xBE3 SWAP1 PUSH2 0x4953 JUMP JUMPDEST DUP1 ISZERO PUSH2 0xC30 JUMPI DUP1 PUSH1 0x1F LT PUSH2 0xC05 JUMPI PUSH2 0x100 DUP1 DUP4 SLOAD DIV MUL DUP4 MSTORE SWAP2 PUSH1 0x20 ADD SWAP2 PUSH2 0xC30 JUMP JUMPDEST DUP3 ADD SWAP2 SWAP1 PUSH1 0x0 MSTORE PUSH1 0x20 PUSH1 0x0 KECCAK256 SWAP1 JUMPDEST DUP2 SLOAD DUP2 MSTORE SWAP1 PUSH1 0x1 ADD SWAP1 PUSH1 0x20 ADD DUP1 DUP4 GT PUSH2 0xC13 JUMPI DUP3 SWAP1 SUB PUSH1 0x1F AND DUP3 ADD SWAP2 JUMPDEST POP POP POP POP POP DUP2 MSTORE PUSH1 0x20 ADD PUSH1 0xE DUP3 ADD DUP1 SLOAD PUSH2 0xC49 SWAP1 PUSH2 0x4953 JUMP JUMPDEST DUP1 PUSH1 0x1F ADD PUSH1 0x20 DUP1 SWAP2 DIV MUL PUSH1 0x20 ADD PUSH1 0x40 MLOAD SWAP1 DUP2 ADD PUSH1 0x40 MSTORE DUP1 SWAP3 SWAP2 SWAP1 DUP2 DUP2 MSTORE PUSH1 0x20 ADD DUP3 DUP1 SLOAD PUSH2 0xC75 SWAP1 PUSH2 0x4953 JUMP JUMPDEST DUP1 ISZERO PUSH2 0xCC2 JUMPI DUP1 PUSH1 0x1F LT PUSH2 0xC97 JUMPI PUSH2 0x100 DUP1 DUP4 SLOAD DIV MUL DUP4 MSTORE SWAP2 PUSH1 0x20 ADD SWAP2 PUSH2 0xCC2 JUMP JUMPDEST DUP3 ADD SWAP2 SWAP1 PUSH1 0x0 MSTORE PUSH1 0x20 PUSH1 0x0 KECCAK256 SWAP1 JUMPDEST DUP2 SLOAD DUP2 MSTORE SWAP1 PUSH1 0x1 ADD SWAP1 PUSH1 0x20 ADD DUP1 DUP4 GT PUSH2 0xCA5 JUMPI DUP3 SWAP1 SUB PUSH1 0x1F AND DUP3 ADD SWAP2 JUMPDEST POP POP POP POP POP DUP2 MSTORE PUSH1 0x20 ADD PUSH1 0xF DUP3 ADD DUP1 SLOAD PUSH2 0xCDB SWAP1 PUSH2 0x4953 JUMP JUMPDEST DUP1 PUSH1 0x1F ADD PUSH1 0x20 DUP1 SWAP2 DIV MUL PUSH1 0x20 ADD PUSH1 0x40 MLOAD SWAP1 DUP2 ADD PUSH1 0x40 MSTORE DUP1 SWAP3 SWAP2 SWAP1 DUP2 DUP2 MSTORE PUSH1 0x20 ADD DUP3 DUP1 SLOAD PUSH2 0xD07 SWAP1 PUSH2 0x4953 JUMP JUMPDEST DUP1 ISZERO PUSH2 0xD54 JUMPI DUP1 PUSH1 0x1F LT PUSH2 0xD29 JUMPI PUSH2 0x100 DUP1 DUP4 SLOAD DIV MUL DUP4 MSTORE SWAP2 PUSH1 0x20 ADD SWAP2 PUSH2 0xD54 JUMP JUMPDEST DUP3 ADD SWAP2 SWAP1 PUSH1 0x0 MSTORE PUSH1 0x20 PUSH1 0x0 KECCAK256 SWAP1 JUMPDEST DUP2 SLOAD DUP2 MSTORE SWAP1 PUSH1 0x1 ADD SWAP1 PUSH1 0x20 ADD DUP1 DUP4 GT PUSH2 0xD37 JUMPI DUP3 SWAP1 SUB PUSH1 0x1F AND DUP3 ADD SWAP2 JUMPDEST POP POP POP POP POP DUP2 MSTORE POP POP SWAP1 POP SWAP3 SWAP2 POP POP JUMP JUMPDEST PUSH1 0x60 PUSH1 0x0 DUP1 SLOAD PUSH2 0xD74 SWAP1 PUSH2 0x4953 JUMP JUMPDEST DUP1 PUSH1 0x1F ADD PUSH1 0x20 DUP1 SWAP2 DIV MUL PUSH1 0x20 ADD PUSH1 0x40 MLOAD SWAP1 DUP2 ADD PUSH1 0x40 MSTORE DUP1 SWAP3 SWAP2 SWAP1 DUP2 DUP2 MSTORE PUSH1 0x20 ADD DUP3 DUP1 SLOAD PUSH2 0xDA0 SWAP1 PUSH2 0x4953 JUMP JUMPDEST DUP1 ISZERO PUSH2 0xDED JUMPI DUP1 PUSH1 0x1F LT PUSH2 0xDC2 JUMPI PUSH2 0x100 DUP1 DUP4 SLOAD DIV MUL DUP4 MSTORE SWAP2 PUSH1 0x20 ADD SWAP2 PUSH2 0xDED JUMP JUMPDEST DUP3 ADD SWAP2 SWAP1 PUSH1 0x0 MSTORE PUSH1 0x20 PUSH1 0x0 KECCAK256 SWAP1 JUMPDEST DUP2 SLOAD DUP2 MSTORE SWAP1 PUSH1 0x1 ADD SWAP1 PUSH1 0x20 ADD DUP1 DUP4 GT PUSH2 0xDD0 JUMPI DUP3 SWAP1 SUB PUSH1 0x1F AND DUP3 ADD SWAP2 JUMPDEST POP POP POP POP POP SWAP1 POP SWAP1 JUMP JUMPDEST PUSH1 0x40 DUP1 MLOAD PUSH1 0x60 DUP1 DUP3 ADD DUP4 MSTORE DUP1 DUP3 MSTORE PUSH1 0x20 DUP3 ADD MSTORE PUSH1 0x0 SWAP2 DUP2 ADD SWAP2 SWAP1 SWAP2 MSTORE PUSH1 0x0 PUSH1 0x10 DUP4 PUSH1 0x40 MLOAD PUSH2 0xE25 SWAP2 SWAP1 PUSH2 0x498E JUMP JUMPDEST SWAP1 DUP2 MSTORE PUSH1 0x20 ADD PUSH1 0x40 MLOAD DUP1 SWAP2 SUB SWAP1 KECCAK256 PUSH1 0x13 DUP5 PUSH1 0x40 MLOAD PUSH2 0xE43 SWAP2 SWAP1 PUSH2 0x498E JUMP JUMPDEST SWAP1 DUP2 MSTORE PUSH1 0x40 DUP1 MLOAD SWAP2 DUP3 SWAP1 SUB PUSH1 0x20 SWAP1 DUP2 ADD DUP4 KECCAK256 PUSH1 0x1 PUSH1 0x1 PUSH1 0xA0 SHL SUB DUP10 AND PUSH1 0x0 SWAP1 DUP2 MSTORE SWAP2 MSTORE DUP2 SWAP1 KECCAK256 SLOAD PUSH1 0x60 DUP4 ADD SWAP1 SWAP2 MSTORE DUP3 SLOAD PUSH1 0xFF SWAP1 SWAP2 AND SWAP2 SWAP1 DUP4 SWAP1 DUP3 SWAP1 DUP3 SWAP1 PUSH2 0xE89 SWAP1 PUSH2 0x4953 JUMP JUMPDEST DUP1 PUSH1 0x1F ADD PUSH1 0x20 DUP1 SWAP2 DIV MUL PUSH1 0x20 ADD PUSH1 0x40 MLOAD SWAP1 DUP2 ADD PUSH1 0x40 MSTORE DUP1 SWAP3 SWAP2 SWAP1 DUP2 DUP2 MSTORE PUSH1 0x20 ADD DUP3 DUP1 SLOAD PUSH2 0xEB5 SWAP1 PUSH2 0x4953 JUMP JUMPDEST DUP1 ISZERO PUSH2 0xF02 JUMPI DUP1 PUSH1 0x1F LT PUSH2 0xED7 JUMPI PUSH2 0x100 DUP1 DUP4 SLOAD DIV MUL DUP4 MSTORE SWAP2 PUSH1 0x20 ADD SWAP2 PUSH2 0xF02 JUMP JUMPDEST DUP3 ADD SWAP2 SWAP1 PUSH1 0x0 MSTORE PUSH1 0x20 PUSH1 0x0 KECCAK256 SWAP1 JUMPDEST DUP2 SLOAD DUP2 MSTORE SWAP1 PUSH1 0x1 ADD SWAP1 PUSH1 0x20 ADD DUP1 DUP4 GT PUSH2 0xEE5 JUMPI DUP3 SWAP1 SUB PUSH1 0x1F AND DUP3 ADD SWAP2 JUMPDEST POP POP POP POP POP DUP2 MSTORE PUSH1 0x20 ADD PUSH1 0x1 DUP3 ADD DUP1 SLOAD PUSH2 0xF1B SWAP1 PUSH2 0x4953 JUMP JUMPDEST DUP1 PUSH1 0x1F ADD PUSH1 0x20 DUP1 SWAP2 DIV MUL PUSH1 0x20 ADD PUSH1 0x40 MLOAD SWAP1 DUP2 ADD PUSH1 0x40 MSTORE DUP1 SWAP3 SWAP2 SWAP1 DUP2 DUP2 MSTORE PUSH1 0x20 ADD DUP3 DUP1 SLOAD PUSH2 0xF47 SWAP1 PUSH2 0x4953 JUMP JUMPDEST DUP1 ISZERO PUSH2 0xF94 JUMPI DUP1 PUSH1 0x1F LT PUSH2 0xF69 JUMPI PUSH2 0x100 DUP1 DUP4 SLOAD DIV MUL DUP4 MSTORE SWAP2 PUSH1 0x20 ADD SWAP2 PUSH2 0xF94 JUMP JUMPDEST DUP3 ADD SWAP2 SWAP1 PUSH1 0x0 MSTORE PUSH1 0x20 PUSH1 0x0 KECCAK256 SWAP1 JUMPDEST DUP2 SLOAD DUP2 MSTORE SWAP1 PUSH1 0x1 ADD SWAP1 PUSH1 0x20 ADD DUP1 DUP4 GT PUSH2 0xF77 JUMPI DUP3 SWAP1 SUB PUSH1 0x1F AND DUP3 ADD SWAP2 JUMPDEST POP POP POP SWAP2 DUP4 MSTORE POP POP PUSH1 0x2 SWAP2 SWAP1 SWAP2 ADD SLOAD PUSH1 0x1 PUSH1 0x1 PUSH1 0xA0 SHL SUB AND PUSH1 0x20 SWAP1 SWAP2 ADD MSTORE SWAP7 SWAP1 SWAP6 POP SWAP4 POP POP POP POP JUMP JUMPDEST PUSH1 0x0 PUSH2 0xFC8 DUP3 PUSH2 0x3104 JUMP JUMPDEST POP PUSH1 0x0 SWAP1 DUP2 MSTORE PUSH1 0x4 PUSH1 0x20 MSTORE PUSH1 0x40 SWAP1 KECCAK256 SLOAD PUSH1 0x1 PUSH1 0x1 PUSH1 0xA0 SHL SUB AND SWAP1 JUMP JUMPDEST PUSH1 0x0 PUSH2 0xFEF DUP3 PUSH2 0x13B6 JUMP JUMPDEST SWAP1 POP DUP1 PUSH1 0x1 PUSH1 0x1 PUSH1 0xA0 SHL SUB AND DUP4 PUSH1 0x1 PUSH1 0x1 PUSH1 0xA0 SHL SUB AND EQ ISZERO PUSH2 0x1062 JUMPI PUSH1 0x40 MLOAD PUSH3 0x461BCD PUSH1 0xE5 SHL DUP2 MSTORE PUSH1 0x20 PUSH1 0x4 DUP3 ADD MSTORE PUSH1 0x21 PUSH1 0x24 DUP3 ADD MSTORE PUSH32 0x4552433732313A20617070726F76616C20746F2063757272656E74206F776E65 PUSH1 0x44 DUP3 ADD MSTORE PUSH1 0x39 PUSH1 0xF9 SHL PUSH1 0x64 DUP3 ADD MSTORE PUSH1 0x84 ADD JUMPDEST PUSH1 0x40 MLOAD DUP1 SWAP2 SUB SWAP1 REVERT JUMPDEST CALLER PUSH1 0x1 PUSH1 0x1 PUSH1 0xA0 SHL SUB DUP3 AND EQ DUP1 PUSH2 0x107E JUMPI POP PUSH2 0x107E DUP2 CALLER PUSH2 0x47E JUMP JUMPDEST PUSH2 0x10F0 JUMPI PUSH1 0x40 MLOAD PUSH3 0x461BCD PUSH1 0xE5 SHL DUP2 MSTORE PUSH1 0x20 PUSH1 0x4 DUP3 ADD MSTORE PUSH1 0x3D PUSH1 0x24 DUP3 ADD MSTORE PUSH32 0x4552433732313A20617070726F76652063616C6C6572206973206E6F7420746F PUSH1 0x44 DUP3 ADD MSTORE PUSH32 0x6B656E206F776E6572206F7220617070726F76656420666F7220616C6C000000 PUSH1 0x64 DUP3 ADD MSTORE PUSH1 0x84 ADD PUSH2 0x1059 JUMP JUMPDEST PUSH2 0x10FA DUP4 DUP4 PUSH2 0x3166 JUMP JUMPDEST POP POP POP JUMP JUMPDEST PUSH2 0x1109 CALLER DUP3 PUSH2 0x31D4 JUMP JUMPDEST PUSH2 0x1125 JUMPI PUSH1 0x40 MLOAD PUSH3 0x461BCD PUSH1 0xE5 SHL DUP2 MSTORE PUSH1 0x4 ADD PUSH2 0x1059 SWAP1 PUSH2 0x49AA JUMP JUMPDEST PUSH2 0x10FA DUP4 DUP4 DUP4 PUSH2 0x3253 JUMP JUMPDEST PUSH1 0x60 PUSH1 0x7 DUP1 SLOAD DUP1 PUSH1 0x20 MUL PUSH1 0x20 ADD PUSH1 0x40 MLOAD SWAP1 DUP2 ADD PUSH1 0x40 MSTORE DUP1 SWAP3 SWAP2 SWAP1 DUP2 DUP2 MSTORE PUSH1 0x20 ADD DUP3 DUP1 SLOAD DUP1 ISZERO PUSH2 0xDED JUMPI PUSH1 0x20 MUL DUP3 ADD SWAP2 SWAP1 PUSH1 0x0 MSTORE PUSH1 0x20 PUSH1 0x0 KECCAK256 SWAP1 JUMPDEST DUP2 SLOAD PUSH1 0x1 PUSH1 0x1 PUSH1 0xA0 SHL SUB AND DUP2 MSTORE PUSH1 0x1 SWAP1 SWAP2 ADD SWAP1 PUSH1 0x20 ADD DUP1 DUP4 GT PUSH2 0x116A JUMPI POP POP POP POP POP SWAP1 POP SWAP1 JUMP JUMPDEST PUSH2 0x11B5 PUSH1 0x40 MLOAD DUP1 PUSH1 0x60 ADD PUSH1 0x40 MSTORE DUP1 PUSH1 0x60 DUP2 MSTORE PUSH1 0x20 ADD PUSH1 0x60 DUP2 MSTORE PUSH1 0x20 ADD PUSH1 0x60 DUP2 MSTORE POP SWAP1 JUMP JUMPDEST PUSH1 0x14 DUP3 PUSH1 0x40 MLOAD PUSH2 0x11C5 SWAP2 SWAP1 PUSH2 0x498E JUMP JUMPDEST SWAP1 DUP2 MSTORE PUSH1 0x20 ADD PUSH1 0x40 MLOAD DUP1 SWAP2 SUB SWAP1 KECCAK256 PUSH1 0x40 MLOAD DUP1 PUSH1 0x60 ADD PUSH1 0x40 MSTORE SWAP1 DUP2 PUSH1 0x0 DUP3 ADD DUP1 SLOAD PUSH2 0x11EE SWAP1 PUSH2 0x4953 JUMP JUMPDEST DUP1 PUSH1 0x1F ADD PUSH1 0x20 DUP1 SWAP2 DIV MUL PUSH1 0x20 ADD PUSH1 0x40 MLOAD SWAP1 DUP2 ADD PUSH1 0x40 MSTORE DUP1 SWAP3 SWAP2 SWAP1 DUP2 DUP2 MSTORE PUSH1 0x20 ADD DUP3 DUP1 SLOAD PUSH2 0x121A SWAP1 PUSH2 0x4953 JUMP JUMPDEST DUP1 ISZERO PUSH2 0x1267 JUMPI DUP1 PUSH1 0x1F LT PUSH2 0x123C JUMPI PUSH2 0x100 DUP1 DUP4 SLOAD DIV MUL DUP4 MSTORE SWAP2 PUSH1 0x20 ADD SWAP2 PUSH2 0x1267 JUMP JUMPDEST DUP3 ADD SWAP2 SWAP1 PUSH1 0x0 MSTORE PUSH1 0x20 PUSH1 0x0 KECCAK256 SWAP1 JUMPDEST DUP2 SLOAD DUP2 MSTORE SWAP1 PUSH1 0x1 ADD SWAP1 PUSH1 0x20 ADD DUP1 DUP4 GT PUSH2 0x124A JUMPI DUP3 SWAP1 SUB PUSH1 0x1F AND DUP3 ADD SWAP2 JUMPDEST POP POP POP POP POP DUP2 MSTORE PUSH1 0x20 ADD PUSH1 0x1 DUP3 ADD DUP1 SLOAD PUSH2 0x1280 SWAP1 PUSH2 0x4953 JUMP JUMPDEST DUP1 PUSH1 0x1F ADD PUSH1 0x20 DUP1 SWAP2 DIV MUL PUSH1 0x20 ADD PUSH1 0x40 MLOAD SWAP1 DUP2 ADD PUSH1 0x40 MSTORE DUP1 SWAP3 SWAP2 SWAP1 DUP2 DUP2 MSTORE PUSH1 0x20 ADD DUP3 DUP1 SLOAD PUSH2 0x12AC SWAP1 PUSH2 0x4953 JUMP JUMPDEST DUP1 ISZERO PUSH2 0x12F9 JUMPI DUP1 PUSH1 0x1F LT PUSH2 0x12CE JUMPI PUSH2 0x100 DUP1 DUP4 SLOAD DIV MUL DUP4 MSTORE SWAP2 PUSH1 0x20 ADD SWAP2 PUSH2 0x12F9 JUMP JUMPDEST DUP3 ADD SWAP2 SWAP1 PUSH1 0x0 MSTORE PUSH1 0x20 PUSH1 0x0 KECCAK256 SWAP1 JUMPDEST DUP2 SLOAD DUP2 MSTORE SWAP1 PUSH1 0x1 ADD SWAP1 PUSH1 0x20 ADD DUP1 DUP4 GT PUSH2 0x12DC JUMPI DUP3 SWAP1 SUB PUSH1 0x1F AND DUP3 ADD SWAP2 JUMPDEST POP POP POP POP POP DUP2 MSTORE PUSH1 0x20 ADD PUSH1 0x2 DUP3 ADD DUP1 SLOAD PUSH2 0x1312 SWAP1 PUSH2 0x4953 JUMP JUMPDEST DUP1 PUSH1 0x1F ADD PUSH1 0x20 DUP1 SWAP2 DIV MUL PUSH1 0x20 ADD PUSH1 0x40 MLOAD SWAP1 DUP2 ADD PUSH1 0x40 MSTORE DUP1 SWAP3 SWAP2 SWAP1 DUP2 DUP2 MSTORE PUSH1 0x20 ADD DUP3 DUP1 SLOAD PUSH2 0x133E SWAP1 PUSH2 0x4953 JUMP JUMPDEST DUP1 ISZERO PUSH2 0x138B JUMPI DUP1 PUSH1 0x1F LT PUSH2 0x1360 JUMPI PUSH2 0x100 DUP1 DUP4 SLOAD DIV MUL DUP4 MSTORE SWAP2 PUSH1 0x20 ADD SWAP2 PUSH2 0x138B JUMP JUMPDEST DUP3 ADD SWAP2 SWAP1 PUSH1 0x0 MSTORE PUSH1 0x20 PUSH1 0x0 KECCAK256 SWAP1 JUMPDEST DUP2 SLOAD DUP2 MSTORE SWAP1 PUSH1 0x1 ADD SWAP1 PUSH1 0x20 ADD DUP1 DUP4 GT PUSH2 0x136E JUMPI DUP3 SWAP1 SUB PUSH1 0x1F AND DUP3 ADD SWAP2 JUMPDEST POP POP POP POP POP DUP2 MSTORE POP POP SWAP1 POP SWAP2 SWAP1 POP JUMP JUMPDEST PUSH2 0x10FA DUP4 DUP4 DUP4 PUSH1 0x40 MLOAD DUP1 PUSH1 0x20 ADD PUSH1 0x40 MSTORE DUP1 PUSH1 0x0 DUP2 MSTORE POP PUSH2 0x25F2 JUMP JUMPDEST PUSH1 0x0 DUP2 DUP2 MSTORE PUSH1 0x2 PUSH1 0x20 MSTORE PUSH1 0x40 DUP2 KECCAK256 SLOAD PUSH1 0x1 PUSH1 0x1 PUSH1 0xA0 SHL SUB AND DUP1 PUSH2 0x50B JUMPI PUSH1 0x40 MLOAD PUSH3 0x461BCD PUSH1 0xE5 SHL DUP2 MSTORE PUSH1 0x20 PUSH1 0x4 DUP3 ADD MSTORE PUSH1 0x18 PUSH1 0x24 DUP3 ADD MSTORE PUSH24 0x115490CDCC8C4E881A5B9D985B1A59081D1BDAD95B881251 PUSH1 0x42 SHL PUSH1 0x44 DUP3 ADD MSTORE PUSH1 0x64 ADD PUSH2 0x1059 JUMP JUMPDEST PUSH2 0x100 DUP2 ADD MLOAD DUP2 SWAP1 PUSH1 0x1 PUSH1 0x1 PUSH1 0xA0 SHL SUB AND CALLER EQ PUSH2 0x1446 JUMPI PUSH1 0x40 MLOAD PUSH4 0x40DF71D PUSH1 0xE0 SHL DUP2 MSTORE PUSH1 0x4 ADD PUSH1 0x40 MLOAD DUP1 SWAP2 SUB SWAP1 REVERT JUMPDEST PUSH1 0x8 SLOAD PUSH1 0x1 SWAP1 PUSH2 0x1457 SWAP1 DUP3 SWAP1 PUSH2 0x4A0D JUMP JUMPDEST PUSH1 0x8 DUP2 SWAP1 SSTORE PUSH1 0xA DUP1 SLOAD PUSH1 0x1 DUP2 ADD DUP3 SSTORE PUSH1 0x0 SWAP2 DUP3 MSTORE PUSH32 0xC65A7BB8D6351C1CF70C95A316CC6A92839C986682D98BC35F958F4883F9D2A8 ADD DUP3 SWAP1 SSTORE DUP4 MLOAD CALLER DUP3 MSTORE PUSH1 0xC PUSH1 0x20 SWAP1 DUP2 MSTORE PUSH1 0x40 DUP1 DUP5 KECCAK256 SWAP5 DUP5 MSTORE SWAP4 DUP2 MSTORE SWAP3 SWAP1 SWAP2 KECCAK256 DUP2 MLOAD PUSH2 0x14BC SWAP4 SWAP2 SWAP3 SWAP1 SWAP2 ADD SWAP1 PUSH2 0x3A2C JUMP JUMPDEST POP PUSH1 0x20 DUP1 DUP4 ADD MLOAD CALLER PUSH1 0x0 SWAP1 DUP2 MSTORE PUSH1 0xC DUP4 MSTORE PUSH1 0x40 DUP1 DUP3 KECCAK256 PUSH1 0x8 SLOAD DUP4 MSTORE DUP5 MSTORE SWAP1 KECCAK256 DUP2 MLOAD PUSH2 0x14F0 SWAP4 PUSH1 0x1 SWAP1 SWAP3 ADD SWAP3 SWAP1 SWAP2 ADD SWAP1 PUSH2 0x3A2C JUMP JUMPDEST POP PUSH1 0x40 DUP1 DUP4 ADD MLOAD CALLER PUSH1 0x0 SWAP1 DUP2 MSTORE PUSH1 0xC PUSH1 0x20 SWAP1 DUP2 MSTORE DUP4 DUP3 KECCAK256 PUSH1 0x8 SLOAD DUP4 MSTORE DUP2 MSTORE SWAP3 SWAP1 KECCAK256 DUP2 MLOAD PUSH2 0x1527 SWAP4 PUSH1 0x2 SWAP1 SWAP3 ADD SWAP3 SWAP2 SWAP1 SWAP2 ADD SWAP1 PUSH2 0x3A2C JUMP JUMPDEST POP PUSH1 0x60 DUP3 ADD MLOAD CALLER PUSH1 0x0 SWAP1 DUP2 MSTORE PUSH1 0xC PUSH1 0x20 SWAP1 DUP2 MSTORE PUSH1 0x40 DUP1 DUP4 KECCAK256 PUSH1 0x8 DUP1 SLOAD DUP6 MSTORE SWAP1 DUP4 MSTORE DUP2 DUP5 KECCAK256 PUSH1 0x3 ADD SWAP5 SWAP1 SWAP5 SSTORE PUSH1 0x80 DUP7 ADD MLOAD DUP5 SLOAD DUP5 MSTORE DUP2 DUP5 KECCAK256 PUSH1 0x4 ADD SSTORE PUSH1 0xA0 DUP7 ADD MLOAD SWAP4 SLOAD DUP4 MSTORE SWAP1 SWAP2 KECCAK256 DUP3 MLOAD PUSH2 0x1584 SWAP4 PUSH1 0x5 SWAP1 SWAP3 ADD SWAP3 SWAP2 SWAP1 SWAP2 ADD SWAP1 PUSH2 0x3A2C JUMP JUMPDEST POP PUSH1 0xC0 DUP3 ADD MLOAD CALLER PUSH1 0x0 SWAP1 DUP2 MSTORE PUSH1 0xC PUSH1 0x20 SWAP1 DUP2 MSTORE PUSH1 0x40 DUP1 DUP4 KECCAK256 PUSH1 0x8 SLOAD DUP5 MSTORE DUP3 MSTORE SWAP1 SWAP2 KECCAK256 DUP3 MLOAD PUSH2 0x15BB SWAP4 PUSH1 0x6 SWAP1 SWAP3 ADD SWAP3 SWAP1 SWAP2 ADD SWAP1 PUSH2 0x3A2C JUMP JUMPDEST POP PUSH1 0xE0 DUP3 ADD MLOAD CALLER PUSH1 0x0 SWAP1 DUP2 MSTORE PUSH1 0xC PUSH1 0x20 SWAP1 DUP2 MSTORE PUSH1 0x40 DUP1 DUP4 KECCAK256 PUSH1 0x8 SLOAD DUP5 MSTORE DUP3 MSTORE SWAP1 SWAP2 KECCAK256 DUP3 MLOAD PUSH2 0x15F2 SWAP4 PUSH1 0x7 SWAP1 SWAP3 ADD SWAP3 SWAP1 SWAP2 ADD SWAP1 PUSH2 0x3A2C JUMP JUMPDEST POP PUSH2 0x100 DUP3 ADD MLOAD CALLER PUSH1 0x0 SWAP1 DUP2 MSTORE PUSH1 0xC PUSH1 0x20 SWAP1 DUP2 MSTORE PUSH1 0x40 DUP1 DUP4 KECCAK256 PUSH1 0x8 DUP1 SLOAD DUP6 MSTORE SWAP1 DUP4 MSTORE DUP2 DUP5 KECCAK256 DUP2 ADD DUP1 SLOAD PUSH1 0x1 PUSH1 0x1 PUSH1 0xA0 SHL SUB NOT AND PUSH1 0x1 PUSH1 0x1 PUSH1 0xA0 SHL SUB SWAP1 SWAP7 AND SWAP6 SWAP1 SWAP6 OR SWAP1 SWAP5 SSTORE PUSH2 0x120 DUP7 ADD MLOAD SWAP4 SLOAD DUP4 MSTORE SWAP1 SWAP2 KECCAK256 DUP3 MLOAD PUSH2 0x165A SWAP4 PUSH1 0x9 SWAP1 SWAP3 ADD SWAP3 SWAP2 SWAP1 SWAP2 ADD SWAP1 PUSH2 0x3A2C JUMP JUMPDEST POP PUSH2 0x140 DUP3 ADD MLOAD CALLER PUSH1 0x0 SWAP1 DUP2 MSTORE PUSH1 0xC PUSH1 0x20 SWAP1 DUP2 MSTORE PUSH1 0x40 DUP1 DUP4 KECCAK256 PUSH1 0x8 SLOAD DUP5 MSTORE DUP3 MSTORE SWAP1 SWAP2 KECCAK256 DUP3 MLOAD PUSH2 0x1692 SWAP4 PUSH1 0xA SWAP1 SWAP3 ADD SWAP3 SWAP1 SWAP2 ADD SWAP1 PUSH2 0x3A2C JUMP JUMPDEST POP PUSH2 0x160 DUP3 ADD MLOAD CALLER PUSH1 0x0 SWAP1 DUP2 MSTORE PUSH1 0xC PUSH1 0x20 SWAP1 DUP2 MSTORE PUSH1 0x40 DUP1 DUP4 KECCAK256 PUSH1 0x8 SLOAD DUP5 MSTORE DUP3 MSTORE SWAP1 SWAP2 KECCAK256 DUP3 MLOAD PUSH2 0x16CA SWAP4 PUSH1 0xB SWAP1 SWAP3 ADD SWAP3 SWAP1 SWAP2 ADD SWAP1 PUSH2 0x3A2C JUMP JUMPDEST POP PUSH2 0x180 DUP3 ADD MLOAD CALLER PUSH1 0x0 SWAP1 DUP2 MSTORE PUSH1 0xC PUSH1 0x20 DUP2 DUP2 MSTORE PUSH1 0x40 DUP1 DUP5 KECCAK256 PUSH1 0x8 SLOAD DUP6 MSTORE DUP3 MSTORE SWAP1 SWAP3 KECCAK256 DUP4 MLOAD PUSH2 0x16FF SWAP5 SWAP2 SWAP1 SWAP3 ADD SWAP3 ADD SWAP1 PUSH2 0x3A2C JUMP JUMPDEST POP PUSH2 0x1A0 DUP3 ADD MLOAD CALLER PUSH1 0x0 SWAP1 DUP2 MSTORE PUSH1 0xC PUSH1 0x20 SWAP1 DUP2 MSTORE PUSH1 0x40 DUP1 DUP4 KECCAK256 PUSH1 0x8 SLOAD DUP5 MSTORE DUP3 MSTORE SWAP1 SWAP2 KECCAK256 DUP3 MLOAD PUSH2 0x1737 SWAP4 PUSH1 0xD SWAP1 SWAP3 ADD SWAP3 SWAP1 SWAP2 ADD SWAP1 PUSH2 0x3A2C JUMP JUMPDEST POP PUSH2 0x1C0 DUP3 ADD MLOAD CALLER PUSH1 0x0 SWAP1 DUP2 MSTORE PUSH1 0xC PUSH1 0x20 SWAP1 DUP2 MSTORE PUSH1 0x40 DUP1 DUP4 KECCAK256 PUSH1 0x8 SLOAD DUP5 MSTORE DUP3 MSTORE SWAP1 SWAP2 KECCAK256 DUP3 MLOAD PUSH2 0x176F SWAP4 PUSH1 0xE SWAP1 SWAP3 ADD SWAP3 SWAP1 SWAP2 ADD SWAP1 PUSH2 0x3A2C JUMP JUMPDEST POP PUSH2 0x1E0 DUP3 ADD MLOAD CALLER PUSH1 0x0 SWAP1 DUP2 MSTORE PUSH1 0xC PUSH1 0x20 SWAP1 DUP2 MSTORE PUSH1 0x40 DUP1 DUP4 KECCAK256 PUSH1 0x8 SLOAD DUP5 MSTORE DUP3 MSTORE SWAP1 SWAP2 KECCAK256 DUP3 MLOAD PUSH2 0x17A7 SWAP4 PUSH1 0xF SWAP1 SWAP3 ADD SWAP3 SWAP1 SWAP2 ADD SWAP1 PUSH2 0x3A2C JUMP JUMPDEST POP PUSH1 0x7 DUP1 SLOAD PUSH1 0x1 DUP2 DUP2 ADD SWAP1 SWAP3 SSTORE PUSH32 0xA66CC928B5EDB82AF9BD49922954155AB7B0942694BEA4CE44661D9A8736C688 ADD DUP1 SLOAD PUSH1 0x1 PUSH1 0x1 PUSH1 0xA0 SHL SUB NOT AND CALLER SWAP1 DUP2 OR SWAP1 SWAP2 SSTORE PUSH1 0x0 DUP2 DUP2 MSTORE PUSH1 0xB PUSH1 0x20 SWAP1 DUP2 MSTORE PUSH1 0x40 DUP1 DUP4 KECCAK256 PUSH1 0x8 DUP1 SLOAD DUP6 MSTORE SWAP1 DUP4 MSTORE DUP2 DUP5 KECCAK256 DUP1 SLOAD PUSH1 0xFF NOT SWAP1 DUP2 AND DUP9 OR SWAP1 SWAP2 SSTORE DUP6 DUP6 MSTORE PUSH1 0xE SWAP1 SWAP4 MSTORE DUP2 DUP5 KECCAK256 DUP1 SLOAD SWAP1 SWAP4 AND SWAP1 SWAP6 OR SWAP1 SWAP2 SSTORE SWAP3 SLOAD SWAP3 MLOAD PUSH1 0xC8 SWAP4 SWAP2 PUSH32 0xB58D46E66658E855773AF8232237E606476D7F0AD98813C081B540E6F435EA3E SWAP2 LOG4 POP POP POP JUMP JUMPDEST PUSH1 0x0 PUSH1 0x1 PUSH1 0x1 PUSH1 0xA0 SHL SUB DUP3 AND PUSH2 0x18C3 JUMPI PUSH1 0x40 MLOAD PUSH3 0x461BCD PUSH1 0xE5 SHL DUP2 MSTORE PUSH1 0x20 PUSH1 0x4 DUP3 ADD MSTORE PUSH1 0x29 PUSH1 0x24 DUP3 ADD MSTORE PUSH32 0x4552433732313A2061646472657373207A65726F206973206E6F742061207661 PUSH1 0x44 DUP3 ADD MSTORE PUSH9 0x3634B21037BBB732B9 PUSH1 0xB9 SHL PUSH1 0x64 DUP3 ADD MSTORE PUSH1 0x84 ADD PUSH2 0x1059 JUMP JUMPDEST POP PUSH1 0x1 PUSH1 0x1 PUSH1 0xA0 SHL SUB AND PUSH1 0x0 SWAP1 DUP2 MSTORE PUSH1 0x3 PUSH1 0x20 MSTORE PUSH1 0x40 SWAP1 KECCAK256 SLOAD SWAP1 JUMP JUMPDEST PUSH1 0x60 PUSH1 0x1 DUP1 SLOAD PUSH2 0xD74 SWAP1 PUSH2 0x4953 JUMP JUMPDEST PUSH1 0x6 SLOAD PUSH1 0x1 PUSH1 0x1 PUSH1 0xA0 SHL SUB AND CALLER EQ PUSH2 0x1918 JUMPI PUSH1 0x40 MLOAD PUSH3 0x461BCD PUSH1 0xE5 SHL DUP2 MSTORE PUSH1 0x4 ADD PUSH2 0x1059 SWAP1 PUSH2 0x4A25 JUMP JUMPDEST DUP1 MLOAD PUSH1 0x40 MLOAD PUSH1 0x14 SWAP1 PUSH2 0x192B SWAP1 DUP4 SWAP1 PUSH2 0x498E JUMP JUMPDEST SWAP1 DUP2 MSTORE PUSH1 0x20 ADD PUSH1 0x40 MLOAD DUP1 SWAP2 SUB SWAP1 KECCAK256 PUSH1 0x0 ADD SWAP1 DUP1 MLOAD SWAP1 PUSH1 0x20 ADD SWAP1 PUSH2 0x194F SWAP3 SWAP2 SWAP1 PUSH2 0x3A2C JUMP JUMPDEST POP PUSH1 0x20 DUP2 ADD MLOAD DUP2 MLOAD PUSH1 0x40 MLOAD PUSH1 0x14 SWAP2 PUSH2 0x1966 SWAP2 PUSH2 0x498E JUMP JUMPDEST SWAP1 DUP2 MSTORE PUSH1 0x20 ADD PUSH1 0x40 MLOAD DUP1 SWAP2 SUB SWAP1 KECCAK256 PUSH1 0x1 ADD SWAP1 DUP1 MLOAD SWAP1 PUSH1 0x20 ADD SWAP1 PUSH2 0x198A SWAP3 SWAP2 SWAP1 PUSH2 0x3A2C JUMP JUMPDEST POP DUP1 PUSH1 0x40 ADD MLOAD PUSH1 0x14 DUP3 PUSH1 0x0 ADD MLOAD PUSH1 0x40 MLOAD PUSH2 0x19A4 SWAP2 SWAP1 PUSH2 0x498E JUMP JUMPDEST SWAP1 DUP2 MSTORE PUSH1 0x20 ADD PUSH1 0x40 MLOAD DUP1 SWAP2 SUB SWAP1 KECCAK256 PUSH1 0x2 ADD SWAP1 DUP1 MLOAD SWAP1 PUSH1 0x20 ADD SWAP1 PUSH2 0x19C8 SWAP3 SWAP2 SWAP1 PUSH2 0x3A2C JUMP JUMPDEST POP POP JUMP JUMPDEST PUSH2 0x1A47 PUSH1 0x40 MLOAD DUP1 PUSH2 0x1C0 ADD PUSH1 0x40 MSTORE DUP1 PUSH1 0x0 PUSH1 0x1 PUSH1 0x1 PUSH1 0xA0 SHL SUB AND DUP2 MSTORE PUSH1 0x20 ADD PUSH1 0x0 DUP2 MSTORE PUSH1 0x20 ADD PUSH1 0x60 DUP2 MSTORE PUSH1 0x20 ADD PUSH1 0x60 DUP2 MSTORE PUSH1 0x20 ADD PUSH1 0x60 DUP2 MSTORE PUSH1 0x20 ADD PUSH1 0x60 DUP2 MSTORE PUSH1 0x20 ADD PUSH1 0x0 DUP2 MSTORE PUSH1 0x20 ADD PUSH1 0x0 DUP2 MSTORE PUSH1 0x20 ADD PUSH1 0x0 DUP2 MSTORE PUSH1 0x20 ADD PUSH1 0x0 DUP2 MSTORE PUSH1 0x20 ADD PUSH1 0x60 DUP2 MSTORE PUSH1 0x20 ADD PUSH1 0x60 DUP2 MSTORE PUSH1 0x20 ADD PUSH1 0x60 DUP2 MSTORE PUSH1 0x20 ADD PUSH1 0x60 DUP2 MSTORE POP SWAP1 JUMP JUMPDEST PUSH1 0x1 PUSH1 0x1 PUSH1 0xA0 SHL SUB DUP4 AND PUSH1 0x0 SWAP1 DUP2 MSTORE PUSH1 0xD PUSH1 0x20 MSTORE PUSH1 0x40 SWAP1 DUP2 SWAP1 KECCAK256 SWAP1 MLOAD PUSH2 0x1A6E SWAP1 DUP5 SWAP1 PUSH2 0x498E JUMP JUMPDEST SWAP1 DUP2 MSTORE PUSH1 0x40 DUP1 MLOAD SWAP2 DUP3 SWAP1 SUB PUSH1 0x20 SWAP1 DUP2 ADD DUP4 KECCAK256 PUSH2 0x1C0 DUP5 ADD DUP4 MSTORE DUP1 SLOAD PUSH1 0x1 PUSH1 0x1 PUSH1 0xA0 SHL SUB AND DUP5 MSTORE PUSH1 0x1 DUP2 ADD SLOAD SWAP2 DUP5 ADD SWAP2 SWAP1 SWAP2 MSTORE PUSH1 0x2 DUP2 ADD DUP1 SLOAD SWAP2 SWAP3 DUP5 ADD SWAP2 PUSH2 0x1AB4 SWAP1 PUSH2 0x4953 JUMP JUMPDEST DUP1 PUSH1 0x1F ADD PUSH1 0x20 DUP1 SWAP2 DIV MUL PUSH1 0x20 ADD PUSH1 0x40 MLOAD SWAP1 DUP2 ADD PUSH1 0x40 MSTORE DUP1 SWAP3 SWAP2 SWAP1 DUP2 DUP2 MSTORE PUSH1 0x20 ADD DUP3 DUP1 SLOAD PUSH2 0x1AE0 SWAP1 PUSH2 0x4953 JUMP JUMPDEST DUP1 ISZERO PUSH2 0x1B2D JUMPI DUP1 PUSH1 0x1F LT PUSH2 0x1B02 JUMPI PUSH2 0x100 DUP1 DUP4 SLOAD DIV MUL DUP4 MSTORE SWAP2 PUSH1 0x20 ADD SWAP2 PUSH2 0x1B2D JUMP JUMPDEST DUP3 ADD SWAP2 SWAP1 PUSH1 0x0 MSTORE PUSH1 0x20 PUSH1 0x0 KECCAK256 SWAP1 JUMPDEST DUP2 SLOAD DUP2 MSTORE SWAP1 PUSH1 0x1 ADD SWAP1 PUSH1 0x20 ADD DUP1 DUP4 GT PUSH2 0x1B10 JUMPI DUP3 SWAP1 SUB PUSH1 0x1F AND DUP3 ADD SWAP2 JUMPDEST POP POP POP POP POP DUP2 MSTORE PUSH1 0x20 ADD PUSH1 0x3 DUP3 ADD DUP1 SLOAD PUSH2 0x1B46 SWAP1 PUSH2 0x4953 JUMP JUMPDEST DUP1 PUSH1 0x1F ADD PUSH1 0x20 DUP1 SWAP2 DIV MUL PUSH1 0x20 ADD PUSH1 0x40 MLOAD SWAP1 DUP2 ADD PUSH1 0x40 MSTORE DUP1 SWAP3 SWAP2 SWAP1 DUP2 DUP2 MSTORE PUSH1 0x20 ADD DUP3 DUP1 SLOAD PUSH2 0x1B72 SWAP1 PUSH2 0x4953 JUMP JUMPDEST DUP1 ISZERO PUSH2 0x1BBF JUMPI DUP1 PUSH1 0x1F LT PUSH2 0x1B94 JUMPI PUSH2 0x100 DUP1 DUP4 SLOAD DIV MUL DUP4 MSTORE SWAP2 PUSH1 0x20 ADD SWAP2 PUSH2 0x1BBF JUMP JUMPDEST DUP3 ADD SWAP2 SWAP1 PUSH1 0x0 MSTORE PUSH1 0x20 PUSH1 0x0 KECCAK256 SWAP1 JUMPDEST DUP2 SLOAD DUP2 MSTORE SWAP1 PUSH1 0x1 ADD SWAP1 PUSH1 0x20 ADD DUP1 DUP4 GT PUSH2 0x1BA2 JUMPI DUP3 SWAP1 SUB PUSH1 0x1F AND DUP3 ADD SWAP2 JUMPDEST POP POP POP POP POP DUP2 MSTORE PUSH1 0x20 ADD PUSH1 0x4 DUP3 ADD DUP1 SLOAD PUSH2 0x1BD8 SWAP1 PUSH2 0x4953 JUMP JUMPDEST DUP1 PUSH1 0x1F ADD PUSH1 0x20 DUP1 SWAP2 DIV MUL PUSH1 0x20 ADD PUSH1 0x40 MLOAD SWAP1 DUP2 ADD PUSH1 0x40 MSTORE DUP1 SWAP3 SWAP2 SWAP1 DUP2 DUP2 MSTORE PUSH1 0x20 ADD DUP3 DUP1 SLOAD PUSH2 0x1C04 SWAP1 PUSH2 0x4953 JUMP JUMPDEST DUP1 ISZERO PUSH2 0x1C51 JUMPI DUP1 PUSH1 0x1F LT PUSH2 0x1C26 JUMPI PUSH2 0x100 DUP1 DUP4 SLOAD DIV MUL DUP4 MSTORE SWAP2 PUSH1 0x20 ADD SWAP2 PUSH2 0x1C51 JUMP JUMPDEST DUP3 ADD SWAP2 SWAP1 PUSH1 0x0 MSTORE PUSH1 0x20 PUSH1 0x0 KECCAK256 SWAP1 JUMPDEST DUP2 SLOAD DUP2 MSTORE SWAP1 PUSH1 0x1 ADD SWAP1 PUSH1 0x20 ADD DUP1 DUP4 GT PUSH2 0x1C34 JUMPI DUP3 SWAP1 SUB PUSH1 0x1F AND DUP3 ADD SWAP2 JUMPDEST POP POP POP POP POP DUP2 MSTORE PUSH1 0x20 ADD PUSH1 0x5 DUP3 ADD DUP1 SLOAD PUSH2 0x1C6A SWAP1 PUSH2 0x4953 JUMP JUMPDEST DUP1 PUSH1 0x1F ADD PUSH1 0x20 DUP1 SWAP2 DIV MUL PUSH1 0x20 ADD PUSH1 0x40 MLOAD SWAP1 DUP2 ADD PUSH1 0x40 MSTORE DUP1 SWAP3 SWAP2 SWAP1 DUP2 DUP2 MSTORE PUSH1 0x20 ADD DUP3 DUP1 SLOAD PUSH2 0x1C96 SWAP1 PUSH2 0x4953 JUMP JUMPDEST DUP1 ISZERO PUSH2 0x1CE3 JUMPI DUP1 PUSH1 0x1F LT PUSH2 0x1CB8 JUMPI PUSH2 0x100 DUP1 DUP4 SLOAD DIV MUL DUP4 MSTORE SWAP2 PUSH1 0x20 ADD SWAP2 PUSH2 0x1CE3 JUMP JUMPDEST DUP3 ADD SWAP2 SWAP1 PUSH1 0x0 MSTORE PUSH1 0x20 PUSH1 0x0 KECCAK256 SWAP1 JUMPDEST DUP2 SLOAD DUP2 MSTORE SWAP1 PUSH1 0x1 ADD SWAP1 PUSH1 0x20 ADD DUP1 DUP4 GT PUSH2 0x1CC6 JUMPI DUP3 SWAP1 SUB PUSH1 0x1F AND DUP3 ADD SWAP2 JUMPDEST POP POP POP POP POP DUP2 MSTORE PUSH1 0x20 ADD PUSH1 0x6 DUP3 ADD SLOAD DUP2 MSTORE PUSH1 0x20 ADD PUSH1 0x7 DUP3 ADD SLOAD DUP2 MSTORE PUSH1 0x20 ADD PUSH1 0x8 DUP3 ADD SLOAD DUP2 MSTORE PUSH1 0x20 ADD PUSH1 0x9 DUP3 ADD SLOAD DUP2 MSTORE PUSH1 0x20 ADD PUSH1 0xA DUP3 ADD DUP1 SLOAD PUSH2 0x1D24 SWAP1 PUSH2 0x4953 JUMP JUMPDEST DUP1 PUSH1 0x1F ADD PUSH1 0x20 DUP1 SWAP2 DIV MUL PUSH1 0x20 ADD PUSH1 0x40 MLOAD SWAP1 DUP2 ADD PUSH1 0x40 MSTORE DUP1 SWAP3 SWAP2 SWAP1 DUP2 DUP2 MSTORE PUSH1 0x20 ADD DUP3 DUP1 SLOAD PUSH2 0x1D50 SWAP1 PUSH2 0x4953 JUMP JUMPDEST DUP1 ISZERO PUSH2 0x1D9D JUMPI DUP1 PUSH1 0x1F LT PUSH2 0x1D72 JUMPI PUSH2 0x100 DUP1 DUP4 SLOAD DIV MUL DUP4 MSTORE SWAP2 PUSH1 0x20 ADD SWAP2 PUSH2 0x1D9D JUMP JUMPDEST DUP3 ADD SWAP2 SWAP1 PUSH1 0x0 MSTORE PUSH1 0x20 PUSH1 0x0 KECCAK256 SWAP1 JUMPDEST DUP2 SLOAD DUP2 MSTORE SWAP1 PUSH1 0x1 ADD SWAP1 PUSH1 0x20 ADD DUP1 DUP4 GT PUSH2 0x1D80 JUMPI DUP3 SWAP1 SUB PUSH1 0x1F AND DUP3 ADD SWAP2 JUMPDEST POP POP POP POP POP DUP2 MSTORE PUSH1 0x20 ADD PUSH1 0xB DUP3 ADD DUP1 SLOAD PUSH2 0x1DB6 SWAP1 PUSH2 0x4953 JUMP JUMPDEST DUP1 PUSH1 0x1F ADD PUSH1 0x20 DUP1 SWAP2 DIV MUL PUSH1 0x20 ADD PUSH1 0x40 MLOAD SWAP1 DUP2 ADD PUSH1 0x40 MSTORE DUP1 SWAP3 SWAP2 SWAP1 DUP2 DUP2 MSTORE PUSH1 0x20 ADD DUP3 DUP1 SLOAD PUSH2 0x1DE2 SWAP1 PUSH2 0x4953 JUMP JUMPDEST DUP1 ISZERO PUSH2 0x1E2F JUMPI DUP1 PUSH1 0x1F LT PUSH2 0x1E04 JUMPI PUSH2 0x100 DUP1 DUP4 SLOAD DIV MUL DUP4 MSTORE SWAP2 PUSH1 0x20 ADD SWAP2 PUSH2 0x1E2F JUMP JUMPDEST DUP3 ADD SWAP2 SWAP1 PUSH1 0x0 MSTORE PUSH1 0x20 PUSH1 0x0 KECCAK256 SWAP1 JUMPDEST DUP2 SLOAD DUP2 MSTORE SWAP1 PUSH1 0x1 ADD SWAP1 PUSH1 0x20 ADD DUP1 DUP4 GT PUSH2 0x1E12 JUMPI DUP3 SWAP1 SUB PUSH1 0x1F AND DUP3 ADD SWAP2 JUMPDEST POP POP POP POP POP DUP2 MSTORE PUSH1 0x20 ADD PUSH1 0xC DUP3 ADD DUP1 SLOAD PUSH2 0x1E48 SWAP1 PUSH2 0x4953 JUMP JUMPDEST DUP1 PUSH1 0x1F ADD PUSH1 0x20 DUP1 SWAP2 DIV MUL PUSH1 0x20 ADD PUSH1 0x40 MLOAD SWAP1 DUP2 ADD PUSH1 0x40 MSTORE DUP1 SWAP3 SWAP2 SWAP1 DUP2 DUP2 MSTORE PUSH1 0x20 ADD DUP3 DUP1 SLOAD PUSH2 0x1E74 SWAP1 PUSH2 0x4953 JUMP JUMPDEST DUP1 ISZERO PUSH2 0x1EC1 JUMPI DUP1 PUSH1 0x1F LT PUSH2 0x1E96 JUMPI PUSH2 0x100 DUP1 DUP4 SLOAD DIV MUL DUP4 MSTORE SWAP2 PUSH1 0x20 ADD SWAP2 PUSH2 0x1EC1 JUMP JUMPDEST DUP3 ADD SWAP2 SWAP1 PUSH1 0x0 MSTORE PUSH1 0x20 PUSH1 0x0 KECCAK256 SWAP1 JUMPDEST DUP2 SLOAD DUP2 MSTORE SWAP1 PUSH1 0x1 ADD SWAP1 PUSH1 0x20 ADD DUP1 DUP4 GT PUSH2 0x1EA4 JUMPI DUP3 SWAP1 SUB PUSH1 0x1F AND DUP3 ADD SWAP2 JUMPDEST POP POP POP POP POP DUP2 MSTORE PUSH1 0x20 ADD PUSH1 0xD DUP3 ADD DUP1 SLOAD PUSH2 0xCDB SWAP1 PUSH2 0x4953 JUMP JUMPDEST PUSH2 0x19C8 CALLER DUP4 DUP4 PUSH2 0x33C4 JUMP JUMPDEST PUSH1 0x60 PUSH1 0xA DUP1 SLOAD DUP1 PUSH1 0x20 MUL PUSH1 0x20 ADD PUSH1 0x40 MLOAD SWAP1 DUP2 ADD PUSH1 0x40 MSTORE DUP1 SWAP3 SWAP2 SWAP1 DUP2 DUP2 MSTORE PUSH1 0x20 ADD DUP3 DUP1 SLOAD DUP1 ISZERO PUSH2 0xDED JUMPI PUSH1 0x20 MUL DUP3 ADD SWAP2 SWAP1 PUSH1 0x0 MSTORE PUSH1 0x20 PUSH1 0x0 KECCAK256 SWAP1 JUMPDEST DUP2 SLOAD DUP2 MSTORE PUSH1 0x20 ADD SWAP1 PUSH1 0x1 ADD SWAP1 DUP1 DUP4 GT PUSH2 0x1F1F JUMPI POP POP POP POP POP SWAP1 POP SWAP1 JUMP JUMPDEST PUSH1 0x6 SLOAD PUSH1 0x1 PUSH1 0x1 PUSH1 0xA0 SHL SUB AND CALLER EQ PUSH2 0x1F66 JUMPI PUSH1 0x40 MLOAD PUSH3 0x461BCD PUSH1 0xE5 SHL DUP2 MSTORE PUSH1 0x4 ADD PUSH2 0x1059 SWAP1 PUSH2 0x4A25 JUMP JUMPDEST PUSH1 0x1 PUSH1 0x1 PUSH1 0xA0 SHL SUB DUP3 AND PUSH1 0x0 SWAP1 DUP2 MSTORE PUSH1 0xF PUSH1 0x20 MSTORE PUSH1 0x40 SWAP1 DUP2 SWAP1 KECCAK256 SWAP1 MLOAD PUSH2 0x1F8D SWAP1 DUP4 SWAP1 PUSH2 0x498E JUMP JUMPDEST SWAP1 DUP2 MSTORE PUSH1 0x40 MLOAD SWAP1 DUP2 SWAP1 SUB PUSH1 0x20 ADD SWAP1 KECCAK256 SLOAD PUSH1 0xFF AND ISZERO PUSH2 0x2006 JUMPI PUSH1 0x9 SLOAD PUSH1 0x1 SWAP1 PUSH2 0x1FB6 SWAP1 DUP3 SWAP1 PUSH2 0x4A0D JUMP JUMPDEST PUSH1 0x9 DUP2 SWAP1 SSTORE PUSH2 0x1FC6 SWAP1 DUP5 SWAP1 PUSH2 0x3493 JUMP JUMPDEST PUSH1 0x9 SLOAD PUSH1 0x40 MLOAD PUSH1 0x1 SWAP2 SWAP1 PUSH1 0x1 PUSH1 0x1 PUSH1 0xA0 SHL SUB DUP7 AND SWAP1 PUSH32 0x191778631BC95BFF84DC64F678B20828058084BB00FDDE5B9A1E13D46458400C SWAP1 PUSH1 0x0 SWAP1 LOG4 POP POP POP JUMP JUMPDEST PUSH1 0x40 MLOAD PUSH4 0xD8F814F PUSH1 0xE4 SHL DUP2 MSTORE PUSH1 0x4 ADD PUSH1 0x40 MLOAD DUP1 SWAP2 SUB SWAP1 REVERT JUMPDEST PUSH1 0x0 PUSH2 0x202A DUP4 PUSH2 0x13B6 JUMP JUMPDEST PUSH1 0x40 MLOAD PUSH1 0x20 ADD PUSH2 0x203A SWAP2 SWAP1 PUSH2 0x4A6F JUMP JUMPDEST PUSH1 0x40 MLOAD PUSH1 0x20 DUP2 DUP4 SUB SUB DUP2 MSTORE SWAP1 PUSH1 0x40 MSTORE DUP1 MLOAD SWAP1 PUSH1 0x20 ADD KECCAK256 SWAP1 POP PUSH1 0x0 CALLER PUSH1 0x40 MLOAD PUSH1 0x20 ADD PUSH2 0x2065 SWAP2 SWAP1 PUSH2 0x4A6F JUMP JUMPDEST PUSH1 0x40 MLOAD PUSH1 0x20 DUP2 DUP4 SUB SUB DUP2 MSTORE SWAP1 PUSH1 0x40 MSTORE DUP1 MLOAD SWAP1 PUSH1 0x20 ADD KECCAK256 SWAP1 POP DUP1 DUP3 EQ ISZERO PUSH2 0x258C JUMPI CALLER PUSH1 0x0 SWAP1 DUP2 MSTORE PUSH1 0xD PUSH1 0x20 MSTORE PUSH1 0x40 SWAP1 DUP2 SWAP1 KECCAK256 SWAP1 MLOAD PUSH2 0x20A3 SWAP1 DUP8 SWAP1 PUSH2 0x498E JUMP JUMPDEST SWAP1 DUP2 MSTORE PUSH1 0x40 DUP1 MLOAD SWAP2 DUP3 SWAP1 SUB PUSH1 0x20 SWAP1 DUP2 ADD DUP4 KECCAK256 SLOAD PUSH1 0x1 PUSH1 0x1 PUSH1 0xA0 SHL SUB DUP11 DUP2 AND PUSH1 0x0 SWAP1 DUP2 MSTORE PUSH1 0x11 SWAP1 SWAP4 MSTORE SWAP3 SWAP1 SWAP2 KECCAK256 SWAP2 AND SWAP2 PUSH2 0x20DD SWAP1 DUP9 SWAP1 PUSH2 0x498E JUMP JUMPDEST SWAP1 DUP2 MSTORE PUSH1 0x40 DUP1 MLOAD PUSH1 0x20 SWAP3 DUP2 SWAP1 SUB DUP4 ADD DUP2 KECCAK256 PUSH1 0x2 ADD DUP1 SLOAD PUSH1 0x1 PUSH1 0x1 PUSH1 0xA0 SHL SUB NOT AND PUSH1 0x1 PUSH1 0x1 PUSH1 0xA0 SHL SUB SWAP6 DUP7 AND OR SWAP1 SSTORE SWAP3 DUP10 AND PUSH1 0x0 SWAP1 DUP2 MSTORE PUSH1 0x11 SWAP1 SWAP3 MSTORE SWAP1 KECCAK256 DUP5 SWAP2 PUSH2 0x2127 SWAP1 DUP9 SWAP1 PUSH2 0x498E JUMP JUMPDEST SWAP1 DUP2 MSTORE PUSH1 0x20 ADD PUSH1 0x40 MLOAD DUP1 SWAP2 SUB SWAP1 KECCAK256 PUSH1 0x0 ADD SWAP1 DUP1 MLOAD SWAP1 PUSH1 0x20 ADD SWAP1 PUSH2 0x214B SWAP3 SWAP2 SWAP1 PUSH2 0x3A2C JUMP JUMPDEST POP PUSH1 0x1 PUSH1 0x1 PUSH1 0xA0 SHL SUB DUP7 AND PUSH1 0x0 SWAP1 DUP2 MSTORE PUSH1 0x11 PUSH1 0x20 MSTORE PUSH1 0x40 SWAP1 DUP2 SWAP1 KECCAK256 SWAP1 MLOAD DUP7 SWAP2 SWAP1 PUSH2 0x2176 SWAP1 DUP4 SWAP1 PUSH2 0x498E JUMP JUMPDEST SWAP1 DUP2 MSTORE PUSH1 0x20 ADD PUSH1 0x40 MLOAD DUP1 SWAP2 SUB SWAP1 KECCAK256 PUSH1 0x1 ADD SWAP1 DUP1 MLOAD SWAP1 PUSH1 0x20 ADD SWAP1 PUSH2 0x219A SWAP3 SWAP2 SWAP1 PUSH2 0x3A2C JUMP JUMPDEST POP CALLER PUSH1 0x0 SWAP1 DUP2 MSTORE PUSH1 0xD PUSH1 0x20 MSTORE PUSH1 0x40 SWAP1 DUP2 SWAP1 KECCAK256 SWAP1 MLOAD PUSH2 0x21B9 SWAP1 DUP8 SWAP1 PUSH2 0x498E JUMP JUMPDEST SWAP1 DUP2 MSTORE PUSH1 0x20 ADD PUSH1 0x40 MLOAD DUP1 SWAP2 SUB SWAP1 KECCAK256 PUSH1 0xA ADD PUSH1 0x11 PUSH1 0x0 DUP9 PUSH1 0x1 PUSH1 0x1 PUSH1 0xA0 SHL SUB AND PUSH1 0x1 PUSH1 0x1 PUSH1 0xA0 SHL SUB AND DUP2 MSTORE PUSH1 0x20 ADD SWAP1 DUP2 MSTORE PUSH1 0x20 ADD PUSH1 0x0 KECCAK256 DUP7 PUSH1 0x40 MLOAD PUSH2 0x21FD SWAP2 SWAP1 PUSH2 0x498E JUMP JUMPDEST SWAP1 DUP2 MSTORE PUSH1 0x20 ADD PUSH1 0x40 MLOAD DUP1 SWAP2 SUB SWAP1 KECCAK256 PUSH1 0x3 ADD SWAP1 DUP1 SLOAD PUSH2 0x221A SWAP1 PUSH2 0x4953 JUMP JUMPDEST PUSH2 0x2225 SWAP3 SWAP2 SWAP1 PUSH2 0x3AB0 JUMP JUMPDEST POP CALLER PUSH1 0x0 SWAP1 DUP2 MSTORE PUSH1 0xD PUSH1 0x20 MSTORE PUSH1 0x40 SWAP1 DUP2 SWAP1 KECCAK256 SWAP1 MLOAD PUSH2 0x2244 SWAP1 DUP8 SWAP1 PUSH2 0x498E JUMP JUMPDEST SWAP1 DUP2 MSTORE PUSH1 0x20 ADD PUSH1 0x40 MLOAD DUP1 SWAP2 SUB SWAP1 KECCAK256 PUSH1 0xB ADD PUSH1 0x11 PUSH1 0x0 DUP9 PUSH1 0x1 PUSH1 0x1 PUSH1 0xA0 SHL SUB AND PUSH1 0x1 PUSH1 0x1 PUSH1 0xA0 SHL SUB AND DUP2 MSTORE PUSH1 0x20 ADD SWAP1 DUP2 MSTORE PUSH1 0x20 ADD PUSH1 0x0 KECCAK256 DUP7 PUSH1 0x40 MLOAD PUSH2 0x2288 SWAP2 SWAP1 PUSH2 0x498E JUMP JUMPDEST SWAP1 DUP2 MSTORE PUSH1 0x20 ADD PUSH1 0x40 MLOAD DUP1 SWAP2 SUB SWAP1 KECCAK256 PUSH1 0x4 ADD SWAP1 DUP1 SLOAD PUSH2 0x22A5 SWAP1 PUSH2 0x4953 JUMP JUMPDEST PUSH2 0x22B0 SWAP3 SWAP2 SWAP1 PUSH2 0x3AB0 JUMP JUMPDEST POP CALLER PUSH1 0x0 SWAP1 DUP2 MSTORE PUSH1 0xD PUSH1 0x20 MSTORE PUSH1 0x40 SWAP1 DUP2 SWAP1 KECCAK256 SWAP1 MLOAD PUSH2 0x22CF SWAP1 DUP8 SWAP1 PUSH2 0x498E JUMP JUMPDEST SWAP1 DUP2 MSTORE PUSH1 0x20 ADD PUSH1 0x40 MLOAD DUP1 SWAP2 SUB SWAP1 KECCAK256 PUSH1 0xC ADD PUSH1 0x11 PUSH1 0x0 DUP9 PUSH1 0x1 PUSH1 0x1 PUSH1 0xA0 SHL SUB AND PUSH1 0x1 PUSH1 0x1 PUSH1 0xA0 SHL SUB AND DUP2 MSTORE PUSH1 0x20 ADD SWAP1 DUP2 MSTORE PUSH1 0x20 ADD PUSH1 0x0 KECCAK256 DUP7 PUSH1 0x40 MLOAD PUSH2 0x2313 SWAP2 SWAP1 PUSH2 0x498E JUMP JUMPDEST SWAP1 DUP2 MSTORE PUSH1 0x20 ADD PUSH1 0x40 MLOAD DUP1 SWAP2 SUB SWAP1 KECCAK256 PUSH1 0x5 ADD SWAP1 DUP1 SLOAD PUSH2 0x2330 SWAP1 PUSH2 0x4953 JUMP JUMPDEST PUSH2 0x233B SWAP3 SWAP2 SWAP1 PUSH2 0x3AB0 JUMP JUMPDEST POP CALLER PUSH1 0x0 SWAP1 DUP2 MSTORE PUSH1 0xD PUSH1 0x20 MSTORE PUSH1 0x40 SWAP1 DUP2 SWAP1 KECCAK256 SWAP1 MLOAD PUSH2 0x235A SWAP1 DUP8 SWAP1 PUSH2 0x498E JUMP JUMPDEST SWAP1 DUP2 MSTORE PUSH1 0x20 ADD PUSH1 0x40 MLOAD DUP1 SWAP2 SUB SWAP1 KECCAK256 PUSH1 0xD ADD PUSH1 0x11 PUSH1 0x0 DUP9 PUSH1 0x1 PUSH1 0x1 PUSH1 0xA0 SHL SUB AND PUSH1 0x1 PUSH1 0x1 PUSH1 0xA0 SHL SUB AND DUP2 MSTORE PUSH1 0x20 ADD SWAP1 DUP2 MSTORE PUSH1 0x20 ADD PUSH1 0x0 KECCAK256 DUP7 PUSH1 0x40 MLOAD PUSH2 0x239E SWAP2 SWAP1 PUSH2 0x498E JUMP JUMPDEST SWAP1 DUP2 MSTORE PUSH1 0x20 ADD PUSH1 0x40 MLOAD DUP1 SWAP2 SUB SWAP1 KECCAK256 PUSH1 0x6 ADD SWAP1 DUP1 SLOAD PUSH2 0x23BB SWAP1 PUSH2 0x4953 JUMP JUMPDEST PUSH2 0x23C6 SWAP3 SWAP2 SWAP1 PUSH2 0x3AB0 JUMP JUMPDEST POP PUSH1 0x1 PUSH1 0x1 PUSH1 0xA0 SHL SUB DUP7 AND PUSH1 0x0 SWAP1 DUP2 MSTORE PUSH1 0x11 PUSH1 0x20 MSTORE PUSH1 0x40 SWAP1 DUP2 SWAP1 KECCAK256 SWAP1 MLOAD TIMESTAMP SWAP2 SWAP1 PUSH2 0x23F1 SWAP1 DUP9 SWAP1 PUSH2 0x498E JUMP JUMPDEST SWAP1 DUP2 MSTORE PUSH1 0x20 ADD PUSH1 0x40 MLOAD DUP1 SWAP2 SUB SWAP1 KECCAK256 PUSH1 0x7 ADD DUP2 SWAP1 SSTORE POP DUP5 PUSH1 0x10 DUP7 PUSH1 0x40 MLOAD PUSH2 0x2417 SWAP2 SWAP1 PUSH2 0x498E JUMP JUMPDEST SWAP1 DUP2 MSTORE PUSH1 0x20 ADD PUSH1 0x40 MLOAD DUP1 SWAP2 SUB SWAP1 KECCAK256 PUSH1 0x0 ADD SWAP1 DUP1 MLOAD SWAP1 PUSH1 0x20 ADD SWAP1 PUSH2 0x243B SWAP3 SWAP2 SWAP1 PUSH2 0x3A2C JUMP JUMPDEST POP DUP3 PUSH1 0x10 DUP7 PUSH1 0x40 MLOAD PUSH2 0x244D SWAP2 SWAP1 PUSH2 0x498E JUMP JUMPDEST SWAP1 DUP2 MSTORE PUSH1 0x20 ADD PUSH1 0x40 MLOAD DUP1 SWAP2 SUB SWAP1 KECCAK256 PUSH1 0x1 ADD SWAP1 DUP1 MLOAD SWAP1 PUSH1 0x20 ADD SWAP1 PUSH2 0x2471 SWAP3 SWAP2 SWAP1 PUSH2 0x3A2C JUMP JUMPDEST POP DUP6 PUSH1 0x10 DUP7 PUSH1 0x40 MLOAD PUSH2 0x2483 SWAP2 SWAP1 PUSH2 0x498E JUMP JUMPDEST SWAP1 DUP2 MSTORE PUSH1 0x20 ADD PUSH1 0x40 MLOAD DUP1 SWAP2 SUB SWAP1 KECCAK256 PUSH1 0x2 ADD PUSH1 0x0 PUSH2 0x100 EXP DUP2 SLOAD DUP2 PUSH1 0x1 PUSH1 0x1 PUSH1 0xA0 SHL SUB MUL NOT AND SWAP1 DUP4 PUSH1 0x1 PUSH1 0x1 PUSH1 0xA0 SHL SUB AND MUL OR SWAP1 SSTORE POP PUSH1 0x1 PUSH1 0x13 DUP7 PUSH1 0x40 MLOAD PUSH2 0x24CA SWAP2 SWAP1 PUSH2 0x498E JUMP JUMPDEST SWAP1 DUP2 MSTORE PUSH1 0x40 DUP1 MLOAD PUSH1 0x20 SWAP3 DUP2 SWAP1 SUB DUP4 ADD DUP2 KECCAK256 PUSH1 0x1 PUSH1 0x1 PUSH1 0xA0 SHL SUB DUP12 AND PUSH1 0x0 SWAP1 DUP2 MSTORE SWAP4 MSTORE SWAP1 DUP3 KECCAK256 DUP1 SLOAD PUSH1 0xFF NOT AND SWAP4 ISZERO ISZERO SWAP4 SWAP1 SWAP4 OR SWAP1 SWAP3 SSTORE SWAP1 PUSH1 0x13 SWAP1 PUSH2 0x250E SWAP1 DUP9 SWAP1 PUSH2 0x498E JUMP JUMPDEST SWAP1 DUP2 MSTORE PUSH1 0x40 DUP1 MLOAD PUSH1 0x20 SWAP3 DUP2 SWAP1 SUB DUP4 ADD DUP2 KECCAK256 CALLER PUSH1 0x0 SWAP1 DUP2 MSTORE SWAP1 DUP5 MSTORE DUP3 DUP2 KECCAK256 DUP1 SLOAD PUSH1 0xFF NOT AND SWAP6 ISZERO ISZERO SWAP6 SWAP1 SWAP6 OR SWAP1 SWAP5 SSTORE PUSH1 0x1 PUSH1 0x1 PUSH1 0xA0 SHL SUB DUP11 AND DUP5 MSTORE PUSH1 0xF SWAP1 SWAP3 MSTORE SWAP1 SWAP2 KECCAK256 PUSH1 0x1 SWAP2 PUSH2 0x255D SWAP1 DUP9 SWAP1 PUSH2 0x498E JUMP JUMPDEST SWAP1 DUP2 MSTORE PUSH1 0x40 MLOAD SWAP1 DUP2 SWAP1 SUB PUSH1 0x20 ADD SWAP1 KECCAK256 DUP1 SLOAD SWAP2 ISZERO ISZERO PUSH1 0xFF NOT SWAP1 SWAP3 AND SWAP2 SWAP1 SWAP2 OR SWAP1 SSTORE PUSH2 0x2587 DUP7 DUP6 PUSH2 0x34AD JUMP JUMPDEST PUSH2 0x25EA JUMP JUMPDEST PUSH1 0x40 MLOAD PUSH3 0x461BCD PUSH1 0xE5 SHL DUP2 MSTORE PUSH1 0x20 PUSH1 0x4 DUP3 ADD MSTORE PUSH1 0x2D PUSH1 0x24 DUP3 ADD MSTORE PUSH32 0x6F776E6572206164647265737320646F65736E74206D61746368207769746820 PUSH1 0x44 DUP3 ADD MSTORE PUSH13 0x6E6674206F776E65727368697 PUSH1 0x9C SHL PUSH1 0x64 DUP3 ADD MSTORE PUSH1 0x84 ADD PUSH2 0x1059 JUMP JUMPDEST POP POP POP POP POP POP JUMP JUMPDEST PUSH2 0x25FC CALLER DUP4 PUSH2 0x31D4 JUMP JUMPDEST PUSH2 0x2618 JUMPI PUSH1 0x40 MLOAD PUSH3 0x461BCD PUSH1 0xE5 SHL DUP2 MSTORE PUSH1 0x4 ADD PUSH2 0x1059 SWAP1 PUSH2 0x49AA JUMP JUMPDEST PUSH2 0x2624 DUP5 DUP5 DUP5 DUP5 PUSH2 0x3523 JUMP JUMPDEST POP POP POP POP JUMP JUMPDEST PUSH2 0x267B PUSH1 0x40 MLOAD DUP1 PUSH2 0x100 ADD PUSH1 0x40 MSTORE DUP1 PUSH1 0x60 DUP2 MSTORE PUSH1 0x20 ADD PUSH1 0x60 DUP2 MSTORE PUSH1 0x20 ADD PUSH1 0x0 PUSH1 0x1 PUSH1 0x1 PUSH1 0xA0 SHL SUB AND DUP2 MSTORE PUSH1 0x20 ADD PUSH1 0x60 DUP2 MSTORE PUSH1 0x20 ADD PUSH1 0x60 DUP2 MSTORE PUSH1 0x20 ADD PUSH1 0x60 DUP2 MSTORE PUSH1 0x20 ADD PUSH1 0x60 DUP2 MSTORE PUSH1 0x20 ADD PUSH1 0x0 DUP2 MSTORE POP SWAP1 JUMP JUMPDEST PUSH1 0x1 PUSH1 0x1 PUSH1 0xA0 SHL SUB DUP4 AND PUSH1 0x0 SWAP1 DUP2 MSTORE PUSH1 0x11 PUSH1 0x20 MSTORE PUSH1 0x40 SWAP1 DUP2 SWAP1 KECCAK256 SWAP1 MLOAD PUSH2 0x26A2 SWAP1 DUP5 SWAP1 PUSH2 0x498E JUMP JUMPDEST SWAP1 DUP2 MSTORE PUSH1 0x20 ADD PUSH1 0x40 MLOAD DUP1 SWAP2 SUB SWAP1 KECCAK256 PUSH1 0x40 MLOAD DUP1 PUSH2 0x100 ADD PUSH1 0x40 MSTORE SWAP1 DUP2 PUSH1 0x0 DUP3 ADD DUP1 SLOAD PUSH2 0x26CC SWAP1 PUSH2 0x4953 JUMP JUMPDEST DUP1 PUSH1 0x1F ADD PUSH1 0x20 DUP1 SWAP2 DIV MUL PUSH1 0x20 ADD PUSH1 0x40 MLOAD SWAP1 DUP2 ADD PUSH1 0x40 MSTORE DUP1 SWAP3 SWAP2 SWAP1 DUP2 DUP2 MSTORE PUSH1 0x20 ADD DUP3 DUP1 SLOAD PUSH2 0x26F8 SWAP1 PUSH2 0x4953 JUMP JUMPDEST DUP1 ISZERO PUSH2 0x2745 JUMPI DUP1 PUSH1 0x1F LT PUSH2 0x271A JUMPI PUSH2 0x100 DUP1 DUP4 SLOAD DIV MUL DUP4 MSTORE SWAP2 PUSH1 0x20 ADD SWAP2 PUSH2 0x2745 JUMP JUMPDEST DUP3 ADD SWAP2 SWAP1 PUSH1 0x0 MSTORE PUSH1 0x20 PUSH1 0x0 KECCAK256 SWAP1 JUMPDEST DUP2 SLOAD DUP2 MSTORE SWAP1 PUSH1 0x1 ADD SWAP1 PUSH1 0x20 ADD DUP1 DUP4 GT PUSH2 0x2728 JUMPI DUP3 SWAP1 SUB PUSH1 0x1F AND DUP3 ADD SWAP2 JUMPDEST POP POP POP POP POP DUP2 MSTORE PUSH1 0x20 ADD PUSH1 0x1 DUP3 ADD DUP1 SLOAD PUSH2 0x275E SWAP1 PUSH2 0x4953 JUMP JUMPDEST DUP1 PUSH1 0x1F ADD PUSH1 0x20 DUP1 SWAP2 DIV MUL PUSH1 0x20 ADD PUSH1 0x40 MLOAD SWAP1 DUP2 ADD PUSH1 0x40 MSTORE DUP1 SWAP3 SWAP2 SWAP1 DUP2 DUP2 MSTORE PUSH1 0x20 ADD DUP3 DUP1 SLOAD PUSH2 0x278A SWAP1 PUSH2 0x4953 JUMP JUMPDEST DUP1 ISZERO PUSH2 0x27D7 JUMPI DUP1 PUSH1 0x1F LT PUSH2 0x27AC JUMPI PUSH2 0x100 DUP1 DUP4 SLOAD DIV MUL DUP4 MSTORE SWAP2 PUSH1 0x20 ADD SWAP2 PUSH2 0x27D7 JUMP JUMPDEST DUP3 ADD SWAP2 SWAP1 PUSH1 0x0 MSTORE PUSH1 0x20 PUSH1 0x0 KECCAK256 SWAP1 JUMPDEST DUP2 SLOAD DUP2 MSTORE SWAP1 PUSH1 0x1 ADD SWAP1 PUSH1 0x20 ADD DUP1 DUP4 GT PUSH2 0x27BA JUMPI DUP3 SWAP1 SUB PUSH1 0x1F AND DUP3 ADD SWAP2 JUMPDEST POP POP POP SWAP2 DUP4 MSTORE POP POP PUSH1 0x2 DUP3 ADD SLOAD PUSH1 0x1 PUSH1 0x1 PUSH1 0xA0 SHL SUB AND PUSH1 0x20 DUP3 ADD MSTORE PUSH1 0x3 DUP3 ADD DUP1 SLOAD PUSH1 0x40 SWAP1 SWAP3 ADD SWAP2 PUSH2 0x2807 SWAP1 PUSH2 0x4953 JUMP JUMPDEST DUP1 PUSH1 0x1F ADD PUSH1 0x20 DUP1 SWAP2 DIV MUL PUSH1 0x20 ADD PUSH1 0x40 MLOAD SWAP1 DUP2 ADD PUSH1 0x40 MSTORE DUP1 SWAP3 SWAP2 SWAP1 DUP2 DUP2 MSTORE PUSH1 0x20 ADD DUP3 DUP1 SLOAD PUSH2 0x2833 SWAP1 PUSH2 0x4953 JUMP JUMPDEST DUP1 ISZERO PUSH2 0x2880 JUMPI DUP1 PUSH1 0x1F LT PUSH2 0x2855 JUMPI PUSH2 0x100 DUP1 DUP4 SLOAD DIV MUL DUP4 MSTORE SWAP2 PUSH1 0x20 ADD SWAP2 PUSH2 0x2880 JUMP JUMPDEST DUP3 ADD SWAP2 SWAP1 PUSH1 0x0 MSTORE PUSH1 0x20 PUSH1 0x0 KECCAK256 SWAP1 JUMPDEST DUP2 SLOAD DUP2 MSTORE SWAP1 PUSH1 0x1 ADD SWAP1 PUSH1 0x20 ADD DUP1 DUP4 GT PUSH2 0x2863 JUMPI DUP3 SWAP1 SUB PUSH1 0x1F AND DUP3 ADD SWAP2 JUMPDEST POP POP POP POP POP DUP2 MSTORE PUSH1 0x20 ADD PUSH1 0x4 DUP3 ADD DUP1 SLOAD PUSH2 0x2899 SWAP1 PUSH2 0x4953 JUMP JUMPDEST DUP1 PUSH1 0x1F ADD PUSH1 0x20 DUP1 SWAP2 DIV MUL PUSH1 0x20 ADD PUSH1 0x40 MLOAD SWAP1 DUP2 ADD PUSH1 0x40 MSTORE DUP1 SWAP3 SWAP2 SWAP1 DUP2 DUP2 MSTORE PUSH1 0x20 ADD DUP3 DUP1 SLOAD PUSH2 0x28C5 SWAP1 PUSH2 0x4953 JUMP JUMPDEST DUP1 ISZERO PUSH2 0x2912 JUMPI DUP1 PUSH1 0x1F LT PUSH2 0x28E7 JUMPI PUSH2 0x100 DUP1 DUP4 SLOAD DIV MUL DUP4 MSTORE SWAP2 PUSH1 0x20 ADD SWAP2 PUSH2 0x2912 JUMP JUMPDEST DUP3 ADD SWAP2 SWAP1 PUSH1 0x0 MSTORE PUSH1 0x20 PUSH1 0x0 KECCAK256 SWAP1 JUMPDEST DUP2 SLOAD DUP2 MSTORE SWAP1 PUSH1 0x1 ADD SWAP1 PUSH1 0x20 ADD DUP1 DUP4 GT PUSH2 0x28F5 JUMPI DUP3 SWAP1 SUB PUSH1 0x1F AND DUP3 ADD SWAP2 JUMPDEST POP POP POP POP POP DUP2 MSTORE PUSH1 0x20 ADD PUSH1 0x5 DUP3 ADD DUP1 SLOAD PUSH2 0x292B SWAP1 PUSH2 0x4953 JUMP JUMPDEST DUP1 PUSH1 0x1F ADD PUSH1 0x20 DUP1 SWAP2 DIV MUL PUSH1 0x20 ADD PUSH1 0x40 MLOAD SWAP1 DUP2 ADD PUSH1 0x40 MSTORE DUP1 SWAP3 SWAP2 SWAP1 DUP2 DUP2 MSTORE PUSH1 0x20 ADD DUP3 DUP1 SLOAD PUSH2 0x2957 SWAP1 PUSH2 0x4953 JUMP JUMPDEST DUP1 ISZERO PUSH2 0x29A4 JUMPI DUP1 PUSH1 0x1F LT PUSH2 0x2979 JUMPI PUSH2 0x100 DUP1 DUP4 SLOAD DIV MUL DUP4 MSTORE SWAP2 PUSH1 0x20 ADD SWAP2 PUSH2 0x29A4 JUMP JUMPDEST DUP3 ADD SWAP2 SWAP1 PUSH1 0x0 MSTORE PUSH1 0x20 PUSH1 0x0 KECCAK256 SWAP1 JUMPDEST DUP2 SLOAD DUP2 MSTORE SWAP1 PUSH1 0x1 ADD SWAP1 PUSH1 0x20 ADD DUP1 DUP4 GT PUSH2 0x2987 JUMPI DUP3 SWAP1 SUB PUSH1 0x1F AND DUP3 ADD SWAP2 JUMPDEST POP POP POP POP POP DUP2 MSTORE PUSH1 0x20 ADD PUSH1 0x6 DUP3 ADD DUP1 SLOAD PUSH2 0x29BD SWAP1 PUSH2 0x4953 JUMP JUMPDEST DUP1 PUSH1 0x1F ADD PUSH1 0x20 DUP1 SWAP2 DIV MUL PUSH1 0x20 ADD PUSH1 0x40 MLOAD SWAP1 DUP2 ADD PUSH1 0x40 MSTORE DUP1 SWAP3 SWAP2 SWAP1 DUP2 DUP2 MSTORE PUSH1 0x20 ADD DUP3 DUP1 SLOAD PUSH2 0x29E9 SWAP1 PUSH2 0x4953 JUMP JUMPDEST DUP1 ISZERO PUSH2 0x2A36 JUMPI DUP1 PUSH1 0x1F LT PUSH2 0x2A0B JUMPI PUSH2 0x100 DUP1 DUP4 SLOAD DIV MUL DUP4 MSTORE SWAP2 PUSH1 0x20 ADD SWAP2 PUSH2 0x2A36 JUMP JUMPDEST DUP3 ADD SWAP2 SWAP1 PUSH1 0x0 MSTORE PUSH1 0x20 PUSH1 0x0 KECCAK256 SWAP1 JUMPDEST DUP2 SLOAD DUP2 MSTORE SWAP1 PUSH1 0x1 ADD SWAP1 PUSH1 0x20 ADD DUP1 DUP4 GT PUSH2 0x2A19 JUMPI DUP3 SWAP1 SUB PUSH1 0x1F AND DUP3 ADD SWAP2 JUMPDEST POP POP POP POP POP DUP2 MSTORE PUSH1 0x20 ADD PUSH1 0x7 DUP3 ADD SLOAD DUP2 MSTORE POP POP SWAP1 POP SWAP3 SWAP2 POP POP JUMP JUMPDEST PUSH1 0x60 PUSH2 0x2A5C DUP3 PUSH2 0x3104 JUMP JUMPDEST PUSH1 0x0 PUSH2 0x2A73 PUSH1 0x40 DUP1 MLOAD PUSH1 0x20 DUP2 ADD SWAP1 SWAP2 MSTORE PUSH1 0x0 DUP2 MSTORE SWAP1 JUMP JUMPDEST SWAP1 POP PUSH1 0x0 DUP2 MLOAD GT PUSH2 0x2A93 JUMPI PUSH1 0x40 MLOAD DUP1 PUSH1 0x20 ADD PUSH1 0x40 MSTORE DUP1 PUSH1 0x0 DUP2 MSTORE POP PUSH2 0x2ABE JUMP JUMPDEST DUP1 PUSH2 0x2A9D DUP5 PUSH2 0x3556 JUMP JUMPDEST PUSH1 0x40 MLOAD PUSH1 0x20 ADD PUSH2 0x2AAE SWAP3 SWAP2 SWAP1 PUSH2 0x4A8C JUMP JUMPDEST PUSH1 0x40 MLOAD PUSH1 0x20 DUP2 DUP4 SUB SUB DUP2 MSTORE SWAP1 PUSH1 0x40 MSTORE JUMPDEST SWAP4 SWAP3 POP POP POP JUMP JUMPDEST CALLER PUSH1 0x0 SWAP1 DUP2 MSTORE PUSH1 0xE PUSH1 0x20 MSTORE PUSH1 0x40 SWAP1 KECCAK256 SLOAD DUP2 SWAP1 PUSH1 0xFF AND DUP1 ISZERO PUSH2 0x2B04 JUMPI POP PUSH1 0x20 DUP1 DUP3 ADD MLOAD CALLER PUSH1 0x0 SWAP1 DUP2 MSTORE PUSH1 0xB DUP4 MSTORE PUSH1 0x40 DUP1 DUP3 KECCAK256 SWAP3 DUP3 MSTORE SWAP2 SWAP1 SWAP3 MSTORE SWAP1 KECCAK256 SLOAD PUSH1 0xFF AND JUMPDEST ISZERO PUSH2 0x30EB JUMPI DUP1 MLOAD CALLER PUSH1 0x0 SWAP1 DUP2 MSTORE PUSH1 0xD PUSH1 0x20 MSTORE PUSH1 0x40 SWAP1 DUP2 SWAP1 KECCAK256 PUSH1 0x60 DUP5 ADD MLOAD SWAP2 MLOAD SWAP1 SWAP2 PUSH2 0x2B2E SWAP2 PUSH2 0x498E JUMP JUMPDEST SWAP1 DUP2 MSTORE PUSH1 0x40 DUP1 MLOAD PUSH1 0x20 SWAP3 DUP2 SWAP1 SUB DUP4 ADD DUP2 KECCAK256 DUP1 SLOAD PUSH1 0x1 PUSH1 0x1 PUSH1 0xA0 SHL SUB NOT AND PUSH1 0x1 PUSH1 0x1 PUSH1 0xA0 SHL SUB SWAP6 SWAP1 SWAP6 AND SWAP5 SWAP1 SWAP5 OR SWAP1 SWAP4 SSTORE DUP4 DUP3 ADD MLOAD CALLER PUSH1 0x0 SWAP1 DUP2 MSTORE PUSH1 0xD SWAP1 SWAP4 MSTORE SWAP2 KECCAK256 PUSH1 0x60 DUP5 ADD MLOAD SWAP2 SWAP3 SWAP1 SWAP2 PUSH2 0x2B81 SWAP2 PUSH2 0x498E JUMP JUMPDEST SWAP1 DUP2 MSTORE PUSH1 0x40 DUP1 MLOAD SWAP2 DUP3 SWAP1 SUB PUSH1 0x20 SWAP1 DUP2 ADD DUP4 KECCAK256 PUSH1 0x1 ADD SWAP4 SWAP1 SWAP4 SSTORE DUP4 DUP2 ADD MLOAD CALLER PUSH1 0x0 SWAP1 DUP2 MSTORE PUSH1 0xD SWAP1 SWAP5 MSTORE SWAP3 KECCAK256 PUSH1 0x60 DUP5 ADD MLOAD SWAP1 SWAP2 PUSH2 0x2BBC SWAP2 SWAP1 PUSH2 0x498E JUMP JUMPDEST SWAP1 DUP2 MSTORE PUSH1 0x20 ADD PUSH1 0x40 MLOAD DUP1 SWAP2 SUB SWAP1 KECCAK256 PUSH1 0x2 ADD SWAP1 DUP1 MLOAD SWAP1 PUSH1 0x20 ADD SWAP1 PUSH2 0x2BE0 SWAP3 SWAP2 SWAP1 PUSH2 0x3A2C JUMP JUMPDEST POP PUSH1 0x60 DUP2 ADD DUP1 MLOAD CALLER PUSH1 0x0 SWAP1 DUP2 MSTORE PUSH1 0xD PUSH1 0x20 MSTORE PUSH1 0x40 SWAP1 DUP2 SWAP1 KECCAK256 SWAP3 MLOAD SWAP1 MLOAD SWAP2 SWAP3 SWAP2 PUSH2 0x2C09 SWAP2 SWAP1 PUSH2 0x498E JUMP JUMPDEST SWAP1 DUP2 MSTORE PUSH1 0x20 ADD PUSH1 0x40 MLOAD DUP1 SWAP2 SUB SWAP1 KECCAK256 PUSH1 0x3 ADD SWAP1 DUP1 MLOAD SWAP1 PUSH1 0x20 ADD SWAP1 PUSH2 0x2C2D SWAP3 SWAP2 SWAP1 PUSH2 0x3A2C JUMP JUMPDEST POP PUSH1 0x80 DUP2 ADD MLOAD CALLER PUSH1 0x0 SWAP1 DUP2 MSTORE PUSH1 0xD PUSH1 0x20 MSTORE PUSH1 0x40 SWAP1 DUP2 SWAP1 KECCAK256 PUSH1 0x60 DUP5 ADD MLOAD SWAP2 MLOAD SWAP1 SWAP2 PUSH2 0x2C56 SWAP2 PUSH2 0x498E JUMP JUMPDEST SWAP1 DUP2 MSTORE PUSH1 0x20 ADD PUSH1 0x40 MLOAD DUP1 SWAP2 SUB SWAP1 KECCAK256 PUSH1 0x4 ADD SWAP1 DUP1 MLOAD SWAP1 PUSH1 0x20 ADD SWAP1 PUSH2 0x2C7A SWAP3 SWAP2 SWAP1 PUSH2 0x3A2C JUMP JUMPDEST POP PUSH1 0xA0 DUP2 ADD MLOAD CALLER PUSH1 0x0 SWAP1 DUP2 MSTORE PUSH1 0xD PUSH1 0x20 MSTORE PUSH1 0x40 SWAP1 DUP2 SWAP1 KECCAK256 PUSH1 0x60 DUP5 ADD MLOAD SWAP2 MLOAD SWAP1 SWAP2 PUSH2 0x2CA3 SWAP2 PUSH2 0x498E JUMP JUMPDEST SWAP1 DUP2 MSTORE PUSH1 0x20 ADD PUSH1 0x40 MLOAD DUP1 SWAP2 SUB SWAP1 KECCAK256 PUSH1 0x5 ADD SWAP1 DUP1 MLOAD SWAP1 PUSH1 0x20 ADD SWAP1 PUSH2 0x2CC7 SWAP3 SWAP2 SWAP1 PUSH2 0x3A2C JUMP JUMPDEST POP PUSH1 0xC0 DUP2 ADD MLOAD CALLER PUSH1 0x0 SWAP1 DUP2 MSTORE PUSH1 0xD PUSH1 0x20 MSTORE PUSH1 0x40 SWAP1 DUP2 SWAP1 KECCAK256 PUSH1 0x60 DUP5 ADD MLOAD SWAP2 MLOAD SWAP1 SWAP2 PUSH2 0x2CF0 SWAP2 PUSH2 0x498E JUMP JUMPDEST SWAP1 DUP2 MSTORE PUSH1 0x40 DUP1 MLOAD SWAP2 DUP3 SWAP1 SUB PUSH1 0x20 SWAP1 DUP2 ADD DUP4 KECCAK256 PUSH1 0x6 ADD SWAP4 SWAP1 SWAP4 SSTORE PUSH1 0xE0 DUP5 ADD MLOAD CALLER PUSH1 0x0 SWAP1 DUP2 MSTORE PUSH1 0xD SWAP1 SWAP5 MSTORE SWAP3 KECCAK256 PUSH1 0x60 DUP5 ADD MLOAD SWAP1 SWAP2 PUSH2 0x2D2C SWAP2 SWAP1 PUSH2 0x498E JUMP JUMPDEST SWAP1 DUP2 MSTORE PUSH1 0x40 DUP1 MLOAD SWAP2 DUP3 SWAP1 SUB PUSH1 0x20 SWAP1 DUP2 ADD DUP4 KECCAK256 PUSH1 0x7 ADD SWAP4 SWAP1 SWAP4 SSTORE PUSH2 0x100 DUP5 ADD MLOAD CALLER PUSH1 0x0 SWAP1 DUP2 MSTORE PUSH1 0xD SWAP1 SWAP5 MSTORE SWAP3 KECCAK256 PUSH1 0x60 DUP5 ADD MLOAD SWAP1 SWAP2 PUSH2 0x2D69 SWAP2 SWAP1 PUSH2 0x498E JUMP JUMPDEST SWAP1 DUP2 MSTORE PUSH1 0x40 DUP1 MLOAD SWAP2 DUP3 SWAP1 SUB PUSH1 0x20 SWAP1 DUP2 ADD DUP4 KECCAK256 PUSH1 0x8 ADD SWAP4 SWAP1 SWAP4 SSTORE PUSH2 0x120 DUP5 ADD MLOAD CALLER PUSH1 0x0 SWAP1 DUP2 MSTORE PUSH1 0xD SWAP1 SWAP5 MSTORE SWAP3 KECCAK256 PUSH1 0x60 DUP5 ADD MLOAD SWAP1 SWAP2 PUSH2 0x2DA6 SWAP2 SWAP1 PUSH2 0x498E JUMP JUMPDEST SWAP1 DUP2 MSTORE PUSH1 0x40 DUP1 MLOAD SWAP2 DUP3 SWAP1 SUB PUSH1 0x20 SWAP1 DUP2 ADD DUP4 KECCAK256 PUSH1 0x9 ADD SWAP4 SWAP1 SWAP4 SSTORE PUSH2 0x140 DUP5 ADD MLOAD CALLER PUSH1 0x0 SWAP1 DUP2 MSTORE PUSH1 0xD SWAP1 SWAP5 MSTORE SWAP3 KECCAK256 PUSH1 0x60 DUP5 ADD MLOAD SWAP1 SWAP2 PUSH2 0x2DE3 SWAP2 SWAP1 PUSH2 0x498E JUMP JUMPDEST SWAP1 DUP2 MSTORE PUSH1 0x20 ADD PUSH1 0x40 MLOAD DUP1 SWAP2 SUB SWAP1 KECCAK256 PUSH1 0xA ADD SWAP1 DUP1 MLOAD SWAP1 PUSH1 0x20 ADD SWAP1 PUSH2 0x2E07 SWAP3 SWAP2 SWAP1 PUSH2 0x3A2C JUMP JUMPDEST POP PUSH2 0x160 DUP2 ADD MLOAD CALLER PUSH1 0x0 SWAP1 DUP2 MSTORE PUSH1 0xD PUSH1 0x20 MSTORE PUSH1 0x40 SWAP1 DUP2 SWAP1 KECCAK256 PUSH1 0x60 DUP5 ADD MLOAD SWAP2 MLOAD SWAP1 SWAP2 PUSH2 0x2E31 SWAP2 PUSH2 0x498E JUMP JUMPDEST SWAP1 DUP2 MSTORE PUSH1 0x20 ADD PUSH1 0x40 MLOAD DUP1 SWAP2 SUB SWAP1 KECCAK256 PUSH1 0xB ADD SWAP1 DUP1 MLOAD SWAP1 PUSH1 0x20 ADD SWAP1 PUSH2 0x2E55 SWAP3 SWAP2 SWAP1 PUSH2 0x3A2C JUMP JUMPDEST POP PUSH2 0x180 DUP2 ADD MLOAD CALLER PUSH1 0x0 SWAP1 DUP2 MSTORE PUSH1 0xD PUSH1 0x20 MSTORE PUSH1 0x40 SWAP1 DUP2 SWAP1 KECCAK256 PUSH1 0x60 DUP5 ADD MLOAD SWAP2 MLOAD SWAP1 SWAP2 PUSH2 0x2E7F SWAP2 PUSH2 0x498E JUMP JUMPDEST SWAP1 DUP2 MSTORE PUSH1 0x20 ADD PUSH1 0x40 MLOAD DUP1 SWAP2 SUB SWAP1 KECCAK256 PUSH1 0xC ADD SWAP1 DUP1 MLOAD SWAP1 PUSH1 0x20 ADD SWAP1 PUSH2 0x2EA3 SWAP3 SWAP2 SWAP1 PUSH2 0x3A2C JUMP JUMPDEST POP PUSH2 0x1A0 DUP2 ADD MLOAD CALLER PUSH1 0x0 SWAP1 DUP2 MSTORE PUSH1 0xD PUSH1 0x20 MSTORE PUSH1 0x40 SWAP1 DUP2 SWAP1 KECCAK256 PUSH1 0x60 DUP5 ADD MLOAD SWAP2 MLOAD SWAP1 SWAP2 PUSH2 0x2ECD SWAP2 PUSH2 0x498E JUMP JUMPDEST SWAP1 DUP2 MSTORE PUSH1 0x20 ADD PUSH1 0x40 MLOAD DUP1 SWAP2 SUB SWAP1 KECCAK256 PUSH1 0xD ADD SWAP1 DUP1 MLOAD SWAP1 PUSH1 0x20 ADD SWAP1 PUSH2 0x2EF1 SWAP3 SWAP2 SWAP1 PUSH2 0x3A2C JUMP JUMPDEST POP CALLER PUSH1 0x0 SWAP1 DUP2 MSTORE PUSH1 0xF PUSH1 0x20 MSTORE PUSH1 0x40 SWAP1 DUP2 SWAP1 KECCAK256 PUSH1 0x60 DUP4 ADD MLOAD SWAP2 MLOAD PUSH1 0x1 SWAP3 PUSH2 0x2F16 SWAP2 PUSH2 0x498E JUMP JUMPDEST SWAP1 DUP2 MSTORE PUSH1 0x40 MLOAD SWAP1 DUP2 SWAP1 SUB PUSH1 0x20 ADD DUP2 KECCAK256 DUP1 SLOAD SWAP3 ISZERO ISZERO PUSH1 0xFF NOT SWAP1 SWAP4 AND SWAP3 SWAP1 SWAP3 OR SWAP1 SWAP2 SSTORE PUSH1 0x60 DUP3 ADD MLOAD SWAP1 PUSH1 0x10 SWAP1 PUSH2 0x2F4B SWAP1 DUP4 SWAP1 PUSH2 0x498E JUMP JUMPDEST SWAP1 DUP2 MSTORE PUSH1 0x20 ADD PUSH1 0x40 MLOAD DUP1 SWAP2 SUB SWAP1 KECCAK256 PUSH1 0x0 ADD SWAP1 DUP1 MLOAD SWAP1 PUSH1 0x20 ADD SWAP1 PUSH2 0x2F6F SWAP3 SWAP2 SWAP1 PUSH2 0x3A2C JUMP JUMPDEST POP CALLER PUSH1 0x0 SWAP1 DUP2 MSTORE PUSH1 0xC PUSH1 0x20 SWAP1 DUP2 MSTORE PUSH1 0x40 DUP1 DUP4 KECCAK256 DUP5 DUP4 ADD MLOAD DUP5 MSTORE SWAP1 SWAP2 MSTORE SWAP1 DUP2 SWAP1 KECCAK256 PUSH1 0x60 DUP4 ADD MLOAD SWAP2 MLOAD SWAP1 SWAP2 PUSH1 0x10 SWAP2 PUSH2 0x2FA5 SWAP2 SWAP1 PUSH2 0x498E JUMP JUMPDEST SWAP1 DUP2 MSTORE PUSH1 0x20 ADD PUSH1 0x40 MLOAD DUP1 SWAP2 SUB SWAP1 KECCAK256 PUSH1 0x1 ADD SWAP1 DUP1 SLOAD PUSH2 0x2FC2 SWAP1 PUSH2 0x4953 JUMP JUMPDEST PUSH2 0x2FCD SWAP3 SWAP2 SWAP1 PUSH2 0x3AB0 JUMP JUMPDEST POP DUP1 MLOAD PUSH1 0x60 DUP3 ADD MLOAD PUSH1 0x40 MLOAD PUSH1 0x10 SWAP2 PUSH2 0x2FE4 SWAP2 PUSH2 0x498E JUMP JUMPDEST SWAP1 DUP2 MSTORE PUSH1 0x40 MLOAD SWAP1 DUP2 SWAP1 SUB PUSH1 0x20 ADD DUP2 KECCAK256 PUSH1 0x2 ADD DUP1 SLOAD PUSH1 0x1 PUSH1 0x1 PUSH1 0xA0 SHL SUB SWAP4 SWAP1 SWAP4 AND PUSH1 0x1 PUSH1 0x1 PUSH1 0xA0 SHL SUB NOT SWAP1 SWAP4 AND SWAP3 SWAP1 SWAP3 OR SWAP1 SWAP2 SSTORE PUSH1 0x60 DUP3 ADD MLOAD PUSH1 0x1 SWAP2 PUSH1 0x13 SWAP2 PUSH2 0x302B SWAP2 PUSH2 0x498E JUMP JUMPDEST SWAP1 DUP2 MSTORE PUSH1 0x40 DUP1 MLOAD PUSH1 0x20 SWAP3 DUP2 SWAP1 SUB DUP4 ADD DUP2 KECCAK256 CALLER PUSH1 0x0 SWAP1 DUP2 MSTORE SWAP4 MSTORE SWAP2 KECCAK256 DUP1 SLOAD PUSH1 0xFF NOT AND SWAP3 ISZERO ISZERO SWAP3 SWAP1 SWAP3 OR SWAP1 SWAP2 SSTORE PUSH1 0x60 DUP3 ADD MLOAD PUSH1 0x10 SWAP2 PUSH2 0x3068 SWAP2 SWAP1 PUSH2 0x498E JUMP JUMPDEST SWAP1 DUP2 MSTORE PUSH1 0x20 ADD PUSH1 0x40 MLOAD DUP1 SWAP2 SUB SWAP1 KECCAK256 PUSH1 0x1 ADD PUSH1 0x12 DUP3 PUSH1 0x60 ADD MLOAD PUSH1 0x40 MLOAD PUSH2 0x308D SWAP2 SWAP1 PUSH2 0x498E JUMP JUMPDEST SWAP1 DUP2 MSTORE PUSH1 0x20 ADD PUSH1 0x40 MLOAD DUP1 SWAP2 SUB SWAP1 KECCAK256 SWAP1 DUP1 SLOAD PUSH2 0x30A7 SWAP1 PUSH2 0x4953 JUMP JUMPDEST PUSH2 0x30B2 SWAP3 SWAP2 SWAP1 PUSH2 0x3AB0 JUMP JUMPDEST POP PUSH1 0x20 DUP2 ADD MLOAD PUSH1 0x40 MLOAD PUSH1 0x1 SWAP2 SWAP1 CALLER SWAP1 PUSH32 0x3FCD54A1190AF2AE8C26E700A8D2C814803D4A643DF12547C98AE7484384F98E SWAP1 PUSH1 0x0 SWAP1 LOG4 POP POP JUMP JUMPDEST PUSH1 0x40 MLOAD PUSH4 0xA8D2AAD9 PUSH1 0xE0 SHL DUP2 MSTORE PUSH1 0x4 ADD PUSH1 0x40 MLOAD DUP1 SWAP2 SUB SWAP1 REVERT JUMPDEST PUSH1 0x0 DUP2 DUP2 MSTORE PUSH1 0x2 PUSH1 0x20 MSTORE PUSH1 0x40 SWAP1 KECCAK256 SLOAD PUSH1 0x1 PUSH1 0x1 PUSH1 0xA0 SHL SUB AND PUSH2 0x3163 JUMPI PUSH1 0x40 MLOAD PUSH3 0x461BCD PUSH1 0xE5 SHL DUP2 MSTORE PUSH1 0x20 PUSH1 0x4 DUP3 ADD MSTORE PUSH1 0x18 PUSH1 0x24 DUP3 ADD MSTORE PUSH24 0x115490CDCC8C4E881A5B9D985B1A59081D1BDAD95B881251 PUSH1 0x42 SHL PUSH1 0x44 DUP3 ADD MSTORE PUSH1 0x64 ADD PUSH2 0x1059 JUMP JUMPDEST POP JUMP JUMPDEST PUSH1 0x0 DUP2 DUP2 MSTORE PUSH1 0x4 PUSH1 0x20 MSTORE PUSH1 0x40 SWAP1 KECCAK256 DUP1 SLOAD PUSH1 0x1 PUSH1 0x1 PUSH1 0xA0 SHL SUB NOT AND PUSH1 0x1 PUSH1 0x1 PUSH1 0xA0 SHL SUB DUP5 AND SWAP1 DUP2 OR SWAP1 SWAP2 SSTORE DUP2 SWAP1 PUSH2 0x319B DUP3 PUSH2 0x13B6 JUMP JUMPDEST PUSH1 0x1 PUSH1 0x1 PUSH1 0xA0 SHL SUB AND PUSH32 0x8C5BE1E5EBEC7D5BD14F71427D1E84F3DD0314C0F7B2291E5B200AC8C7C3B925 PUSH1 0x40 MLOAD PUSH1 0x40 MLOAD DUP1 SWAP2 SUB SWAP1 LOG4 POP POP JUMP JUMPDEST PUSH1 0x0 DUP1 PUSH2 0x31E0 DUP4 PUSH2 0x13B6 JUMP JUMPDEST SWAP1 POP DUP1 PUSH1 0x1 PUSH1 0x1 PUSH1 0xA0 SHL SUB AND DUP5 PUSH1 0x1 PUSH1 0x1 PUSH1 0xA0 SHL SUB AND EQ DUP1 PUSH2 0x3227 JUMPI POP PUSH1 0x1 PUSH1 0x1 PUSH1 0xA0 SHL SUB DUP1 DUP3 AND PUSH1 0x0 SWAP1 DUP2 MSTORE PUSH1 0x5 PUSH1 0x20 SWAP1 DUP2 MSTORE PUSH1 0x40 DUP1 DUP4 KECCAK256 SWAP4 DUP9 AND DUP4 MSTORE SWAP3 SWAP1 MSTORE KECCAK256 SLOAD PUSH1 0xFF AND JUMPDEST DUP1 PUSH2 0x324B JUMPI POP DUP4 PUSH1 0x1 PUSH1 0x1 PUSH1 0xA0 SHL SUB AND PUSH2 0x3240 DUP5 PUSH2 0xFBD JUMP JUMPDEST PUSH1 0x1 PUSH1 0x1 PUSH1 0xA0 SHL SUB AND EQ JUMPDEST SWAP5 SWAP4 POP POP POP POP JUMP JUMPDEST DUP3 PUSH1 0x1 PUSH1 0x1 PUSH1 0xA0 SHL SUB AND PUSH2 0x3266 DUP3 PUSH2 0x13B6 JUMP JUMPDEST PUSH1 0x1 PUSH1 0x1 PUSH1 0xA0 SHL SUB AND EQ PUSH2 0x328C JUMPI PUSH1 0x40 MLOAD PUSH3 0x461BCD PUSH1 0xE5 SHL DUP2 MSTORE PUSH1 0x4 ADD PUSH2 0x1059 SWAP1 PUSH2 0x4ABB JUMP JUMPDEST PUSH1 0x1 PUSH1 0x1 PUSH1 0xA0 SHL SUB DUP3 AND PUSH2 0x32EE JUMPI PUSH1 0x40 MLOAD PUSH3 0x461BCD PUSH1 0xE5 SHL DUP2 MSTORE PUSH1 0x20 PUSH1 0x4 DUP3 ADD MSTORE PUSH1 0x24 DUP1 DUP3 ADD MSTORE PUSH32 0x4552433732313A207472616E7366657220746F20746865207A65726F20616464 PUSH1 0x44 DUP3 ADD MSTORE PUSH4 0x72657373 PUSH1 0xE0 SHL PUSH1 0x64 DUP3 ADD MSTORE PUSH1 0x84 ADD PUSH2 0x1059 JUMP JUMPDEST PUSH2 0x32FB DUP4 DUP4 DUP4 PUSH1 0x1 PUSH2 0x35F3 JUMP JUMPDEST DUP3 PUSH1 0x1 PUSH1 0x1 PUSH1 0xA0 SHL SUB AND PUSH2 0x330E DUP3 PUSH2 0x13B6 JUMP JUMPDEST PUSH1 0x1 PUSH1 0x1 PUSH1 0xA0 SHL SUB AND EQ PUSH2 0x3334 JUMPI PUSH1 0x40 MLOAD PUSH3 0x461BCD PUSH1 0xE5 SHL DUP2 MSTORE PUSH1 0x4 ADD PUSH2 0x1059 SWAP1 PUSH2 0x4ABB JUMP JUMPDEST PUSH1 0x0 DUP2 DUP2 MSTORE PUSH1 0x4 PUSH1 0x20 SWAP1 DUP2 MSTORE PUSH1 0x40 DUP1 DUP4 KECCAK256 DUP1 SLOAD PUSH1 0x1 PUSH1 0x1 PUSH1 0xA0 SHL SUB NOT SWAP1 DUP2 AND SWAP1 SWAP2 SSTORE PUSH1 0x1 PUSH1 0x1 PUSH1 0xA0 SHL SUB DUP8 DUP2 AND DUP1 DUP7 MSTORE PUSH1 0x3 DUP6 MSTORE DUP4 DUP7 KECCAK256 DUP1 SLOAD PUSH1 0x0 NOT ADD SWAP1 SSTORE SWAP1 DUP8 AND DUP1 DUP7 MSTORE DUP4 DUP7 KECCAK256 DUP1 SLOAD PUSH1 0x1 ADD SWAP1 SSTORE DUP7 DUP7 MSTORE PUSH1 0x2 SWAP1 SWAP5 MSTORE DUP3 DUP6 KECCAK256 DUP1 SLOAD SWAP1 SWAP3 AND DUP5 OR SWAP1 SWAP2 SSTORE SWAP1 MLOAD DUP5 SWAP4 PUSH32 0xDDF252AD1BE2C89B69C2B068FC378DAA952BA7F163C4A11628F55A4DF523B3EF SWAP2 LOG4 POP POP POP JUMP JUMPDEST DUP2 PUSH1 0x1 PUSH1 0x1 PUSH1 0xA0 SHL SUB AND DUP4 PUSH1 0x1 PUSH1 0x1 PUSH1 0xA0 SHL SUB AND EQ ISZERO PUSH2 0x3426 JUMPI PUSH1 0x40 MLOAD PUSH3 0x461BCD PUSH1 0xE5 SHL DUP2 MSTORE PUSH1 0x20 PUSH1 0x4 DUP3 ADD MSTORE PUSH1 0x19 PUSH1 0x24 DUP3 ADD MSTORE PUSH32 0x4552433732313A20617070726F766520746F2063616C6C657200000000000000 PUSH1 0x44 DUP3 ADD MSTORE PUSH1 0x64 ADD PUSH2 0x1059 JUMP JUMPDEST PUSH1 0x1 PUSH1 0x1 PUSH1 0xA0 SHL SUB DUP4 DUP2 AND PUSH1 0x0 DUP2 DUP2 MSTORE PUSH1 0x5 PUSH1 0x20 SWAP1 DUP2 MSTORE PUSH1 0x40 DUP1 DUP4 KECCAK256 SWAP5 DUP8 AND DUP1 DUP5 MSTORE SWAP5 DUP3 MSTORE SWAP2 DUP3 SWAP1 KECCAK256 DUP1 SLOAD PUSH1 0xFF NOT AND DUP7 ISZERO ISZERO SWAP1 DUP2 OR SWAP1 SWAP2 SSTORE SWAP2 MLOAD SWAP2 DUP3 MSTORE PUSH32 0x17307EAB39AB6107E8899845AD3D59BD9653F200F220920489CA2B5937696C31 SWAP2 ADD PUSH1 0x40 MLOAD DUP1 SWAP2 SUB SWAP1 LOG3 POP POP POP JUMP JUMPDEST PUSH2 0x19C8 DUP3 DUP3 PUSH1 0x40 MLOAD DUP1 PUSH1 0x20 ADD PUSH1 0x40 MSTORE DUP1 PUSH1 0x0 DUP2 MSTORE POP PUSH2 0x367B JUMP JUMPDEST PUSH1 0x0 PUSH2 0x34B8 DUP3 PUSH2 0x13B6 JUMP JUMPDEST PUSH1 0x40 MLOAD PUSH1 0x20 ADD PUSH2 0x34C8 SWAP2 SWAP1 PUSH2 0x4A6F JUMP JUMPDEST PUSH1 0x40 MLOAD PUSH1 0x20 DUP2 DUP4 SUB SUB DUP2 MSTORE SWAP1 PUSH1 0x40 MSTORE DUP1 MLOAD SWAP1 PUSH1 0x20 ADD KECCAK256 SWAP1 POP PUSH1 0x0 CALLER PUSH1 0x40 MLOAD PUSH1 0x20 ADD PUSH2 0x34F3 SWAP2 SWAP1 PUSH2 0x4A6F JUMP JUMPDEST PUSH1 0x40 MLOAD PUSH1 0x20 DUP2 DUP4 SUB SUB DUP2 MSTORE SWAP1 PUSH1 0x40 MSTORE DUP1 MLOAD SWAP1 PUSH1 0x20 ADD KECCAK256 SWAP1 POP DUP1 DUP3 EQ ISZERO PUSH2 0x258C JUMPI PUSH2 0x351E CALLER DUP6 DUP6 PUSH2 0x139B JUMP JUMPDEST PUSH2 0x2624 JUMP JUMPDEST PUSH2 0x352E DUP5 DUP5 DUP5 PUSH2 0x3253 JUMP JUMPDEST PUSH2 0x353A DUP5 DUP5 DUP5 DUP5 PUSH2 0x36AE JUMP JUMPDEST PUSH2 0x2624 JUMPI PUSH1 0x40 MLOAD PUSH3 0x461BCD PUSH1 0xE5 SHL DUP2 MSTORE PUSH1 0x4 ADD PUSH2 0x1059 SWAP1 PUSH2 0x4B00 JUMP JUMPDEST PUSH1 0x60 PUSH1 0x0 PUSH2 0x3563 DUP4 PUSH2 0x37BB JUMP JUMPDEST PUSH1 0x1 ADD SWAP1 POP PUSH1 0x0 DUP2 PUSH8 0xFFFFFFFFFFFFFFFF DUP2 GT ISZERO PUSH2 0x3583 JUMPI PUSH2 0x3583 PUSH2 0x3DE9 JUMP JUMPDEST PUSH1 0x40 MLOAD SWAP1 DUP1 DUP3 MSTORE DUP1 PUSH1 0x1F ADD PUSH1 0x1F NOT AND PUSH1 0x20 ADD DUP3 ADD PUSH1 0x40 MSTORE DUP1 ISZERO PUSH2 0x35AD JUMPI PUSH1 0x20 DUP3 ADD DUP2 DUP1 CALLDATASIZE DUP4 CALLDATACOPY ADD SWAP1 POP JUMPDEST POP SWAP1 POP DUP2 DUP2 ADD PUSH1 0x20 ADD JUMPDEST PUSH1 0x0 NOT ADD PUSH16 0x181899199A1A9B1B9C1CB0B131B232B3 PUSH1 0x81 SHL PUSH1 0xA DUP7 MOD BYTE DUP2 MSTORE8 PUSH1 0xA DUP6 DIV SWAP5 POP DUP5 PUSH2 0x35E6 JUMPI PUSH2 0x35EB JUMP JUMPDEST PUSH2 0x35B7 JUMP JUMPDEST POP SWAP4 SWAP3 POP POP POP JUMP JUMPDEST PUSH1 0x1 DUP2 GT ISZERO PUSH2 0x2624 JUMPI PUSH1 0x1 PUSH1 0x1 PUSH1 0xA0 SHL SUB DUP5 AND ISZERO PUSH2 0x3639 JUMPI PUSH1 0x1 PUSH1 0x1 PUSH1 0xA0 SHL SUB DUP5 AND PUSH1 0x0 SWAP1 DUP2 MSTORE PUSH1 0x3 PUSH1 0x20 MSTORE PUSH1 0x40 DUP2 KECCAK256 DUP1 SLOAD DUP4 SWAP3 SWAP1 PUSH2 0x3633 SWAP1 DUP5 SWAP1 PUSH2 0x4B52 JUMP JUMPDEST SWAP1 SWAP2 SSTORE POP POP JUMPDEST PUSH1 0x1 PUSH1 0x1 PUSH1 0xA0 SHL SUB DUP4 AND ISZERO PUSH2 0x2624 JUMPI PUSH1 0x1 PUSH1 0x1 PUSH1 0xA0 SHL SUB DUP4 AND PUSH1 0x0 SWAP1 DUP2 MSTORE PUSH1 0x3 PUSH1 0x20 MSTORE PUSH1 0x40 DUP2 KECCAK256 DUP1 SLOAD DUP4 SWAP3 SWAP1 PUSH2 0x3670 SWAP1 DUP5 SWAP1 PUSH2 0x4A0D JUMP JUMPDEST SWAP1 SWAP2 SSTORE POP POP POP POP POP POP JUMP JUMPDEST PUSH2 0x3685 DUP4 DUP4 PUSH2 0x3893 JUMP JUMPDEST PUSH2 0x3692 PUSH1 0x0 DUP5 DUP5 DUP5 PUSH2 0x36AE JUMP JUMPDEST PUSH2 0x10FA JUMPI PUSH1 0x40 MLOAD PUSH3 0x461BCD PUSH1 0xE5 SHL DUP2 MSTORE PUSH1 0x4 ADD PUSH2 0x1059 SWAP1 PUSH2 0x4B00 JUMP JUMPDEST PUSH1 0x0 PUSH1 0x1 PUSH1 0x1 PUSH1 0xA0 SHL SUB DUP5 AND EXTCODESIZE ISZERO PUSH2 0x37B0 JUMPI PUSH1 0x40 MLOAD PUSH4 0xA85BD01 PUSH1 0xE1 SHL DUP2 MSTORE PUSH1 0x1 PUSH1 0x1 PUSH1 0xA0 SHL SUB DUP6 AND SWAP1 PUSH4 0x150B7A02 SWAP1 PUSH2 0x36F2 SWAP1 CALLER SWAP1 DUP10 SWAP1 DUP9 SWAP1 DUP9 SWAP1 PUSH1 0x4 ADD PUSH2 0x4B69 JUMP JUMPDEST PUSH1 0x20 PUSH1 0x40 MLOAD DUP1 DUP4 SUB DUP2 PUSH1 0x0 DUP8 DUP1 EXTCODESIZE ISZERO DUP1 ISZERO PUSH2 0x370C JUMPI PUSH1 0x0 DUP1 REVERT JUMPDEST POP GAS CALL SWAP3 POP POP POP DUP1 ISZERO PUSH2 0x373C JUMPI POP PUSH1 0x40 DUP1 MLOAD PUSH1 0x1F RETURNDATASIZE SWAP1 DUP2 ADD PUSH1 0x1F NOT AND DUP3 ADD SWAP1 SWAP3 MSTORE PUSH2 0x3739 SWAP2 DUP2 ADD SWAP1 PUSH2 0x4B9C JUMP JUMPDEST PUSH1 0x1 JUMPDEST PUSH2 0x3796 JUMPI RETURNDATASIZE DUP1 DUP1 ISZERO PUSH2 0x376A JUMPI PUSH1 0x40 MLOAD SWAP2 POP PUSH1 0x1F NOT PUSH1 0x3F RETURNDATASIZE ADD AND DUP3 ADD PUSH1 0x40 MSTORE RETURNDATASIZE DUP3 MSTORE RETURNDATASIZE PUSH1 0x0 PUSH1 0x20 DUP5 ADD RETURNDATACOPY PUSH2 0x376F JUMP JUMPDEST PUSH1 0x60 SWAP2 POP JUMPDEST POP DUP1 MLOAD PUSH2 0x378E JUMPI PUSH1 0x40 MLOAD PUSH3 0x461BCD PUSH1 0xE5 SHL DUP2 MSTORE PUSH1 0x4 ADD PUSH2 0x1059 SWAP1 PUSH2 0x4B00 JUMP JUMPDEST DUP1 MLOAD DUP2 PUSH1 0x20 ADD REVERT JUMPDEST PUSH1 0x1 PUSH1 0x1 PUSH1 0xE0 SHL SUB NOT AND PUSH4 0xA85BD01 PUSH1 0xE1 SHL EQ SWAP1 POP PUSH2 0x324B JUMP JUMPDEST POP PUSH1 0x1 SWAP5 SWAP4 POP POP POP POP JUMP JUMPDEST PUSH1 0x0 DUP1 PUSH19 0x184F03E93FF9F4DAA797ED6E38ED64BF6A1F01 PUSH1 0x40 SHL DUP4 LT PUSH2 0x37FA JUMPI PUSH19 0x184F03E93FF9F4DAA797ED6E38ED64BF6A1F01 PUSH1 0x40 SHL DUP4 DIV SWAP3 POP PUSH1 0x40 ADD JUMPDEST PUSH14 0x4EE2D6D415B85ACEF8100000000 DUP4 LT PUSH2 0x3826 JUMPI PUSH14 0x4EE2D6D415B85ACEF8100000000 DUP4 DIV SWAP3 POP PUSH1 0x20 ADD JUMPDEST PUSH7 0x2386F26FC10000 DUP4 LT PUSH2 0x3844 JUMPI PUSH7 0x2386F26FC10000 DUP4 DIV SWAP3 POP PUSH1 0x10 ADD JUMPDEST PUSH4 0x5F5E100 DUP4 LT PUSH2 0x385C JUMPI PUSH4 0x5F5E100 DUP4 DIV SWAP3 POP PUSH1 0x8 ADD JUMPDEST PUSH2 0x2710 DUP4 LT PUSH2 0x3870 JUMPI PUSH2 0x2710 DUP4 DIV SWAP3 POP PUSH1 0x4 ADD JUMPDEST PUSH1 0x64 DUP4 LT PUSH2 0x3882 JUMPI PUSH1 0x64 DUP4 DIV SWAP3 POP PUSH1 0x2 ADD JUMPDEST PUSH1 0xA DUP4 LT PUSH2 0x50B JUMPI PUSH1 0x1 ADD SWAP3 SWAP2 POP POP JUMP JUMPDEST PUSH1 0x1 PUSH1 0x1 PUSH1 0xA0 SHL SUB DUP3 AND PUSH2 0x38E9 JUMPI PUSH1 0x40 MLOAD PUSH3 0x461BCD PUSH1 0xE5 SHL DUP2 MSTORE PUSH1 0x20 PUSH1 0x4 DUP3 ADD DUP2 SWAP1 MSTORE PUSH1 0x24 DUP3 ADD MSTORE PUSH32 0x4552433732313A206D696E7420746F20746865207A65726F2061646472657373 PUSH1 0x44 DUP3 ADD MSTORE PUSH1 0x64 ADD PUSH2 0x1059 JUMP JUMPDEST PUSH1 0x0 DUP2 DUP2 MSTORE PUSH1 0x2 PUSH1 0x20 MSTORE PUSH1 0x40 SWAP1 KECCAK256 SLOAD PUSH1 0x1 PUSH1 0x1 PUSH1 0xA0 SHL SUB AND ISZERO PUSH2 0x394E JUMPI PUSH1 0x40 MLOAD PUSH3 0x461BCD PUSH1 0xE5 SHL DUP2 MSTORE PUSH1 0x20 PUSH1 0x4 DUP3 ADD MSTORE PUSH1 0x1C PUSH1 0x24 DUP3 ADD MSTORE PUSH32 0x4552433732313A20746F6B656E20616C7265616479206D696E74656400000000 PUSH1 0x44 DUP3 ADD MSTORE PUSH1 0x64 ADD PUSH2 0x1059 JUMP JUMPDEST PUSH2 0x395C PUSH1 0x0 DUP4 DUP4 PUSH1 0x1 PUSH2 0x35F3 JUMP JUMPDEST PUSH1 0x0 DUP2 DUP2 MSTORE PUSH1 0x2 PUSH1 0x20 MSTORE PUSH1 0x40 SWAP1 KECCAK256 SLOAD PUSH1 0x1 PUSH1 0x1 PUSH1 0xA0 SHL SUB AND ISZERO PUSH2 0x39C1 JUMPI PUSH1 0x40 MLOAD PUSH3 0x461BCD PUSH1 0xE5 SHL DUP2 MSTORE PUSH1 0x20 PUSH1 0x4 DUP3 ADD MSTORE PUSH1 0x1C PUSH1 0x24 DUP3 ADD MSTORE PUSH32 0x4552433732313A20746F6B656E20616C7265616479206D696E74656400000000 PUSH1 0x44 DUP3 ADD MSTORE PUSH1 0x64 ADD PUSH2 0x1059 JUMP JUMPDEST PUSH1 0x1 PUSH1 0x1 PUSH1 0xA0 SHL SUB DUP3 AND PUSH1 0x0 DUP2 DUP2 MSTORE PUSH1 0x3 PUSH1 0x20 SWAP1 DUP2 MSTORE PUSH1 0x40 DUP1 DUP4 KECCAK256 DUP1 SLOAD PUSH1 0x1 ADD SWAP1 SSTORE DUP5 DUP4 MSTORE PUSH1 0x2 SWAP1 SWAP2 MSTORE DUP1 DUP3 KECCAK256 DUP1 SLOAD PUSH1 0x1 PUSH1 0x1 PUSH1 0xA0 SHL SUB NOT AND DUP5 OR SWAP1 SSTORE MLOAD DUP4 SWAP3 SWAP2 SWAP1 PUSH32 0xDDF252AD1BE2C89B69C2B068FC378DAA952BA7F163C4A11628F55A4DF523B3EF SWAP1 DUP3 SWAP1 LOG4 POP POP JUMP JUMPDEST DUP3 DUP1 SLOAD PUSH2 0x3A38 SWAP1 PUSH2 0x4953 JUMP JUMPDEST SWAP1 PUSH1 0x0 MSTORE PUSH1 0x20 PUSH1 0x0 KECCAK256 SWAP1 PUSH1 0x1F ADD PUSH1 0x20 SWAP1 DIV DUP2 ADD SWAP3 DUP3 PUSH2 0x3A5A JUMPI PUSH1 0x0 DUP6 SSTORE PUSH2 0x3AA0 JUMP JUMPDEST DUP3 PUSH1 0x1F LT PUSH2 0x3A73 JUMPI DUP1 MLOAD PUSH1 0xFF NOT AND DUP4 DUP1 ADD OR DUP6 SSTORE PUSH2 0x3AA0 JUMP JUMPDEST DUP3 DUP1 ADD PUSH1 0x1 ADD DUP6 SSTORE DUP3 ISZERO PUSH2 0x3AA0 JUMPI SWAP2 DUP3 ADD JUMPDEST DUP3 DUP2 GT ISZERO PUSH2 0x3AA0 JUMPI DUP3 MLOAD DUP3 SSTORE SWAP2 PUSH1 0x20 ADD SWAP2 SWAP1 PUSH1 0x1 ADD SWAP1 PUSH2 0x3A85 JUMP JUMPDEST POP PUSH2 0x3AAC SWAP3 SWAP2 POP PUSH2 0x3B2B JUMP JUMPDEST POP SWAP1 JUMP JUMPDEST DUP3 DUP1 SLOAD PUSH2 0x3ABC SWAP1 PUSH2 0x4953 JUMP JUMPDEST SWAP1 PUSH1 0x0 MSTORE PUSH1 0x20 PUSH1 0x0 KECCAK256 SWAP1 PUSH1 0x1F ADD PUSH1 0x20 SWAP1 DIV DUP2 ADD SWAP3 DUP3 PUSH2 0x3ADE JUMPI PUSH1 0x0 DUP6 SSTORE PUSH2 0x3AA0 JUMP JUMPDEST DUP3 PUSH1 0x1F LT PUSH2 0x3AEF JUMPI DUP1 SLOAD DUP6 SSTORE PUSH2 0x3AA0 JUMP JUMPDEST DUP3 DUP1 ADD PUSH1 0x1 ADD DUP6 SSTORE DUP3 ISZERO PUSH2 0x3AA0 JUMPI PUSH1 0x0 MSTORE PUSH1 0x20 PUSH1 0x0 KECCAK256 SWAP2 PUSH1 0x1F ADD PUSH1 0x20 SWAP1 DIV DUP3 ADD JUMPDEST DUP3 DUP2 GT ISZERO PUSH2 0x3AA0 JUMPI DUP3 SLOAD DUP3 SSTORE SWAP2 PUSH1 0x1 ADD SWAP2 SWAP1 PUSH1 0x1 ADD SWAP1 PUSH2 0x3B10 JUMP JUMPDEST JUMPDEST DUP1 DUP3 GT ISZERO PUSH2 0x3AAC JUMPI PUSH1 0x0 DUP2 SSTORE PUSH1 0x1 ADD PUSH2 0x3B2C JUMP JUMPDEST PUSH1 0x1 PUSH1 0x1 PUSH1 0xE0 SHL SUB NOT DUP2 AND DUP2 EQ PUSH2 0x3163 JUMPI PUSH1 0x0 DUP1 REVERT JUMPDEST PUSH1 0x0 PUSH1 0x20 DUP3 DUP5 SUB SLT ISZERO PUSH2 0x3B68 JUMPI PUSH1 0x0 DUP1 REVERT JUMPDEST DUP2 CALLDATALOAD PUSH2 0x2ABE DUP2 PUSH2 0x3B40 JUMP JUMPDEST DUP1 CALLDATALOAD PUSH1 0x1 PUSH1 0x1 PUSH1 0xA0 SHL SUB DUP2 AND DUP2 EQ PUSH2 0x3B8A JUMPI PUSH1 0x0 DUP1 REVERT JUMPDEST SWAP2 SWAP1 POP JUMP JUMPDEST PUSH1 0x0 DUP1 PUSH1 0x40 DUP4 DUP6 SUB SLT ISZERO PUSH2 0x3BA2 JUMPI PUSH1 0x0 DUP1 REVERT JUMPDEST PUSH2 0x3BAB DUP4 PUSH2 0x3B73 JUMP JUMPDEST SWAP5 PUSH1 0x20 SWAP4 SWAP1 SWAP4 ADD CALLDATALOAD SWAP4 POP POP POP JUMP JUMPDEST PUSH1 0x0 JUMPDEST DUP4 DUP2 LT ISZERO PUSH2 0x3BD4 JUMPI DUP2 DUP2 ADD MLOAD DUP4 DUP3 ADD MSTORE PUSH1 0x20 ADD PUSH2 0x3BBC JUMP JUMPDEST DUP4 DUP2 GT ISZERO PUSH2 0x2624 JUMPI POP POP PUSH1 0x0 SWAP2 ADD MSTORE JUMP JUMPDEST PUSH1 0x0 DUP2 MLOAD DUP1 DUP5 MSTORE PUSH2 0x3BFD DUP2 PUSH1 0x20 DUP7 ADD PUSH1 0x20 DUP7 ADD PUSH2 0x3BB9 JUMP JUMPDEST PUSH1 0x1F ADD PUSH1 0x1F NOT AND SWAP3 SWAP1 SWAP3 ADD PUSH1 0x20 ADD SWAP3 SWAP2 POP POP JUMP JUMPDEST PUSH1 0x20 DUP2 MSTORE PUSH1 0x0 DUP3 MLOAD PUSH2 0x200 DUP1 PUSH1 0x20 DUP6 ADD MSTORE PUSH2 0x3C30 PUSH2 0x220 DUP6 ADD DUP4 PUSH2 0x3BE5 JUMP JUMPDEST SWAP2 POP PUSH1 0x20 DUP6 ADD MLOAD PUSH1 0x1F NOT DUP1 DUP7 DUP6 SUB ADD PUSH1 0x40 DUP8 ADD MSTORE PUSH2 0x3C4E DUP5 DUP4 PUSH2 0x3BE5 JUMP JUMPDEST SWAP4 POP PUSH1 0x40 DUP8 ADD MLOAD SWAP2 POP DUP1 DUP7 DUP6 SUB ADD PUSH1 0x60 DUP8 ADD MSTORE PUSH2 0x3C6B DUP5 DUP4 PUSH2 0x3BE5 JUMP JUMPDEST SWAP4 POP PUSH1 0x60 DUP8 ADD MLOAD PUSH1 0x80 DUP8 ADD MSTORE PUSH1 0x80 DUP8 ADD MLOAD PUSH1 0xA0 DUP8 ADD MSTORE PUSH1 0xA0 DUP8 ADD MLOAD SWAP2 POP DUP1 DUP7 DUP6 SUB ADD PUSH1 0xC0 DUP8 ADD MSTORE PUSH2 0x3C9C DUP5 DUP4 PUSH2 0x3BE5 JUMP JUMPDEST SWAP4 POP PUSH1 0xC0 DUP8 ADD MLOAD SWAP2 POP DUP1 DUP7 DUP6 SUB ADD PUSH1 0xE0 DUP8 ADD MSTORE PUSH2 0x3CB9 DUP5 DUP4 PUSH2 0x3BE5 JUMP JUMPDEST SWAP4 POP PUSH1 0xE0 DUP8 ADD MLOAD SWAP2 POP PUSH2 0x100 DUP2 DUP8 DUP7 SUB ADD DUP2 DUP9 ADD MSTORE PUSH2 0x3CD8 DUP6 DUP5 PUSH2 0x3BE5 JUMP JUMPDEST SWAP5 POP DUP1 DUP9 ADD MLOAD SWAP3 POP POP PUSH2 0x120 PUSH2 0x3CF8 DUP2 DUP9 ADD DUP5 PUSH1 0x1 PUSH1 0x1 PUSH1 0xA0 SHL SUB AND SWAP1 MSTORE JUMP JUMPDEST DUP1 DUP9 ADD MLOAD SWAP3 POP POP PUSH2 0x140 DUP2 DUP8 DUP7 SUB ADD DUP2 DUP9 ADD MSTORE PUSH2 0x3D15 DUP6 DUP5 PUSH2 0x3BE5 JUMP JUMPDEST SWAP5 POP DUP1 DUP9 ADD MLOAD SWAP3 POP POP PUSH2 0x160 DUP2 DUP8 DUP7 SUB ADD DUP2 DUP9 ADD MSTORE PUSH2 0x3D34 DUP6 DUP5 PUSH2 0x3BE5 JUMP JUMPDEST SWAP5 POP DUP1 DUP9 ADD MLOAD SWAP3 POP POP PUSH2 0x180 DUP2 DUP8 DUP7 SUB ADD DUP2 DUP9 ADD MSTORE PUSH2 0x3D53 DUP6 DUP5 PUSH2 0x3BE5 JUMP JUMPDEST SWAP5 POP DUP1 DUP9 ADD MLOAD SWAP3 POP POP PUSH2 0x1A0 DUP2 DUP8 DUP7 SUB ADD DUP2 DUP9 ADD MSTORE PUSH2 0x3D72 DUP6 DUP5 PUSH2 0x3BE5 JUMP JUMPDEST SWAP5 POP DUP1 DUP9 ADD MLOAD SWAP3 POP POP PUSH2 0x1C0 DUP2 DUP8 DUP7 SUB ADD DUP2 DUP9 ADD MSTORE PUSH2 0x3D91 DUP6 DUP5 PUSH2 0x3BE5 JUMP JUMPDEST SWAP5 POP DUP1 DUP9 ADD MLOAD SWAP3 POP POP PUSH2 0x1E0 DUP2 DUP8 DUP7 SUB ADD DUP2 DUP9 ADD MSTORE PUSH2 0x3DB0 DUP6 DUP5 PUSH2 0x3BE5 JUMP JUMPDEST SWAP1 DUP9 ADD MLOAD DUP8 DUP3 SUB SWAP1 SWAP3 ADD DUP5 DUP9 ADD MSTORE SWAP4 POP SWAP1 POP PUSH2 0x3DCC DUP4 DUP3 PUSH2 0x3BE5 JUMP JUMPDEST SWAP7 SWAP6 POP POP POP POP POP POP JUMP JUMPDEST PUSH1 0x20 DUP2 MSTORE PUSH1 0x0 PUSH2 0x2ABE PUSH1 0x20 DUP4 ADD DUP5 PUSH2 0x3BE5 JUMP JUMPDEST PUSH4 0x4E487B71 PUSH1 0xE0 SHL PUSH1 0x0 MSTORE PUSH1 0x41 PUSH1 0x4 MSTORE PUSH1 0x24 PUSH1 0x0 REVERT JUMPDEST PUSH1 0x40 MLOAD PUSH2 0x200 DUP2 ADD PUSH8 0xFFFFFFFFFFFFFFFF DUP2 GT DUP3 DUP3 LT OR ISZERO PUSH2 0x3E23 JUMPI PUSH2 0x3E23 PUSH2 0x3DE9 JUMP JUMPDEST PUSH1 0x40 MSTORE SWAP1 JUMP JUMPDEST PUSH1 0x40 MLOAD PUSH1 0x60 DUP2 ADD PUSH8 0xFFFFFFFFFFFFFFFF DUP2 GT DUP3 DUP3 LT OR ISZERO PUSH2 0x3E23 JUMPI PUSH2 0x3E23 PUSH2 0x3DE9 JUMP JUMPDEST PUSH1 0x40 MLOAD PUSH2 0x1C0 DUP2 ADD PUSH8 0xFFFFFFFFFFFFFFFF DUP2 GT DUP3 DUP3 LT OR ISZERO PUSH2 0x3E23 JUMPI PUSH2 0x3E23 PUSH2 0x3DE9 JUMP JUMPDEST PUSH1 0x0 PUSH8 0xFFFFFFFFFFFFFFFF DUP1 DUP5 GT ISZERO PUSH2 0x3E8B JUMPI PUSH2 0x3E8B PUSH2 0x3DE9 JUMP JUMPDEST PUSH1 0x40 MLOAD PUSH1 0x1F DUP6 ADD PUSH1 0x1F NOT SWAP1 DUP2 AND PUSH1 0x3F ADD AND DUP2 ADD SWAP1 DUP3 DUP3 GT DUP2 DUP4 LT OR ISZERO PUSH2 0x3EB3 JUMPI PUSH2 0x3EB3 PUSH2 0x3DE9 JUMP JUMPDEST DUP2 PUSH1 0x40 MSTORE DUP1 SWAP4 POP DUP6 DUP2 MSTORE DUP7 DUP7 DUP7 ADD GT ISZERO PUSH2 0x3ECC JUMPI PUSH1 0x0 DUP1 REVERT JUMPDEST DUP6 DUP6 PUSH1 0x20 DUP4 ADD CALLDATACOPY PUSH1 0x0 PUSH1 0x20 DUP8 DUP4 ADD ADD MSTORE POP POP POP SWAP4 SWAP3 POP POP POP JUMP JUMPDEST PUSH1 0x0 DUP3 PUSH1 0x1F DUP4 ADD SLT PUSH2 0x3EF7 JUMPI PUSH1 0x0 DUP1 REVERT JUMPDEST PUSH2 0x2ABE DUP4 DUP4 CALLDATALOAD PUSH1 0x20 DUP6 ADD PUSH2 0x3E70 JUMP JUMPDEST PUSH1 0x0 DUP1 PUSH1 0x40 DUP4 DUP6 SUB SLT ISZERO PUSH2 0x3F19 JUMPI PUSH1 0x0 DUP1 REVERT JUMPDEST PUSH2 0x3F22 DUP4 PUSH2 0x3B73 JUMP JUMPDEST SWAP2 POP PUSH1 0x20 DUP4 ADD CALLDATALOAD PUSH8 0xFFFFFFFFFFFFFFFF DUP2 GT ISZERO PUSH2 0x3F3E JUMPI PUSH1 0x0 DUP1 REVERT JUMPDEST PUSH2 0x3F4A DUP6 DUP3 DUP7 ADD PUSH2 0x3EE6 JUMP JUMPDEST SWAP2 POP POP SWAP3 POP SWAP3 SWAP1 POP JUMP JUMPDEST PUSH1 0x40 DUP2 MSTORE PUSH1 0x0 DUP4 MLOAD PUSH1 0x60 PUSH1 0x40 DUP5 ADD MSTORE PUSH2 0x3F70 PUSH1 0xA0 DUP5 ADD DUP3 PUSH2 0x3BE5 JUMP JUMPDEST SWAP1 POP PUSH1 0x20 DUP6 ADD MLOAD PUSH1 0x3F NOT DUP5 DUP4 SUB ADD PUSH1 0x60 DUP6 ADD MSTORE PUSH2 0x3F8D DUP3 DUP3 PUSH2 0x3BE5 JUMP JUMPDEST PUSH1 0x40 SWAP7 SWAP1 SWAP7 ADD MLOAD PUSH1 0x1 PUSH1 0x1 PUSH1 0xA0 SHL SUB AND PUSH1 0x80 DUP6 ADD MSTORE POP POP POP SWAP1 ISZERO ISZERO PUSH1 0x20 SWAP1 SWAP2 ADD MSTORE SWAP1 JUMP JUMPDEST PUSH1 0x0 PUSH1 0x20 DUP3 DUP5 SUB SLT ISZERO PUSH2 0x3FC3 JUMPI PUSH1 0x0 DUP1 REVERT JUMPDEST POP CALLDATALOAD SWAP2 SWAP1 POP JUMP JUMPDEST PUSH1 0x0 DUP1 PUSH1 0x0 PUSH1 0x60 DUP5 DUP7 SUB SLT ISZERO PUSH2 0x3FDF JUMPI PUSH1 0x0 DUP1 REVERT JUMPDEST PUSH2 0x3FE8 DUP5 PUSH2 0x3B73 JUMP JUMPDEST SWAP3 POP PUSH2 0x3FF6 PUSH1 0x20 DUP6 ADD PUSH2 0x3B73 JUMP JUMPDEST SWAP2 POP PUSH1 0x40 DUP5 ADD CALLDATALOAD SWAP1 POP SWAP3 POP SWAP3 POP SWAP3 JUMP JUMPDEST PUSH1 0x20 DUP1 DUP3 MSTORE DUP3 MLOAD DUP3 DUP3 ADD DUP2 SWAP1 MSTORE PUSH1 0x0 SWAP2 SWAP1 DUP5 DUP3 ADD SWAP1 PUSH1 0x40 DUP6 ADD SWAP1 DUP5 JUMPDEST DUP2 DUP2 LT ISZERO PUSH2 0x4047 JUMPI DUP4 MLOAD PUSH1 0x1 PUSH1 0x1 PUSH1 0xA0 SHL SUB AND DUP4 MSTORE SWAP3 DUP5 ADD SWAP3 SWAP2 DUP5 ADD SWAP2 PUSH1 0x1 ADD PUSH2 0x4022 JUMP JUMPDEST POP SWAP1 SWAP7 SWAP6 POP POP POP POP POP POP JUMP JUMPDEST PUSH1 0x0 PUSH1 0x20 DUP3 DUP5 SUB SLT ISZERO PUSH2 0x4065 JUMPI PUSH1 0x0 DUP1 REVERT JUMPDEST DUP2 CALLDATALOAD PUSH8 0xFFFFFFFFFFFFFFFF DUP2 GT ISZERO PUSH2 0x407C JUMPI PUSH1 0x0 DUP1 REVERT JUMPDEST PUSH2 0x324B DUP5 DUP3 DUP6 ADD PUSH2 0x3EE6 JUMP JUMPDEST PUSH1 0x20 DUP2 MSTORE PUSH1 0x0 DUP3 MLOAD PUSH1 0x60 PUSH1 0x20 DUP5 ADD MSTORE PUSH2 0x40A4 PUSH1 0x80 DUP5 ADD DUP3 PUSH2 0x3BE5 JUMP JUMPDEST SWAP1 POP PUSH1 0x20 DUP5 ADD MLOAD PUSH1 0x1F NOT DUP1 DUP6 DUP5 SUB ADD PUSH1 0x40 DUP7 ADD MSTORE PUSH2 0x40C2 DUP4 DUP4 PUSH2 0x3BE5 JUMP JUMPDEST SWAP3 POP PUSH1 0x40 DUP7 ADD MLOAD SWAP2 POP DUP1 DUP6 DUP5 SUB ADD PUSH1 0x60 DUP7 ADD MSTORE POP PUSH2 0x40E0 DUP3 DUP3 PUSH2 0x3BE5 JUMP JUMPDEST SWAP6 SWAP5 POP POP POP POP POP JUMP JUMPDEST PUSH1 0x0 PUSH1 0x20 DUP3 DUP5 SUB SLT ISZERO PUSH2 0x40FB JUMPI PUSH1 0x0 DUP1 REVERT JUMPDEST PUSH2 0x2ABE DUP3 PUSH2 0x3B73 JUMP JUMPDEST PUSH1 0x0 PUSH1 0x20 DUP3 DUP5 SUB SLT ISZERO PUSH2 0x4116 JUMPI PUSH1 0x0 DUP1 REVERT JUMPDEST DUP2 CALLDATALOAD PUSH8 0xFFFFFFFFFFFFFFFF DUP1 DUP3 GT ISZERO PUSH2 0x412E JUMPI PUSH1 0x0 DUP1 REVERT JUMPDEST SWAP1 DUP4 ADD SWAP1 PUSH2 0x200 DUP3 DUP7 SUB SLT ISZERO PUSH2 0x4143 JUMPI PUSH1 0x0 DUP1 REVERT JUMPDEST PUSH2 0x414B PUSH2 0x3DFF JUMP JUMPDEST DUP3 CALLDATALOAD DUP3 DUP2 GT ISZERO PUSH2 0x415A JUMPI PUSH1 0x0 DUP1 REVERT JUMPDEST PUSH2 0x4166 DUP8 DUP3 DUP7 ADD PUSH2 0x3EE6 JUMP JUMPDEST DUP3 MSTORE POP PUSH1 0x20 DUP4 ADD CALLDATALOAD DUP3 DUP2 GT ISZERO PUSH2 0x417B JUMPI PUSH1 0x0 DUP1 REVERT JUMPDEST PUSH2 0x4187 DUP8 DUP3 DUP7 ADD PUSH2 0x3EE6 JUMP JUMPDEST PUSH1 0x20 DUP4 ADD MSTORE POP PUSH1 0x40 DUP4 ADD CALLDATALOAD DUP3 DUP2 GT ISZERO PUSH2 0x419F JUMPI PUSH1 0x0 DUP1 REVERT JUMPDEST PUSH2 0x41AB DUP8 DUP3 DUP7 ADD PUSH2 0x3EE6 JUMP JUMPDEST PUSH1 0x40 DUP4 ADD MSTORE POP PUSH1 0x60 DUP4 ADD CALLDATALOAD PUSH1 0x60 DUP3 ADD MSTORE PUSH1 0x80 DUP4 ADD CALLDATALOAD PUSH1 0x80 DUP3 ADD MSTORE PUSH1 0xA0 DUP4 ADD CALLDATALOAD DUP3 DUP2 GT ISZERO PUSH2 0x41D7 JUMPI PUSH1 0x0 DUP1 REVERT JUMPDEST PUSH2 0x41E3 DUP8 DUP3 DUP7 ADD PUSH2 0x3EE6 JUMP JUMPDEST PUSH1 0xA0 DUP4 ADD MSTORE POP PUSH1 0xC0 DUP4 ADD CALLDATALOAD DUP3 DUP2 GT ISZERO PUSH2 0x41FB JUMPI PUSH1 0x0 DUP1 REVERT JUMPDEST PUSH2 0x4207 DUP8 DUP3 DUP7 ADD PUSH2 0x3EE6 JUMP JUMPDEST PUSH1 0xC0 DUP4 ADD MSTORE POP PUSH1 0xE0 DUP4 ADD CALLDATALOAD DUP3 DUP2 GT ISZERO PUSH2 0x421F JUMPI PUSH1 0x0 DUP1 REVERT JUMPDEST PUSH2 0x422B DUP8 DUP3 DUP7 ADD PUSH2 0x3EE6 JUMP JUMPDEST PUSH1 0xE0 DUP4 ADD MSTORE POP PUSH2 0x100 PUSH2 0x423F DUP2 DUP6 ADD PUSH2 0x3B73 JUMP JUMPDEST SWAP1 DUP3 ADD MSTORE PUSH2 0x120 DUP4 DUP2 ADD CALLDATALOAD DUP4 DUP2 GT ISZERO PUSH2 0x4257 JUMPI PUSH1 0x0 DUP1 REVERT JUMPDEST PUSH2 0x4263 DUP9 DUP3 DUP8 ADD PUSH2 0x3EE6 JUMP JUMPDEST DUP3 DUP5 ADD MSTORE POP POP PUSH2 0x140 DUP1 DUP5 ADD CALLDATALOAD DUP4 DUP2 GT ISZERO PUSH2 0x427D JUMPI PUSH1 0x0 DUP1 REVERT JUMPDEST PUSH2 0x4289 DUP9 DUP3 DUP8 ADD PUSH2 0x3EE6 JUMP JUMPDEST DUP3 DUP5 ADD MSTORE POP POP PUSH2 0x160 DUP1 DUP5 ADD CALLDATALOAD DUP4 DUP2 GT ISZERO PUSH2 0x42A3 JUMPI PUSH1 0x0 DUP1 REVERT JUMPDEST PUSH2 0x42AF DUP9 DUP3 DUP8 ADD PUSH2 0x3EE6 JUMP JUMPDEST DUP3 DUP5 ADD MSTORE POP POP PUSH2 0x180 DUP1 DUP5 ADD CALLDATALOAD DUP4 DUP2 GT ISZERO PUSH2 0x42C9 JUMPI PUSH1 0x0 DUP1 REVERT JUMPDEST PUSH2 0x42D5 DUP9 DUP3 DUP8 ADD PUSH2 0x3EE6 JUMP JUMPDEST DUP3 DUP5 ADD MSTORE POP POP PUSH2 0x1A0 DUP1 DUP5 ADD CALLDATALOAD DUP4 DUP2 GT ISZERO PUSH2 0x42EF JUMPI PUSH1 0x0 DUP1 REVERT JUMPDEST PUSH2 0x42FB DUP9 DUP3 DUP8 ADD PUSH2 0x3EE6 JUMP JUMPDEST DUP3 DUP5 ADD MSTORE POP POP PUSH2 0x1C0 DUP1 DUP5 ADD CALLDATALOAD DUP4 DUP2 GT ISZERO PUSH2 0x4315 JUMPI PUSH1 0x0 DUP1 REVERT JUMPDEST PUSH2 0x4321 DUP9 DUP3 DUP8 ADD PUSH2 0x3EE6 JUMP JUMPDEST DUP3 DUP5 ADD MSTORE POP POP PUSH2 0x1E0 DUP1 DUP5 ADD CALLDATALOAD DUP4 DUP2 GT ISZERO PUSH2 0x433B JUMPI PUSH1 0x0 DUP1 REVERT JUMPDEST PUSH2 0x4347 DUP9 DUP3 DUP8 ADD PUSH2 0x3EE6 JUMP JUMPDEST SWAP2 DUP4 ADD SWAP2 SWAP1 SWAP2 MSTORE POP SWAP6 SWAP5 POP POP POP POP POP JUMP JUMPDEST PUSH1 0x0 PUSH1 0x20 DUP3 DUP5 SUB SLT ISZERO PUSH2 0x436A JUMPI PUSH1 0x0 DUP1 REVERT JUMPDEST DUP2 CALLDATALOAD PUSH8 0xFFFFFFFFFFFFFFFF DUP1 DUP3 GT ISZERO PUSH2 0x4382 JUMPI PUSH1 0x0 DUP1 REVERT JUMPDEST SWAP1 DUP4 ADD SWAP1 PUSH1 0x60 DUP3 DUP7 SUB SLT ISZERO PUSH2 0x4396 JUMPI PUSH1 0x0 DUP1 REVERT JUMPDEST PUSH2 0x439E PUSH2 0x3E29 JUMP JUMPDEST DUP3 CALLDATALOAD DUP3 DUP2 GT ISZERO PUSH2 0x43AD JUMPI PUSH1 0x0 DUP1 REVERT JUMPDEST PUSH2 0x43B9 DUP8 DUP3 DUP7 ADD PUSH2 0x3EE6 JUMP JUMPDEST DUP3 MSTORE POP PUSH1 0x20 DUP4 ADD CALLDATALOAD DUP3 DUP2 GT ISZERO PUSH2 0x43CE JUMPI PUSH1 0x0 DUP1 REVERT JUMPDEST PUSH2 0x43DA DUP8 DUP3 DUP7 ADD PUSH2 0x3EE6 JUMP JUMPDEST PUSH1 0x20 DUP4 ADD MSTORE POP PUSH1 0x40 DUP4 ADD CALLDATALOAD DUP3 DUP2 GT ISZERO PUSH2 0x43F2 JUMPI PUSH1 0x0 DUP1 REVERT JUMPDEST PUSH2 0x43FE DUP8 DUP3 DUP7 ADD PUSH2 0x3EE6 JUMP JUMPDEST PUSH1 0x40 DUP4 ADD MSTORE POP SWAP6 SWAP5 POP POP POP POP POP JUMP JUMPDEST PUSH1 0x20 DUP2 MSTORE PUSH2 0x4427 PUSH1 0x20 DUP3 ADD DUP4 MLOAD PUSH1 0x1 PUSH1 0x1 PUSH1 0xA0 SHL SUB AND SWAP1 MSTORE JUMP JUMPDEST PUSH1 0x20 DUP3 ADD MLOAD PUSH1 0x40 DUP3 ADD MSTORE PUSH1 0x0 PUSH1 0x40 DUP4 ADD MLOAD PUSH2 0x1C0 DUP1 PUSH1 0x60 DUP6 ADD MSTORE PUSH2 0x444F PUSH2 0x1E0 DUP6 ADD DUP4 PUSH2 0x3BE5 JUMP JUMPDEST SWAP2 POP PUSH1 0x60 DUP6 ADD MLOAD PUSH1 0x1F NOT DUP1 DUP7 DUP6 SUB ADD PUSH1 0x80 DUP8 ADD MSTORE PUSH2 0x446D DUP5 DUP4 PUSH2 0x3BE5 JUMP JUMPDEST SWAP4 POP PUSH1 0x80 DUP8 ADD MLOAD SWAP2 POP DUP1 DUP7 DUP6 SUB ADD PUSH1 0xA0 DUP8 ADD MSTORE PUSH2 0x448A DUP5 DUP4 PUSH2 0x3BE5 JUMP JUMPDEST SWAP4 POP PUSH1 0xA0 DUP8 ADD MLOAD SWAP2 POP DUP1 DUP7 DUP6 SUB ADD PUSH1 0xC0 DUP8 ADD MSTORE PUSH2 0x44A7 DUP5 DUP4 PUSH2 0x3BE5 JUMP JUMPDEST SWAP4 POP PUSH1 0xC0 DUP8 ADD MLOAD PUSH1 0xE0 DUP8 ADD MSTORE PUSH1 0xE0 DUP8 ADD MLOAD SWAP2 POP PUSH2 0x100 DUP3 DUP2 DUP9 ADD MSTORE DUP1 DUP9 ADD MLOAD SWAP3 POP POP PUSH2 0x120 DUP3 DUP2 DUP9 ADD MSTORE DUP1 DUP9 ADD MLOAD SWAP3 POP POP PUSH2 0x140 DUP3 DUP2 DUP9 ADD MSTORE DUP1 DUP9 ADD MLOAD SWAP3 POP POP PUSH2 0x160 DUP2 DUP8 DUP7 SUB ADD DUP2 DUP9 ADD MSTORE PUSH2 0x44FD DUP6 DUP5 PUSH2 0x3BE5 JUMP JUMPDEST SWAP5 POP DUP1 DUP9 ADD MLOAD SWAP3 POP POP PUSH2 0x180 DUP2 DUP8 DUP7 SUB ADD DUP2 DUP9 ADD MSTORE PUSH2 0x451C DUP6 DUP5 PUSH2 0x3BE5 JUMP JUMPDEST SWAP5 POP DUP1 DUP9 ADD MLOAD SWAP3 POP POP PUSH2 0x1A0 DUP2 DUP8 DUP7 SUB ADD DUP2 DUP9 ADD MSTORE PUSH2 0x3DB0 DUP6 DUP5 PUSH2 0x3BE5 JUMP JUMPDEST PUSH1 0x0 DUP1 PUSH1 0x40 DUP4 DUP6 SUB SLT ISZERO PUSH2 0x454E JUMPI PUSH1 0x0 DUP1 REVERT JUMPDEST PUSH2 0x4557 DUP4 PUSH2 0x3B73 JUMP JUMPDEST SWAP2 POP PUSH1 0x20 DUP4 ADD CALLDATALOAD DUP1 ISZERO ISZERO DUP2 EQ PUSH2 0x456C JUMPI PUSH1 0x0 DUP1 REVERT JUMPDEST DUP1 SWAP2 POP POP SWAP3 POP SWAP3 SWAP1 POP JUMP JUMPDEST PUSH1 0x20 DUP1 DUP3 MSTORE DUP3 MLOAD DUP3 DUP3 ADD DUP2 SWAP1 MSTORE PUSH1 0x0 SWAP2 SWAP1 DUP5 DUP3 ADD SWAP1 PUSH1 0x40 DUP6 ADD SWAP1 DUP5 JUMPDEST DUP2 DUP2 LT ISZERO PUSH2 0x4047 JUMPI DUP4 MLOAD DUP4 MSTORE SWAP3 DUP5 ADD SWAP3 SWAP2 DUP5 ADD SWAP2 PUSH1 0x1 ADD PUSH2 0x4593 JUMP JUMPDEST PUSH1 0x0 DUP1 PUSH1 0x0 DUP1 PUSH1 0x80 DUP6 DUP8 SUB SLT ISZERO PUSH2 0x45C5 JUMPI PUSH1 0x0 DUP1 REVERT JUMPDEST PUSH2 0x45CE DUP6 PUSH2 0x3B73 JUMP JUMPDEST SWAP4 POP PUSH1 0x20 DUP6 ADD CALLDATALOAD PUSH8 0xFFFFFFFFFFFFFFFF DUP1 DUP3 GT ISZERO PUSH2 0x45EB JUMPI PUSH1 0x0 DUP1 REVERT JUMPDEST PUSH2 0x45F7 DUP9 DUP4 DUP10 ADD PUSH2 0x3EE6 JUMP JUMPDEST SWAP5 POP PUSH1 0x40 DUP8 ADD CALLDATALOAD SWAP4 POP PUSH1 0x60 DUP8 ADD CALLDATALOAD SWAP2 POP DUP1 DUP3 GT ISZERO PUSH2 0x4614 JUMPI PUSH1 0x0 DUP1 REVERT JUMPDEST POP PUSH2 0x4621 DUP8 DUP3 DUP9 ADD PUSH2 0x3EE6 JUMP JUMPDEST SWAP2 POP POP SWAP3 SWAP6 SWAP2 SWAP5 POP SWAP3 POP JUMP JUMPDEST PUSH1 0x0 DUP1 PUSH1 0x0 DUP1 PUSH1 0x80 DUP6 DUP8 SUB SLT ISZERO PUSH2 0x4643 JUMPI PUSH1 0x0 DUP1 REVERT JUMPDEST PUSH2 0x464C DUP6 PUSH2 0x3B73 JUMP JUMPDEST SWAP4 POP PUSH2 0x465A PUSH1 0x20 DUP7 ADD PUSH2 0x3B73 JUMP JUMPDEST SWAP3 POP PUSH1 0x40 DUP6 ADD CALLDATALOAD SWAP2 POP PUSH1 0x60 DUP6 ADD CALLDATALOAD PUSH8 0xFFFFFFFFFFFFFFFF DUP2 GT ISZERO PUSH2 0x467D JUMPI PUSH1 0x0 DUP1 REVERT JUMPDEST DUP6 ADD PUSH1 0x1F DUP2 ADD DUP8 SGT PUSH2 0x468E JUMPI PUSH1 0x0 DUP1 REVERT JUMPDEST PUSH2 0x4621 DUP8 DUP3 CALLDATALOAD PUSH1 0x20 DUP5 ADD PUSH2 0x3E70 JUMP JUMPDEST PUSH1 0x20 DUP2 MSTORE PUSH1 0x0 DUP3 MLOAD PUSH2 0x100 DUP1 PUSH1 0x20 DUP6 ADD MSTORE PUSH2 0x46BC PUSH2 0x120 DUP6 ADD DUP4 PUSH2 0x3BE5 JUMP JUMPDEST SWAP2 POP PUSH1 0x20 DUP6 ADD MLOAD PUSH1 0x1F NOT DUP1 DUP7 DUP6 SUB ADD PUSH1 0x40 DUP8 ADD MSTORE PUSH2 0x46DA DUP5 DUP4 PUSH2 0x3BE5 JUMP JUMPDEST SWAP4 POP PUSH1 0x40 DUP8 ADD MLOAD SWAP2 POP PUSH2 0x46F8 PUSH1 0x60 DUP8 ADD DUP4 PUSH1 0x1 PUSH1 0x1 PUSH1 0xA0 SHL SUB AND SWAP1 MSTORE JUMP JUMPDEST PUSH1 0x60 DUP8 ADD MLOAD SWAP2 POP DUP1 DUP7 DUP6 SUB ADD PUSH1 0x80 DUP8 ADD MSTORE PUSH2 0x4713 DUP5 DUP4 PUSH2 0x3BE5 JUMP JUMPDEST SWAP4 POP PUSH1 0x80 DUP8 ADD MLOAD SWAP2 POP DUP1 DUP7 DUP6 SUB ADD PUSH1 0xA0 DUP8 ADD MSTORE PUSH2 0x4730 DUP5 DUP4 PUSH2 0x3BE5 JUMP JUMPDEST SWAP4 POP PUSH1 0xA0 DUP8 ADD MLOAD SWAP2 POP DUP1 DUP7 DUP6 SUB ADD PUSH1 0xC0 DUP8 ADD MSTORE PUSH2 0x474D DUP5 DUP4 PUSH2 0x3BE5 JUMP JUMPDEST SWAP4 POP PUSH1 0xC0 DUP8 ADD MLOAD SWAP2 POP DUP1 DUP7 DUP6 SUB ADD PUSH1 0xE0 DUP8 ADD MSTORE POP PUSH2 0x476B DUP4 DUP3 PUSH2 0x3BE5 JUMP JUMPDEST SWAP3 POP POP PUSH1 0xE0 DUP6 ADD MLOAD DUP2 DUP6 ADD MSTORE POP DUP1 SWAP2 POP POP SWAP3 SWAP2 POP POP JUMP JUMPDEST PUSH1 0x0 DUP1 PUSH1 0x40 DUP4 DUP6 SUB SLT ISZERO PUSH2 0x4795 JUMPI PUSH1 0x0 DUP1 REVERT JUMPDEST PUSH2 0x479E DUP4 PUSH2 0x3B73 JUMP JUMPDEST SWAP2 POP PUSH2 0x47AC PUSH1 0x20 DUP5 ADD PUSH2 0x3B73 JUMP JUMPDEST SWAP1 POP SWAP3 POP SWAP3 SWAP1 POP JUMP JUMPDEST PUSH1 0x0 PUSH1 0x20 DUP3 DUP5 SUB SLT ISZERO PUSH2 0x47C7 JUMPI PUSH1 0x0 DUP1 REVERT JUMPDEST DUP2 CALLDATALOAD PUSH8 0xFFFFFFFFFFFFFFFF DUP1 DUP3 GT ISZERO PUSH2 0x47DF JUMPI PUSH1 0x0 DUP1 REVERT JUMPDEST SWAP1 DUP4 ADD SWAP1 PUSH2 0x1C0 DUP3 DUP7 SUB SLT ISZERO PUSH2 0x47F4 JUMPI PUSH1 0x0 DUP1 REVERT JUMPDEST PUSH2 0x47FC PUSH2 0x3E4C JUMP JUMPDEST PUSH2 0x4805 DUP4 PUSH2 0x3B73 JUMP JUMPDEST DUP2 MSTORE PUSH1 0x20 DUP4 ADD CALLDATALOAD PUSH1 0x20 DUP3 ADD MSTORE PUSH1 0x40 DUP4 ADD CALLDATALOAD DUP3 DUP2 GT ISZERO PUSH2 0x4823 JUMPI PUSH1 0x0 DUP1 REVERT JUMPDEST PUSH2 0x482F DUP8 DUP3 DUP7 ADD PUSH2 0x3EE6 JUMP JUMPDEST PUSH1 0x40 DUP4 ADD MSTORE POP PUSH1 0x60 DUP4 ADD CALLDATALOAD DUP3 DUP2 GT ISZERO PUSH2 0x4847 JUMPI PUSH1 0x0 DUP1 REVERT JUMPDEST PUSH2 0x4853 DUP8 DUP3 DUP7 ADD PUSH2 0x3EE6 JUMP JUMPDEST PUSH1 0x60 DUP4 ADD MSTORE POP PUSH1 0x80 DUP4 ADD CALLDATALOAD DUP3 DUP2 GT ISZERO PUSH2 0x486B JUMPI PUSH1 0x0 DUP1 REVERT JUMPDEST PUSH2 0x4877 DUP8 DUP3 DUP7 ADD PUSH2 0x3EE6 JUMP JUMPDEST PUSH1 0x80 DUP4 ADD MSTORE POP PUSH1 0xA0 DUP4 ADD CALLDATALOAD DUP3 DUP2 GT ISZERO PUSH2 0x488F JUMPI PUSH1 0x0 DUP1 REVERT JUMPDEST PUSH2 0x489B DUP8 DUP3 DUP7 ADD PUSH2 0x3EE6 JUMP JUMPDEST PUSH1 0xA0 DUP4 ADD MSTORE POP PUSH1 0xC0 DUP4 ADD CALLDATALOAD PUSH1 0xC0 DUP3 ADD MSTORE PUSH1 0xE0 DUP4 ADD CALLDATALOAD PUSH1 0xE0 DUP3 ADD MSTORE PUSH2 0x100 DUP1 DUP5 ADD CALLDATALOAD DUP2 DUP4 ADD MSTORE POP PUSH2 0x120 DUP1 DUP5 ADD CALLDATALOAD DUP2 DUP4 ADD MSTORE POP PUSH2 0x140 DUP1 DUP5 ADD CALLDATALOAD DUP4 DUP2 GT ISZERO PUSH2 0x48E1 JUMPI PUSH1 0x0 DUP1 REVERT JUMPDEST PUSH2 0x48ED DUP9 DUP3 DUP8 ADD PUSH2 0x3EE6 JUMP JUMPDEST DUP3 DUP5 ADD MSTORE POP POP PUSH2 0x160 DUP1 DUP5 ADD CALLDATALOAD DUP4 DUP2 GT ISZERO PUSH2 0x4907 JUMPI PUSH1 0x0 DUP1 REVERT JUMPDEST PUSH2 0x4913 DUP9 DUP3 DUP8 ADD PUSH2 0x3EE6 JUMP JUMPDEST DUP3 DUP5 ADD MSTORE POP POP PUSH2 0x180 DUP1 DUP5 ADD CALLDATALOAD DUP4 DUP2 GT ISZERO PUSH2 0x492D JUMPI PUSH1 0x0 DUP1 REVERT JUMPDEST PUSH2 0x4939 DUP9 DUP3 DUP8 ADD PUSH2 0x3EE6 JUMP JUMPDEST DUP3 DUP5 ADD MSTORE POP POP PUSH2 0x1A0 DUP1 DUP5 ADD CALLDATALOAD DUP4 DUP2 GT ISZERO PUSH2 0x433B JUMPI PUSH1 0x0 DUP1 REVERT JUMPDEST PUSH1 0x1 DUP2 DUP2 SHR SWAP1 DUP3 AND DUP1 PUSH2 0x4967 JUMPI PUSH1 0x7F DUP3 AND SWAP2 POP JUMPDEST PUSH1 0x20 DUP3 LT DUP2 EQ ISZERO PUSH2 0x4988 JUMPI PUSH4 0x4E487B71 PUSH1 0xE0 SHL PUSH1 0x0 MSTORE PUSH1 0x22 PUSH1 0x4 MSTORE PUSH1 0x24 PUSH1 0x0 REVERT JUMPDEST POP SWAP2 SWAP1 POP JUMP JUMPDEST PUSH1 0x0 DUP3 MLOAD PUSH2 0x49A0 DUP2 DUP5 PUSH1 0x20 DUP8 ADD PUSH2 0x3BB9 JUMP JUMPDEST SWAP2 SWAP1 SWAP2 ADD SWAP3 SWAP2 POP POP JUMP JUMPDEST PUSH1 0x20 DUP1 DUP3 MSTORE PUSH1 0x2D SWAP1 DUP3 ADD MSTORE PUSH32 0x4552433732313A2063616C6C6572206973206E6F7420746F6B656E206F776E65 PUSH1 0x40 DUP3 ADD MSTORE PUSH13 0x1C881BDC88185C1C1C9BDD9959 PUSH1 0x9A SHL PUSH1 0x60 DUP3 ADD MSTORE PUSH1 0x80 ADD SWAP1 JUMP JUMPDEST PUSH4 0x4E487B71 PUSH1 0xE0 SHL PUSH1 0x0 MSTORE PUSH1 0x11 PUSH1 0x4 MSTORE PUSH1 0x24 PUSH1 0x0 REVERT JUMPDEST PUSH1 0x0 DUP3 NOT DUP3 GT ISZERO PUSH2 0x4A20 JUMPI PUSH2 0x4A20 PUSH2 0x49F7 JUMP JUMPDEST POP ADD SWAP1 JUMP JUMPDEST PUSH1 0x20 DUP1 DUP3 MSTORE PUSH1 0x2A SWAP1 DUP3 ADD MSTORE PUSH32 0x6F6E6C7920636F6E747261637441646D696E672063616E2063616C6C20746869 PUSH1 0x40 DUP3 ADD MSTORE PUSH10 0x3990333AB731BA34B7B7 PUSH1 0xB1 SHL PUSH1 0x60 DUP3 ADD MSTORE PUSH1 0x80 ADD SWAP1 JUMP JUMPDEST PUSH1 0x60 SWAP2 SWAP1 SWAP2 SHL PUSH12 0xFFFFFFFFFFFFFFFFFFFFFFFF NOT AND DUP2 MSTORE PUSH1 0x14 ADD SWAP1 JUMP JUMPDEST PUSH1 0x0 DUP4 MLOAD PUSH2 0x4A9E DUP2 DUP5 PUSH1 0x20 DUP9 ADD PUSH2 0x3BB9 JUMP JUMPDEST DUP4 MLOAD SWAP1 DUP4 ADD SWAP1 PUSH2 0x4AB2 DUP2 DUP4 PUSH1 0x20 DUP9 ADD PUSH2 0x3BB9 JUMP JUMPDEST ADD SWAP5 SWAP4 POP POP POP POP JUMP JUMPDEST PUSH1 0x20 DUP1 DUP3 MSTORE PUSH1 0x25 SWAP1 DUP3 ADD MSTORE PUSH32 0x4552433732313A207472616E736665722066726F6D20696E636F727265637420 PUSH1 0x40 DUP3 ADD MSTORE PUSH5 0x37BBB732B9 PUSH1 0xD9 SHL PUSH1 0x60 DUP3 ADD MSTORE PUSH1 0x80 ADD SWAP1 JUMP JUMPDEST PUSH1 0x20 DUP1 DUP3 MSTORE PUSH1 0x32 SWAP1 DUP3 ADD MSTORE PUSH32 0x4552433732313A207472616E7366657220746F206E6F6E204552433732315265 PUSH1 0x40 DUP3 ADD MSTORE PUSH18 0x31B2B4BB32B91034B6B83632B6B2B73A32B9 PUSH1 0x71 SHL PUSH1 0x60 DUP3 ADD MSTORE PUSH1 0x80 ADD SWAP1 JUMP JUMPDEST PUSH1 0x0 DUP3 DUP3 LT ISZERO PUSH2 0x4B64 JUMPI PUSH2 0x4B64 PUSH2 0x49F7 JUMP JUMPDEST POP SUB SWAP1 JUMP JUMPDEST PUSH1 0x1 PUSH1 0x1 PUSH1 0xA0 SHL SUB DUP6 DUP2 AND DUP3 MSTORE DUP5 AND PUSH1 0x20 DUP3 ADD MSTORE PUSH1 0x40 DUP2 ADD DUP4 SWAP1 MSTORE PUSH1 0x80 PUSH1 0x60 DUP3 ADD DUP2 SWAP1 MSTORE PUSH1 0x0 SWAP1 PUSH2 0x3DCC SWAP1 DUP4 ADD DUP5 PUSH2 0x3BE5 JUMP JUMPDEST PUSH1 0x0 PUSH1 0x20 DUP3 DUP5 SUB SLT ISZERO PUSH2 0x4BAE JUMPI PUSH1 0x0 DUP1 REVERT JUMPDEST DUP2 MLOAD PUSH2 0x2ABE DUP2 PUSH2 0x3B40 JUMP INVALID LOG2 PUSH5 0x6970667358 0x22 SLT KECCAK256 0x1F 0xD PUSH6 0x4550D4FD7CDF SWAP12 0xAE EXTCODEHASH DUP12 0xC7 0xDC 0x2E 0x4A 0xDA MUL 0x2D CHAINID MSIZE 0xDF DIV CHAINID 0xE5 SWAP16 0xE1 0x1E MULMOD 0xB6 0xB3 PUSH5 0x736F6C6343 STOP ADDMOD MULMOD STOP CALLER "},"methodIdentifiers":{"LandRegistration((address,uint256,string,string,string,string,uint256,uint256,uint256,uint256,string,string,string,string))":"f9374bca","LayoutCoordinates((string,string,string))":"9becbf58","TransferDocumentsToBuyer(address,string,uint256,string)":"b7e4ca1f","UserRegistration((string,string,string,uint256,uint256,string,string,string,address,string,string,string,string,string,string,string))":"65e48892","approve(address,uint256)":"095ea7b3","balanceOf(address)":"70a08231","checkUserAndIdVerification(address,uint256)":"900e3549","contractAdmin()":"77955245","createNftForRegisteredUsers(address,string)":"aab8431f","getAllIds()":"aaa44e5c","getAllUserAddresses()":"2f330023","getApproved(uint256)":"081812fc","getLandDetailsStruct(address,string)":"9c93a30b","getLayoutInformation(string)":"377c45d8","getUserDetailsStruct(address,uint256)":"0417b178","isApprovedForAll(address,address)":"e985e9c5","landOwnershipDetails(address,string)":"0712af96","name()":"06fdde03","ownerOf(uint256)":"6352211e","receivedDocumentVerification(address,string)":"ba8c156f","safeTransferFrom(address,address,uint256)":"42842e0e","safeTransferFrom(address,address,uint256,bytes)":"b88d4fde","setApprovalForAll(address,bool)":"a22cb465","supportsInterface(bytes4)":"01ffc9a7","symbol()":"95d89b41","tokenURI(uint256)":"c87b56dd","transferFrom(address,address,uint256)":"23b872dd","verifyUser(address)":"4d813120"}},"storageLayout":{"storage":[{"astId":388,"contract":"contracts/withoutMeta.sol:withoutMeta","label":"_name","offset":0,"slot":"0","type":"t_string_storage"},{"astId":390,"contract":"contracts/withoutMeta.sol:withoutMeta","label":"_symbol","offset":0,"slot":"1","type":"t_string_storage"},{"astId":394,"contract":"contracts/withoutMeta.sol:withoutMeta","label":"_owners","offset":0,"slot":"2","type":"t_mapping(t_uint256,t_address)"},{"astId":398,"contract":"contracts/withoutMeta.sol:withoutMeta","label":"_balances","offset":0,"slot":"3","type":"t_mapping(t_address,t_uint256)"},{"astId":402,"contract":"contracts/withoutMeta.sol:withoutMeta","label":"_tokenApprovals","offset":0,"slot":"4","type":"t_mapping(t_uint256,t_address)"},{"astId":408,"contract":"contracts/withoutMeta.sol:withoutMeta","label":"_operatorApprovals","offset":0,"slot":"5","type":"t_mapping(t_address,t_mapping(t_address,t_bool))"},{"astId":5056,"contract":"contracts/withoutMeta.sol:withoutMeta","label":"contractAdmin","offset":0,"slot":"6","type":"t_address"},{"astId":5059,"contract":"contracts/withoutMeta.sol:withoutMeta","label":"allUserAddresses","offset":0,"slot":"7","type":"t_array(t_address)dyn_storage"},{"astId":5061,"contract":"contracts/withoutMeta.sol:withoutMeta","label":"autoGenerateId","offset":0,"slot":"8","type":"t_uint256"},{"astId":5063,"contract":"contracts/withoutMeta.sol:withoutMeta","label":"nftAutoId","offset":0,"slot":"9","type":"t_uint256"},{"astId":5066,"contract":"contracts/withoutMeta.sol:withoutMeta","label":"autoIds","offset":0,"slot":"10","type":"t_array(t_uint256)dyn_storage"},{"astId":5189,"contract":"contracts/withoutMeta.sol:withoutMeta","label":"checkUserAddressAndIdLinked","offset":0,"slot":"11","type":"t_mapping(t_address,t_mapping(t_uint256,t_bool))"},{"astId":5196,"contract":"contracts/withoutMeta.sol:withoutMeta","label":"userInfoStruct","offset":0,"slot":"12","type":"t_mapping(t_address,t_mapping(t_uint256,t_struct(UserInformation)5123_storage))"},{"astId":5203,"contract":"contracts/withoutMeta.sol:withoutMeta","label":"landInfoStruct","offset":0,"slot":"13","type":"t_mapping(t_address,t_mapping(t_string_memory_ptr,t_struct(LandInformation)5152_storage))"},{"astId":5207,"contract":"contracts/withoutMeta.sol:withoutMeta","label":"userVerify","offset":0,"slot":"14","type":"t_mapping(t_address,t_bool)"},{"astId":5213,"contract":"contracts/withoutMeta.sol:withoutMeta","label":"landRegistered","offset":0,"slot":"15","type":"t_mapping(t_address,t_mapping(t_string_memory_ptr,t_bool))"},{"astId":5218,"contract":"contracts/withoutMeta.sol:withoutMeta","label":"currentLandOwner","offset":0,"slot":"16","type":"t_mapping(t_string_memory_ptr,t_struct(LandOwner)5159_storage)"},{"astId":5225,"contract":"contracts/withoutMeta.sol:withoutMeta","label":"docsReceived","offset":0,"slot":"17","type":"t_mapping(t_address,t_mapping(t_string_memory_ptr,t_struct(DocumentReceivedViaTransfer)5176_storage))"},{"astId":5229,"contract":"contracts/withoutMeta.sol:withoutMeta","label":"oldOwnerName","offset":0,"slot":"18","type":"t_mapping(t_string_memory_ptr,t_string_storage)"},{"astId":5235,"contract":"contracts/withoutMeta.sol:withoutMeta","label":"currentLandOwnerInfo","offset":0,"slot":"19","type":"t_mapping(t_string_memory_ptr,t_mapping(t_address,t_bool))"},{"astId":5240,"contract":"contracts/withoutMeta.sol:withoutMeta","label":"LayoutDetails","offset":0,"slot":"20","type":"t_mapping(t_string_memory_ptr,t_struct(LayoutInformation)5183_storage)"}],"types":{"t_address":{"encoding":"inplace","label":"address","numberOfBytes":"20"},"t_array(t_address)dyn_storage":{"base":"t_address","encoding":"dynamic_array","label":"address[]","numberOfBytes":"32"},"t_array(t_uint256)dyn_storage":{"base":"t_uint256","encoding":"dynamic_array","label":"uint256[]","numberOfBytes":"32"},"t_bool":{"encoding":"inplace","label":"bool","numberOfBytes":"1"},"t_mapping(t_address,t_bool)":{"encoding":"mapping","key":"t_address","label":"mapping(address => bool)","numberOfBytes":"32","value":"t_bool"},"t_mapping(t_address,t_mapping(t_address,t_bool))":{"encoding":"mapping","key":"t_address","label":"mapping(address => mapping(address => bool))","numberOfBytes":"32","value":"t_mapping(t_address,t_bool)"},"t_mapping(t_address,t_mapping(t_string_memory_ptr,t_bool))":{"encoding":"mapping","key":"t_address","label":"mapping(address => mapping(string => bool))","numberOfBytes":"32","value":"t_mapping(t_string_memory_ptr,t_bool)"},"t_mapping(t_address,t_mapping(t_string_memory_ptr,t_struct(DocumentReceivedViaTransfer)5176_storage))":{"encoding":"mapping","key":"t_address","label":"mapping(address => mapping(string => struct withoutMeta.DocumentReceivedViaTransfer))","numberOfBytes":"32","value":"t_mapping(t_string_memory_ptr,t_struct(DocumentReceivedViaTransfer)5176_storage)"},"t_mapping(t_address,t_mapping(t_string_memory_ptr,t_struct(LandInformation)5152_storage))":{"encoding":"mapping","key":"t_address","label":"mapping(address => mapping(string => struct withoutMeta.LandInformation))","numberOfBytes":"32","value":"t_mapping(t_string_memory_ptr,t_struct(LandInformation)5152_storage)"},"t_mapping(t_address,t_mapping(t_uint256,t_bool))":{"encoding":"mapping","key":"t_address","label":"mapping(address => mapping(uint256 => bool))","numberOfBytes":"32","value":"t_mapping(t_uint256,t_bool)"},"t_mapping(t_address,t_mapping(t_uint256,t_struct(UserInformation)5123_storage))":{"encoding":"mapping","key":"t_address","label":"mapping(address => mapping(uint256 => struct withoutMeta.UserInformation))","numberOfBytes":"32","value":"t_mapping(t_uint256,t_struct(UserInformation)5123_storage)"},"t_mapping(t_address,t_uint256)":{"encoding":"mapping","key":"t_address","label":"mapping(address => uint256)","numberOfBytes":"32","value":"t_uint256"},"t_mapping(t_string_memory_ptr,t_bool)":{"encoding":"mapping","key":"t_string_memory_ptr","label":"mapping(string => bool)","numberOfBytes":"32","value":"t_bool"},"t_mapping(t_string_memory_ptr,t_mapping(t_address,t_bool))":{"encoding":"mapping","key":"t_string_memory_ptr","label":"mapping(string => mapping(address => bool))","numberOfBytes":"32","value":"t_mapping(t_address,t_bool)"},"t_mapping(t_string_memory_ptr,t_string_storage)":{"encoding":"mapping","key":"t_string_memory_ptr","label":"mapping(string => string)","numberOfBytes":"32","value":"t_string_storage"},"t_mapping(t_string_memory_ptr,t_struct(DocumentReceivedViaTransfer)5176_storage)":{"encoding":"mapping","key":"t_string_memory_ptr","label":"mapping(string => struct withoutMeta.DocumentReceivedViaTransfer)","numberOfBytes":"32","value":"t_struct(DocumentReceivedViaTransfer)5176_storage"},"t_mapping(t_string_memory_ptr,t_struct(LandInformation)5152_storage)":{"encoding":"mapping","key":"t_string_memory_ptr","label":"mapping(string => struct withoutMeta.LandInformation)","numberOfBytes":"32","value":"t_struct(LandInformation)5152_storage"},"t_mapping(t_string_memory_ptr,t_struct(LandOwner)5159_storage)":{"encoding":"mapping","key":"t_string_memory_ptr","label":"mapping(string => struct withoutMeta.LandOwner)","numberOfBytes":"32","value":"t_struct(LandOwner)5159_storage"},"t_mapping(t_string_memory_ptr,t_struct(LayoutInformation)5183_storage)":{"encoding":"mapping","key":"t_string_memory_ptr","label":"mapping(string => struct withoutMeta.LayoutInformation)","numberOfBytes":"32","value":"t_struct(LayoutInformation)5183_storage"},"t_mapping(t_uint256,t_address)":{"encoding":"mapping","key":"t_uint256","label":"mapping(uint256 => address)","numberOfBytes":"32","value":"t_address"},"t_mapping(t_uint256,t_bool)":{"encoding":"mapping","key":"t_uint256","label":"mapping(uint256 => bool)","numberOfBytes":"32","value":"t_bool"},"t_mapping(t_uint256,t_struct(UserInformation)5123_storage)":{"encoding":"mapping","key":"t_uint256","label":"mapping(uint256 => struct withoutMeta.UserInformation)","numberOfBytes":"32","value":"t_struct(UserInformation)5123_storage"},"t_string_memory_ptr":{"encoding":"bytes","label":"string","numberOfBytes":"32"},"t_string_storage":{"encoding":"bytes","label":"string","numberOfBytes":"32"},"t_struct(DocumentReceivedViaTransfer)5176_storage":{"encoding":"inplace","label":"struct withoutMeta.DocumentReceivedViaTransfer","members":[{"astId":5161,"contract":"contracts/withoutMeta.sol:withoutMeta","label":"_firstname","offset":0,"slot":"0","type":"t_string_storage"},{"astId":5163,"contract":"contracts/withoutMeta.sol:withoutMeta","label":"_plotId","offset":0,"slot":"1","type":"t_string_storage"},{"astId":5165,"contract":"contracts/withoutMeta.sol:withoutMeta","label":"_walletAddress","offset":0,"slot":"2","type":"t_address"},{"astId":5167,"contract":"contracts/withoutMeta.sol:withoutMeta","label":"_transferDoc","offset":0,"slot":"3","type":"t_string_storage"},{"astId":5169,"contract":"contracts/withoutMeta.sol:withoutMeta","label":"_GRA","offset":0,"slot":"4","type":"t_string_storage"},{"astId":5171,"contract":"contracts/withoutMeta.sol:withoutMeta","label":"_MunicipalDoc","offset":0,"slot":"5","type":"t_string_storage"},{"astId":5173,"contract":"contracts/withoutMeta.sol:withoutMeta","label":"_OriginalCertificate","offset":0,"slot":"6","type":"t_string_storage"},{"astId":5175,"contract":"contracts/withoutMeta.sol:withoutMeta","label":"_time","offset":0,"slot":"7","type":"t_uint256"}],"numberOfBytes":"256"},"t_struct(LandInformation)5152_storage":{"encoding":"inplace","label":"struct withoutMeta.LandInformation","members":[{"astId":5125,"contract":"contracts/withoutMeta.sol:withoutMeta","label":"_walletAddress","offset":0,"slot":"0","type":"t_address"},{"astId":5127,"contract":"contracts/withoutMeta.sol:withoutMeta","label":"_uniqueId","offset":0,"slot":"1","type":"t_uint256"},{"astId":5129,"contract":"contracts/withoutMeta.sol:withoutMeta","label":"_capital","offset":0,"slot":"2","type":"t_string_storage"},{"astId":5131,"contract":"contracts/withoutMeta.sol:withoutMeta","label":"_plotId","offset":0,"slot":"3","type":"t_string_storage"},{"astId":5133,"contract":"contracts/withoutMeta.sol:withoutMeta","label":"_landType","offset":0,"slot":"4","type":"t_string_storage"},{"astId":5135,"contract":"contracts/withoutMeta.sol:withoutMeta","label":"_streetName","offset":0,"slot":"5","type":"t_string_storage"},{"astId":5137,"contract":"contracts/withoutMeta.sol:withoutMeta","label":"_areaOfLand","offset":0,"slot":"6","type":"t_uint256"},{"astId":5139,"contract":"contracts/withoutMeta.sol:withoutMeta","label":"_amountWillingToSell","offset":0,"slot":"7","type":"t_uint256"},{"astId":5141,"contract":"contracts/withoutMeta.sol:withoutMeta","label":"_requestedAmountForSales","offset":0,"slot":"8","type":"t_uint256"},{"astId":5143,"contract":"contracts/withoutMeta.sol:withoutMeta","label":"_timestampOfModification","offset":0,"slot":"9","type":"t_uint256"},{"astId":5145,"contract":"contracts/withoutMeta.sol:withoutMeta","label":"_transferDoc","offset":0,"slot":"10","type":"t_string_storage"},{"astId":5147,"contract":"contracts/withoutMeta.sol:withoutMeta","label":"_GRA","offset":0,"slot":"11","type":"t_string_storage"},{"astId":5149,"contract":"contracts/withoutMeta.sol:withoutMeta","label":"_MunicipalDoc","offset":0,"slot":"12","type":"t_string_storage"},{"astId":5151,"contract":"contracts/withoutMeta.sol:withoutMeta","label":"_OriginalCertificate","offset":0,"slot":"13","type":"t_string_storage"}],"numberOfBytes":"448"},"t_struct(LandOwner)5159_storage":{"encoding":"inplace","label":"struct withoutMeta.LandOwner","members":[{"astId":5154,"contract":"contracts/withoutMeta.sol:withoutMeta","label":"_plotId","offset":0,"slot":"0","type":"t_string_storage"},{"astId":5156,"contract":"contracts/withoutMeta.sol:withoutMeta","label":"_name","offset":0,"slot":"1","type":"t_string_storage"},{"astId":5158,"contract":"contracts/withoutMeta.sol:withoutMeta","label":"_userAddress","offset":0,"slot":"2","type":"t_address"}],"numberOfBytes":"96"},"t_struct(LayoutInformation)5183_storage":{"encoding":"inplace","label":"struct withoutMeta.LayoutInformation","members":[{"astId":5178,"contract":"contracts/withoutMeta.sol:withoutMeta","label":"_plotId","offset":0,"slot":"0","type":"t_string_storage"},{"astId":5180,"contract":"contracts/withoutMeta.sol:withoutMeta","label":"_coordinates","offset":0,"slot":"1","type":"t_string_storage"},{"astId":5182,"contract":"contracts/withoutMeta.sol:withoutMeta","label":"_pdf","offset":0,"slot":"2","type":"t_string_storage"}],"numberOfBytes":"96"},"t_struct(UserInformation)5123_storage":{"encoding":"inplace","label":"struct withoutMeta.UserInformation","members":[{"astId":5092,"contract":"contracts/withoutMeta.sol:withoutMeta","label":"_firstName","offset":0,"slot":"0","type":"t_string_storage"},{"astId":5094,"contract":"contracts/withoutMeta.sol:withoutMeta","label":"_lastName","offset":0,"slot":"1","type":"t_string_storage"},{"astId":5096,"contract":"contracts/withoutMeta.sol:withoutMeta","label":"_address","offset":0,"slot":"2","type":"t_string_storage"},{"astId":5098,"contract":"contracts/withoutMeta.sol:withoutMeta","label":"_ph_number","offset":0,"slot":"3","type":"t_uint256"},{"astId":5100,"contract":"contracts/withoutMeta.sol:withoutMeta","label":"_pincode","offset":0,"slot":"4","type":"t_uint256"},{"astId":5102,"contract":"contracts/withoutMeta.sol:withoutMeta","label":"_city","offset":0,"slot":"5","type":"t_string_storage"},{"astId":5104,"contract":"contracts/withoutMeta.sol:withoutMeta","label":"_country","offset":0,"slot":"6","type":"t_string_storage"},{"astId":5106,"contract":"contracts/withoutMeta.sol:withoutMeta","label":"_email","offset":0,"slot":"7","type":"t_string_storage"},{"astId":5108,"contract":"contracts/withoutMeta.sol:withoutMeta","label":"_walletAddress","offset":0,"slot":"8","type":"t_address"},{"astId":5110,"contract":"contracts/withoutMeta.sol:withoutMeta","label":"_dob","offset":0,"slot":"9","type":"t_string_storage"},{"astId":5112,"contract":"contracts/withoutMeta.sol:withoutMeta","label":"_gender","offset":0,"slot":"10","type":"t_string_storage"},{"astId":5114,"contract":"contracts/withoutMeta.sol:withoutMeta","label":"_age","offset":0,"slot":"11","type":"t_string_storage"},{"astId":5116,"contract":"contracts/withoutMeta.sol:withoutMeta","label":"_martial_status","offset":0,"slot":"12","type":"t_string_storage"},{"astId":5118,"contract":"contracts/withoutMeta.sol:withoutMeta","label":"_occupation","offset":0,"slot":"13","type":"t_string_storage"},{"astId":5120,"contract":"contracts/withoutMeta.sol:withoutMeta","label":"_national_id","offset":0,"slot":"14","type":"t_string_storage"},{"astId":5122,"contract":"contracts/withoutMeta.sol:withoutMeta","label":"_tin","offset":0,"slot":"15","type":"t_string_storage"}],"numberOfBytes":"512"},"t_uint256":{"encoding":"inplace","label":"uint256","numberOfBytes":"32"}}}}}}