{
  "_format": "hh-sol-artifact-1",
  "contractName": "Escrow",
  "sourceName": "contracts/Escrow.sol",
  "abi": [
    {
      "inputs": [
        {
          "internalType": "address",
          "name": "_registrationContract",
          "type": "address"
        },
        {
          "internalType": "address",
          "name": "_usdcAddress",
          "type": "address"
        }
      ],
      "stateMutability": "nonpayable",
      "type": "constructor"
    },
    {
      "anonymous": false,
      "inputs": [
        {
          "indexed": true,
          "internalType": "address",
          "name": "_ad",
          "type": "address"
        },
        {
          "indexed": true,
          "internalType": "uint256",
          "name": "_identificationNumber",
          "type": "uint256"
        }
      ],
      "name": "DepositedByBorrower",
      "type": "event"
    },
    {
      "anonymous": false,
      "inputs": [
        {
          "indexed": true,
          "internalType": "address",
          "name": "_fundProvider",
          "type": "address"
        },
        {
          "indexed": true,
          "internalType": "uint256",
          "name": "_tokens",
          "type": "uint256"
        },
        {
          "indexed": true,
          "internalType": "uint256",
          "name": "_success",
          "type": "uint256"
        }
      ],
      "name": "investedByFundProvider",
      "type": "event"
    },
    {
      "inputs": [
        {
          "internalType": "address",
          "name": "",
          "type": "address"
        },
        {
          "internalType": "string",
          "name": "",
          "type": "string"
        }
      ],
      "name": "borrowerIdentityNumber",
      "outputs": [
        {
          "internalType": "uint256",
          "name": "",
          "type": "uint256"
        }
      ],
      "stateMutability": "view",
      "type": "function"
    },
    {
      "inputs": [
        {
          "internalType": "address",
          "name": "",
          "type": "address"
        },
        {
          "internalType": "string",
          "name": "",
          "type": "string"
        }
      ],
      "name": "businessRisk",
      "outputs": [
        {
          "internalType": "string",
          "name": "",
          "type": "string"
        }
      ],
      "stateMutability": "view",
      "type": "function"
    },
    {
      "inputs": [
        {
          "internalType": "uint256",
          "name": "_identificationNumber",
          "type": "uint256"
        },
        {
          "internalType": "address",
          "name": "_fundProvider",
          "type": "address"
        }
      ],
      "name": "claimTokenFromFundProvider",
      "outputs": [],
      "stateMutability": "nonpayable",
      "type": "function"
    },
    {
      "inputs": [],
      "name": "collateralPercentage",
      "outputs": [
        {
          "internalType": "uint256",
          "name": "",
          "type": "uint256"
        }
      ],
      "stateMutability": "view",
      "type": "function"
    },
    {
      "inputs": [
        {
          "internalType": "uint256",
          "name": "_askingMoney",
          "type": "uint256"
        },
        {
          "internalType": "string",
          "name": "_businessName",
          "type": "string"
        },
        {
          "internalType": "string",
          "name": "_risk",
          "type": "string"
        },
        {
          "internalType": "uint256",
          "name": "_dueNos",
          "type": "uint256"
        },
        {
          "internalType": "uint256",
          "name": "_matureDate",
          "type": "uint256"
        }
      ],
      "name": "depositByBorrower",
      "outputs": [],
      "stateMutability": "nonpayable",
      "type": "function"
    },
    {
      "inputs": [
        {
          "internalType": "uint256",
          "name": "_amount",
          "type": "uint256"
        },
        {
          "internalType": "string",
          "name": "_bondType",
          "type": "string"
        },
        {
          "internalType": "uint256",
          "name": "_identificationNumber",
          "type": "uint256"
        }
      ],
      "name": "depositByFundProvider",
      "outputs": [],
      "stateMutability": "nonpayable",
      "type": "function"
    },
    {
      "inputs": [
        {
          "internalType": "address",
          "name": "_borrower",
          "type": "address"
        },
        {
          "internalType": "uint256",
          "name": "_identificationNumber",
          "type": "uint256"
        }
      ],
      "name": "depositCollateralToFundProvider",
      "outputs": [],
      "stateMutability": "nonpayable",
      "type": "function"
    },
    {
      "inputs": [
        {
          "internalType": "uint256",
          "name": "_amount",
          "type": "uint256"
        }
      ],
      "name": "depositTreasury",
      "outputs": [],
      "stateMutability": "nonpayable",
      "type": "function"
    },
    {
      "inputs": [
        {
          "internalType": "address",
          "name": "_user",
          "type": "address"
        },
        {
          "internalType": "uint256",
          "name": "_identificationNumber",
          "type": "uint256"
        }
      ],
      "name": "enquiryFundDetailsFundProvider",
      "outputs": [
        {
          "components": [
            {
              "internalType": "address",
              "name": "_loanProviderAddress",
              "type": "address"
            },
            {
              "internalType": "uint256",
              "name": "_identityNumber",
              "type": "uint256"
            },
            {
              "internalType": "uint256",
              "name": "_duration",
              "type": "uint256"
            },
            {
              "internalType": "uint256",
              "name": "_amountInvested",
              "type": "uint256"
            },
            {
              "internalType": "uint256",
              "name": "_interestPercentage",
              "type": "uint256"
            },
            {
              "internalType": "uint256",
              "name": "_collectedTax",
              "type": "uint256"
            },
            {
              "internalType": "uint256",
              "name": "_actualAmountInvested",
              "type": "uint256"
            },
            {
              "internalType": "string",
              "name": "_selectedBond",
              "type": "string"
            },
            {
              "internalType": "uint256",
              "name": "_speculatingInterestAndPrincipal",
              "type": "uint256"
            }
          ],
          "internalType": "struct Escrow.LoanProviderRecord",
          "name": "details",
          "type": "tuple"
        }
      ],
      "stateMutability": "view",
      "type": "function"
    },
    {
      "inputs": [
        {
          "internalType": "address",
          "name": "",
          "type": "address"
        },
        {
          "internalType": "uint256",
          "name": "",
          "type": "uint256"
        }
      ],
      "name": "finalBalance",
      "outputs": [
        {
          "internalType": "uint256",
          "name": "",
          "type": "uint256"
        }
      ],
      "stateMutability": "view",
      "type": "function"
    },
    {
      "inputs": [],
      "name": "getContractBalance",
      "outputs": [
        {
          "internalType": "uint256",
          "name": "",
          "type": "uint256"
        }
      ],
      "stateMutability": "view",
      "type": "function"
    },
    {
      "inputs": [],
      "name": "interestPercForBorrowerWhileRetuning",
      "outputs": [
        {
          "internalType": "uint256",
          "name": "",
          "type": "uint256"
        }
      ],
      "stateMutability": "view",
      "type": "function"
    },
    {
      "inputs": [
        {
          "internalType": "address",
          "name": "_borrower",
          "type": "address"
        },
        {
          "internalType": "uint256",
          "name": "_identificationNumber",
          "type": "uint256"
        }
      ],
      "name": "readDashboardBorrower",
      "outputs": [
        {
          "internalType": "string",
          "name": "businessName",
          "type": "string"
        },
        {
          "internalType": "uint256",
          "name": "askingTokenValue",
          "type": "uint256"
        },
        {
          "internalType": "uint256",
          "name": "totalAmountInvestedForThisIndentity",
          "type": "uint256"
        }
      ],
      "stateMutability": "view",
      "type": "function"
    },
    {
      "inputs": [
        {
          "internalType": "address",
          "name": "_borrower",
          "type": "address"
        },
        {
          "internalType": "uint256",
          "name": "_identificationNumber",
          "type": "uint256"
        }
      ],
      "name": "readDetailsForBorrower",
      "outputs": [
        {
          "internalType": "uint256",
          "name": "collateralAmt",
          "type": "uint256"
        },
        {
          "internalType": "uint256",
          "name": "fundToBeRaised",
          "type": "uint256"
        },
        {
          "internalType": "uint256",
          "name": "interestRate",
          "type": "uint256"
        },
        {
          "internalType": "uint256",
          "name": "perDueAmount",
          "type": "uint256"
        },
        {
          "internalType": "uint256",
          "name": "principalAndInterestToPay",
          "type": "uint256"
        },
        {
          "internalType": "uint256",
          "name": "maturityDate",
          "type": "uint256"
        }
      ],
      "stateMutability": "view",
      "type": "function"
    },
    {
      "inputs": [
        {
          "internalType": "address",
          "name": "_fundProvider",
          "type": "address"
        },
        {
          "internalType": "uint256",
          "name": "_identificationNumber",
          "type": "uint256"
        }
      ],
      "name": "readDetailsPageFundProvider",
      "outputs": [
        {
          "internalType": "uint256",
          "name": "investedAmount",
          "type": "uint256"
        },
        {
          "internalType": "uint256",
          "name": "interestRate",
          "type": "uint256"
        },
        {
          "internalType": "string",
          "name": "riskLevel",
          "type": "string"
        },
        {
          "internalType": "uint256",
          "name": "principalAndInterest",
          "type": "uint256"
        },
        {
          "internalType": "uint256",
          "name": "maturityDate",
          "type": "uint256"
        }
      ],
      "stateMutability": "view",
      "type": "function"
    },
    {
      "inputs": [],
      "name": "registrationContractAddress",
      "outputs": [
        {
          "internalType": "address",
          "name": "",
          "type": "address"
        }
      ],
      "stateMutability": "view",
      "type": "function"
    },
    {
      "inputs": [
        {
          "internalType": "uint256",
          "name": "_identificationNumber",
          "type": "uint256"
        }
      ],
      "name": "releasePaymentToFundProvider",
      "outputs": [],
      "stateMutability": "nonpayable",
      "type": "function"
    },
    {
      "inputs": [
        {
          "internalType": "address",
          "name": "",
          "type": "address"
        },
        {
          "internalType": "uint256",
          "name": "",
          "type": "uint256"
        }
      ],
      "name": "remainingBalanceForBorrower",
      "outputs": [
        {
          "internalType": "uint256",
          "name": "",
          "type": "uint256"
        }
      ],
      "stateMutability": "view",
      "type": "function"
    },
    {
      "inputs": [
        {
          "internalType": "uint256",
          "name": "_identificationNumber",
          "type": "uint256"
        }
      ],
      "name": "repayBorrowedLoan",
      "outputs": [],
      "stateMutability": "nonpayable",
      "type": "function"
    },
    {
      "inputs": [
        {
          "internalType": "address",
          "name": "",
          "type": "address"
        },
        {
          "internalType": "uint256",
          "name": "",
          "type": "uint256"
        }
      ],
      "name": "statusOfBorrower",
      "outputs": [
        {
          "internalType": "bool",
          "name": "",
          "type": "bool"
        }
      ],
      "stateMutability": "view",
      "type": "function"
    },
    {
      "inputs": [],
      "name": "taxedTokens",
      "outputs": [
        {
          "internalType": "uint256",
          "name": "",
          "type": "uint256"
        }
      ],
      "stateMutability": "view",
      "type": "function"
    },
    {
      "inputs": [],
      "name": "tokensInPool",
      "outputs": [
        {
          "internalType": "uint256",
          "name": "",
          "type": "uint256"
        }
      ],
      "stateMutability": "view",
      "type": "function"
    },
    {
      "inputs": [],
      "name": "usdcAddress",
      "outputs": [
        {
          "internalType": "contract IERC20",
          "name": "",
          "type": "address"
        }
      ],
      "stateMutability": "view",
      "type": "function"
    },
    {
      "inputs": [
        {
          "internalType": "uint256",
          "name": "_identificationNumber",
          "type": "uint256"
        }
      ],
      "name": "withdrawCollateralByBorrower",
      "outputs": [],
      "stateMutability": "nonpayable",
      "type": "function"
    }
  ],
  "bytecode": "0x60c060405260036080819052626c6f7760e81b60a09081526200002691600291906200016e565b50604080518082019091526006808252656d656469756d60d01b602090920191825262000056916003916200016e565b50604080518082019091526004808252630d0d2ced60e31b60209092019182526200008291816200016e565b50601e600855600b6009553480156200009a57600080fd5b506040516200246438038062002464833981016040819052620000bd9162000231565b600080546001600160a01b038085166001600160a01b031992831617909255600180549284169290911691909117905560646005908155604051600a906200010890600290620002a6565b908152602001604051809103902081905550600a8060036040516200012e9190620002a6565b9081526020016040518091039020819055506014600a6004604051620001559190620002a6565b90815260405190819003602001902055506200034a9050565b8280546200017c9062000269565b90600052602060002090601f016020900481019282620001a05760008555620001eb565b82601f10620001bb57805160ff1916838001178555620001eb565b82800160010185558215620001eb579182015b82811115620001eb578251825591602001919060010190620001ce565b50620001f9929150620001fd565b5090565b5b80821115620001f95760008155600101620001fe565b80516001600160a01b03811681146200022c57600080fd5b919050565b600080604083850312156200024557600080fd5b620002508362000214565b9150620002606020840162000214565b90509250929050565b600181811c908216806200027e57607f821691505b60208210811415620002a057634e487b7160e01b600052602260045260246000fd5b50919050565b600080835481600182811c915080831680620002c357607f831692505b6020808410821415620002e457634e487b7160e01b86526022600452602486fd5b818015620002fb57600181146200030d576200033c565b60ff198616895284890196506200033c565b60008a81526020902060005b86811015620003345781548b82015290850190830162000319565b505084890196505b509498975050505050505050565b61210a806200035a6000396000f3fe608060405234801561001057600080fd5b50600436106101585760003560e01c8063aa301c85116100c3578063e4fca76a1161007c578063e4fca76a146103a1578063e90d79d4146103b4578063ea9b2d8e146103c7578063eb356404146103da578063f4e2c05d146103fe578063fb04a8841461041157600080fd5b8063aa301c85146102d0578063bd12240a146102fb578063c6ed8f5e1461030e578063d59324e91461034c578063d5adf0331461035f578063dd18ba2b1461037f57600080fd5b806368254e641161011557806368254e64146101de5780636d40111f146102095780636f9fb98a1461021c57806376d628b7146102245780637ee222d31461022d5780638b71a5991461024d57600080fd5b806302d454571461015d5780631551e2de1461018d5780631c3e323a146101a2578063308352e8146101b557806332182225146101cc57806340e1e4c7146101d5575b600080fd5b600154610170906001600160a01b031681565b6040516001600160a01b0390911681526020015b60405180910390f35b6101a061019b366004611b28565b61044d565b005b6101a06101b0366004611b5d565b61053c565b6101be60085481565b604051908152602001610184565b6101be60095481565b6101be60075481565b6101be6101ec366004611b89565b600e60209081526000928352604080842090915290825290205481565b600054610170906001600160a01b031681565b6101be610703565b6101be60065481565b61024061023b366004611b89565b610784565b6040516101849190611c0b565b6102a361025b366004611b89565b6001600160a01b03919091166000908152600f60209081526040808320938352929052206002810154815460095460078401546008850154600a909501549395929491939092565b604080519687526020870195909552938501929092526060840152608083015260a082015260c001610184565b6101be6102de366004611b89565b601260209081526000928352604080842090915290825290205481565b6101a0610309366004611b28565b6108fa565b61033c61031c366004611b89565b601360209081526000928352604080842090915290825290205460ff1681565b6040519015158152602001610184565b6101a061035a366004611b28565b6109b6565b61037261036d366004611d34565b610bb8565b6040516101849190611d82565b61039261038d366004611b89565b610c6e565b60405161018493929190611d9c565b6101a06103af366004611b89565b610d43565b6101a06103c2366004611dc1565b610f26565b6101a06103d5366004611b28565b61134f565b6103ed6103e8366004611b89565b61158b565b604051610184959493929190611e11565b6101a061040c366004611e44565b611678565b6101be61041f366004611d34565b6010602090815260009283526040909220815180830184018051928152908401929093019190912091525481565b33600090815260126020908152604080832084845290915290205461053957336000818152600f60209081526040808320858452909152908190206002015460015491516323b872dd60e01b815290926001600160a01b03909216916323b872dd916104c0919030908690600401611ec3565b602060405180830381600087803b1580156104da57600080fd5b505af11580156104ee573d6000803e3d6000fd5b505050506040513d601f19601f820116820180604052508101906105129190611ee7565b6105375760405162461bcd60e51b815260040161052e90611f09565b60405180910390fd5b505b50565b6000546040516350d5740f60e01b81523360048201526001600160a01b039091169081906350d5740f9060240160206040518083038186803b15801561058157600080fd5b505afa158015610595573d6000803e3d6000fd5b505050506040513d601f19601f820116820180604052508101906105b99190611ee7565b6105d55760405162461bcd60e51b815260040161052e90611f40565b6001600160a01b0382166000908152600b6020908152604080832086845290915290205460ff166106385760405162461bcd60e51b815260206004820152600d60248201526c191d595cc8185c99481c185a59609a1b604482015260640161052e565b6001600160a01b038281166000908152600c602090815260408083208784529091529081902060060154600154915163a9059cbb60e01b8152336004820152602481018290529092919091169063a9059cbb906044015b602060405180830381600087803b1580156106a957600080fd5b505af11580156106bd573d6000803e3d6000fd5b505050506040513d601f19601f820116820180604052508101906106e19190611ee7565b6106fd5760405162461bcd60e51b815260040161052e90611f09565b50505050565b6001546040516370a0823160e01b81523060048201526000916001600160a01b0316906370a082319060240160206040518083038186803b15801561074757600080fd5b505afa15801561075b573d6000803e3d6000fd5b505050506040513d601f19601f8201168201806040525081019061077f9190611f8f565b905090565b6107dc60405180610120016040528060006001600160a01b0316815260200160008152602001600081526020016000815260200160008152602001600081526020016000815260200160608152602001600081525090565b6001600160a01b038084166000908152600c60209081526040808320868452825291829020825161012081018452815490941684526001810154918401919091526002810154918301919091526003810154606083015260048101546080830152600581015460a0830152600681015460c083015260078101805460e08401919061086690611fa8565b80601f016020809104026020016040519081016040528092919081815260200182805461089290611fa8565b80156108df5780601f106108b4576101008083540402835291602001916108df565b820191906000526020600020905b8154815290600101906020018083116108c257829003601f168201915b50505050508152602001600882015481525050905092915050565b6001546040516323b872dd60e01b81526001600160a01b03909116906323b872dd9061092e90339030908690600401611ec3565b602060405180830381600087803b15801561094857600080fd5b505af115801561095c573d6000803e3d6000fd5b505050506040513d601f19601f820116820180604052508101906109809190611ee7565b61099c5760405162461bcd60e51b815260040161052e90611f09565b80600760008282546109ae9190611ff9565b909155505050565b336000908152600b6020908152604080832084845290915290205460ff16610a145760405162461bcd60e51b815260206004820152601160248201527020b63932b0b23c903bb4ba34323930bbb760791b604482015260640161052e565b336000908152600c60209081526040808320848452909152902060020154421015610a815760405162461bcd60e51b815260206004820152601960248201527f54696d6520686173206e6f742065786365656465642079657400000000000000604482015260640161052e565b336000818152600e602090815260408083208584529091529081902054600154915163a9059cbb60e01b8152600481019390935260248301819052916001600160a01b039091169063a9059cbb90604401602060405180830381600087803b158015610aec57600080fd5b505af1158015610b00573d6000803e3d6000fd5b505050506040513d601f19601f82011682018060405250810190610b249190611ee7565b610b7a5760405162461bcd60e51b815260206004820152602160248201527f546f6b656e207472616e73666572206661696c6564206f7220726576657274656044820152601960fa1b606482015260840161052e565b8060076000828254610b8c9190612011565b9091555050336000908152600b6020908152604080832094835293905291909120805460ff1916905550565b6011602090815260009283526040909220815180830184018051928152908401929093019190912091528054610bed90611fa8565b80601f0160208091040260200160405190810160405280929190818152602001828054610c1990611fa8565b8015610c665780601f10610c3b57610100808354040283529160200191610c66565b820191906000526020600020905b815481529060010190602001808311610c4957829003601f168201915b505050505081565b6001600160a01b0382166000908152600f60209081526040808320848452825280832080546014909352908320546001909101805460609493849390918390610cb690611fa8565b80601f0160208091040260200160405190810160405280929190818152602001828054610ce290611fa8565b8015610d2f5780601f10610d0457610100808354040283529160200191610d2f565b820191906000526020600020905b815481529060010190602001808311610d1257829003601f168201915b505050505092509250925092509250925092565b60005460405163b5f4488560e01b81523360048201526001600160a01b0390911690819063b5f448859060240160206040518083038186803b158015610d8857600080fd5b505afa158015610d9c573d6000803e3d6000fd5b505050506040513d601f19601f82011682018060405250810190610dc09190611ee7565b610ddc5760405162461bcd60e51b815260040161052e90612028565b336000908152600b6020908152604080832085845290915290205460ff16610e625760405162461bcd60e51b815260206004820152603360248201527f4964656e74696669636174696f6e206973206e6f74206c696e6b656420796574604482015272103bb4ba3410333ab73210383937bb34b232b960691b606482015260840161052e565b6001600160a01b038316600090815260126020908152604080832085845290915290205415610ed35760405162461bcd60e51b815260206004820152601a60248201527f43616e6e6f7420776974686472617720636f6c6c61746572616c000000000000604482015260640161052e565b336000818152600f60209081526040808320868452909152908190206002015460015491516323b872dd60e01b815290926001600160a01b03909216916323b872dd9161068f9130918690600401611ec3565b60005460405163b5f4488560e01b81523360048201526001600160a01b0390911690819063b5f448859060240160206040518083038186803b158015610f6b57600080fd5b505afa158015610f7f573d6000803e3d6000fd5b505050506040513d601f19601f82011682018060405250810190610fa39190611ee7565b610fbf5760405162461bcd60e51b815260040161052e90612028565b336000818152600b602090815260408083208684528252808320805460ff19166001908117909155848452600c835281842087855290925290912080546001600160a01b03191690921782550182905561101a4260b4611ff9565b336000908152600c60209081526040808320868452909152908190206002810192909255600390910185905551600a90611055908590612077565b908152604080516020928190038301902054336000908152600c84528281208682529093529120600481019190915560030154606490611096906001612093565b6110a091906120b2565b336000908152600c602090815260408083208684529091528120600501829055600680549091906110d2908490611ff9565b9091555050336000908152600c602090815260408083208584528252909120845161110592600790920191860190611a8f565b50336000908152600c60209081526040808320858452909152902060058101546003909101546111359190612011565b336000908152600c60209081526040808320868452825280832060060184905560149091528120805490919061116c908490611ff9565b9091555050336000908152600c6020908152604080832085845290915281206006015460078054919290916111a2908490611ff9565b9091555050336000908152600c60209081526040808320858452909152812060048101546006909101546064916111d891612093565b6111e291906120b2565b336000908152600c6020908152604080832087845290915290206006015490915061120e908290611ff9565b336000908152600c60209081526040808320878452909152902060088101919091556006015461123f908290611ff9565b336000818152600e60209081526040808320888452825280832094909455828252600d815283822080546001808201835591845291909220018690555491516323b872dd60e01b81526001600160a01b03909216916323b872dd916112aa9130908a90600401611ec3565b602060405180830381600087803b1580156112c457600080fd5b505af11580156112d8573d6000803e3d6000fd5b505050506040513d601f19601f820116820180604052508101906112fc9190611ee7565b6113185760405162461bcd60e51b815260040161052e90611f09565b60405160c890869033907feeed0c4b0fe13660511b06c2da029de353ccceee62a67861786241bf2ebd598e90600090a45050505050565b6000546040516350d5740f60e01b81523360048201526001600160a01b039091169081906350d5740f9060240160206040518083038186803b15801561139457600080fd5b505afa1580156113a8573d6000803e3d6000fd5b505050506040513d601f19601f820116820180604052508101906113cc9190611ee7565b6113e85760405162461bcd60e51b815260040161052e90611f40565b3360009081526012602090815260408083208584529091529020546114435760405162461bcd60e51b8152602060048201526011602482015270105b1b08191d595cc8185c99481c185a59607a1b604482015260640161052e565b3360009081526012602090815260408083208584529091529020541561053757336000818152600f60209081526040808320868452909152908190206007015460015491516323b872dd60e01b815290926001600160a01b03909216916323b872dd916114b7919030908690600401611ec3565b602060405180830381600087803b1580156114d157600080fd5b505af11580156114e5573d6000803e3d6000fd5b505050506040513d601f19601f820116820180604052508101906115099190611ee7565b6115255760405162461bcd60e51b815260040161052e90611f09565b336000908152600f6020908152604080832086845290915281206008018054839290611552908490612011565b909155505033600090815260126020908152604080832086845290915281208054839290611581908490612011565b9091555050505050565b6001600160a01b0382166000908152600c6020908152604080832084845290915281206003810154600482015460088301546002840154600790940180548695606095879586959194909390929083906115e490611fa8565b80601f016020809104026020016040519081016040528092919081815260200182805461161090611fa8565b801561165d5780601f106116325761010080835404028352916020019161165d565b820191906000526020600020905b81548152906001019060200180831161164057829003601f168201915b50505050509250945094509450945094509295509295909350565b6000546040516350d5740f60e01b81523360048201526001600160a01b039091169081906350d5740f9060240160206040518083038186803b1580156116bd57600080fd5b505afa1580156116d1573d6000803e3d6000fd5b505050506040513d601f19601f820116820180604052508101906116f59190611ee7565b6117115760405162461bcd60e51b815260040161052e90611f40565b60055461171f906001611ff9565b6005556008546000906064906117359089612093565b61173f91906120b2565b905060006064611750836001612093565b61175a91906120b2565b9050806006600082825461176e9190611ff9565b90915550600090506117808284612011565b9050600061178e838b612011565b905089600f6000336001600160a01b03166001600160a01b03168152602001908152602001600020600060055481526020019081526020016000206000018190555088600f6000336001600160a01b03166001600160a01b0316815260200190815260200160002060006005548152602001908152602001600020600101908051906020019061181f929190611a8f565b50336000908152600f6020908152604080832060058054855290835281842060020186905580548085529190932060038101919091558a516118689391909101918b0190611a8f565b50336000908152600f6020908152604080832060058054855292528083206004018690559054825281206006018890556009546064906118a89084612093565b6118b291906120b2565b905060006118c0828d611ff9565b905060006118ce8a836120b2565b336000818152600f602090815260408083206005805485529083528184206007018690558054845281842060080188905580548452818420600a018f9055549383526010909152908190209051929350909161192b908f90612077565b908152604080516020928190038301812093909355336000908152601190925290208c9161195a908f90612077565b9081526020016040518091039020908051906020019061197b929190611a8f565b50336000818152600f6020908152604080832060055480855290835281842060080154858552601284528285209185529252918290205560015490516323b872dd60e01b81526001600160a01b03909116916323b872dd916119e4919030908a90600401611ec3565b602060405180830381600087803b1580156119fe57600080fd5b505af1158015611a12573d6000803e3d6000fd5b505050506040513d601f19601f82011682018060405250810190611a369190611ee7565b611a525760405162461bcd60e51b815260040161052e90611f09565b60055460405133907fda22cea5a2a648e8ede8d3bf25fb058e5b8e6f1e9cfbdbd64cc8e90e61b75d3490600090a350505050505050505050505050565b828054611a9b90611fa8565b90600052602060002090601f016020900481019282611abd5760008555611b03565b82601f10611ad657805160ff1916838001178555611b03565b82800160010185558215611b03579182015b82811115611b03578251825591602001919060010190611ae8565b50611b0f929150611b13565b5090565b5b80821115611b0f5760008155600101611b14565b600060208284031215611b3a57600080fd5b5035919050565b80356001600160a01b0381168114611b5857600080fd5b919050565b60008060408385031215611b7057600080fd5b82359150611b8060208401611b41565b90509250929050565b60008060408385031215611b9c57600080fd5b611ba583611b41565b946020939093013593505050565b60005b83811015611bce578181015183820152602001611bb6565b838111156106fd5750506000910152565b60008151808452611bf7816020860160208601611bb3565b601f01601f19169290920160200192915050565b60208152611c256020820183516001600160a01b03169052565b602082015160408201526040820151606082015260608201516080820152608082015160a082015260a082015160c082015260c082015160e0820152600060e08301516101206101008181860152611c81610140860184611bdf565b9501519301929092525090919050565b634e487b7160e01b600052604160045260246000fd5b600082601f830112611cb857600080fd5b813567ffffffffffffffff80821115611cd357611cd3611c91565b604051601f8301601f19908116603f01168101908282118183101715611cfb57611cfb611c91565b81604052838152866020858801011115611d1457600080fd5b836020870160208301376000602085830101528094505050505092915050565b60008060408385031215611d4757600080fd5b611d5083611b41565b9150602083013567ffffffffffffffff811115611d6c57600080fd5b611d7885828601611ca7565b9150509250929050565b602081526000611d956020830184611bdf565b9392505050565b606081526000611daf6060830186611bdf565b60208301949094525060400152919050565b600080600060608486031215611dd657600080fd5b83359250602084013567ffffffffffffffff811115611df457600080fd5b611e0086828701611ca7565b925050604084013590509250925092565b85815284602082015260a060408201526000611e3060a0830186611bdf565b606083019490945250608001529392505050565b600080600080600060a08688031215611e5c57600080fd5b85359450602086013567ffffffffffffffff80821115611e7b57600080fd5b611e8789838a01611ca7565b95506040880135915080821115611e9d57600080fd5b50611eaa88828901611ca7565b9598949750949560608101359550608001359392505050565b6001600160a01b039384168152919092166020820152604081019190915260600190565b600060208284031215611ef957600080fd5b81518015158114611d9557600080fd5b6020808252601e908201527f7472616e73616374696f6e206661696c6564206f722072657665727465640000604082015260600190565b6020808252602f908201527f546865206c6f616e20626f72726f7765722061646472657373206973206e6f7460408201526e081c9959da5cdd195c9959081e595d608a1b606082015260800190565b600060208284031215611fa157600080fd5b5051919050565b600181811c90821680611fbc57607f821691505b60208210811415611fdd57634e487b7160e01b600052602260045260246000fd5b50919050565b634e487b7160e01b600052601160045260246000fd5b6000821982111561200c5761200c611fe3565b500190565b60008282101561202357612023611fe3565b500390565b6020808252602f908201527f546865206c6f616e2070726f76696465722061646472657373206973206e6f7460408201526e081c9959da5cdd195c9959081e595d608a1b606082015260800190565b60008251612089818460208701611bb3565b9190910192915050565b60008160001904831182151516156120ad576120ad611fe3565b500290565b6000826120cf57634e487b7160e01b600052601260045260246000fd5b50049056fea264697066735822122031f9eb2a8555db98398a4fef171c2c1f904c5c775c7ec7ed9e56d99fe08bb71564736f6c63430008090033",
  "linkReferences": {},
  "deployedLinkReferences": {}
}